:020000040000FA
:0600000002111302073992
:03002B000210C2FE
:03003300020D00BB
:03004300020F4564
:03004B00020DC5DE
:0300530002068C16
:03005B00020DD4BF
:03006300020DE0AB
:03006B00020CE69E
:100083000206D50101FF01010503010F10FEFF0365
:100093000003000300030003000300030003000345
:1000A3000005000A00140028004F009E0000001BFA
:1000B3001A1B1A1B1A1B1ADD18D7181B1A4D2800F6
:1000C3000000008927000000000C0000000C000164
:1000D300CA06FF02000102001C140000008F146412
:1000E300000202000800000502071E02051E020AA4
:1000F30003B80B02803E0103320002F1FF02020645
:10010300000020410000803FCDCCCC3D12115F6048
:100113001D1211417005191919801A120FB2701F9F
:10012300120F9DC37003E667331919194007181896
:10013300182208080874FFF618F618F618F62212A3
:100143000F9D60171211BF702192F01211B5701933
:10015300501720F014080808090909E7F61819E7E9
:10016300F61819E7F61819E7F6221211B560E6E852
:1001730069701F0808E62480F608E436F618547FF1
:10018300B47F0CE654806007F6E418F618F62218DC
:100193001822E9C6CC08C6CD08C6CE08C6CFC0E033
:1001A300E8C0E0EAC0E0EBC0E009E9F809E7FA09D2
:1001B300E7FBE6F918E6F8C3EC98ED99EE9AEBC283
:1001C300E7F5F0EFC2E795F0500E600CEBCFFBEADA
:1001D300CEFAE9CDF9E8CCF8EAA2E7D2E7FAEB33B5
:1001E300FB13F5F0EEA2E7D2E7FEEF33FFC5F01302
:1001F300A2E730E601B313C5F0C3C0E0C0F07F004F
:10020300C39BFB605B9418600C401AD0E023F9D0C9
:10021300E0F80202ED8AF0E9486003D2F0E4AFF0BF
:10022300FAF9F8803BEB30E40D89F0EA6003D2F091
:10023300E4AFF0F9CAF8EB30E30D88F0EF6002D2D7
:10024300F0AFF0E4CAC9F8EB54076014FBC3EA1338
:10025300FAE913F9E813F8EF135002D2E0FFDBEDEC
:10026300D0E0C0E030E739C3E49FFFF5F0EC98FC41
:1002730042F0ED99FD42F0EE9AFE42F0D0E0F9D063
:10028300E0F8E5F0607AE923F9EE20E742D802804E
:1002930067C3EF33FFEC33FCED33FDEE33FE80EA4F
:1002A300EC28FCED39FDEE3AFED0E023F9D0E0F87E
:1002B3004002801BC3EE13FEED13FDEC13FCEF13A2
:1002C3005002D2E0FF08B800067F7F74FF802EEF54
:1002D3003350178CF020F00260100CBC000C0DBDE5
:1002E30000080EBE000408E860DFE933E813FFEE00
:1002F3002313FE4F4D4C8008E95480FFE4FEFDFCC0
:10030300EE33EF33F47004FCFD7E80D0E0FBD0E0ED
:10031300FAD0E0F8D0E0CFC618CEC618CDC618CCB8
:10032300C6F92212115F70041818182212114170B5
:100333000D74FFF61819F61819F61819F622E75472
:100343008066F61211B5700F1211BF70F014F60823
:10035300F608F608F680D11211BF700CF608F608FD
:10036300768008E6447F80EC120FA0700C120FB564
:1003730060BFE65480F6E480BB120FB5700519190F
:100383001980A5E869700C763F18768018F618F680
:10039300E8F922E6CDC0E018ECC0E0E633CD33CD7A
:1003A300D313F6E719FCE7191933CC33C3947F4011
:1003B3000ECD9D502408E65480F6E418F6800FF421
:1003C300043D14501408E6447FF6187680E418F6CA
:1003D30018F6D0E0FCD0E0FD22CCD313CCFD18E41A
:1003E300C6CBC0E018E4C6CAC0E00808ED08C633AF
:1003F300E613F618E433C675F003C3CA97CA09CBEC
:1004030097CB199C40047D08802EBD00030204CFC6
:1004130016B6FF050606081618C3CA33CACB33CB74
:1004230033CA27CA09CB37CB193CC37D08803E1892
:100433007D0820E75CC633C6CA33CACB33CB33DD72
:10044300F1D5F0EB30E77BCA97CA09CB974ACB19B2
:100453009C406F4B7025E620E0218066187D08C321
:10046300CA97CA09CB97CB199CD3C633C6CA33CA1A
:10047300CB33CB3350C9DDE7D5F0E1D3E4C636C681
:1004830008C636C608C636C608C636C61818188043
:1004930031C3CA97CA09CB97CB199CB34097C633CC
:1004A300C6CA33CACB33CB33DD34D5F02EC6A2E074
:1004B300C640C8CA27CA09CB37194A70BECB3CB459
:1004C30080B90808E63308E633601F181818D0E02F
:1004D300FAD0E0FBD0E0FCD0E0FD22187D08CA276B
:1004E300CA09CB37CB193CD3808013F618E4B67F07
:1004F30011F618B6FF0EF618C60470D208087680F7
:1005030080CAF618F618F680C50012115F604F1204
:1005130011416012E7548066F6120FB27011121186
:10052300BF703B090909F4F618F618F618F62212FB
:100533000F9D70151211B508080860EAE6447FF6AE
:1005430018768018E4F618F6221211B56016121107
:10055300BF7012E4F608F608F608E65480F60909B7
:100563000918181822EAC0E0EBC0E0ECC0E0EDC0C7
:10057300E0E687F0A4FBACF008E687F0A42CFCE4EB
:1005830035F0FA1809E687F0A42C4B60027401CA0F
:1005930035F0FCE433FB09E687F0D2F7A42CCB3526
:1005A300F0FC1908E687F0A42BCC35F0FBE433FD0F
:1005B3000819E687F0D2E7A42C4ACB35F0CD3400F6
:1005C300FC09E687F0D2E7A42DCC35F0FDE433FA3D
:1005D3000918E687F0D2F7A42CCD35F0CA3400FC15
:1005E30008E687F0D2E7D2F7A42ACC35F07A7E204A
:1005F300E70B0ACB33CBCD33CDCC33CC33CB33501A
:10060300147004ED30E00ED2F1E4CD3DCDCC3CCC02
:100613003B5005DA05C2F1EB547FC63308E633924B
:10062300F0FBE73309E733C39A502D2B70190C0DF8
:100633004C4D70151806E608C333700D20F10AA25D
:10064300F013F6E418800B4024E4F630F0027680D1
:1006530018F618F618F68024D33B14501074FFA232
:10066300F013F6187680E418F618F6800FA2F0134C
:10067300F618E63303F618ECF618EDF6D0E0FDD0E5
:10068300E0FCD0E0FBD0E0FA22C0E074F21209C330
:10069300E5A7F8E5A1F9585410600812211753A1F2
:1006A300EF802AE8A2E0C0D0E9A2E092F01210178E
:1006B300158182F05017906198E0F89017A4E0C379
:1006C30098A2D265D0335002E8F053A1FE7F010215
:1006D3000A7AC0E074F21209C39061A4E0F8759B32
:1006E30000E59158540860087591F7122159802A42
:1006F300E59158541060087591EF12215F801BE853
:10070300A2E0C0D0E591A2E092F012101715818209
:10071300F05007E0C2E0F012227F9061A3E0F8E519
:10072300E9585404600E12225575E9FB906193E079
:10073300A2E640F28097C0E074F21209C39061A56B
:10074300E0F8E5BF585404600653BFFB122297023A
:1007530006D0C3E498F8E499F91207968026C3E417
:100763009AFAE49BFBE920E7E9120796E498F8E498
:1007730099F922C3E498F8E499F9120796E498F8F2
:10078300E499F9C3E49AFAE49BFB22EB20E7CFE96F
:1007930020E7E0B90010BB0008E88AF084F8AAF06B
:1007A30022E4FBC8FA22EB70227B10C833C8C9339A
:1007B300C9335007C39AC3DBF280069A50012ADB80
:1007C300EAC833F4C8C933F4C9FA2275F008E4C897
:1007D30033C8C933C933C99AC99B5004C92AC93B11
:1007E300D5F0ECFBC833F4C8E4C9FA22080808EAD8
:1007F300C0E0EBC0E086F0E7A4FA180986F0E7A4AE
:100803002AFA180986F0E7A42AFA180986F0E7A459
:100813002AFA1986F0E7A4FBE5F02AFA190886F00C
:10082300E7A42BFBE5F03AFA190886F0E7A42BFBC3
:10083300E5F03AFA18180986F0E7A4C5F02BFBE4B3
:100843003AFA1908E7C5F0C6A426F6E5F03BFBE43F
:100853003AFA1886F0E7A4F6E5F00826F6E43B0832
:10086300F6E43A08F6D0E0FBD0E0FA22080808E6FE
:1008730030E711120FF0120887080808C64480C633
:1008830018181822181818E9799EC608CAC608CB82
:10089300C608CCC6C370207996CACBCC7019798EA2
:1008A300CBCC70137986CC700EF9802ACA33CACBAD
:1008B30033CBCC33CC331930E7F2CCCBCA3350141F
:1008C3007004EA30E00DE4CA3ACACB3BCBCC3CCC53
:1008D300500209C3E913C6CC182313C6CB18C6CAE2
:1008E30018C6F922E4CFC0E0E4CEC0E0E4CDC0E016
:1008F300E4CCC0E075F020C3E633F608E633F6082F
:10090300E633F608E633F6181818EC33FCED33FD3E
:10091300EE33FEEF33FFC3EC9709ED9709EE97092A
:10092300EF97191919400FFFEC97FC09ED97FD0993
:10093300EE97FE191906D5F0BEECF709EDF709EEAF
:10094300F709EFF7191919D0E0FCD0E0FDD0E0FE6C
:10095300D0E0FF222510C582C0E0E51134FFC58336
:10096300C0E0E510C3958224F810AF088583118594
:1009730082108008858311858210D2AFCEF0A3E563
:1009830020F0A37808E608F0A3DEFAEFF0A3E581F0
:1009930024FAF8E608F0A3E608F0A3E608F0A308B3
:1009A30008E608F0A3E608F0A315811581D0E0FE60
:1009B300D0E0F8158115811581E8C0E0EEC0E02292
:1009C300C0D02510C582C0E0E51134FFC583C0E067
:1009D300E510C3958224F310AF0885831185821037
:1009E3008008858311858210D2AFC8F0A3E9F0A3F4
:1009F300EAF0A3EBF0A37908E709F0A3D8FAECF047
:100A0300A3EDF0A3EEF0A3EFF0A3D0E0F0A3D0E0CA
:100A1300F0A3D0E0F0A3E520F0A3E5F0F0A32212C9
:100A230011A0B90003020A64E49004FF7855791811
:100A33008002F0A3D8FCD9FA901C53AA82AB83900E
:100A43000086788A79018015E493A3AC82AD838A0A
:100A5300828B83F0A3AA82AB838C828D83D8E9D95E
:100A6300E77582027583E77403120B6A7582B575A5
:100A730083257400120B6A851183851082E0C0E020
:100A8300A3E0F9A3E0FAA3E0FBA37808E0F608A348
:100A9300DFFAE0FCA3E0FDA3E0FEA3E0FFA3E0C0D8
:100AA300E0A3E0C0E0A3E0F5D0A3E0F520A3E0A33A
:100AB300F5F010AF088583118582108008858311B6
:100AC300858210D2AFD082D083D0E0F8D0E032D08C
:100AD30083D082ECC0E0EDC0E0E493A3FCE493A3F5
:100AE300FDED4C600D120C40EC24FFFCED34FFFDDA
:100AF30080EFE493A3FCE493A3FDED4C600D120D92
:100B030070EC24FFFCED34FFFD80EFD0E0FDD0E07E
:100B1300FCE493A3C0E0E493C0E02212115F601BE6
:100B230012114160161211B570071211BF600CB398
:100B330022C0D01211BF7005D0D022C32233D0D02F
:100B4300501330E0EBC3E7960809E7960809E796E8
:100B53000809E7962220E0E4E6970809E6970809E2
:100B6300E6970809E69722C0F0F5F0E59F5407C021
:100B7300E0E59F54F845F0D0F0F59FE473859FF0CE
:100B830053F0F8D0E045F0F59F22D083D082E59F63
:100B93005407C0E0E493C0E0740193C0E07402938F
:100BA3005407C0F0F5F0E59F54F845F0D0F0F59FF9
:100BB30022851183851082E0A3FEE0A3F520780847
:100BC300E0A3F608DFFAE0A3FFE0A3C0E0E0A3C0E0
:100BD300E0E0A3C0E0E0A3C0E0E0A3C0E010AF0802
:100BE3008582108583118008858210858311D2AF99
:100BF300D083D082020B80D083D082E9C0E0E4931B
:100C0300A3C386F0C5F095F0F908E493A386F0C575
:100C1300F095F0700BE493A3C3994005E9048002B7
:100C2300A3E475F002A42582F582E5F03583F5830C
:100C3300D0E0F9E493A3C0E0E493C0E022C0E0C3B2
:100C4300E49396087401939618400FE49366700832
:100C530008740193661870007019A3A3C3E49396F4
:100C6300087401939618A3A3400DD0E0D0E0D0E020
:100C7300020B0EA3A3A3A3A3A3D0E022D083D0820D
:100C8300C5F0E493A3C5F0C395F0F5F0E493A3C3D3
:100C930095F04005E5F0048001E475F002A4258297
:100CA300F582E5F03583F583E493A3C0E0E493C0D4
:100CB300E0227404800474028000CCC0E0EDC0E044
:100CC300E510C39CCCAD1150011D10AF068C108DE7
:100CD3001180068C108D11D2AF120E0ED0E0FDD014
:100CE300E0FC22C0E074F21209C3E589A2E15003DB
:100CF300121FD9758900C2C57F01020A7AC0E07448
:100D0300F21209C3E58BA2E05003121FD9758B00C1
:100D1300C2E880E474028000CCC0E0EDC0E0E510DE
:100D2300C39CCCAD1150011D10AF068C108D1180EA
:100D3300068C108D11D2AF120DECD0E0FDD0E0FC8B
:100D43002212115F602512114160201211B5700348
:100D53000211BF080808E76670101819E766700AE1
:100D63001819E76670041819E76622F422C0E0C078
:100D7300F088F0E4936670080874019366187000B5
:100D8300A8F0A3A3700BD0F0D0E0D0E0D0E0020B2A
:100D93000EA3A3D0F0D0E022D083D082CCC0E0E475
:100DA30093A36006120E6D1470FAE493A360061207
:100DB3000F5C1470FAD0E0FCE493A3C0E0E493C0AA
:100DC300E022C0E074F21209C312205D7F01020A1F
:100DD3007AC0E074F21209C312206380EFC0E0749A
:100DE300F21209C312206980E3CAC0E0E493A3C5E9
:100DF30082CCC582C583CDC583F0A3C582CCC58211
:100E0300C583CDC583DAE5D0E0CA22CAC0E0E0A33A
:100E1300C582CCC582C583CDC583F0A3C582CCC5AD
:100E230082C583CDC583DAE6D0E0CA2270090808FB
:100E330008226016181818C6C333C608C633C60876
:100E4300C633C608C633C6D5E0EA22C008C3E09657
:100E5300F50808A3E096420808A3E096420808A311
:100E6300E09645087001D3D00822C0E0E493A3D3F1
:100E73009C5010E493A3C39C400AD0E0D0E0D0E0A0
:100E8300020DB8A3A3A3D0E022C5822510C582C555
:100E930083351110AF07F5118582108007F5118591
:100EA3008210D2AFC583227404800A74038006744F
:100EB3000280027401C0E0F404120EC5D0E01211E6
:100EC3007B222510F58210AF08F510400215118022
:100ED30008F51040021511D2AF85118322BB010220
:100EE300E722C082C08389828A83BB0003E0800239
:100EF300E493D083D08222C0D0251010AF08F51020
:100F0300500205118008F51050020511D2AFD0D060
:100F1300226016080808C6C313C618C613C618C627
:100F230013C618C613C6D5E0EA22C3E0C696F60870
:100F3300A3E0C696F608A3E0C696F608A3E0C69615
:100F4300F622C0E074F21209C3C2C0E5D1A2E45094
:100F5300031220937F01020A7AC0E0E493A36C702A
:100F630009D0E0D0E0D0E0020DB8A3A3D0E0222561
:100F73001010AF08F510400215118008F51040025B
:100F83001511D2AF22C3E09608A3E09608A3E0961A
:100F930008A3E096A2D265D03322191919E70947AD
:100FA30009700AE709C3337005E733F422092218ED
:100FB3001818E6084608700AE608C3337005E633D6
:100FC300F4220822E066701008A3E066700A08A302
:100FD300E066700408A3E06622C3E096F008A3E08D
:100FE30096F008A3E096F008A3E096F022181818EC
:100FF300E4C396F608E496F608E496F608E496F653
:1010030022E056F008A3E056F008A3E056F008A348
:10101300E056F022C0E0E8C0E0E58124FCF8E6A257
:10102300E7D0E0F8D0E022E627F60809E637F6082D
:1010330009E637F60809E637F622E026F608A3E0C4
:1010430036F608A3E036F608A3E036F622E026F0EB
:1010530008A3E036F008A3E036F008A3E036F02258
:10106300E657F60809E657F60809E657F60809E6CB
:1010730057F622E056F608A3E056F608A3E056F624
:1010830008A3E056F622700422600D18C6C333C6C7
:1010930008C633C6D5E0F41822E046F008A3E046BC
:1010A300F008A3E046F008A3E046F022E647F6087E
:1010B30009E647F60809E647F60809E647F622C0B7
:1010C300E074F21209C3C2C712219B7F01020A7A9C
:1010D300C3E7960809E7960809E7960809E7962201
:1010E300C6F4C608C6F4C608C6F4C608C6F4C622C3
:1010F300C3E09608A3E09608A3E09608A3E096222F
:10110300600D08C6A2E713C618C613C6D5E0F322BE
:1011130075D0007581407510FF75110400020A2215
:10112300600C08C6C313C618C613C6D5E0F422E084
:10113300F608A3E0F608A3E0F608A3E0F622E70921
:101143004709C3134709336002E733F422E6F00883
:10115300A3E6F008A3E6F008A3E6F022E6084608B3
:10116300C3134608336002E633F422C5822510C553
:1011730082C5833511C58322CAC0E0E6F0A308DA2D
:10118300FAD0E0FA22E0FAA3E0FBA3E0FCA3E0FD3F
:1011930022EAF0A3EBF0A3ECF0A3EDF022E5C754B1
:1011A300F84401F5C77901222510F582E43511F5DC
:1011B3008322E6C33318461846184622E7C3331979
:1011C300471947194722120B8D0F2C00120B8DADB7
:1011D3002C00120B8DF92C00120B8D382D00120BE5
:1011E3008D552D00120B8D842D00120B8DDA2D00E1
:1011F300120B8DF52D00120B8D1C2E00120B8D572B
:101203002E00120B8D972E00120B8DB82E00120B91
:101213008D082F00120B8DC22F00120B8D4730004B
:10122300120B8DD13000120B8DB23100120B8DDFFA
:101233003100120B8D2E3200120B8D563200120B21
:101243008D7F3300120B8DF73300120B8D1D34008D
:10125300120B8D433400120B8D673400120B8D7902
:101263003400120B8D833400120B8D2D3500120BBD
:101273008D993500120B8D603600120B8D68360088
:10128300120B8DF33600120B8D273700120B8D379F
:101293003700120B8DFC3700120B8DAA3800120B8E
:1012A3008D093900120B8D163A00120B8D8F3A00FF
:1012B300120B8DE33A00120B8D583B00120B8DF687
:1012C3003C00120B8D0A3D00120B8D6C3D00120B7E
:1012D3008DF13D00120B8D3E3E00120B8D5C3F00E5
:1012E300120B8D4E4000120B8DBB4000120B8D373D
:1012F3004100120B8DAD4100120B8DE54100120B25
:101303008DC24200120B8DE54300120B8D42440047
:10131300120B8D8B4400120B8DB34400120B8D3CCA
:101323004500120B8DD24500120B8D384600120B6F
:101333008D5D4600120B8DD64600120B8D6A470059
:10134300120B8DFD4700120B8D214800120B8D45AA
:101353004900120B8D584900120B8DC94900120B1D
:101363008DDE4900120B8D3F4A00120B8D894A0016
:10137300120B8DC44A00120B8DE54B00120B8DAC82
:101383004D00120B8DB64D00120B8DC04D00120B8C
:101393008DCA4D00120B8DD44D00120B8DEE4D00F6
:1013A300120B8DF84D00120B8D024E00120B8D0C9B
:1013B3004E00120B8D2D4E00120B8D7B4E00120B27
:1013C3008D854E00120B8DA94E00120B8DCD4E0054
:1013D300120B8D264F00120B8D6B4F00120B8D8954
:1013E3004F00120B8D005000120B8D4A5000120B50
:1013F3008D805000120B8DFF5000120B8D88510011
:10140300120B8D655300120B8D2D5400120B8D534F
:101413005400120B8D3B5500120B8D135800120B09
:101423008DA05900120B8D685B00120B8DAE5B0013
:10143300120B8DD85C00120B8D295D00120B8D945D
:101443005D00120B8D9E5D00120B8D645F00120B0D
:101453008D186000120B8D6A6000120B8D266100DF
:10146300120B8DEB6100120B8D766300120B8D99BD
:101473006300120B8DED6300120B8DDB6400120B06
:101483008D0D6500120B8D616500120B8D66660074
:10149300120B8DAD6600120B8DF36600120B8D528D
:1014A3006700120B8D9F6800120B8DEB6800120B07
:1014B3008DF56900120B8D9C6C00120B8DC06C00B6
:1014C300120B8D8B6E00120B8DE26E00120B8DDEF4
:1014D3006F00120B8D677000120B8DC17000120B21
:1014E3008D217100120B8DB07100120B8D267200CD
:1014F300120B8D917200120B8D868A01120B8DD8FF
:101503008A01120B8DC88C01120B8D778D01120B82
:101513008DAB8D01120B8DD58E01120B8D8C91012C
:10152300120B8D9A9201120B8D739B01120B8D2D51
:101533009E01120B8D199F01120B8DDF9F01120B60
:101543008D31A101120B8D36A201120B8D49A5011C
:10155300120B8D5BA701120B8DBBA701120B8D9391
:10156300A801120B8DBEA801120B8D5CA901120BF1
:101573008D3AAA01120B8D1BAB01120B8DEBAB0144
:10158300120B8D18AC01120B8D3AAC01120B8D7C32
:10159300AE01120B8D36AF01120B8D8DAF01120B05
:1015A3008DF0AF01120B8DA6B001120B8DDBB001D4
:1015B300120B8D2FB101120B8D5FB101120B8D9D9B
:1015C300B101120B8DEBB101120B8DF0B101120BB6
:1015D3008D47B201120B8D6FB201120B8D6AB301ED
:1015E300120B8DF2B301120B8D73B601120B8D30FA
:1015F300B701120B8DC5B801120B8D3ABB01120B4B
:101603008DE2BB01120B8D5ABC01120B8D83BE01FF
:10161300120B8D28BF01120B8D6FBF01120B8D3B77
:10162300C101120B8D4FC101120B8D5CC101120B55
:101633008D86C101120B8D92C101120B8DB0C101B8
:10164300120B8D92C301120B8DF1C301120B8D4549
:10165300C401120B8D50C501120B8DACC501120BC9
:101663008D63C601120B8DABC601120B8D45C701ED
:10167300120B8D29C801120B8DDFC801120B8D10BF
:10168300CA01120B8DF6CA01120B8D9ECB01120BF0
:101693008D32CC01120B8D49CC01120B8D82CC0102
:1016A300120B8D8CCC01120B8D98CC01120B8DB6C5
:1016B300CC01120B8DFACC01120B8D68CD01120BEC
:1016C3008D8FCD01120B8DA9CD01120B8DFECE0195
:1016D300120B8D48CF01120B8D51D001120B8D7659
:1016E300D001120B8DE0D001120B8D42D101120BF0
:1016F3008DB3D101120B8DC5D201120B8D70D301A5
:10170300120B8D58D401120B8DB6D401120B8D40E0
:10171300D501120B8D31D601120B8D60D601120B40
:101723008DC7D601120B8DA1D701120B8DC7D7011F
:10173300120B8D30D801120B8D55D801120B8D7BF6
:10174300D801120B8DB1D801120B8DCDDA01120B1A
:101753008DBDDB01120B8D83DC01120B8D1DDE01B0
:10176300120B8D66DE01120B8D92DE01120B8D19A9
:10177300DF01120B8D81DF01120B8DD3DF01120B01
:101783008DF9DF01120B8D40E001120B8D6CE0012E
:10179300120B8DA1E001120B8DF1E001120B8D4FA5
:1017A300E101120B8D02E201120B8DC4E301120B56
:1017B3008D36E401120B8D5FE401120B8DD3E4012E
:1017C300120B8D48E501120B8D8AE501120B8DC6B4
:1017D300E501120B8DEBE501120B8D31E601120BC6
:1017E3008D4EE601120B8DEBE601120B8DB88204D0
:1017F300120B8D038304120B8D918002120B8DBF8C
:101803008002120B8D7D8102120B8D638202120BFB
:101813008D6A8302120B8DF58402120B8D6A850289
:10182300120B8D198602120B8D168702120B8D81F6
:101833008702120B8DD48702120B8D288802120B9C
:101843008D328802120B8D788802120B8DDB880291
:10185300120B8D738902120B8DE88902120B8DD442
:101863008A02120B8D4F8B02120B8D698B02120BA6
:101873008D988B02120B8DC58B02120B8D5C8C0223
:10188300120B8D6C8C02120B8DBF8C02120B8DCB45
:101893008C02120B8DD78C02120B8DE08C02120B73
:1018A3008D2B8D02120B8D868D02120B8DD78D021F
:1018B300120B8DF28D02120B8D288E02120B8D49A5
:1018C3008E02120B8D538E02120B8D688F02120B38
:1018D3008D868F02120B8DF88F02120B8D0B9002E7
:1018E300120B8D199002120B8DBA9002120B8D8E72
:1018F3009102120B8DAF9202120B8D2B9302120BDE
:101903008D359302120B8DA89302120B8DBF930298
:10191300120B8D019402120B8D3F9402120B8D6EEC
:101923009402120B8DA59402120B8DC39402120B19
:101933008DE79402120B8D289502120B8D179602D8
:10194300120B8D5D9602120B8D889602120B8DFB86
:101953009602120B8D229702120B8D679702120BC0
:101963008D759702120B8DCE9702120B8D0B980279
:10197300120B8D529802120B8D839802120B8DA6B7
:101983009802120B8DB19802120B8DCF9802120B95
:101993008D8B9902120B8D959902120B8DDA990298
:1019A300120B8D1E9A02120B8D329A02120B8D1D91
:1019B3009B02120B8D309B02120B8D459B02120B67
:1019C3008DED9B02120B8D399C02120B8DEF9C0245
:1019D300120B8DFA9C02120B8D489E02120B8D7412
:1019E3009E02120B8DB59E02120B8DCF9E02120B1F
:1019F3008D409F02120B8DCC9F02120B8D03A00210
:101A0300120B8D66A202120B8DEEA202120B8D6ECB
:101A1300A302120B8DB1A502120B8DC1A502120BED
:101A23008DC4A502120B8DD0A502120B8DE4A50265
:101A3300120B8D03A602120B8D36A602120B8DFB21
:101A4300A602120B8D62A702120B8DC6A702120B00
:101A53008D50A802120B8D01A902120B8D2FA90222
:101A6300120B8DC5A902120B8DF4A902120B8D1650
:101A7300AA02120B8D3DAA02120B8DA2AA02120B0F
:101A83008D55AC02120B8D58AC02120B8DC2AC02F9
:101A9300120B8DB5AD02120B8D9CAE02120B8D276E
:101AA300AF02120B8D6AB002120B8D2DB102120B15
:101AB3008D66B102120B8D97B102120B8DA0B1028C
:101AC300120B8D84B202120B8D14B302120B8DB262
:101AD300B302120B8D72B402120B8DEBB402120B14
:101AE3008D0BE002120B8D57B502120B8D78AC03F0
:101AF300120B8D86AC03120B8D8A2B00120B8D34C7
:101B0300AD03120B8D7CAD03120B8D83AF03120B50
:101B13008D65B103120B8D24B403120B8D50B403E6
:101B2300120B8D70B403120B8DD3B403120B8D11F2
:101B3300B503120B8D3DB503120B8D77B503120B55
:101B43008DC2B503120B8DCCB503120B8D10B603EA
:101B5300120B8DB7B603120B8DE82A00120B8D7A88
:101B6300B703120B8D42BA03120B8D50BA03120B3B
:101B73008DA3BA03120B8DC9BA03120B8D21BB03BC
:101B8300120B8D91BB03120B8DE4BB03120B8D4D16
:101B9300BC03120B8D7BBC03120B8DF9BC03120B20
:101BA3008D59BD03120B8D98BD03120B8DAABD0376
:101BB300120B8DBCBD03120B8DDBBD03120B8D7D90
:101BC300BE03120B8DB7BE03120B8D66FD03120B02
:101BD3008D46F503120B8DA5F503120B8DCEF50380
:101BE300120B8DC4F603120B8D008003120B8DDFD5
:101BF3008003120B8D1B8103120B8DC48203120B06
:101C03008D068303120B8DB18403120B8DF58403B0
:101C1300120B8DBD8503120B8D4A8603120B8DDBD0
:101C23008603120B8D318703120B8D718703120B01
:101C33008D178903120B8DBC8A03120B8D0A8D033A
:101C4300120B8D188D03120B8D808D03120B8DBC1F
:101C53009003120B8D908404120B8DA68404120B37
:101C63008D5A8304120B8D099B03120B8D1C9B034E
:101C7300120B8DA99B03120B8DE49B03120B8DFF9B
:101C83009B03120B8D249C03120B8D589C03120B88
:101C93008D899C03120B8DA89D03120B8D86F30374
:101CA300120B8DF3F303120B8D0FF403120B8D51F3
:101CB300F403120B8D7AF403120B8D12F503120B3E
:101CC3008D2BF503120B8D43F503120B8DFD900342
:101CD300120B8D1F9103120B8DD89103120B8D0ADA
:101CE3009303120B8D1E9403120B8DAD9503120BF0
:101CF3008DAC9603120B8D6C9903120B8D8999038E
:101D0300120B8DD99A03120B8DE37200120B8D2ED9
:101D13007300120B8D1A7400120B8DCD7400120B0D
:101D23008DE27400120B8D2C7500120B8D7B7500E8
:101D3300120B8D8E7500120B8DDA7500120B8DEE62
:101D43007500120B8D287600120B8D3A7700120B5B
:101D53008D9D7700120B8DAC7700120B8DED770004
:101D6300120B8D217800120B8D817800120B8D9F41
:101D73007800120B8D197900120B8DA57A00120BC6
:101D83008DC77A00120B8DFC7A00120B8D277B0016
:101D9300120B8D377B00120B8D437B00120B8D468C
:101DA3007B00120B8D927B00120B8D317C00120B8A
:101DB3008D567C00120B8D797C00120B8D897C0073
:101DC300120B8DFD7C00120B8D187D00120B8D3ACA
:101DD3007D00120B8D757D00120B8D847D00120B1F
:101DE3008D0D8304120B8D258304120B8D30C703D5
:101DF300120B8D7FC703120B8D21C903120B8DCDDF
:101E0300CA03120B8D15CB03120B8D4CCC03120B93
:101E13008DD9CD03120B8DFBCD03120B8D4DCE034C
:101E2300120B8DCFCE03120B8D3EE602120B8D5F8C
:101E3300E602120B8DE5E602120B8D39E702120B57
:101E43008DBAE702120B8D16E802120B8D62E802BF
:101E5300120B8DD5E802120B8D59E902120B8DCFAF
:101E6300E902120B8D11EA02120B8D3BEE02120BEB
:101E73008D04F002120B8DFFF002120B8D47F1025D
:101E8300120B8DD7F202120B8D4DF502120B8DDC66
:101E9300F502120B8D17F702120B8D55FA02120B76
:101EA3008D65FA02120B8DB5FB02120B8DE1FB025D
:101EB300120B8D00FD02120B8D50FE02120B8D02D0
:101EC300FF02120B8D25E701120B8DDDE701120BCB
:101ED3008D66E801120B8D17E901120B8DF7E901ED
:101EE300120B8D6CEA01120B8D27ED01120B8DD8AD
:101EF300ED01120B8D28EE01120B8DF8EF01120B81
:101F03008DB2F001120B8D19F101120B8D7CF201D0
:101F1300120B8D23F401120B8D8CF501120B8D29FD
:101F2300F601120B8DF1F601120B8DA78004120B33
:101F33008DE08004120B8DE58004120B8D1081045B
:101F4300120B8D95FD01120B8DFFFD01120B8DB848
:101F5300FE01120B8D1EFF01120B8DB9E703120B4D
:101F63008D12E803120B8DA1E903120B8DB28104CC
:101F7300120B8DFC8104120B8DFDF603120B8D0BDE
:101F8300F703120B8DE9FF02120B8D008004120B75
:101F93008D108004120B8D2E8004120B8D8F800404
:101FA300120B8D36FB03120B8D5DFB03120B8DE2BF
:101FB300FB03120B8D3BFC03120B8DDD9D03120BF8
:101FC3008D54FC03120B8D76FC03120B8DE0FC0386
:101FD300120B8DEBFC03120B8D2FFD03120B8D2ABD
:101FE300D403120B8D38D403120B8D79D403120B47
:101FF3008D93D403120B8DE4D403120B8DE5D5031B
:10200300120B8D0AD603120B8D27D603120B8D44A8
:10201300D603120B8D69D603120B8DA2D603120BB6
:102023008DE0D603120B8D57D703120B8DF3D70315
:10203300120B8DA8D803120B8DB6D803120B8D305B
:10204300D903120B8DECD903120B8D77DC03120B22
:102053008DABF803120B8DE4F803120B8D01F9031A
:10206300120B8D5FF903120B8DC4F903120B8D0351
:10207300CF03120B8D70CF03120B8D2AD003120BDB
:102083008D97D003120B8DBDD103120B8D30D3036B
:10209300120B8D94D303120B8DE0D303120B8DE936
:1020A300D303120B8DF8D303120B8D0BD403120B36
:1020B3008D21D403120B8D41F801120B8D94F8017D
:1020C300120B8D08FB01120B8D3AFB01120B8D5C79
:1020D300FB01120B8D75FB01120B8D8EFB01120B95
:1020E3008DC0FC01120B8D56FD01120B8DB7F10350
:1020F300120B8DE9F103120B8DF5F103120B8D28F1
:10210300F203120B8D51F203120B8D7FF203120BAC
:102113008DFCF203120B8D2BF303120B8D3BED039E
:10212300120B8D61ED03120B8D9EED03120B8DB01F
:10213300ED03120B8DCCED03120B8D3AEE03120B54
:102143008D43EE03120B8DA2EE03120B8DC6EE032D
:10215300120B8D85EF03120B8D92EF03120B8DA3E0
:10216300EF03120B8D8FFF01120B8DDCFF01120B9E
:102173008D5CE003120B8D84E103120B8D91E1035F
:10218300120B8DB0E103120B8DC6E103120B8DDA36
:10219300E103120B8D54E203120B8DD2E203120BF7
:1021A3008D4BE303120B8D93E303120B8DA3E30318
:1021B300120B8D62FF03120B8D86FF03120B8DAE84
:1021C300FF03120B8DD6FF03120B8D8F7D00120BB5
:1021D3008DA87D00120B8DB47D00120B8DC87D0080
:1021E300120B8DE67D00120B8DF07D00120B8DFA24
:1021F3007D00120B8D0D7E00120B8D417E00120BA4
:102203008D7A7E00120B8DAB7E00120B8DF97E0052
:10221300120B8D467F00120B8D617F00120B8D6BAD
:102223007F00120B8D7C7F00120B8DC27F00120B7F
:102233008DA58304120B8DDDBE03120B8D09BF0325
:10224300120B8D25BF03120B8D38BF03120B8D4E5E
:10225300BF03120B8DBEBF03120B8DF1BF03120B15
:102263008D4BC303120B8D81C403120B8DB4C403B6
:10227300120B8D19C503120B8D08C603120B8D307B
:10228300C603120B8D45C603120B8D55C603120BE5
:102293008D99C603120B8DEEC603120B8D04C70373
:1022A300120B8D03FA03120B8D1EFA03120B8D47CB
:1022B300FA03120B8D61FA03120B8D86FA03120BCC
:1022C3008DA5FA03120B8DBDFA03120B8DEBFA03E6
:1022D300120B8D05FB03120B8DED8304120B8DDCAA
:1022E300DC03120B8DE3DC03120B8DEFDD03120B0A
:1022F3008D1FDE03120B8D45DE03120B8D78DE037B
:10230300120B8D8ADE03120B8DC4DE03120B8D2A92
:10231300DF03120B8D63DF03120B8DAFDF03120B91
:102323008DDCDF03120B8DFCDF03120B8DD1EF036A
:10233300120B8DE9EF03120B8DCCF003120B8DCD35
:102343007F00120B8D64FE03120B8DBBFE03120B79
:102353008DF8FE03120B8D39FF03120B8DB2E303CD
:10236300120B8DD1E303120B8D1CE403120B8D387A
:10237300E403120B8D70E403120B8D7DE403120B47
:102383008D9AE403120B8D7DE503120B8DB4E503E7
:10239300120B8D6BE603120B8D76E603120B8D8801
:1023A300E603120B8D91E603120B8D9BE603120BD2
:1023B3008D42EA03120B8D23ED03120B8D2781044B
:1023C300120B8D009E03120B8D969E03120B8DDB59
:1023D3009E03120B8D1B9F03120B8D969F03120BF3
:1023E3008D1CA003120B8D638404120B8D3B82049E
:1023F300120B8D2D8404120B8DB59D03120B8DB022
:102403008404120B8D94FF02120B8D23DF02120B37
:102413008DE4DE02120B8DB3DE02120B8D95DE020C
:10242300120B8D27DE02120B8DE1DD02120B8D4C98
:10243300DD02120B8D282B00120B8DFCAC03120B4B
:102443008D9BDC02120B8D8EDC02120B8DC62A00D3
:10245300120B8DA72A00120B8D63D902120B8DFB71
:10246300D602120B8D9BD502120B8DF4D402120BE4
:102473008D1FD302120B8D66D102120B8DEDD0028C
:10248300120B8D91D002120B8D34D002120B8D0AD8
:10249300D002120B8DFECD02120B8DCACD02120B90
:1024A3008D83CD02120B8D58CD02120B8DAECC0253
:1024B300120B8D61CC02120B8DCFCA02120B8DCC85
:1024C300CA02120B8DDEC902120B8DAAC902120BAE
:1024D3008DE5C802120B8D742A00120B8D09E602DA
:1024E300120B8DEBE502120B8DF0E402120B8D55EE
:1024F300E402120B8D18C702120B8DCBC602120B0E
:102503008D9CC602120B8D99C602120B8D18E30225
:10251300120B8D8CC602120B8D52C602120B8D4408
:10252300C602120B8DFAC402120B8D76C402120B73
:102533008DFA2A00120B8DDAB603120B8DD9E00245
:10254300120B8D3CC402120B8DE0C302120B8DB330
:10255300C302120B8DC0C002120B8D7EC002120B80
:102563008D72C002120B8DD2BF02120B8D09BF02F6
:10257300120B8D59BC02120B8D85B902120B8D46BD
:10258300B902120B8DE5B702120B8D91B702120B34
:102593008DD5B602120B8DA8B602120B8DFFB502B4
:1025A300120B8D98B502120B8DD2B502120B8D1A38
:1025B300B50200000080FBE4730001363601010020
:1025C30001020100010301000104010606050200E6
:1025D30000070100340801000F090401010D010087
:1025E300FF0E08000017020000190100FF1A010086
:1025F300011B0100051C0100081D0200001F010052
:102603000120010001210200002301000F24020028
:10261300002601000127010308280200FF2A010008
:10262300072B0102402C0100002D0100012E0100A7
:10263300012F0100FF30010B1C310800003A01009B
:102643000800202020202020202020282828282897
:102653002020202020202020202020202020202077
:1026630020208810101010101010101010101010CF
:1026730010100404040404040404040410101010CF
:10268300101010414141414141010101010101018A
:1026930001010101010101010101010101101010FA
:1026A300101010424242424242020202020202025D
:1026B30002020202020202020202020202101010CD
:1026C3001020030271023001600211027002010244
:1026D300020202028002100261023A004100630218
:1026E3007302720262024302000213023800000204
:1026F30000020402120200020002000200020402AD
:102703000402370037003C02440200023900000291
:102713000002650200023502810200020502820204
:102723008302000201017101010101011101010193
:102733003101010101018001100161013B0014001D
:102743006301730172016201430100011301060178
:102753003D013500040112010001000100010001E7
:1027630004010401330133013C0144013201360009
:10277300000100016501000135008101000105012F
:1027830082018301000101037103010301030103BA
:1027930001030103220302030103100300030003E7
:1027A30000030003000300030003420300032403A8
:1027B3000603000300030403120325032303250375
:1027C300230304030403000300030003440300037F
:1027D3000003230300036503210035038103000382
:1027E30005030003000300030304710402046004EF
:1027F30011047004020402040104020410046104BD
:1028030000041404630473047204620443040004A4
:102813001304060400040004040412040004000466
:102823000004000451046400000400040004440490
:10283300000400040004000465040004350481045A
:1028430064000504000483040004030071003001E4
:10285300600011007000310220035004800010005A
:102863006100000014006300730072006200430003
:102873000000130006000000000004001200000026
:1028830000000000000004000400370037003C0291
:102893004400000000000000000065000000350057
:1028A30081000000050000008300000036000100E5
:1028B300060000000F000000000000000000000000
:1028C300000003FFFF00000403FFFF0000FFFF0FF2
:1028D300F4010005C4040320000100000B00000004
:1028E300000000000003010000E31E13007D1E0131
:1028F30000E31E0200471E03004D1E0400531E0585
:1029030000591E0600651EFFFF0000012915065928
:10291300150853150B651510BD14022F1505471522
:102923000735150C17150D2315FF000003000300D1
:102933000400080010001F003E007B00F600EC01BD
:10294300D703AF075D0FB91E713D00003719671933
:102953003D194319611955194F196D1973197919CE
:102963008519491931192B19D5C5C5B5A5A595855E
:102973008575756565555545453535252515059C7D
:1029830036063A703DD9404344AD47174B814EEA72
:102993005100160F00000B150B020002220F32002C
:1029A30000065677777777777777777777777777BD
:1029B3007777000102030405060708090A0B0C0DCB
:1029C3000E0F1B1A2D1A331A0119391AFB1807197E
:1029D3008D1AAB1AB11A931A9F1A991A3B18351804
:1029E300711877186B18231800383C3E363B3B357B
:1029F3002B432C00034948424D18172505020001BB
:102A0300191618161615230300303016181920232B
:102A13001A1C1E300C0E020B040B0A0708000F30A1
:102A23003017181921301B1D1F30811A3F1A451A00
:102A3300511A4B1A5B197F19A51A8B19911947184B
:102A43004D1841187D180005150D091008040000E4
:102A5300000000005318651800BE040A15000400A6
:102A63000E0009280C0308090001040510080C08CE
:102A73000F74F612095774FF120F72E485108285E2
:102A83001183F08582088583097808120EB27508D0
:102A9300017509007808120EB21243A6120EFA74D9
:102AA3000102418F74F61209578C088D09780812B8
:102AB3000EB275080B7509007808120EB21243A600
:102AC30002418F74F61209578C088D097808120E8B
:102AD300B275080B7509007808120EB21243B112D1
:102AE30042BA02418FC082C0838A828B83E0D2E7DD
:102AF300F0121DB7024A82C082C0837900122B8272
:102B0300C082C083900530125B4CD083D082C3E077
:102B13009CA3E09D500C1250B1FAA3E0122BF3607A
:102B23000109024A8274F7120957122B82122D2EC1
:102B3300AEF075F00BEDA42EFD900532E02CFEA354
:102B4300E03DFF740169600574026970208A828B1D
:102B530083A3125CAE126C8C7402697018122FAED0
:102B63001230BE7010E48E828F83F08008EA240353
:102B7300FCEB1230A6EEFAEFFB121B59023D671273
:102B83006353EB125F4E2274F41209578A088B09C0
:102B9300125CB479008A828B83E0604E7E007F00F2
:102BA3008043122BF0703B122D7AF50AA3E039F51E
:102BB3000B850882850983E08C82850B8312476528
:102BC300F8A3E0F98C82850B831230C6FCE5091269
:102BD300303C1230AE125F53AA0AAB0B121B5912D0
:102BE30061E012351C122FB640B8024760EEFAEFCF
:102BF300FBEA75F00BA4FAACF075F00BEBA42CFB1D
:102C030090053212704CF583E0540F2274F51209CB
:102C1300578A088B09740B1211AB1261E5750A010F
:102C2300EC7001ED6026EC123194ED124D877901C1
:102C3300122435EE7001EF606E8E828F83A3125CD7
:102C4300BC7902EEFAEFFB122435805BEE7001EFE4
:102C53006031123193EF124D87EE2403FAEF1230F5
:102C6300B8700CAA08AB09121AF9E9F50A80CAE58B
:102C7300082403FAE5091230B8702C7903AA08ABCB
:102C83000980C48A828B83A3E064FE7004A3E0649A
:102C9300FF70051230B5700CAA08AB09121AF9E9D6
:102CA300F50A8003750A00023DEA74F7120957908A
:102CB3000530125044EA7001EB6031EA75F00BA461
:102CC300FAACF075F00BEBA42CFBEAFEEBFF121B46
:102CD300DD900532125044900532E07002A3E060AB
:102CE30012EEFCEFFD7900121B538007900532E4CE
:102CF300F0A3F0023D6774F61209577508007509D1
:102D0300007808120EB2900530122D2EAAF075F03D
:102D13000BEDA42AFD7A237B00121C437402120ECE
:102D2300FAE9FE60031211DB02416F125B50EC758E
:102D3300F00BA4FC2274F71209577E007F00800A6F
:102D4300EEFAEFFB1224D712351C122DCE40F102FE
:102D53003D6774F71209577E007F008012122D7AA7
:102D6300FCA3E039FDEEFAEFFB12244D12351C12E1
:102D73002DCE40E9023D67EEF8EFF9122DBBE028B6
:102D83002274F71209577E007F008020122DB7129C
:102D93005D2188828983E0A2E7500EC2E7F0AC820E
:102DA300AD83EEFAEFFB12245312351C122DCE40E5
:102DB300DB023D67EEF8EFF9E875F00BA4F8AAF033
:102DC30075F00BE9A42AF990053222900530124DD3
:102DD300A8C3EE98EF9922C082C083EC7001ED6026
:102DE3000512235780097C087D007900121B5302CA
:102DF3004A8274F61209577900EA7001EB60177C76
:102E0300008C08EA25081261D9600479017C080C5A
:102E1300ECC3940840EB02419274F712095774F320
:102E2300120F72ECFEEDFFE4851082851183F074BE
:102E3300011211AB1243DD12121174031211ABAC68
:102E430082AD83EEFAEFFB1211EDEEFAEFFB1211F6
:102E5300F3023D6274F712095774F3120F72ECFE1A
:102E6300EDFFE4851082851183F0EAFCEBFD74032A
:102E73001211AB12441474011211AB123198124D9A
:102E83009174FE68700374FF6960047901800279AC
:102E930000023D6274F7120957EAFEEBFF122EE5BA
:102EA3007010122EF064FFFC8A828B83E05CF012B8
:102EB3001B590246CA74F7120957EAFEEBFF75085D
:102EC300008E828F83E06017122EE57012122EF0AF
:102ED3008A828B83FCE05C7006E04CF0121B590283
:102EE30046CA122531E9F5087401650822EE12631A
:102EF30054EF124DA4122DBBE028FAA3E039FB8E48
:102F0300828F83E02274F41209578A088B097C00AC
:102F13007D00122FAE1230AEE508123194E509128E
:102F23005CB87900850882850983A3E064FE700498
:102F3300A3E064FF60727E007F008067122BF06065
:102F43005FEEFAEFFBEA75F00BA4FAACF075F00B49
:102F5300EBA42CFB900532E02AF50AA3E03BF50B2A
:102F6300850882850983A3125CA3850A82850B8366
:102F7300A3E06A7003A3E06B7026E50A2403FAE575
:102F83000B1230B87014E50A2403FCE50B3400FD82
:102F9300E5082403FAE5091230AE125F531261E02B
:102FA30012351C122FB64094024760EA24030A0A22
:102FB3000AEB22900530125CAAC3EE9AEF9B2274AF
:102FC300F21209578A0A8B0B8A828B83A3125CBC89
:102FD300125CB47508001230B570597E007F008012
:102FE3004E122DB712703DE0540F6040122D7AF54A
:102FF3000CA3E039F50DE50C2403FCE50D12303C80
:103003003400FB122351E964017021850C82850D84
:1030130083A3125B45850A82850B83A3E8F0A3E9AA
:10302300125359125F5E7508011261E212351C12C8
:103033002DCE40ADA908023FFF3400FDE50A24036D
:10304300FAE50B2274F5120957EAFEEBFF8E828F25
:1030530083A3125CBC7C007D00EE24030A0A0A12DF
:1030630030ADEEFAEFFB122531E9F50A7401650A7A
:10307300702E1246CF125B45122D7EF508A3E03960
:10308300F509850882F583A31231981230C6FAE553
:10309300091230B8700AE5082403FCE5091230A6CA
:1030A300023DEA3400FDEE2403FAEF3400FB121173
:1030B300ED22122FAE1230BE6401223400FB121136
:1030C300F3E922A3E8F0A3E9F0E50824032274F26C
:1030D30012095774E6120F72EAFEEBFF123193EFF7
:1030E300125CB8750801750A00750B00750C007544
:1030F3000D00E4851082851183F0EE2403FCEF3488
:1031030000FD74031211AB1245BB6401702D740BE7
:103113001211AB124FF3123194EF124D8E74011250
:1031230011AB123198A3E0687003A3E06960538583
:10313300108285118385820A85830B740D1211AB6E
:103143001231A6125B45740E1211AB124D91740D20
:103153001211ABAA82AB83121211E96401700B74D2
:103163000D1211AB85820C85830D780C120EB2AC57
:103173000AAD0BEEFAEFFB1211C97402120EFAE953
:10318300F508EEFAEFFB12120BA908741A023FFCC2
:10319300EE1263542212319C22E0F8A3E0F98E82EE
:1031A3008F8322E41231AB22F08E828F83A322C05D
:1031B30082C0831231D4EC75F012A4FCAAF075F02E
:1031C30012EDA42AFD79FF7ACC7B17121B53024A16
:1031D30082902A5FE493FC740193FD2274F7120931
:1031E30057E9FEEAFF7C007D0078007900802DE836
:1031F300FAE9FBEA75F012A4FA85F00875F012EB10
:10320300A4250812364DC39E400FE0FAEFC39A403F
:1032130008EC24010CED3400FD123B4F902A5F12A1
:103223003AD640CBECFAEDFB023D67C082C083780F
:103233000079008003123B4F902A5F123AD6500C5C
:1032430012363764FF70EE1236DB80047A007B009F
:10325300024A8274F012095774F3120F728A0E8BAA
:103263000F8C088D09890AEC7001ED6015AA08AB73
:103273000912125F8A0C8B0DAE0CAF0DEE7001EFCD
:10328300704B1212358A0C8B0DA80CA90DE8FEE9C0
:10329300FFE87001E960367401851082851183F0BF
:1032A3001211ABE50EF0A3E50FF0AC08AD09740302
:1032B3001211AB1233F0740B1211AB1249A6124D5B
:1032C3009112336CAA0EAB0F12177B8006EE7001BE
:1032D300EF60727A00E50A6007C3940550027A042E
:1032E3008E828F83E50EF0A3E50F123CEFE50AF023
:1032F300EA8E828F83A3A3A3A3A3F074028E828F8B
:1033030083A3A3A3A3A3A3A3A3F074018E828F8398
:10331300A3A3A3A3A3A3A3A3A3126899A3F0EE2437
:1033230010123365E4F0A31247F1A3A3F01246CFC2
:10333300E4F0908A6C7808121132EE240C12336593
:103343007808121150123587400EE4901C57F07A1A
:10335300577B1C794112236FEEFAEFFB026C12EEDE
:10336300240DF582EF125F4E22E48E828F83A3A396
:10337300A3A3A3A3F0900580125B502274F2120959
:103383005774F3120F72EAFEEBFF8C088D09750A6E
:1033930000AA08AB0912125F8A0C8B0DA80CA90DA9
:1033A300E87001E9604088828983E06E7003A3E0DE
:1033B3006F603388828983A3A3A3A3E0C3940550DA
:1033C3002588828983125F5E74018510828511834B
:1033D300F01211AB125F5EAC08AD0974031211ABAE
:1033E3001233F0750A01A90A740D023FFC12441F3F
:1033F3001212232274F61209571257AC7001E960B6
:103403001488828983A3A3A3A3E06009C39405500E
:103413000479018002790002419274F6120957126D
:1034230057AC7001E9601488828983A3A3A3A3E046
:103433006009C39403500479018002790002419228
:1034430074F61209571212598A828B83E58270022D
:10345300E583600BA3A3A3A3E07004790180027941
:1034630000024192C082C083EAFCEBFD7A007B003C
:10347300121265024A82C082C0837C007D0080F004
:1034830074F412095774F3120F728A0A8B0B8C08A7
:103493008D097E007F0080211239EE1211AB1235A7
:1034A30021601374031211ABAC82AD83AA0AAB0B78
:1034B300122351E9703812351C1235135049123852
:1034C3008C60F3E50A7002E50B70CD74FF6508703C
:1034D3000474FF650960DFEEF8EFF9E875F012A4F4
:1034E300F81239D765087004A3E0650970C8EE7552
:1034F300F012A4FEAAF075F012EFA42AFFEE24CC7A
:10350300FAEF3417FB80047A007B00740D02475DE9
:10351300902A5F1240A5022DD5123878FF22E8F0D9
:10352300A3E912443912121DE92274F412095774E3
:10353300F3120F7275080012125F8A0A8B0BAE0A20
:10354300AF0BEE7001EF602A740185108285118341
:103553001249D8F8A3E0F9740B1211AB12443112DB
:1035630012057C127D0079FFEEFAEFFB121B5375F7
:10357300080112358750097401901C57F012165B2D
:10358300A90880877A04790012122F902A5F1240CB
:10359300A5EA98EB992274F7120957E9FE74FE6ABB
:1035A300700374FF6B7800790070058059123B4FEC
:1035B300902A5F123B42504EE8FCE9FDEC75F01295
:1035C300A4FCAFF075F012EDA42F126C24ED1238A9
:1035D300A460DAE8FCE9FDEC75F012A4FC75F012C6
:1035E300EDA42FFDEC24CCF582ED3417F583E06ACE
:1035F3007003A3E06B70B6800A1236376005C3947C
:1036030005401A123B4F902A5F123AD6501FEE70B4
:10361300E812363764016005E0640370E6E875F08C
:1036230012A4F8AAF01239DE125CA180047AFE7BA0
:10363300FF023D67E8FAE9FBEA75F012A4FAACF081
:1036430075F012EBA42C12364D22FBEA24D0F5823E
:10365300EB3417F583E022121271024A82C082C052
:1036630083790180F274F01209578A0E8B0F7A0462
:10367300790112122F8A08AE08EE7001EB6044EA5A
:10368300C333FAEB33FB121BDD8A0A8B0B8A088BDD
:1036930009EA7001EB60287AFE7BFF12127774FE51
:1036A3006A700374FF6B6021850A82850B83125055
:1036B30044E50A2402F50AE50B3400F50B80DC7EB1
:1036C300008006750800750900EE850E82850F835C
:1036D300F0AA08AB09026C17E875F012A4F8AAF077
:1036E30075F012E9A42AF9E824CCFAE93417FB228D
:1036F30074F61209577508007509007808120EB29E
:10370300902A5F1241A3740378081210891238803B
:103713007B00121C437402120EFAE9FE60031212BC
:103723008902416F74F612095774FE120F72124127
:10373300D002417374F612095774DF120F727E00C0
:103743008510828511838582088583097808120E86
:10375300B27508028E097808120EB27C007D001241
:1037630042B8120EFAE960030237F58079740F123A
:1037730011AB8582088583097808120EB275080893
:103783007509007808120EB28E08740378081210B7
:103793008974022508FCE43509FD1242B8120EFAB9
:1037A300E9704274021211AB7401F074111211AB7F
:1037B300125B45740D1211AB124D9174021211ABD1
:1037C300AA82AB8312121DE9601B74131211ABE0C2
:1037D300F974051211ABAC82AD83740F1211AB12E5
:1037E3005CA312123B0E8E081242AAE49950030204
:1037F3003770EEF9742102418F74F612095774FE83
:10380300120F72851082851183E4F0A3F0FE804EBF
:1038130012388C6046EEF8EFF9E875F012A4F875EB
:10382300F012E9A42AF9E824CCF508E93417F509DC
:103833007808120EB27508087509007808120EB2DE
:1038430074041211AB12400C74037808121089121D
:1038530038801243A9120EFA124396123878FF12D7
:10386300351340AC851082851183858208858309D1
:103873007808024173EE24010EEF3400227402250E
:1038830008FCE43509FD7A2222EEF8EFF9E875F039
:1038930012A4F8AAF075F012E9A42AF9E8126C262A
:1038A300E912365464FF2274F71209577A007B0039
:1038B300800919EA24010AEB3400FB1231D4C3EA6C
:1038C3009CEB9D503AEAFCEBFDEC75F012A4FCAEC8
:1038D300F075F012EDA42E126C24ED123654C3943D
:1038E3000550D0E970CCEA75F012A4FAACF075F08B
:1038F30012EBA42CFBEA24CCFAEB3417FB80047AFA
:10390300007B00023D6774F712095774F3120F72BC
:103913007E007F000239A6E508125F2E125CA1EE3D
:10392300F8EFF9E875F012A4F8ACF075F012E9A419
:103933002CF9E81269D46A7003A3E06B6044E508CC
:1039430075F017A4F8AAF0EAF9E82446F582E934F9
:1039530019F5831245361211ABE0687003A3E069D1
:103963006020E50875F017A4F8EAF9E82448FCE9B3
:103973003419FD74031211ABAA82AB83122351E9EC
:103983006011E50875F017A42446FAE5F03419FB35
:103993001217870508902A69126117500302391A12
:1039A30012351C1235135029EEF8EFF9E875F012B1
:1039B300A4F8AAF01239D764FF7004A3E064FF608F
:1039C300DF1239EE1211AB12352160D47508008075
:1039D300C4023D621239DEF583E02275F012E9A4D8
:1039E3002AF9E824CCF582E9341722740185108280
:1039F300851183F0EEF8EFF9E875F012A4F875F08D
:103A030012E9A42AF9E824CEF582E93417124DA667
:103A1300740B2274F6120957124197FC740193FD3B
:103A2300EC8508F0A4CCAAF08509F0A42AFA85084D
:103A3300F0EDA42AFD79FF7A137B1C121B5390052A
:103A43003574B9F0A37412F090053774B3F0A3740E
:103A530012F090053974DDF0A37412F090053B74F5
:103A6300EFF0A37412F090053D74F5F0A37412F017
:103A730090053F74FBF0A37412F09005417401F0BC
:103A8300A37413F0E4900534F0024192C082C08322
:103A9300780079008003123B4F123AD3501CE8FAA6
:103AA300E9FBEA75F00EA4FAACF075F00EEBA42C6A
:103AB300123AC470E1123F4080047A007B00024A4C
:103AC30082FBEA2413F582EB341CF583E064FF22C6
:103AD300902A61E493FA740193FBC3E89AE99B2269
:103AE30074F71209577A007B00780079008045E863
:103AF300FCE9FDEC75F00EA4FCAEF075F00EEDA440
:103B03002EFDEC2413F582ED123ACB6024E8FCE998
:103B1300FDEC75F00EA4FC75F00EEDA42EFDEC2467
:103B230018F582ED341CF583E0FCEA2CFAEB340043
:103B3300FB123B4F902A61123B4240B3023D67E4C4
:103B430093FC740193FDC3E89CE99D22E8240108DA
:103B5300E93400F92274F112095774FC120F7274DC
:103B6300021211AB125044890E8C088D0B7E007F1C
:103B73000012131974021211AB125CA312131F1259
:103B8300503E74021211AB1257ED7007750A018E85
:103B93000980058E0A850809851082851183E064F2
:103BA300FE7004A3E064FF7003023CC58E0880022C
:103BB300050885080C902A61126C5C4003023C588E
:103BC300A808E875F00EA4A9F0124037650E70E05E
:103BD300E875F00EA4124004650A70D4125B3FE549
:103BE3000875F00EA42415F582E5F0341CF583E086
:103BF300687003A3E06970B8A808E875F00EA4A97B
:103C0300F02417F582E9341CF583E0650970A1E817
:103C130075F00EA42413FEE9341CFF750800E508B3
:103C2300C3950B4003023CC5E508C333F8E433F9FD
:103C330074131211AB123CDE1212C5E97013E508BE
:103C4300C333F8E433F974131211AB123CDE1212CE
:103C5300D1050880C91212AD8A0C8B0DAE0CAF0DC5
:103C6300EE7001EF605C8E828F83E50EF0A3E50AB0
:103C73001249C18E828F83A3A3E8F0A3E9123CEF1C
:103C8300E509F0902A6DE493C3950B5004E493F592
:103C93000B8E828F83A3A3A3A3A3E50BF07413124C
:103CA30011AB12400C750A007808120EAEE50BC377
:103CB30033FCE433FDEE2406FAEF3400123CD71252
:103CC3000EFAEEFAEFFB740480027412120EFA7FFE
:103CD30007020BB4FB121B47740322127041123C00
:103CE300E522E0FCA3E0FDEEFAEFFB221231ABA3E9
:103CF300A3A322C082C083902A631231D779FF1213
:103D03001B537901024A8274F7120957EA7001EBD7
:103D130060498A828B83A3A3A3A3A3A3E582700232
:103D2300E58360377E0080010E8A828B83A3A3A381
:103D3300A3A3E0FFEEC39F5022EEC333F8E433F9AD
:103D4300EA28F582EB39F583A3A3A3A3A3A3E06C2D
:103D53007003A3E06D70D17901800279008005744E
:103D63000D120EFA7F01020BB474F5120957EA70B3
:103D730001EB605F8A828B83A3A3A3A3A3E06063A9
:103D8300EA2406F8EB3400F98A828B83A3A3A3A366
:103D9300A3E0F509750800800DEA2405F582EB120E
:103DA3005C96603F0508E508C395095026E50812AF
:103DB3003E32E06C7003A3E06D60DE123E381261A8
:103DC300E588828983125F5EE824020808E93400EB
:103DD300F980D18A828B83A3A3A3A3A3E060047990
:103DE30001800279008002A90A7F03020BB474F7F1
:103DF300120957EA7001EB60318A828B83A3A3A374
:103E0300A3A3E0C0E0902A6DE493FED0E0C39E50EC
:103E130019EA2405F8EB1271A7123E32126C8C8852
:103E2300828983E004F0790180027900023D67C34F
:103E330033FEE433FF127055026C7574F4120957A4
:103E43008908EAFEEBFF8C098E828F83A3A3A3A3C9
:103E5300A3A3A3A3E0640170098E828F83125B4C3A
:103E6300800312404274FE6C700374FF6D70077A16
:103E7300007B00023F00780079008014123F036446
:103E830001700A123F217003A3E06D606D123B4F76
:103E9300123AD350DAE8FAE9FBEA75F00EA4FA8590
:103EA300F00A75F00EEBA4250AFBEA2413F582EB66
:103EB300341CF583E0650870D48E828F83A3A3A39B
:103EC300A3A3A3A3A3E0640160B2123F0370BE12D5
:103ED3003F217003A3E06D70B4E8FAE9FBEA75F0E3
:103EE3000EA4FA75F00EEBA4250AFBEA2417F5825B
:103EF300EB341CF583E065097093123F4002476081
:103F0300E8FAE9FBEA75F00EA4FA75F00EEBA425C6
:103F13000AFBEA2414F582EB341CF583E022E8FA69
:103F2300E9FBEA75F00EA4FA75F00EEBA4250AFB83
:103F3300EA2415F582EB341CF583E06C22123F442E
:103F430022E875F00EA4F8AAF075F00EE9A42AF998
:103F5300E82413FAE9341CFB2274F21209578A0A83
:103F63008B0B8A828B83A3A3A3A3A3A3A3A3E06442
:103F73000170098A828B8312400C80071213078A0F
:103F8300088B0974FE6508700474FF650960687E18
:103F9300007F00805A850A82850B83A3A3A3A3A372
:103FA300A3A3A3E064017041EEF8EFF9E875F00E06
:103FB300A4F8AAF075F00EE9A42AF9E81240046403
:103FC300017029EEF8EFF9E875F00EA4F875F00E1C
:103FD300E9A42AF9E82415F582E9341CF583E065A0
:103FE300087004A3E06509700312401412351C9095
:103FF3002A61123516409E8003120EFA7F06020BC9
:10400300B42414F582E9023F1BE0F508A3E0F509A7
:1040130022EEF8EFF9123F441212BF22EEF8EFF945
:10402300E875F00EA4F8AAF075F00EE9A42AF9E8F1
:10403300124037222413F582E9341CF583E022125F
:1040430013078A0A8B0BAC0AAD0B2274F3120957C0
:10405300890CEAFEEBFF750A00750B007508007505
:1040630009008029E50875F00EA4F8AAF075F00E92
:10407300E50912402F650C7011EEFCEFFDAA82AB2F
:10408300831212C5E9600312412A1240AE902A61DD
:104093001240A5E50898E5099940C9AA0AAB0B02A5
:1040A3004934E493F8740193F9C322E5082401F534
:1040B30008E5093400F5092274F1120957890EEA5B
:1040C300FEEBFF8C09750800750A00750B0080056F
:1040D300050812412A902A611269E6E50B995040BE
:1040E300E50A75F00EA4F8AAF075F00EE50BA42A04
:1040F300F9E82413F50CE9341CF50D850C82F583DE
:10410300E0650E70CDEEFCEFFDAA0CAB0D1212C5EF
:10411300E960BFE508C3950940B6AA0CAB0D80045E
:104123007A007B00023CD2E50A2401F50AE50B3450
:1041330000F50B2274F6120957750800750900780B
:1041430008120EB212419712437B75832A7582635C
:10415300E49328FCA3E49339FD7A417B00121C43CA
:104163007402120EFAE9FE60031212F5EEF9801FD3
:10417300120EB27508027509007808120EB27C009F
:104183007D007A221243A9120EFA7402120EFA7FEC
:1041930002020BB4902A631241A3902A61E4932292
:1041A300E493F508740193F5092274F61209577420
:1041B300FE120F721241D0120EB275080275090079
:1041C3007808120EB27C007D007A4180B785108298
:1041D300851183E4F0A31243C78582088583097898
:1041E300082274F412095774E7120F727E007F00DD
:1041F3008510828511838582088583097808120ECC
:10420300B27508028E097808120EB27C007D007A1E
:10421300411242BA120EFAE960030242A18E0880EB
:104223007574021211AB85820A85830B780A120E0C
:10423300B2902A63120D171243691242BA120EFA90
:10424300E9705074101211ABAC82AD837404121177
:10425300AB125CA312130DE9603974081211AB851C
:10426300820A85830B780A120EB274091211ABE02D
:10427300FD74081211ABE0FC74121211ABAA82ABED
:104283008374041211ABE0F91212B97402120EFA1C
:1042930012351C1240AE1242AAE509994083EEFA88
:1042A300EFFB741902475D851082851183124DA8B7
:1042B300C3E50898227A227B00121C4F74042274EF
:1042C300F512095774F0120F72851082851183E479
:1042D300F0A3F0FE805712401F64FF604D858208F3
:1042E300858309750A007808120EAE902A6312318D
:1042F300D774051211ABAA82AB83123CD8120EFA03
:1043030074021211AB8582088583097808120EB2F4
:10431300902A63120D1774041211AB12400C12434E
:10432300691243A9120EFA124396123878FF902AA3
:104333006112351640A08510828511838582088518
:1043430083097808120EB2750802750900780812FD
:104353000EB27C007D007A411243A9120EFA74104A
:10436300120EFA023DEC902A63E49312437B74022B
:1043730028FCE439FD7A4122F8740193F9E88508B1
:10438300F0A4C8AAF08509F0A42AFA8508F0E9A4E4
:104393002AF922851082851183E02401F0A3E034F9
:1043A30000F0221243B17B00121C49740422EA7507
:1043B300F00BA4FAACF075F00BEBA42CFBEAFCEBCE
:1043C300FD7A23221243CB22F085108285118322AA
:1043D300A3A3E508F0A3E509F022EAF0A3EB124456
:1043E3003922C082C08374F3120F721245C0701257
:1043F3008A828B831245361211AB12443112121189
:10440300800CEAFCEBFD74031211AB124414024A54
:10441300771244182212441F12121722AA82AB8366
:104423001211ED851082851183AA82AB8322E8F0F5
:10443300A3E91244392212443D221243CB80EA7489
:10444300F712095774F3120F72ECFEEDFF74048533
:104453001082851183F0740B1211ABEAF0A3EB12F7
:104463003525F508601D74038E828F83A3A3A3A350
:10447300A3A3A3A3F01211ABAC82AD83EEFAEFFBBF
:10448300122357A908023D62C082C08374F3120F3E
:10449300727404851082851183F0740B1211AB12B0
:1044A30043DD12121D7401024A79125CAA740D22B3
:1044B30074F612095774F3120F72900534E0706E9C
:1044C3007404851082851183F090057312453612AA
:1044D30011AB124D9112161FEAFCEBFD740312117E
:1044E300AB1233F012162B8A088B09A808A909749A
:1044F300011211ABE0687003A3E069602B74FE68DE
:10450300700374FF69602174011211AB124D917431
:10451300031211ABAA82AB83121631851082851167
:1045230083AA82AB831212237401900534F0740DB5
:1045330002418F124DA8740122C082C08374F3120A
:104543000F721245C08A828B83701E124536121178
:10455300ABE8F0A3E9125D8C705B85108285118353
:10456300AA82AB83121223804CA3A3A3A3A3A3A366
:10457300A3E064037010EAFCEBFD74031211AB12A9
:1045830045BB703180D48A828B83A3A3A3A3A3A347
:10459300A3A3E0640170128A828B83125B45740BC0
:1045A3001211ABE8F0A3E9800B740B1211AB74FE8C
:1045B300F0A374FFF0024A77124418E922740485C9
:1045C3001082851183126873A3A3A3E0640222748B
:1045D300F5120957EAFCEBFD7A007B008A088A0989
:1045E300780079008003123B4F902A61E493FE74B4
:1045F3000193FFC3E89EE99F5038E8FEE9FFEE759B
:10460300F00EA4FE85F00A75F00EEFA4250AFFEE66
:104613002413F582EF123ACB60CCAE08AF097401D4
:104623002EF508E43FF509EC6E7002ED6F70B712DA
:104633003F40023DECC082C0839005487441F0A323
:104643007415F090054A743BF0A37415F090054E71
:104653007485F0A37413F0024A8274F7120957EABF
:10466300FEEBFF900582E064086019E064046014C7
:104673008E828F83E0640170441246CF1257C0E0EC
:10468300640670398E828F83A3A3E064FE7004A353
:10469300E064FF60288E828F83A3A3126C6570038E
:1046A300A3E069700BEE2415F582EF1261DC60085C
:1046B3001215E3E9F50880081215E980F67508C2BA
:1046C300EEFAEFFB121BE3A908023D67EE240B127F
:1046D3005F4B2274F41209578A088B098A828B83F1
:1046E300E0F8A3E028FAE43400FB121BDD8A0A8B0E
:1046F3000BAE0AAF0BEE7001EF6059850882850996
:1047030083E0FC7D007900121B538E828F83A3A369
:10471300125CBC1216258E828F83A3A3A3A31260FF
:104723000BF8EE28F8EF3400F91246CFE8F0A3E9CE
:10473300124765C0E0123362D0E0F0121637EE2460
:104743000E123365E91249ACE0C0E0EE24111233D6
:1047530065D0E0F0EEFAEFFB8003120EFA7F04025D
:104763000BB41249B1E02274F412095774EB120F1F
:1047730072EAFEEBFF900544E07002A3E070687AF2
:10478300077B00121BDD900544125044900544E062
:104793007002A3E0604D900544125B4C8F838E82C0
:1047A3007407120E0E8E828F8378081211328510D1
:1047B3008285118378081211508E828F83A3A3A35D
:1047C300A3E0C0E074051211ABD0E01247F1E0C0E2
:1047D300E074041211ABD0E0F074071211AB12496C
:1047E300398006791080027901741502475D1247FA
:1047F300F522F08E828F83026C75C082C083900590
:1048030044E07002A3E0600D90054412611F90051F
:1048130044E4F0A3F012155F121727024A8274F3DF
:1048230012095774EB120F72ECFEEDFF7422121192
:10483300AB780812113274261211ABE0FC74271204
:1048430011ABE0FD74281211ABE0F50C740F6C7022
:1048530005740F6D6012901CBEE06402700579C18F
:1048630002492FECC39D40F690058378081211503E
:10487300E9900589F0EC900587F0ED900588F0E567
:104883000C90058AF074FF6A700374FF6B701F90BD
:104893001CCBE064FF7004A3E064FF7005121B658A
:1048A300800C901CCB1249BAE8F0A3E9800790056D
:1048B30080EAF0A3EBF0EE7001EF6017EEFAEFFB86
:1048C3001217E7E96401700BEEFCEFFD7A947B05A8
:1048D300122357900573E4F0A3F0900576F0A3F04C
:1048E300900593F0901CBEE06402700A740F90056B
:1048F30087F0900588F07405900582F07404121116
:10490300ABE4F0900583780812113285108285118B
:10491300837808121150900589E0C0E074051211E4
:10492300ABD0E0F074071211AB1249397415120EB3
:10493300FA7F05020BB4E412493E2212443D1223CE
:104943008122C082C083900543E07003121E771258
:104953001355024A82C082C083900543E07007E486
:10496300901C56F080317401901C56F0900543E082
:1049730064FF60237C41E0C394415002E0FCECFA05
:10498300E0C39AF0EC75F0E8A4CCAAF075F003A4A8
:104993002AFD7A80126C817A567B1C794112236F2F
:1049A300024A8212319CA3A3221249B1A322F085A9
:1049B3000882850983A322124DA890058022126CD8
:1049C30097F8A3E0F922C082C083EB90058AF01226
:1049D300154D024A821231ABA3E02274F712095734
:1049E30074F8120F72EAFEEBFF7900900582E0641F
:1049F30008704085108285118374FD125CBE121607
:104A03001F74021211AB12504474051211AB123110
:104A1300A6E0C0E074041211ABD0E0124A3BC0E040
:104A230074061211ABD0E0F074071211AB124D975C
:104A33001216797408023D64F0022F02C082C0830B
:104A43009005547409F0A37414F09005EE74CDF03E
:104A5300A37416F09005587439F0A37414F09005FC
:104A63005A7409F0A37414F090055C743FF0A374B6
:104A730014F0800B740B1211AB1244AD120EFAD06A
:104A830083D082020B8074F412095774F9120F72E7
:104A93008A088B098C0A8D0B85108285118378080F
:104AA30012115074041211ABE9F074051211ABE446
:104AB300F074061211AB124D9712133D740702479F
:104AC3005D74F41209578A088B098A828B831261F9
:104AD300E5EE7001EF7003024BE2900510E0700207
:104AE300A3E060158A828B83A3A3E0F9EEFAEFFBC0
:104AF3009005101257C01225BA8E828F83A3A3A3E9
:104B0300A3A3A3A3A3A3E06402707F8E828F83A3D6
:104B1300A3A3A3A3A3E054027003024BB1850882AD
:104B2300850983A3A3E064E97003024BB18E828FEE
:104B330083A3A3A3A3A3A3A3A3A3A3E07014901C81
:104B4300C0E0048E828F83A3A3A3A3A3A3A3A3A3E1
:104B5300A3F08E828F83A3A3A3A3A3A3A3A3A3A33F
:104B6300E014F074048E828F83A3A3A3A3A3A3A34F
:104B7300A3A3F0901CC11249A6A3A3E8F0A3E912D2
:104B83006E787001EB700312687B8E828F83A3A310
:104B9300A3A3A3A3A3A3A3E0640260128E828F83C3
:104BA300A3A3A3A3A3A3A3A3A3E0640670318E824C
:104BB3008F83A3A3A3A3A3A3E0A2E050228508822B
:104BC300850983A3A3E0F9EEFAEFFB1224A18E82F9
:104BD3008F83A3A3A3A3A3A3E054FEF0A3E0F00257
:104BE300476074F012095774DD120F728A0C8B0D33
:104BF3008C0E8D0F74331211AB78081211327F00B3
:104C0300740E1211ABAC82AD8312253D740E1211DA
:104C1300ABE0A2E5500D0F125C9C1224ADE96003DA
:104C2300024D3A740E1211ABE0A2E6500E740F124D
:104C330011ABE0540370047E0180027E00740E12F7
:104C430011ABE05403FA74026A7009125C9C1224DB
:104C5300E9024D3A74016A7043EE6003124D6D74BC
:104C63000E1211ABA882A98374031211ABE8F0A34F
:104C7300E9124D9C851082851183124D91850C821A
:104C8300850D83A3A3A3A3A3A3E0C0E07402121121
:104C9300ABD0E0124D98122591024D3AEA6003021F
:104CA3004D3A740D1211AB7402124D9C740512111E
:104CB300AB124D91EE6008740E1211AB124D6D7470
:104CC3000E1211ABE0540C64047071E50C240FF563
:104CD30082E50D1261DCC0E074201211ABD0E0F06C
:104CE300900512E07002A3E0604D1216258A0C8B2A
:104CF3000DA80CA90D74051211ABE0687003A3E0B5
:104D03006970347808120EAAEFF5087808120EB607
:104D1300780E120EB2EEF974151211ABAC82AD839C
:104D2300740C1211ABAA82AB839005121257C012F6
:104D330025BA7407120EFA7423026C147808120E43
:104D4300AA780E120EB2900580120CB9EFF9740D09
:104D53001211ABAC82AD8374161211ABAA82AB8372
:104D63001224957408120EFA80CD124D7A125F4EFA
:104D7300125CAA12250D22AC82AD83E50C240BF53F
:104D830082E50D22124DA4126353EB125F4EE8F03D
:104D9300A3E9F022E412443922F0124D7E124DA40D
:104DA300223400F583E00249C4C082C083121D751A
:104DB300024A82C082C083121D7B024A82C082C023
:104DC30083121D81024A82C082C083121D87024A58
:104DD3008274F712095774091211ABE0F5087808C9
:104DE300120EB6121D937401023D64C082C0831279
:104DF3001D9F024A82C082C083121DA5024A82C03F
:104E030082C083121DAB024A8274F7120957EAFE6D
:104E1300EBFF7401697010790012147B7C1E79001A
:104E2300EEFAEFFB1213FD023D6774F41209577497
:104E3300F9120F728A088B098C0A8D0B74131211E5
:104E4300AB125CA390144FE07002A3E06027E985E6
:104E53001082851183F074011211AB78081211507E
:104E6300EAF8EBF974051211AB12443190144F12A6
:104E730057C01225BA024ABFC082C083121DDB028B
:104E83004A8274F7120957901C59E0F97F00800B8E
:104E93001250CE540D64017001190F1250C6500305
:104EA300E970ED023D6774F7120957901C5AE0F957
:104EB3007F00800B1250CE548D64817001190F1244
:104EC30050C65003E970ED023D6774F21209578929
:104ED3000AE975F006A4F8A9F0740C28FEE439FF7A
:104EE300EA2EFAE43FFB121BDD8A088B09EA700104
:104EF300EB6029EEFCEFFD7900121B53126348E5CA
:104F03000AF0E5082EF8E5093FF98508828509834B
:104F1300A3A3A3A3A3A3A3A3A3124D91AA08AB097D
:104F2300023FFF74F61209578A088B091213D990AE
:104F33001C58E0FAE9C39A4009900550125CA31289
:104F430013DFE5082402FEE5093400FF9005521241
:104F53006359F0900552E004F0AA08AB091213E577
:104F63008E828F83E0024170C082C08379009005F6
:104F730050800109125CA38A828B83E5827002E56B
:104F83008370F0024A8274F7120957EAFEEBFFEED0
:104F93007001EF6058900550E07002A3E0604E90FE
:104FA30005501257D87A007B00800FAA82AB831278
:104FB30057D8E5827002E5836033EE65827003EFB4
:104FC300658370E7900550124FF3687002EF698EA6
:104FD300828F837008125B459005508003126E6CBC
:104FE300124FF8122561EEFAEFFB121BE3023D6745
:104FF300124DA8EE22E8F0A3E9F0023CEAC082C019
:1050030083900550800488828983125B45E8700190
:10501300E9600B88828983E07002A3E070E88A82EA
:105023008B83E4F0A3F0E87001E96006888289834A
:105033008003900550125044024A828510828511E4
:1050430083EAF0A3EBF02274F7120957E9FC900509
:105053005080048A828B831250C17001EB60177EEB
:105063000080010E1250B1FDEEC39D50E6EE1250CA
:10507300E76C70EF80047A007B00023D6774F712DF
:105083000957E9FD7F0080010F1250B1FEEFC39E67
:105093005019EF1250E76D70EFEF75F006A4F8A901
:1050A300F012639274111250F64CF0023D671250E5
:1050B300B522EA240BF582EB3400F583E022125C7F
:1050C300AAEA221250B5FCEFC39C22EF75F006A4A6
:1050D300FCADF0EA2CFCEB3DFD74112CF582E43DB4
:1050E300F583E02275F006A4F8A9F0EA28F8EB3975
:1050F300F9741028F582E439F583E02274F6120975
:10510300571214F37A008011EA126057125CC81226
:10511300517DF0A3126662F00A902A67126C524026
:10512300E77A00801B8A0875090074037808121057
:1051330089126631125CC4A3A3A3A3A3A3A3F00A99
:10514300902A72126C5240DD7A00801A8A0875091F
:105153000074037808121089E508249EF582E50996
:10516300341B125CBA0A126C4F40E1902A6CE49330
:1051730090055EF0126C7B024192A31251822212BF
:105183006662026C7674F112095774F5120F72EAB3
:10519300FEEBFF89088C09E9A2E050127EFC7FFF39
:1051A300A2E15005D2E4025252D2E3025252121447
:1051B300D58A0A8B0BA80AA90B900573E0687003C4
:1051C300A3E06970057900025334AC087902EEFA62
:1051D300EFFB1214CFE960EDE508F50A780A120E29
:1051E300B6125339120EFAE96003025332E508C2CC
:1051F300E5F5089005C0E07058E508A2E640527452
:10520300031211ABAC82AD83EEFAEFFB1211F9E995
:105213007039125B49EEFAEFFB1217698A0A8B0B9E
:10522300A80AA90BE87001E96027E824020A0AE941
:105233001230BE601CE50A2402FCE50B3400FD7449
:10524300031211ABAA82AB83122357E508D2E5F50B
:1052530008900553E0F50E900573125B56780A1219
:105263000EB27D017C00900553E0F9AA0AAB0B1244
:1052730014877402120EFAE9FA900553E004F0EA77
:105283006003025332E508A2E550047A0E80027AE5
:105293000674011211AB12636E8A0A8B0BEA70015A
:1052A300EB700302532E125349E50A241AF582E5E3
:1052B3000B123368EAF0A3EB125359124536888276
:1052C3008983F074785508125427E50EF0EE88822E
:1052D3008983A3A3A3126648F0E488828983A3A3E6
:1052E300A3A3A3F0E508A2E5501474031211ABAC19
:1052F30082AD83E82406FAE93400FB122357850ABA
:1053030082850B83A3A374FD125CBEE5096013C3FE
:10531300941E500EE50A2413F582E50B123368E55B
:1053230009F0AA0AAB0B12133180067910800279B7
:10533300C7740B023CCF79027CFE7DFFEEFAEFFBD4
:10534300121445740122EA2417F582EB125F4E749E
:1053530001F012161F22F0E50A126354E50B125FE7
:105363004E2274F41209578A088B09E9FE1216AF0C
:10537300E960077AFF7BFF02541A901CBEE06402C7
:10538300600302540D7900AA08AB091265008A0A6A
:105393008B0BA80AA90BE87001E9605888828983FE
:1053A300A3A3A3A3A3E06401701C12541D125424ED
:1053B300E064FE7004A3E064FF602B88828983A30A
:1053C300A3125CA3805188828983A3A3A3A3A3E030
:1053D3006403602888828983A3A3A3A3A3E064044E
:1053E30070047AFE808F88828983A3A3A3A3A3E09A
:1053F300640270089005BFE06402700E1269ED70DC
:1054030001EB6006AA08AB09800DAA08AB09900559
:10541300541257C01225BA024760900572E0025732
:10542300DEA3A3A3A312665DA32274F7120957EAAE
:10543300FEEBFF121247E9700AEEFAEFFB1212536A
:10544300E96006EEFAEFFB80047AFE7BFF023D671C
:1054530074F01209578A0A8B0B8C0E8D0FE9FE75B7
:1054630008001216AFE979006003025538AA0AABA7
:105473000B1264D3A80CA90DE87001E960198882A6
:105483008983A3A3A3A3A3E06402704F9005BFE0A5
:1054930064027003025536AA0AAB0B90055A1257E1
:1054A300C01225BA1212598A0C8B0DA80CA90DE84B
:1054B3007001E9607E88828983A3A3A3A3A3E0A2EA
:1054C300E050707F01A2E150247901AC0AAD0BAA30
:1054D3000EAB0F121427E97020805888828983A3AA
:1054E300A3A3A3A3E06403704A7F02800C8882898C
:1054F30083A3A3A3A3A3D2E1F0900573E0650E7089
:1055030004A3E0650F70107C1EEEF9AA0AAB0B1220
:1055130013FD750801801CEFF9AC0AAD0BAA0EABA5
:105523000F121427E9700C750801EEF9AA0AAB0BE8
:1055330012147BA908026C1774F112095774EE1246
:105543000F7212503E8C088D099005F4E07002A38F
:10555300E060121270237002E5836004A3E070051B
:1055630079000257A9851082851183E0241DF50C6B
:10557300A3E03400F50D850C82F5831257D8A3E020
:10558300F50A12595CFA88828983A3A3A3A3E0F9DD
:10559300EAFEE9FFAA08AB09121481E9FA850C8235
:1055A300850D83126C6EE02AF50B530A7878081286
:1055B3000EB27D00AC0BA90E74021211AB12580A85
:1055C300120EFAE9FA74036A6096EA704474185585
:1055D3000A70030256D0E50AD2E0F50AA2E45004A9
:1055E300D2E1F50AE50AF50C780C120EB67901AC96
:1055F30008AD09E91211AB125803120EFAE9701142
:1056030074211211AB1257D1126C921257E3121D6F
:105613009974211211AB1257C0E064FF7004A3E028
:1056230064FF603B9005BFE064027003025563852D
:105633001082851183E01257E31257BD1225BAEA8F
:1056430065087003EB650960030255631257B912CD
:1056530025BA74211211AB1257C0EAF0A3EBF0780C
:1056630008120EB27D01AC0BA90E74021211AB121B
:10567300580A120EFAA90AEEFAEFFB1214D58A0899
:105683008B09A808A909900573E0687003A3E06972
:10569300600302579CEEFAEFFB1257AC7001E9600E
:1056A3006C88828983A3A3A3A3E06401600D88822D
:1056B3008983A3A3A3A3E06402705274021211AB03
:1056C300AC82AD83EEFAEFFB1211F9805390056CB7
:1056D300E06019E50AF50C780C120EB67901AC08F6
:1056E300AD09E91211AB125803120EFAE50AF50CD3
:1056F300780C120EB6125339120EFAE960030256F1
:105703001474211211AB1257D1A302566112161F42
:10571300EAFCEBFD74021211ABAA82AB831223578E
:105723008510828511831257ED701C8510828511B7
:1057330083E0241512596EFCA3E0FD740A1211AB29
:10574300AA82AB831223571257F7E04430F5087847
:1057530008120EB674031211AB858208858309788B
:1057630008120EB2740D1211AB8582088583097875
:1057730008120EB2E50EF5087808120EB67900EE9F
:10578300FCEFFD74061211AB12598E125CA31214B6
:10579300217406120EFA0255631257F7A3A3A3A3AB
:1057A300E50BF0121637023CCD1212598A088B0909
:1057B300A808A909E822EEFAEFFB9005561257C490
:1057C300221257C822E0F8A3E0F5838882221257F9
:1057D300C474FFF022124DA88001F98882898322C4
:1057E300240B12597FFAA3E0FB22126C72A3A3A32A
:1057F300E0640122125976F8A3E0F5838882A3229C
:10580300125CA712534322125CA71214877402225C
:1058130074F112095774EE120F7285108285118389
:10582300EAF0A3EB126C93241D12596EF8A3E0F96E
:1058330012595CFC88828983A3A3A3A3E0FBECF544
:1058430008EBF50988828983A3A3A3A3A3E0FC88BB
:10585300828983A3A3A3A3A3A3E0FAE4CAFBECFE78
:10586300EBFF88828983A3A3A3A3A3A3A3E0F50AE1
:1058730088828983A3E05478F50BA2E45019125966
:10588300722408FCA3E03400FD740A1211ABAA824F
:10589300AB831223577A08E50BA2E5501D12597208
:1058A3002AF8A3E03400F9740828FCE439FD7402F3
:1058B3001211ABAA82AB83122357AC0AA90EAA0812
:1058C300AB0912148DE9FA74036A700302595990F3
:1058D3000573E065087004A3E065096064EA705A23
:1058E300E50BF50C780C120EB67901E91211AB1227
:1058F3005984120EFAE9705E780B120EB674031215
:1059030011AB85820C85830D780C120EB2740D12C7
:1059130011AB85820C85830D780C120EB2E50EF562
:105923000B780B120EB6A90AEEFCEFFDAA08AB0921
:105933001214217406120EFA801C74046A70178004
:10594300B7E50BF5087808120EB67901E91211AB29
:10595300125984120EFA023CCD88828983A3A3E0F4
:10596300F50E88828983A3A3A3E02212597F221212
:10597300597622851082851183E0241D126C1CE068
:105983002212598E123CE51253432212599222E0FD
:10599300240BFAA3E03400FB8A828B832274F01277
:1059A300095774F2120F7274021211ABE9F0EAFE96
:1059B300EBFF8C088D09741E1211ABE0F50F7423F5
:1059C3001211ABE0F50EA90F12149312503E74049A
:1059D3001211AB7408F0E50EA2E450037410F0E565
:1059E3000EA2E55004E02408F074031211ABAA825E
:1059F300AB831216978A0C8B0DEA7001EB700302CE
:105A03005B2B125349E50C241AF582E50D1233681A
:105A130012504474061211ABAC82AD83851082859B
:105A23001183125CA31211F9E9600E125B30740644
:105A33001211ABA882A9838020E50EA2E45025852C
:105A43001082851183E06E7003A3E06F7016125B02
:105A530030741F1211AB125B45E50C2418F582E577
:105A63000D124D8EE50C123194E50D123368125B65
:105A7300567402850A82850B83F0A3E50E125B5EE2
:105A8300E50FF0EE850A82850B83A3A3A3F0EF85D0
:105A93000A82850B83A3A3A3A3125B5EA3A3A3E53F
:105AA30008F0E509850A82850B83A3A3A3A3A312A8
:105AB3006C92FAA3E0FB12148174021211ABE9FA9F
:105AC300E02A850A82850B83A3A3A3A3A3A3A3F040
:105AD300750800E50EA2E45018741F1211AB125B97
:105AE3004CE50A2408FAE50B3400FB12235775082A
:105AF30008E50EA2E5501C74211211AB125B4CE5B4
:105B03000A2508F8E50B3400F9740828FAE439FB90
:105B1300122357125B3F850C82850D83A3A3124D7D
