:020000040000FA
:060000000211A202073903
:03002B000211516E
:03003300020D8F2C
:03004300020FD4D5
:03004B00020E544E
:0300530002068C16
:03005B00020E632F
:03006300020E6F1B
:03006B00020D750E
:100083000206D50101FF01010503010F10FEFF0365
:100093000003000300030003000300030003000345
:1000A3000005000A00140028004F009E000000A471
:1000B3001AA41AA41AA41A66196019A41A06290004
:1000C3000000004228000000000C0000000C0001AA
:1000D300CA06FF03000102001C140000008F146411
:1000E300000202000800000502071E02051E020AA4
:1000F30003B80B02803E0103320002F1FF02020645
:10010300000020410000803FCDCCCC3D1211EE60B9
:100113001D1211D07005191919801A12102C701F95
:10012300121041C37003E6673319191940071818F1
:10013300182208080874FFF618F618F618F62212A3
:100143001041601712124E702192F012124470196E
:10015300501720F014080808090909E7F61819E7E9
:10016300F61819E7F61819E7F62212124460E6E8C2
:1001730069701F0808E62480F608E436F618547FF1
:10018300B47F0CE654806007F6E418F618F62218DC
:100193001822E9C6CC08C6CD08C6CE08C6CFC0E033
:1001A300E8C0E0EAC0E0EBC0E009E9F809E7FA09D2
:1001B300E7FBE6F918E6F8C3EC98ED99EE9AEBC283
:1001C300E7F5F0EFC2E795F0500E600CEBCFFBEADA
:1001D300CEFAE9CDF9E8CCF8EAA2E7D2E7FAEB33B5
:1001E300FB13F5F0EEA2E7D2E7FEEF33FFC5F01302
:1001F300A2E730E601B313C5F0C3C0E0C0F07F004F
:10020300C39BFB605B9418600C401AD0E023F9D0C9
:10021300E0F80202ED8AF0E9486003D2F0E4AFF0BF
:10022300FAF9F8803BEB30E40D89F0EA6003D2F091
:10023300E4AFF0F9CAF8EB30E30D88F0EF6002D2D7
:10024300F0AFF0E4CAC9F8EB54076014FBC3EA1338
:10025300FAE913F9E813F8EF135002D2E0FFDBEDEC
:10026300D0E0C0E030E739C3E49FFFF5F0EC98FC41
:1002730042F0ED99FD42F0EE9AFE42F0D0E0F9D063
:10028300E0F8E5F0607AE923F9EE20E742D802804E
:1002930067C3EF33FFEC33FCED33FDEE33FE80EA4F
:1002A300EC28FCED39FDEE3AFED0E023F9D0E0F87E
:1002B3004002801BC3EE13FEED13FDEC13FCEF13A2
:1002C3005002D2E0FF08B800067F7F74FF802EEF54
:1002D3003350178CF020F00260100CBC000C0DBDE5
:1002E30000080EBE000408E860DFE933E813FFEE00
:1002F3002313FE4F4D4C8008E95480FFE4FEFDFCC0
:10030300EE33EF33F47004FCFD7E80D0E0FBD0E0ED
:10031300FAD0E0F8D0E0CFC618CEC618CDC618CCB8
:10032300C6F9221211EE7004181818221211D07097
:100333000D74FFF61819F61819F61819F622E75472
:100343008066F6121244700F12124E70F014F60803
:10035300F608F608F680D112124E700CF608F6086D
:10036300768008E6447F80EC121044700C12102F44
:1003730060BFE65480F6E480BB12102F7005191994
:100383001980A5E869700C763F18768018F618F680
:10039300E8F922E6CDC0E018ECC0E0E633CD33CD7A
:1003A300D313F6E719FCE7191933CC33C3947F4011
:1003B3000ECD9D502408E65480F6E418F6800FF421
:1003C300043D14501408E6447FF6187680E418F6CA
:1003D30018F6D0E0FCD0E0FD22CCD313CCFD18E41A
:1003E300C6CBC0E018E4C6CAC0E00808ED08C633AF
:1003F300E613F618E433C675F003C3CA97CA09CBEC
:1004030097CB199C40047D08802EBD00030204CFC6
:1004130016B6FF050606081618C3CA33CACB33CB74
:1004230033CA27CA09CB37CB193CC37D08803E1892
:100433007D0820E75CC633C6CA33CACB33CB33DD72
:10044300F1D5F0EB30E77BCA97CA09CB974ACB19B2
:100453009C406F4B7025E620E0218066187D08C321
:10046300CA97CA09CB97CB199CD3C633C6CA33CA1A
:10047300CB33CB3350C9DDE7D5F0E1D3E4C636C681
:1004830008C636C608C636C608C636C61818188043
:1004930031C3CA97CA09CB97CB199CB34097C633CC
:1004A300C6CA33CACB33CB33DD34D5F02EC6A2E074
:1004B300C640C8CA27CA09CB37194A70BECB3CB459
:1004C30080B90808E63308E633601F181818D0E02F
:1004D300FAD0E0FBD0E0FCD0E0FD22187D08CA276B
:1004E300CA09CB37CB193CD3808013F618E4B67F07
:1004F30011F618B6FF0EF618C60470D208087680F7
:1005030080CAF618F618F680C5001211EE604F1275
:1005130011D06012E7548066F612102C701112127B
:100523004E703B090909F4F618F618F618F622126C
:100533001041701512124408080860EAE6447FF679
:1005430018768018E4F618F6221212446016121276
:100553004E7012E4F608F608F608E65480F6090928
:100563000918181822EAC0E0EBC0E0ECC0E0EDC0C7
:10057300E0E687F0A4FBACF008E687F0A42CFCE4EB
:1005830035F0FA1809E687F0A42C4B60027401CA0F
:1005930035F0FCE433FB09E687F0D2F7A42CCB3526
:1005A300F0FC1908E687F0A42BCC35F0FBE433FD0F
:1005B3000819E687F0D2E7A42C4ACB35F0CD3400F6
:1005C300FC09E687F0D2E7A42DCC35F0FDE433FA3D
:1005D3000918E687F0D2F7A42CCD35F0CA3400FC15
:1005E30008E687F0D2E7D2F7A42ACC35F07A7E204A
:1005F300E70B0ACB33CBCD33CDCC33CC33CB33501A
:10060300147004ED30E00ED2F1E4CD3DCDCC3CCC02
:100613003B5005DA05C2F1EB547FC63308E633924B
:10062300F0FBE73309E733C39A502D2B70190C0DF8
:100633004C4D70151806E608C333700D20F10AA25D
:10064300F013F6E418800B4024E4F630F0027680D1
:1006530018F618F618F68024D33B14501074FFA232
:10066300F013F6187680E418F618F6800FA2F0134C
:10067300F618E63303F618ECF618EDF6D0E0FDD0E5
:10068300E0FCD0E0FBD0E0FA22C0E074F2120A52A0
:10069300E5A7F8E5A1F958541060081221D053A139
:1006A300EF802AE8A2E0C0D0E9A2E092F012109312
:1006B300158182F05017906198E0F89017A4E0C379
:1006C30098A2D265D0335002E8F053A1FE7F010215
:1006D3000AB1C0E074F2120A529061A4E0F8759B6B
:1006E30000E59158540860087591F7122212802A88
:1006F300E59158541060087591EF122218801BE899
:10070300A2E0C0D0E591A2E092F01210931581828D
:10071300F05007E0C2E0F01223389061A3E0F8E55F
:10072300E9585404600E12230E75E9FB906193E0BF
:10073300A2E640F28097C0E074F2120A529061A5DB
:10074300E0F8E5BF585404600653BFFB1223500280
:1007530006D0C3E498F8E499F91207968026C3E417
:100763009AFAE49BFBE920E7E9120796E498F8E498
:1007730099F922C3E498F8E499F9120796E498F8F2
:10078300E499F9C3E49AFAE49BFB22EB20E7CFE96F
:1007930020E7E0B90010BB0008E88AF084F8AAF06B
:1007A30022E4FBC8FA22EB70227B10C833C8C9339A
:1007B300C9335007C39AC3DBF280069A50012ADB80
:1007C300EAC833F4C8C933F4C9FA2275F008E4C897
:1007D30033C8C933C933C99AC99B5004C92AC93B11
:1007E300D5F0ECFBC833F4C8E4C9FA2212082F2071
:1007F300F01430E72B74FFFCFBFA747F8022E4FCD7
:10080300FBFA7480801AB48008BC00F2BB00EF804E
:100813000F50EBF9E4C39AFAE49BFBE49CFCE499E4
:10082300C6CC18C6CB18C6CA18C6F922E4C9C6086E
:10083300CAC608CBC6D3330308CCC63392F0C394DD
:100843007F402E94184019C9B90704CACBCC225053
:1008530025C309CA33CACB33CBCC33CC33D9F42227
:10086300F4600DC9CCC313CB13CBCA13CAD9F6CCCE
:1008730022E4FCFBFA2214FCFBFA22080808EAC073
:10088300E0EBC0E086F0E7A4FA180986F0E7A42AB3
:10089300FA180986F0E7A42AFA180986F0E7A42AC9
:1008A300FA1986F0E7A4FBE5F02AFA190886F0E7BF
:1008B300A42BFBE5F03AFA190886F0E7A42BFBE535
:1008C300F03AFA18180986F0E7A4C5F02BFBE43ACE
:1008D300FA1908E7C5F0C6A426F6E5F03BFBE43AAF
:1008E300FA1886F0E7A4F6E5F00826F6E43B08F6E6
:1008F300E43A08F6D0E0FBD0E0FA22080808E63034
:10090300E71112107F120916080808C64480C6189A
:10091300181822181818E9799EC608CAC608CBC643
:1009230008CCC6C370207996CACBCC7019798ECB0C
:10093300CC70137986CC700EF9802ACA33CACB33B4
:10094300CBCC33CC331930E7F2CCCBCA3350147051
:1009530004EA30E00DE4CA3ACACB3BCBCC3CCC50E2
:100963000209C3E913C6CC182313C6CB18C6CA1889
:10097300C6F922E4CFC0E0E4CEC0E0E4CDC0E0E4B9
:10098300CCC0E075F020C3E633F608E633F608E69C
:1009930033F608E633F6181818EC33FCED33FDEEA6
:1009A30033FEEF33FFC3EC9709ED9709EE9709EF99
:1009B30097191919400FFFEC97FC09ED97FD09EE04
:1009C30097FE191906D5F0BEECF709EDF709EEF716
:1009D30009EFF7191919D0E0FCD0E0FDD0E0FED003
:1009E300E0FF222510C582C0E0E51134FFC583C0B6
:1009F300E0E510C3958224F810AF08858311858242
:100A0300108008858311858210D2AFCEF0A3E52034
:100A1300F0A37808E608F0A3DEFAEFF0A3E581245B
:100A2300FAF8E608F0A3E608F0A3E608F0A308083E
:100A3300E608F0A3E608F0A315811581D0E0FED007
:100A4300E0F8158115811581E8C0E0EEC0E022C011
:100A5300D02510C582C0E0E51134FFC583C0E0E5B1
:100A630010C3958224F310AF08858311858210800B
:100A730008858311858210D2AFC8F0A3E9F0A3EAF9
:100A8300F0A3EBF0A37908E709F0A3D8FAECF0A3FD
:100A9300EDF0A3EEF0A3EFF0A3D0E0F0A3D0E0F0ED
:100AA300A3D0E0F0A3E520F0A3E5F0F0A3228511A5
:100AB30083851082E0C0E0A3E0F9A3E0FAA3E0FBA2
:100AC300A37808E0F608A3DFFAE0FCA3E0FDA3E0C7
:100AD300FEA3E0FFA3E0C0E0A3E0C0E0A3E0F5D005
:100AE300A3E0F520A3E0A3F5F010AF0885831185FB
:100AF30082108008858311858210D2AFD082D08383
:100B0300D0E0F8D0E03212122FB90003020B4BE40D
:100B13009004FF785579188002F0A3D8FCD9FA9095
:100B23001C53AA82AB83900086788A79018015E4EE
:100B330093A3AC82AD838A828B83F0A3AA82AB8317
:100B43008C828D83D8E9D9E77582027583E77403B4
:100B5300120BF975826E7583267400120BF9D0831C
:100B6300D082ECC0E0EDC0E0E493A3FCE493A3FDEA
:100B7300ED4C600D120CCFEC24FFFCED34FFFD8037
:100B8300EFE493A3FCE493A3FDED4C600D120DFF82
:100B9300EC24FFFCED34FFFD80EFD0E0FDD0E0FC62
:100BA300E493A3C0E0E493C0E0221211EE601B12B1
:100BB30011D06016121244700712124E600CB32249
:100BC300C0D012124E7005D0D022C32233D0D050E1
:100BD3001330E0EBC3E7960809E7960809E79608A0
:100BE30009E7962220E0E4E6970809E6970809E674
:100BF300970809E69722C0F0F5F0E59F5407C0E097
:100C0300E59F54F845F0D0F0F59FE473859FF053CA
:100C1300F0F8D0E045F0F59F22D083D082E59F54D1
:100C230007C0E0E493C0E0740193C0E074029354FE
:100C330007C0F0F5F0E59F54F845F0D0F0F59F229A
:100C4300D083D082E9C0E0E493A3C386F0C5F095D6
:100C5300F0F908E493A386F0C5F095F0700BE493E4
:100C6300A3C3994005E9048002A3E475F002A42517
:100C730082F582E5F03583F583D0E0F9E493A3C0F0
:100C8300E0E493C0E022851183851082E0A3FEE0B7
:100C9300A3F5207808E0A3F608DFFAE0A3FFE0A3BA
:100CA300C0E0E0A3C0E0E0A3C0E0E0A3C0E0E0A3B5
:100CB300C0E010AF088582108583118008858210FB
:100CC300858311D2AFD083D082020C0FC0E0C3E47E
:100CD3009396087401939618400FE493667008087E
:100CE300740193661870007019A3A3C3E493960864
:100CF3007401939618A3A3400DD0E0D0E0D0E00296
:100D03000B9DA3A3A3A3A3A3D0E022D083D082C52A
:100D1300F0E493A3C5F0C395F0F5F0E493A3C39572
:100D2300F04005E5F0048001E475F002A42582F5A6
:100D330082E5F03583F583E493A3C0E0E493C0E058
:100D4300227404800474028000CCC0E0EDC0E0E5AE
:100D530010C39CCCAD1150011D10AF068C108D112A
:100D630080068C108D11D2AF120E9DD0E0FDD0E025
:100D7300FC22C0E074F2120A52E589A2E150031288
:100D83002092758900C2C57F01020AB1C0E074F2E6
:100D9300120A52E58BA2E05003122092758B00C217
:100DA300E880E474028000CCC0E0EDC0E0E510C34D
:100DB3009CCCAD1150011D10AF068C108D11800617
:100DC3008C108D11D2AF120E7BD0E0FDD0E0FC224F
:100DD3001211EE60251211D060201212447003022A
:100DE300124E080808E76670101819E766700A18AB
:100DF30019E76670041819E76622F422C0E0C0F010
:100E030088F0E4936670080874019366187000A86C
:100E1300F0A3A3700BD0F0D0E0D0E0D0E0020B9DA4
:100E2300A3A3D0F0D0E022D083D082CCC0E0E4935F
:100E3300A36006120EFC1470FAE493A3600612106A
:100E4300011470FAD0E0FCE493A3C0E0E493C0E0A3
:100E530022C0E074F2120A521221167F01020AB173
:100E6300C0E074F2120A5212211C80EFC0E074F247
:100E7300120A5212212280E3CAC0E0E493A3C5827E
:100E8300CCC582C583CDC583F0A3C582CCC582C53D
:100E930083CDC583DAE5D0E0CA22CAC0E0E0A3C5AA
:100EA30082CCC582C583CDC583F0A3C582CCC58260
:100EB300C583CDC583DAE6D0E0CA227009080808E5
:100EC300226016181818C6C333C608C633C608C628
:100ED30033C608C633C6D5E0EA22C008C3E096F598
:100EE3000808A3E096420808A3E096420808A3E096
:100EF3009645087001D3D00822C0E0E493A3D39CA5
:100F03005010E493A3C39C400AD0E0D0E0D0E002A9
:100F13000E47A3A3A3D0E022C5822510C582C583B3
:100F2300351110AF07F5118582108007F511858201
:100F330010D2AFC583227404800A7403800674023E
:100F430080027401C0E0F404120F54D0E012120ABC
:100F5300222510F58210AF08F51040021511800804
:100F6300F51040021511D2AF85118322BB0102E7B0
:100F730022C082C08389828A83BB0003E08002E4AB
:100F830093D083D08222C0D0251010AF08F5105023
:100F93000205118008F51050020511D2AFD0D022FE
:100FA3006016080808C6C313C618C613C618C613A6
:100FB300C618C613C6D5E0EA22C3E0C696F608A350
:100FC300E0C696F608A3E0C696F608A3E0C696F632
:100FD30022C0E074F2120A52C2C0E5D1A2E4500367
:100FE30012214C7F01020AB1251010AF08F5104001
:100FF3000215118008F51040021511D2AF22C0E08E
:10100300E493A36C7009D0E0D0E0D0E0020E47A3D4
:10101300A3D0E022C3E09608A3E09608A3E09608D5
:10102300A3E096A2D265D03322181818E608460822
:10103300700AE608C3337005E633F422082219194F
:1010430019E7094709700AE709C3337005E733F461
:10105300220922E066701008A3E066700A08A3E084
:1010630066700408A3E06622C3E096F008A3E09646
:10107300F008A3E096F008A3E096F022181818E40D
:10108300C396F608E496F608E496F608E496F62284
:10109300C0E0E8C0E0E58124FCF8E6A2E7D0E0F890
:1010A300D0E022E026F608A3E036F608A3E036F601
:1010B30008A3E036F622E026F008A3E036F008A302
:1010C300E036F008A3E036F022E627F60809E63713
:1010D300F60809E637F60809E637F62270042260B7
:1010E3000D18C6C333C608C633C6D5E0F41822E6C6
:1010F30057F60809E657F60809E657F60809E657CA
:10110300F622E056F608A3E056F608A3E056F608E2
:10111300A3E056F622E056F008A3E056F008A3E059
:1011230056F008A3E056F022E046F008A3E046F0AC
:1011330008A3E046F008A3E046F022E647F60809D4
:10114300E647F60809E647F60809E647F622C0E04F
:1011530074F2120A52C2C71222547F01020AB1C3A7
:10116300E7960809E7960809E7960809E79622C66D
:10117300F4C608C6F4C608C6F4C608C6F4C6226098
:101183000D08C6A2E713C618C613C6D5E0F322C3DB
:10119300E09608A3E09608A3E09608A3E0962275DC
:1011A300D0007581407510FF75110400020B0960B2
:1011B3000C08C6C313C618C613C6D5E0F422E0F65E
:1011C30008A3E0F608A3E0F608A3E0F622E7094740
:1011D30009C3134709336002E733F422E6F008A397
:1011E300E6F008A3E6F008A3E6F022E6084608C303
:1011F300134608336002E633F422C5822510C58204
:10120300C5833511C58322CAC0E0E6F0A308DAFA24
:10121300D0E0FA22E0FAA3E0FBA3E0FCA3E0FD2286
:10122300EAF0A3EBF0A3ECF0A3EDF022E5C754F84A
:101233004401F5C77901222510F582E43511F583C0
:1012430022E6C33318461846184622E7C333194724
:101253001947194722120C1C662D00120C1CB22DC3
:1012630000120C1CF12D00120C1C0E2E00120C1C73
:101273003D2E00120C1C932E00120C1CAE2E0012DD
:101283000C1CD52E00120C1C102F00120C1C502FFE
:1012930000120C1C712F00120C1CC12F00120C1C0D
:1012A3007B3000120C1C003100120C1C8A3100121E
:1012B3000C1C6B3200120C1C983200120C1CE7320F
:1012C30000120C1C0F3300120C1C383400120C1CBF
:1012D300B03400120C1CD63400120C1CFC34001267
:1012E3000C1C203500120C1C323500120C1C3C3532
:1012F30000120C1CE63500120C1C523600120C1C9A
:10130300193700120C1C213700120C1CAC370012C9
:101313000C1CE03700120C1CF03700120C1CB53803
:1013230000120C1C633900120C1CC23900120C1C75
:10133300CF3A00120C1C483B00120C1C9C3B0012C1
:101343000C1C113C00120C1CAF3D00120C1CC33DC5
:1013530000120C1C253E00120C1CAA3E00120C1C91
:10136300F73E00120C1C154000120C1C0741001222
:101373000C1C744100120C1CF04100120C1C664240
:1013830000120C1C9E4200120C1C7B4300120C1C0E
:101393009E4400120C1CFB4400120C1C444500121A
:1013A3000C1C6C4500120C1CF54500120C1C8B46E2
:1013B30000120C1CF14600120C1C164700120C1CE8
:1013C3008F4700120C1C234800120C1CB648001255
:1013D3000C1CDA4800120C1CFE4900120C1C114AAA
:1013E30000120C1C824A00120C1C974A00120C1C9F
:1013F300F84A00120C1C424B00120C1C7D4B0012CD
:101403000C1C9E4C00120C1C654E00120C1C6F4EE3
:1014130000120C1C794E00120C1C834E00120C1C83
:101423008D4E00120C1CA74E00120C1CB14E001264
:101433000C1CBB4E00120C1CC54E00120C1CE64EBD
:1014430000120C1C344F00120C1C3E4F00120C1CDB
:10145300624F00120C1C864F00120C1CDF4F00124F
:101463000C1C245000120C1C425000120C1CB950CE
:1014730000120C1C035100120C1C395100120C1CDD
:10148300B85100120C1C415200120C1C1E540012C5
:101493000C1CE65400120C1C0C5500120C1CF455C9
:1014A30000120C1CCC5800120C1C595A00120C1CB4
:1014B300215C00120C1C675C00120C1C915D001275
:1014C3000C1CE25D00120C1C4D5E00120C1C575EDE
:1014D30000120C1C1D6000120C1CD16000120C1CAD
:1014E300236100120C1CDF6100120C1CA4620012A9
:1014F3000C1C2F6400120C1C526400120C1CA664FA
:1015030000120C1C946500120C1CC66500120C1C06
:101513001A6600120C1C1F6700120C1C666700126F
:101523000C1CAC6700120C1C0B6800120C1C5869D5
:1015330000120C1CA46900120C1CAE6A00120C1CD5
:10154300556D00120C1C796D00120C1C446F0012B7
:101553000C1C9B6F00120C1C977000120C1C20714A
:1015630000120C1C7A7100120C1CDA7100120C1C94
:10157300697200120C1CDF7200120C1C4A730012F9
:101583000C1CA08A01120C1CF28A01120C1CE28CA6
:1015930001120C1C918D01120C1CC58D01120C1C27
:1015A300EF8E01120C1CA69101120C1CB4920112B5
:1015B3000C1C8D9B01120C1C479E01120C1C339FAB
:1015C30001120C1CF99F01120C1C4BA101120C1CE3
:1015D30050A201120C1C63A501120C1C75A7011269
:1015E3000C1CD5A701120C1CADA801120C1CD8A809
:1015F30001120C1C76A901120C1C54AA01120C1C1A
:1016030035AB01120C1C05AC01120C1C32AC0112DF
:101613000C1C54AC01120C1C96AE01120C1C50AFE6
:1016230001120C1CA7AF01120C1C0AB001120C1CF6
:10163300C0B001120C1CF5B001120C1C49B101120F
:101643000C1C79B101120C1CB7B101120C1C05B2B0
:1016530001120C1C0AB201120C1C61B201120C1C07
:1016630089B201120C1C84B301120C1C0CB40112BC
:101673000C1C8DB601120C1C4AB701120C1CDFB8EE
:1016830001120C1C54BB01120C1CFCBB01120C1CE0
:1016930074BC01120C1C9DBE01120C1C42BF011232
:1016A3000C1C89BF01120C1C55C101120C1C69C111
:1016B30001120C1C76C101120C1CA0C101120C1CDE
:1016C300ACC101120C1CCAC101120C1CACC3011227
:1016D3000C1C0BC401120C1C5FC401120C1C6AC548
:1016E30001120C1CC6C501120C1C7DC601120C1C78
:1016F300C5C601120C1C5FC701120C1C43C80112A2
:101703000C1CF9C801120C1C2ACA01120C1C10CBA8
:1017130001120C1CB8CB01120C1C4CCC01120C1C7A
:1017230063CC01120C1C9CCC01120C1CA6CC011224
:101733000C1CB2CC01120C1CD0CC01120C1C14CD0D
:1017430001120C1C82CD01120C1CA9CD01120C1C20
:10175300C3CD01120C1C18CF01120C1C62CF011255
:101763000C1C6BD001120C1C90D001120C1CFAD073
:1017730001120C1C5CD101120C1CCDD101120C1CEA
:10178300DFD201120C1C8AD301120C1C72D4011279
:101793000C1CD0D401120C1C5AD501120C1C4BD6B4
:1017A30001120C1C7AD601120C1CE1D601120C1C7E
:1017B300BBD701120C1CE1D701120C1C4AD8011231
:1017C3000C1C6FD801120C1C95D801120C1CCBD821
:1017D30001120C1CE7DA01120C1CD7DB01120C1CE2
:1017E3009DDC01120C1C37DE01120C1C80DE011281
:1017F3000C1CACDE01120C1C33DF01120C1C9BDF32
:1018030001120C1CEDDF01120C1C13E001120C1C65
:101813005AE001120C1C86E001120C1CBBE0011201
:101823000C1C0BE101120C1C69E101120C1C1CE2E3
:1018330001120C1CDEE301120C1C50E401120C1CFF
:1018430079E401120C1CEDE401120C1C62E5011297
:101853000C1CA4E501120C1CE0E501120C1C05E6AE
:1018630001120C1C4BE601120C1C68E601120C1C45
:1018730005E701120C1C98FF03120C1CE3FF031273
:101883000C1C918002120C1CBF8002120C1C7D8167
:1018930002120C1C638202120C1C6A8302120C1CBF
:1018A300F58402120C1C6A8502120C1C19860212A2
:1018B3000C1C168702120C1C818702120C1CD48785
:1018C30002120C1C288802120C1C328802120C1CF7
:1018D300788802120C1CDB8802120C1C738902121A
:1018E3000C1CE88902120C1CD48A02120C1C4F8BAC
:1018F30002120C1C698B02120C1C988B02120C1C1A
:10190300C58B02120C1C5C8C02120C1C6C8C021218
:101913000C1CBF8C02120C1CCB8C02120C1CD78C1F
:1019230002120C1CE08C02120C1C2B8D02120C1CDC
:10193300868D02120C1CD78D02120C1CF28D021222
:101943000C1C288E02120C1C498E02120C1C538E86
:1019530002120C1C688F02120C1C868F02120C1CC4
:10196300F88F02120C1C0B9002120C1C199002121D
:101973000C1CBA9002120C1C8E9102120C1CAF921A
:1019830002120C1C2B9302120C1C359302120C1C1A
:10199300A89302120C1CBF9302120C1C0194021296
:1019A3000C1C3F9402120C1C6E9402120C1CA59486
:1019B30002120C1CC39402120C1CE79402120C1C9E
:1019C300289502120C1C179602120C1C5D9602122B
:1019D3000C1C889602120C1CFB9602120C1C2297FC
:1019E30002120C1C679702120C1C759702120C1C36
:1019F300CE9702120C1C0B9802120C1C5298021266
:101A03000C1C839802120C1CA69802120C1CB19891
:101A130002120C1CCF9802120C1C8B9902120C1C84
:101A2300959902120C1CDA9902120C1C1E9A0212CE
:101A33000C1C329A02120C1C1D9B02120C1C309BB4
:101A430002120C1C459B02120C1CED9B02120C1C77
:101A5300399C02120C1CEF9C02120C1CFA9C021201
:101A63000C1C489E02120C1C749E02120C1CB59E88
:101A730002120C1CCF9E02120C1C409F02120C1C63
:101A8300CC9F02120C1C03A002120C1C66A20212B1
:101A93000C1CEEA202120C1C6EA302120C1CB1A5AC
:101AA30002120C1CC1A502120C1CC4A502120C1CB0
:101AB300D0A502120C1CE4A502120C1C03A60212F0
:101AC3000C1C36A602120C1CFBA602120C1C62A7ED
:101AD30002120C1CC6A702120C1C50A802120C1CEA
:101AE30001A902120C1C2FA902120C1CC5A9021277
:101AF3000C1CF4A902120C1C16AA02120C1C3DAAFF
:101B030002120C1CA2AA02120C1C55AC02120C1CD1
:101B130058AC02120C1CC2AC02120C1CB5AD021262
:101B23000C1C9CAE02120C1C27AF02120C1C6AB0D8
:101B330002120C1C2DB102120C1C66B102120C1CF9
:101B430097B102120C1CA0B102120C1C84B2021237
:101B53000C1C14B302120C1CB2B302120C1C72B490
:101B630002120C1CEBB402120C1C1AB502120C1C50
:101B730057B502120C1C78AC03120C1C86AC031272
:101B83000C1CD9E002120C1C34AD03120C1C7CADEE
:101B930003120C1C83AF03120C1C65B103120C1C43
:101BA300C82C00120C1C50B403120C1C70B403128A
:101BB3000C1CD3B403120C1C11B503120C1C3DB541
:101BC30003120C1C77B503120C1CCBF103120C1C73
:101BD300EAF103120C1C28F203120C1C31F203125B
:101BE3000C1C47F203120C1C57F203120C1CB7F225
:101BF30003120C1C29F303120C1CC2B503120C1C98
:101C0300B32B00120C1C10B603120C1CB7B6031234
:101C13000C1CDAB603120C1C7AB703120C1C42BA62
:101C230003120C1C50BA03120C1CA3BA03120C1C93
:101C3300C9BA03120C1C21BB03120C1C91BB031267
:101C43000C1CE4BB03120C1C4DBC03120C1C7BBC10
:101C530003120C1CF9BC03120C1C59BD03120C1CFF
:101C630098BD03120C1CAABD03120C1CBCBD0312AD
:101C73000C1CDBBD03120C1C7DBE03120C1CB7BE77
:101C830003120C1C008004120C1C487E00120C1C56
:101C9300A77E00120C1CD07E00120C1CC67F001203
:101CA3000C1C008003120C1CDF8003120C1C1B8114
:101CB30003120C1CC48203120C1C068303120C1C9B
:101CC300B18403120C1CF58403120C1CBD85031292
:101CD3000C1C4A8603120C1CDB8603120C1C318776
:101CE30003120C1C718703120C1C178903120C1CA2
:101CF300BC8A03120C1C0A8D03120C1C188D0312D0
:101D03000C1C808D03120C1CBC9003120C1C258729
:101D130004120C1C3B8704120C1CEF8504120C1CD0
:101D2300089B03120C1C1B9B03120C1CA89B031285
:101D33000C1CE39B03120C1CFE9B03120C1C239C28
:101D430003120C1C579C03120C1C889C03120C1CC2
:101D5300A79D03120C1C6FF703120C1CDCF7031274
:101D63000C1CF8F703120C1C3AF803120C1C63F852
:101D730003120C1CFBF803120C1C14F903120C1CA9
:101D83002CF903120C1CFD9003120C1C1F9103125F
:101D93000C1CD89103120C1C0A9303120C1C1E94E6
:101DA30003120C1CAD9503120C1CAC9603120C1CF5
:101DB3006C9903120C1C849903120C1CD69A0312FF
:101DC3000C1C9C7300120C1CE77300120C1CD374C4
:101DD30000120C1C867500120C1C9B7500120C1C47
:101DE300E57500120C1C347600120C1C47760012A9
:101DF3000C1C937600120C1CA77600120C1CE176C7
:101E030000120C1CF37700120C1C567800120C1CE9
:101E1300657800120C1CA67800120C1CDA780012EC
:101E23000C1C3A7900120C1C587900120C1CD27944
:101E330000120C1C5E7B00120C1C807B00120C1C1D
:101E4300B57B00120C1CE07B00120C1CF07B001213
:101E53000C1CFC7B00120C1CFF7B00120C1C4B7C2B
:101E630000120C1CEA7C00120C1C0F7D00120C1CCF
:101E7300327D00120C1C427D00120C1CB67D001238
:101E83000C1CD17D00120C1CF37D00120C1C2E7E49
:101E930000120C1C3D7E00120C1CA28504120C1CAB
:101EA300BA8504120C1C30C703120C1C7FC7031223
:101EB3000C1C21C903120C1CCDCA03120C1C15CB1C
:101EC30003120C1C4CCC03120C1CD9CD03120C1C9A
:101ED300FBCD03120C1C4DCE03120C1CCFCE0312F0
:101EE3000C1C3EE602120C1C5FE602120C1CE5E61B
:101EF30002120C1C39E702120C1CBAE702120C1C6A
:101F030016E802120C1C62E802120C1CD5E802123D
:101F13000C1C59E902120C1CCFE902120C1C11EA29
:101F230002120C1C3BEE02120C1C04F002120C1CDD
:101F3300FFF002120C1C47F102120C1CD7F2021222
:101F43000C1C4DF502120C1CDCF502120C1C17F7CD
:101F530002120C1C55FA02120C1C65FA02120C1C1C
:101F6300B5FB02120C1CE1FB02120C1C00FD021259
:101F73000C1C50FE02120C1C02FF02120C1C3FE749
:101F830001120C1CF7E701120C1C80E801120C1C57
:101F930031E901120C1C11EA01120C1C86EA011230
:101FA3000C1C41ED01120C1CF2ED01120C1C42EE53
:101FB30001120C1C12F001120C1CCCF001120C1CAF
:101FC30033F101120C1C96F201120C1C3DF40112A8
:101FD3000C1CA6F501120C1C43F601120C1C0BF78A
:101FE30001120C1C3C8304120C1C758304120C1C80
:101FF3007A8304120C1CA58304120C1CD1EF031268
:102003000C1C3BF003120C1CF4F003120C1C5AF1D1
:1020130003120C1CB9E703120C1C12E803120C1C6C
:10202300A1E903120C1C478404120C1C91840412B2
:102033000C1C2FF903120C1C3DF903120C1CEDFFB1
:1020430001120C1C958204120C1CA58204120C1C98
:10205300C38204120C1C248304120C1C68FD03129B
:102063000C1C8FFD03120C1C14FE03120C1C6DFEC2
:1020730003120C1CDD9D03120C1C86FE03120C1CA8
:10208300A8FE03120C1C12FF03120C1C1DFF0312EB
:102093000C1C61FF03120C1C2AD403120C1C38D431
:1020A30003120C1C79D403120C1C93D403120C1CC2
:1020B300E4D403120C1CE5D503120C1C0AD603123C
:1020C3000C1C27D603120C1C44D603120C1C69D615
:1020D30003120C1CA2D603120C1CE0D603120C1C18
:1020E30057D703120C1CF3D703120C1CA8D80312E6
:1020F3000C1CB6D803120C1C30D903120C1CECD9DF
:1021030003120C1C77DC03120C1CDDFA03120C1CEB
:1021130016FB03120C1C33FB03120C1C91FB031262
:102123000C1CF6FB03120C1C03CF03120C1C70CF08
:1021330003120C1C2AD003120C1C97D003120C1C84
:10214300BDD103120C1C30D303120C1C94D3031205
:102153000C1CE0D303120C1CE9D303120C1CF8D3A0
:1021630003120C1C0BD403120C1C21D403120C1CE1
:102173005BF801120C1CAEF801120C1C22FB0112BD
:102183000C1C54FB01120C1C76FB01120C1C8FFB64
:1021930001120C1CA8FB01120C1CDAFC01120C1C12
:1021A30070FD01120C1CA0F503120C1CD2F50312D6
:1021B3000C1CDEF503120C1C11F603120C1C3AF670
:1021C30003120C1C68F603120C1CE5F603120C1C1C
:1021D30014F703120C1C3BED03120C1C61ED0312EC
:1021E3000C1C9EED03120C1CB0ED03120C1CCCED69
:1021F30003120C1C3AEE03120C1C43EE03120C1CCC
:10220300A2EE03120C1CC6EE03120C1C85EF031284
:102213000C1C92EF03120C1CA3EF03120C1C94FF73
:1022230002120C1CE1FF02120C1C5CE003120C1CDA
:1022330084E103120C1C91E103120C1CB0E10312A4
:102243000C1CC6E103120C1CDAE103120C1C54E251
:1022530003120C1CD2E203120C1C4BE303120C1CE2
:1022630093E303120C1CA3E303120C1CFC81041262
:102273000C1C208204120C1C488204120C1C708259
:1022830004120C1CAFFD01120C1CC8FD01120C1C26
:10229300D4FD01120C1CE8FD01120C1C06FE0112F8
:1022A3000C1C10FE01120C1C1AFE01120C1C2DFE3C
:1022B30001120C1C61FE01120C1C9AFE01120C1C73
:1022C300CBFE01120C1C19FF01120C1C66FF01123C
:1022D3000C1C81FF01120C1C8BFF01120C1C9CFFB8
:1022E30001120C1CE2FF01120C1C3A8604120C1C96
:1022F300DDBE03120C1C09BF03120C1C25BF031205
:102303000C1C38BF03120C1C4EBF03120C1CBEBFA7
:1023130003120C1CF1BF03120C1C4BC303120C1C45
:1023230081C403120C1CB4C403120C1C19C5031280
:102333000C1C08C603120C1C30C603120C1C45C629
:1023430003120C1C55C603120C1C99C603120C1C59
:10235300EEC603120C1C04C703120C1C35FC03123B
:102363000C1C50FC03120C1C79FC03120C1C93FC78
:1023730003120C1CB8FC03120C1CD7FC03120C1C1C
:10238300EFFC03120C1C1DFD03120C1C37FD031282
:102393000C1C828604120C1CDCDC03120C1CE3DC18
:1023A30003120C1CEFDD03120C1C1FDE03120C1CAA
:1023B30045DE03120C1C78DE03120C1C8ADE0312AA
:1023C3000C1CC4DE03120C1C2ADF03120C1C63DF7B
:1023D30003120C1CAFDF03120C1CDCDF03120C1CFA
:1023E300FCDF03120C1CBAF303120C1CD2F303120E
:1023F3000C1CB5F403120C1CFE8004120C1C55813A
:1024030004120C1C928104120C1CD38104120C1CA8
:10241300B2E303120C1CD1E303120C1C1CE40312E1
:102423000C1C38E403120C1C70E403120C1C7DE436
:1024330003120C1C9AE403120C1C7DE503120C1C02
:10244300B4E503120C1C6BE603120C1C76E60312B4
:102453000C1C88E603120C1C91E603120C1C9BE671
:1024630003120C1C42EA03120C1C23ED03120C1C76
:10247300BC8304120C1C009E03120C1C969E0312B8
:102483000C1CDB9E03120C1C1B9F03120C1C969F3F
:1024930003120C1C1CA003120C1CF88604120C1C47
:1024A300D08404120C1CC28604120C1CB49D0312AB
:1024B3000C1C458704120C1C4D8504120C1C0BE0EC
:1024C30002120C1C23DF02120C1CE4DE02120C1C91
:1024D300B3DE02120C1C95DE02120C1C27DE021264
:1024E3000C1CE1DD02120C1C4CDD02120C1C432CF3
:1024F30000120C1C24B403120C1C9BDC02120C1CD7
:102503008EDC02120C1CA12B00120C1C7F2B001260
:102513000C1C63D902120C1CFBD602120C1C9BD59B
:1025230002120C1CF4D402120C1C1FD302120C1C3A
:1025330066D102120C1CEDD002120C1C91D00212B7
:102543000C1C34D002120C1C0AD002120C1CFECD3F
:1025530002120C1CCACD02120C1C83CD02120C1CDD
:1025630058CD02120C1CAECC02120C1C61CC021210
:102573000C1CCFCA02120C1CCCCA02120C1CDEC9E2
:1025830002120C1CAAC902120C1CE5C802120C1C74
:10259300602B00120C1C2D2B00120C1C09E60212DE
:1025A3000C1CEBE502120C1CF0E402120C1C18C705
:1025B30002120C1CCBC602120C1C9CC602120C1C71
:1025C30099C602120C1C55E402120C1C8CC6021292
:1025D3000C1C52C602120C1C44C602120C1CFAC478
:1025E30002120C1C76C402120C1CE12B00120C1CF0
:1025F300CCB503120C1C18E302120C1C3CC40212CF
:102603000C1CE0C302120C1CB3C302120C1CC0C08E
:1026130002120C1C7EC002120C1C72C002120C1C93
:10262300D2BF02120C1C09BF02120C1C59BC0212AD
:102633000C1C85B902120C1C46B902120C1CE5B71E
:1026430002120C1C91B702120C1CD5B602120C1C00
:10265300A8B602120C1CFFB502120C1C98B502128C
:102663000C1CD2B502120C1CFCAC0300000080FB56
:10267300E473000136360101000102010001030188
:1026830000010401060605020000070100340801E9
:10269300000F090401010D0100FF0E0800001702DD
:1026A3000000190100FF1A0100011B0100051C01B4
:1026B30000081D0200001F0100012001000121028A
:1026C30000002301000F240200002601000127015E
:1026D3000308280200FF2A0100072B0102402C01F6
:1026E30000002D0100012E0100012F0100FF300128
:1026F3000B1C310800003A01000800202020202094
:10270300202020202828282828202020202020209E
:10271300202020202020202020202088101010108E
:1027230010101010101010101010100404040404E2
:10273300040404040410101010101010414141410E
:1027430041410101010101010101010101010101F6
:102753000101010101011010101010104242424208
:1027630042420202020202020202020202020202C6
:102773000202020202021010101020030271023042
:1027830001600211027002010202020202800210C1
:102793000261023A00410063027302720262024361
:1027A30002000213023800000200020402120200B7
:1027B3000200020002000204020402370037003C58
:1027C30002440200023900000200026502000235E1
:1027D30002810200020502820283020002010171EA
:1027E3000101010101110101013101010101018017
:1027F30001100161013B0014006301730172016266
:102803000143010001130106013D013500040112DA
:10281300010001000100010001040104013301333F
:10282300013C014401320136000001000165010051
:1028330001350081010001050182018301000101CD
:1028430003710301030103010301030103220302D3
:10285300030103100300030003000300030003004C
:1028630003000342030003240306030003000304DD
:102873000312032503230325032303040304030093
:102883000300030003440300030003230300036561
:102893000321003503810300030503000300030044
:1028A30003030471040204600411047004020402AB
:1028B3000401040204100461040004140463047397
:1028C30004720462044304000413040604000400B5
:1028D300040404120400040004000400045104640A
:1028E3000000040004000444040004000400040085
:1028F30004650400043504810464000504000483B2
:102903000400040300710030016000110070003105
:1029130002200350048000100061000000140063D3
:102923000073007200620043000000130006000001
:10293300000000040012000000000000000000047A
:10294300000400370037003C024400000000000090
:102953000000006500000035008100000005000054
:10296300008300000036000100060000000F000095
:10297300000000000000000000000003FFFF000053
:102983000403FFFF0000FFFF0FF4010005C404036D
:1029930020000100000B0000000000000000030104
:1029A30000009C1F1300361F01009C1F0200001F24
:1029B3000300061F04000C1F0500121F06001E1F44
:1029C300FFFF000001B21506E21508DC150BEE153A
:1029D30010461502B81505D01507BE150CA0150D28
:1029E300AC15FF0000030003000400080010001FE3
:1029F300003E007B00F600EC01D703AF075D0FB983
:102A03001E713D0000C019F019C619CC19EA19DE70
:102A130019D819F619FC19021A0E1AD219BA19B4CF
:102A230019D5C5C5B5A5A59585857575656555552F
:102A330045453535252515059C36063A703DD94063
:102A43004344AD47174B814EEA5100160F00000B6C
:102A5300150B020002220F320000065677777777B4
:102A6300777777777777777777777700010203043C
:102A730005060708090A0B0C0D0E0FA41AB61ABC9B
:102A83001A8A19C21A84199019161B341B3A1B1C73
:102A93001B281B221BC418BE18FA180019F418AC03
:102AA3001800383C3E363B3B352B432C000349484A
:102AB300424D18172505020001191618161615237D
:102AC3000300303016181920231A1C1E300C0E0276
:102AD3000B040B0A0708000F303017181921301B9D
:102AE3001D1F300A1BC81ACE1ADA1AD41AE41908A1
:102AF3001A2E1B141A1A1AD018D618CA1806190037
:102B030005150D09100804000000000000DC18EE94
:102B13001800BE040A150004000E0009280C03085F
:102B2300090001040510080C080F74F61209E67475
:102B3300FF120FEBE4851082851183F085820885EF
:102B430083097808120F4175080175090078081286
:102B53000F4112445F120F89740102424874F61246
:102B630009E68C088D097808120F4175080B750961
:102B7300007808120F4112445F02424874F61209AA
:102B8300E68C088D097808120F4175080B7509004A
:102B93007808120F4112446A124373024248C082FA
:102BA300C0838A828B83E0D2E7F0121E70024B3B14
:102BB300C082C0837900122C3BC082C08390053051
:102BC300125C05D083D082C3E09CA3E09D500C121D
:102BD300516AFAA3E0122CAC600109024B3B74F773
:102BE3001209E6122C3B122DE7AEF075F00BEDA4A3
:102BF3002EFD900532E02CFEA3E03DFF74016960D9
:102C03000574026970208A828B83A3125D67126D3B
:102C13004574026970181230671231777010E48EB0
:102C2300828F83F08008EA2403FCEB12315FEEFA13
:102C3300EFFB122506023E2012640CEB1260072202
:102C430074F41209E68A088B09125D6D79008A8291
:102C53008B83E0604E7E007F008043122CA9703B83
:102C6300122E33F50AA3E039F50B85088285098313
:102C7300E08C82850B8312481EF8A3E0F98C8285D1
:102C83000B8312317FFCE5091230F51231671260B4
:102C93000CAA0AAB0B1225061262991235D5123013
:102CA3006F40B8024819EEFAEFFBEA75F00BA4FA8D
:102CB300ACF075F00BEBA42CFB900532127105F50B
:102CC30083E0540F2274F51209E68A088B09740B0A
:102CD30012123A12629E750A01EC7001ED6026EC45
:102CE30012324DED124E4079011225EAEE7001EFDA
:102CF300606E8E828F83A3125D757902EEFAEFFB0D
:102D03001225EA805BEE7001EF603112324CEF1254
:102D13004E40EE2403FAEF123171700CAA08AB098E
:102D23001224EEE9F50A80CAE5082403FAE509123C
:102D33003171702C7903AA08AB0980C48A828B8312
:102D4300A3E064FE7004A3E064FF700512316E70AB
:102D53000CAA08AB091224EEE9F50A8003750A00F0
:102D6300023EA374F71209E69005301250FDEA7093
:102D730001EB6031EA75F00BA4FAACF075F00BEBE4
:102D8300A42CFBEAFEEBFF121C969005321250FDB9
:102D9300900532E07002A3E06012EEFCEFFD7900D3
:102DA300121C0C8007900532E4F0A3F0023E20745D
:102DB300F61209E67508007509007808120F4190AC
:102DC3000530122DE7AAF075F00BEDA42AFD7A2346
:102DD3007B00121CFC7402120F89E9FE60031212BD
:102DE30064024228125C09EC75F00BA4FC2274F710
:102DF3001209E67E007F00800AEEFAEFFB122596A9
:102E03001235D5122E8740F1023E2074F71209E6DF
:102E13007E007F008012122E33FCA3E039FDEEFA10
:102E2300EFFB12250C1235D5122E8740E9023E2006
:102E3300EEF8EFF9122E74E0282274F71209E67EF9
:102E4300007F008020122E70125DDA88828983E071
:102E5300A2E7500EC2E7F0AC82AD83EEFAEFFB12AD
:102E630025901235D5122E8740DB023E20EEF8EF77
:102E7300F9E875F00BA4F8AAF075F00BE9A42AF9A8
:102E830090053222900530124E61C3EE98EF9922DD
:102E9300C082C083EC7001ED600512240A80097CB6
:102EA300087D007900121C0C024B3B74F61209E6F4
:102EB3007900EA7001EB60177C008C08EA250812A0
:102EC3006292600479017C080CECC3940840EB0225
:102ED300424B74F71209E674F3120FEBECFEEDFFAD
:102EE300E4851082851183F0740112123A1244961C
:102EF30012129A740312123AAC82AD83EEFAEFFB0C
:102F0300121276EEFAEFFB12127C023E1B74F712DA
:102F130009E674F3120FEBECFEEDFFE485108285F6
:102F23001183F0EAFCEBFD740312123A1244CD74E0
:102F33000112123A123251124E4A74FE687003742F
:102F4300FF696004790180027900023E1B74F71265
:102F530009E6EAFEEBFF122F9E7010122FA964FF01
:102F6300FC8A828B83E05CF012250602478374F7A8
:102F73001209E6EAFEEBFF7508008E828F83E0609C
:102F830017122F9E7012122FA98A828B83FCE05C8A
:102F93007006E04CF0122506024783121C00E9F587
:102FA300087401650822EE12640DEF124E5D122EB5
:102FB30074E028FAA3E039FB8E828F83E02274F455
:102FC3001209E68A088B097C007D001230671231F2
:102FD30067E50812324DE509125D717900850882B3
:102FE300850983A3E064FE7004A3E064FF60727E3E
:102FF300007F008067122CA9605FEEFAEFFBEA7591
:10300300F00BA4FAACF075F00BEBA42CFB9005329B
:10301300E02AF50AA3E03BF50B850882850983A323
:10302300125D5C850A82850B83A3E06A7003A3E0CB
:103033006B7026E50A2403FAE50B1231717014E56F
:103043000A2403FCE50B3400FDE5082403FAE50933
:1030530012316712600C1262991235D512306F402B
:1030630094024819EA24030A0A0AEB229005301253
:103073005D63C3EE9AEF9B2274F21209E68A0A8B10
:103083000B8A828B83A3125D75125D6D7508001226
:10309300316E70597E007F00804E122E701270F6D2
:1030A300E0540F6040122E33F50CA3E039F50DE523
:1030B3000C2403FCE50D1230F53400FB122404E963
:1030C30064017021850C82850D83A3125BFE850A42
:1030D30082850B83A3E8F0A3E912541212601775DB
:1030E300080112629B1235D5122E8740ADA9080242
:1030F30040B83400FDE50A2403FAE50B2274F51207
:1031030009E6EAFEEBFF8E828F83A3125D757C00D6
:103113007D00EE24030A0A0A123166EEFAEFFB126F
:103123001C00E9F50A7401650A702E124788125BC8
:10313300FE122E37F508A3E039F509850882F583D9
:10314300A312325112317FFAE509123171700AE587
:10315300082403FCE50912315F023EA33400FDEEAF
:103163002403FAEF3400FB12127622123067123175
:10317300776401223400FB12127CE922A3E8F0A356
:10318300E9F0E50824032274F21209E674E6120F4B
:10319300EBEAFEEBFF12324CEF125D71750801751D
:1031A3000A00750B00750C00750D00E4851082850F
:1031B3001183F0EE2403FCEF3400FD740312123A82
:1031C3001246746401702D740B12123A1250AC1231
:1031D300324DEF124E47740112123A123251A3E0EC
:1031E300687003A3E069605385108285118385822B
:1031F3000A85830B740D12123A12325F125BFE744E
:103203000E12123A124E4A740D12123AAA82AB836C
:1032130012129AE96401700B740D12123A85820C32
:1032230085830D780C120F41AC0AAD0BEEFAEFFB60
:10323300121BA07402120F89E9F508EEFAEFFB12D4
:103243001294A908741A0240B5EE12640D221232C8
:103253005522E0F8A3E0F98E828F8322E4123264D0
:1032630022F08E828F83A322C082C08312328DEC20
:1032730075F012A4FCAAF075F012EDA42AFD79FFF3
:103283007ACC7B17121C0C024B3B902B18E493FC5B
:10329300740193FD2274F71209E6E9FEEAFF7C004C
:1032A3007D0078007900802DE8FAE9FBEA75F012D9
:1032B300A4FA85F00875F012EBA42508123706C3AB
:1032C3009E400FE0FAEFC39A4008EC24010CED3462
:1032D30000FD123C08902B18123B8F40CBECFAED0B
:1032E300FB023E20C082C083780079008003123C39
:1032F30008902B18123B8F500C1236F064FF70EEBF
:1033030012379480047A007B00024B3B74F012095D
:10331300E674F3120FEB8A0E8B0F8C088D09890A62
:10332300EC7001ED6015AA08AB091212E88A0C8B48
:103333000DAE0CAF0DEE7001EF704B1212BE8A0C86
:103343008B0DA80CA90DE8FEE9FFE87001E96036D2
:103353007401851082851183F012123AE50EF0A3F1
:10336300E50FF0AC08AD09740312123A1234A974D4
:103373000B12123A124A5F124E4A123425AA0EABAE
:103383000F1218048006EE7001EF60727A00E50AEE
:103393006007C3940550027A048E828F83E50EF092
:1033A300A3E50F123DA8E50AF0EA8E828F83A3A35B
:1033B300A3A3A3F074028E828F83A3A3A3A3A3A3C7
:1033C300A3A3F074018E828F83A3A3A3A3A3A3A3B8
:1033D300A3A3126952A3F0EE241012341EE4F0A347
:1033E3001248AAA3A3F0124788E4F0908A627808EF
:1033F3001211C1EE240C12341E78081211DF12369A
:1034030040400EE4901C57F07A577B1C79411224FC
:1034130022EEFAEFFB026CCBEE240DF582EF126085
:103423000722E48E828F83A3A3A3A3A3A3F0900513
:1034330080125C092274F21209E674F3120FEBEAAC
:10344300FEEBFF8C088D09750A00AA08AB0912125E
:10345300E88A0C8B0DA80CA90DE87001E96040887F
:10346300828983E06E7003A3E06F6033888289836F
:10347300A3A3A3A3E0C39405502588828983126084
:10348300177401851082851183F012123A126017A6
:10349300AC08AD09740312123A1234A9750A01A9D2
:1034A3000A740D0240B51244D81212AC2274F612FB
:1034B30009E61258657001E9601488828983A3A321
:1034C300A3A3E06009C39405500479018002790045
:1034D30002424B74F61209E61258657001E9601452
:1034E30088828983A3A3A3A3E06009C39403500440
:1034F30079018002790002424B74F61209E6121236
:10350300E28A828B83E5827002E583600BA3A3A327
:10351300A3E0700479018002790002424BC082C0AB
:1035230083EAFCEBFD7A007B001212EE024B3BC0F8
:1035330082C0837C007D0080F074F41209E674F38A
:10354300120FEB8A0A8B0B8C088D097E007F00809B
:1035530021123AA712123A1235DA601374031212C7
:103563003AAC82AD83AA0AAB0B122404E970381279
:1035730035D51235CC504912394560F3E50A70024E
:10358300E50B70CD74FF6508700474FF650960DF97
:10359300EEF8EFF9E875F012A4F8123A90650870A6
:1035A30004A3E0650970C8EE75F012A4FEAAF075D5
:1035B300F012EFA42AFFEE24CCFAEF3417FB8004B9
:1035C3007A007B00740D024816902B1812415E029C
:1035D3002E8E123931FF22E8F0A3E91244F21212BF
:1035E300A6E92274F41209E674F3120FEB750800CE
:1035F3001212E88A0A8B0BAE0AAF0BEE7001EF6072
:103603002A7401851082851183124A91F8A3E0F987
:10361300740B12123A1244EA12128E7C127D007954
:10362300FFEEFAEFFB121C0C75080112364050092D
:103633007401901C57F01216E4A90880877A047964
:10364300001212B8902B1812415EEA98EB9922747B
:10365300F71209E6E9FE74FE6A700374FF6B7800E3
:10366300790070058059123C08902B18123BFB50CF
:103673004EE8FCE9FDEC75F012A4FCAFF075F01216
:10368300EDA42F126CDDED12395D60DAE8FCE9FD83
:10369300EC75F012A4FC75F012EDA42FFDEC24CC14
:1036A300F582ED3417F583E06A7003A3E06B70B61F
:1036B300800A1236F06005C39405401A123C089044
:1036C3002B18123B8F501FEE70E81236F064016026
:1036D30005E0640370E6E875F012A4F8AAF0123A64
:1036E30097125D5A80047AFE7BFF023E20E8FAE9D6
:1036F300FBEA75F012A4FAACF075F012EBA42C12ED
:10370300370622FBEA24D0F582EB3417F583E02257
:103713001212FA024B3BC082C083790180F274F02B
:103723001209E68A0E8B0F7A0479011212B88A08FD
:10373300AE08EE7001EB6044EAC333FAEB33FB12DD
:103743001C968A0A8B0B8A088B09EA7001EB6028A6
:103753007AFE7BFF12130074FE6A700374FF6B60C2
:1037630021850A82850B831250FDE50A2402F50A9E
:10377300E50B3400F50B80DC7E00800675080075D0
:103783000900EE850E82850F83F0AA08AB09026C4F
:10379300D0E875F012A4F8AAF075F012E9A42AF99A
:1037A300E824CCFAE93417FB2274F61209E675080B
:1037B300007509007808120F41902B1812425C74AF
:1037C3000378081210DF1239397B00121CFC7402D3
:1037D300120F89E9FE600312131202422874F612D3
:1037E30009E674FE120FEB12428902422C74F612A0
:1037F30009E674DF120FEB7E008510828511838545
:1038030082088583097808120F417508028E0978AA
:1038130008120F417C007D00124371120F89E96089
:10382300030238AE8079740F12123A8582088583B9
:10383300097808120F417508087509007808120FF6
:10384300418E08740378081210DF74022508FCE423
:103853003509FD124371120F89E970427402121285
:103863003A7401F0741112123A125BFE740D1212C3
:103873003A124E4A740212123AAA82AB831212A669
:10388300E9601B741312123AE0F9740512123AAC90
:1038930082AD83740F12123A125D5C1212C40E8E43
:1038A30008124363E4995003023829EEF9742102A4
:1038B300424874F61209E674FE120FEB85108285F6
:1038C3001183E4F0A3F0FE804E1239456046EEF812
:1038D300EFF9E875F012A4F875F012E9A42AF9E8F3
:1038E30024CCF508E93417F5097808120F41750857
:1038F300087509007808120F41740412123A124035
:10390300C5740378081210DF123939124462120F9A
:103913008912444F123931FF1235CC40AC851082E5
:10392300851183858208858309780802422CEE2459
:10393300010EEF34002274022508FCE43509FD7AF8
:103943002222EEF8EFF9E875F012A4F8AAF075F068
:1039530012E9A42AF9E8126CDFE912370D64FF2299
:1039630074F71209E67A007B00800919EA24010A38
:10397300EB3400FB12328DC3EA9CEB9D503AEAFC18
:10398300EBFDEC75F012A4FCAEF075F012EDA42E75
:10399300126CDDED12370DC3940550D0E970CCEAFB
:1039A30075F012A4FAACF075F012EBA42CFBEA2428
:1039B300CCFAEB3417FB80047A007B00023E2074C0
:1039C300F71209E674F3120FEB7E007F00023A5FF1
:1039D300E508125FE7125D5AEEF8EFF9E875F012A9
:1039E300A4F8ACF075F012E9A42CF9E8126A8D6A18
:1039F3007003A3E06B6044E50875F017A4F8AAF020
:103A0300EAF9E82446F582E93419F5831245EF1201
:103A1300123AE0687003A3E0696020E50875F017C7
:103A2300A4F8EAF9E82448FCE93419FD74031212F6
:103A33003AAA82AB83122404E96011E50875F017F2
:103A4300A42446FAE5F03419FB1218100508902B4C
:103A5300221261D050030239D31235D51235CC501E
:103A630029EEF8EFF9E875F012A4F8AAF0123A90EB
:103A730064FF7004A3E064FF60DF123AA712123AF6
:103A83001235DA60D475080080C4023E1B123A97DF
:103A9300F583E02275F012E9A42AF9E824CCF58233
:103AA300E93417227401851082851183F0EEF8EF53
:103AB300F9E875F012A4F875F012E9A42AF9E824DC
:103AC300CEF582E93417124E5F740B2274F6120995
:103AD300E6124250FC740193FDEC8508F0A4CCAAD5
:103AE300F08509F0A42AFA8508F0EDA42AFD79FFF0
:103AF3007A137B1C121C0C9005357442F0A37413CB
:103B0300F0900537743CF0A37413F0900539746694
:103B1300F0A37413F090053B7478F0A37413F09042
:103B2300053D747EF0A37413F090053F7484F0A3F5
:103B33007413F0900541748AF0A37413F0E49005B4
:103B430034F002424BC082C08378007900800312B4
:103B53003C08123B8C501CE8FAE9FBEA75F00EA412
:103B6300FAACF075F00EEBA42C123B7D70E1123F22
:103B7300F980047A007B00024B3BFBEA2413F582B5
:103B8300EB341CF583E064FF22902B1AE493FA7460
:103B93000193FBC3E89AE99B2274F71209E67A00C2
:103BA3007B00780079008045E8FCE9FDEC75F00EB8
:103BB300A4FCAEF075F00EEDA42EFDEC2413F582FB
:103BC300ED123B846024E8FCE9FDEC75F00EA4FCE7
:103BD30075F00EEDA42EFDEC2418F582ED341CF5E2
:103BE30083E0FCEA2CFAEB3400FB123C08902B1A1E
:103BF300123BFB40B3023E20E493FC740193FDC3EC
:103C0300E89CE99D22E8240108E93400F92274F1D3
:103C13001209E674FC120FEB740212123A1250FDF1
:103C2300890E8C088D0B7E007F001213A274021282
:103C3300123A125D5C1213A81250F7740212123A70
:103C43001258A67007750A018E0980058E0A850829
:103C530009851082851183E064FE7004A3E064FF8C
:103C63007003023D7E8E088002050885080C902BA8
:103C73001A126D154003023D11A808E875F00EA451
:103C8300A9F01240F0650E70E0E875F00EA4124042
:103C9300BD650A70D4125BF8E50875F00EA424150F
:103CA300F582E5F0341CF583E0687003A3E06970E6
:103CB300B8A808E875F00EA4A9F02417F582E93432
:103CC3001CF583E0650970A1E875F00EA42413FECA
:103CD300E9341CFF750800E508C3950B4003023D5A
:103CE3007EE508C333F8E433F9741312123A123D34
:103CF3009712134EE97013E508C333F8E433F974EC
:103D03001312123A123D9712135A050880C912135F
:103D1300368A0C8B0DAE0CAF0DEE7001EF605C8E2E
:103D2300828F83E50EF0A3E50A124A7A8E828F838F
:103D3300A3A3E8F0A3E9123DA8E509F0902B26E43C
:103D430093C3950B5004E493F50B8E828F83A3A347
:103D5300A3A3A3E50BF0741312123A1240C5750A1C
:103D6300007808120F3DE50BC333FCE433FDEE246A
:103D730006FAEF3400123D90120F89EEFAEFFB744E
:103D83000480027412120F897F07020C89FB12252B
:103D9300F07403221270FA123D9E22E0FCA3E0FDB0
:103DA300EEFAEFFB22123264A3A3A322C082C083E4
:103DB300902B1C12329079FF121C0C7901024B3BA1
:103DC30074F71209E6EA7001EB60498A828B83A3D8
:103DD300A3A3A3A3A3E5827002E58360377E0080DB
:103DE300010E8A828B83A3A3A3A3A3E0FFEEC39F49
:103DF3005022EEC333F8E433F9EA28F582EB39F5C0
:103E030083A3A3A3A3A3A3E06C7003A3E06D70D16A
:103E13007901800279008005740D120F897F0102F8
:103E23000C8974F51209E6EA7001EB605F8A828BF4
:103E330083A3A3A3A3A3E06063EA2406F8EB3400FF
:103E4300F98A828B83A3A3A3A3A3E0F509750800D2
:103E5300800DEA2405F582EB125D4F603F0508E50E
:103E630008C395095026E508123EEBE06C7003A3E6
:103E7300E06D60DE123EF112629E888289831260D9
:103E830017E824020808E93400F980D18A828B8379
:103E9300A3A3A3A3A3E060047901800279008002B5
:103EA300A90A7F03020C8974F71209E6EA7001EB91
:103EB30060318A828B83A3A3A3A3A3E0C0E0902BEA
:103EC30026E493FED0E0C39E5019EA2405F8EB12D2
:103ED3007260123EEB126D4588828983E004F079AB
:103EE3000180027900023E20C333FEE433FF1271E6
:103EF3000E026D2E74F41209E68908EAFEEBFF8CBC
:103F0300098E828F83A3A3A3A3A3A3A3A3E0640126
:103F130070098E828F83125C0580031240FB74FE4E
:103F23006C700374FF6D70077A007B00023FB978F1
:103F33000079008014123FBC6401700A123FDA70EA
:103F430003A3E06D606D123C08123B8C50DAE8FA73
:103F5300E9FBEA75F00EA4FA85F00A75F00EEBA4FE
:103F6300250AFBEA2413F582EB341CF583E065088C
:103F730070D48E828F83A3A3A3A3A3A3A3A3E0647C
:103F83000160B2123FBC70BE123FDA7003A3E06D52
:103F930070B4E8FAE9FBEA75F00EA4FA75F00EEBDB
:103FA300A4250AFBEA2417F582EB341CF583E065AC
:103FB300097093123FF9024819E8FAE9FBEA75F030
:103FC3000EA4FA75F00EEBA4250AFBEA2414F5827D
:103FD300EB341CF583E022E8FAE9FBEA75F00EA462
:103FE300FA75F00EEBA4250AFBEA2415F582EB34EF
:103FF3001CF583E06C22123FFD22E875F00EA4F855
:10400300AAF075F00EE9A42AF9E82413FAE9341C9E
:10401300FB2274F21209E68A0A8B0B8A828B83A332
:10402300A3A3A3A3A3A3A3E0640170098A828B8340
:104033001240C580071213908A088B0974FE650825
:10404300700474FF650960687E007F00805A850AEA
:1040530082850B83A3A3A3A3A3A3A3A3E0640170FB
:1040630041EEF8EFF9E875F00EA4F8AAF075F00E3A
:10407300E9A42AF9E81240BD64017029EEF8EFF9CA
:10408300E875F00EA4F875F00EE9A42AF9E82415F2
:10409300F582E9341CF583E065087004A3E0650943
:1040A30070031240CD1235D5902B1A1235CF409E96
:1040B3008003120F897F06020C892414F582E9021A
:1040C3003FD4E0F508A3E0F50922EEF8EFF9123F3B
:1040D300FD12134822EEF8EFF9E875F00EA4F8AAE2
:1040E300F075F00EE9A42AF9E81240F0222413F542
:1040F30082E9341CF583E0221213908A0A8B0BACFD
:104103000AAD0B2274F31209E6890CEAFEEBFF7584
:104113000A00750B007508007509008029E508750C
:10412300F00EA4F8AAF075F00EE5091240E8650C4C
:104133007011EEFCEFFDAA82AB8312134EE960030C
:104143001241E3124167902B1A12415EE50898E58C
:10415300099940C9AA0AAB0B0249EDE493F874012B
:1041630093F9C322E5082401F508E5093400F509AC
:104173002274F11209E6890EEAFEEBFF8C09750839
:1041830000750A00750B00800505081241E3902BAA
:104193001A126A9FE50B995040E50A75F00EA4F8D0
:1041A300AAF075F00EE50BA42AF9E82413F50CE93F
:1041B300341CF50D850C82F583E0650E70CDEEFCA5
:1041C300EFFDAA0CAB0D12134EE960BFE508C395D2
:1041D3000940B6AA0CAB0D80047A007B00023D8B2C
:1041E300E50A2401F50AE50B3400F50B2274F612F7
:1041F30009E67508007509007808120F411242504C
:1042030012443475832B75821CE49328FCA3E49336
:1042130039FD7A417B00121CFC7402120F89E9FEFE
:10422300600312137EEEF9801F120F4175080275A9
:1042330009007808120F417C007D007A2212446243
:10424300120F897402120F897F02020C89902B1CB2
:1042530012425C902B1AE49322E493F508740193C1
:10426300F5092274F61209E674FE120FEB12428965
:10427300120F417508027509007808120F417C007E
:104283007D007A4180B7851082851183E4F0A31203
:10429300448085820885830978082274F41209E62C
:1042A30074E7120FEB7E007F0085108285118385F2
:1042B30082088583097808120F417508028E0978F0
:1042C30008120F417C007D007A41124373120F895B
:1042D300E9600302435A8E088075740212123A850C
:1042E300820A85830B780A120F41902B1C120DA6AC
:1042F300124422124373120F89E970507410121280
:104303003AAC82AD83740412123A125D5C121396B6
:10431300E96039740812123A85820A85830B780A98
:10432300120F41740912123AE0FD740812123AE0B6
:10433300FC741212123AAA82AB83740412123AE08A
:10434300F91213427402120F891235D51241671202
:104353004363E509994083EEFAEFFB7419024816AB
:10436300851082851183124E61C3E50898227A2253
:104373007B00121D0874042274F51209E674F0120E
:104383000FEB851082851183E4F0A3F0FE805712B2
:1043930040D864FF604D858208858309750A0078DB
:1043A30008120F3D902B1C123290740512123AAA78
:1043B30082AB83123D91120F89740212123A8582E5
:1043C300088583097808120F41902B1C120DA674DF
:1043D3000412123A1240C5124422124462120F8987
:1043E30012444F123931FF902B1A1235CF40A0855A
:1043F30010828511838582088583097808120F410D
:104403007508027509007808120F417C007D007A57
:1044130041124462120F897410120F89023EA59053
:104423002B1CE493124434740228FCE439FD7A41D2
:1044330022F8740193F9E88508F0A4C8AAF0850965
:10444300F0A42AFA8508F0E9A42AF92285108285C6
:104453001183E02401F0A3E03400F02212446A7BCC
:1044630000121D02740422EA75F00BA4FAACF07575
:10447300F00BEBA42CFBEAFCEBFD7A232212448421
:1044830022F085108285118322A3A3E508F0A3E51A
:1044930009F022EAF0A3EB1244F222C082C0837433
:1044A300F3120FEB12467970128A828B831245EF57
:1044B30012123A1244EA12129A800CEAFCEBFD74CF
:1044C3000312123A1244CD024B301244D122124449
:1044D300D81212A022AA82AB83121276851082858B
:1044E3001183AA82AB8322E8F0A3E91244F22212D9
:1044F30044F62212448480EA74F71209E674F31234
:104503000FEBECFEEDFF7404851082851183F074CC
:104513000B12123AEAF0A3EB1235DEF508601D74B4
:10452300038E828F83A3A3A3A3A3A3A3A3F0121237
:104533003AAC82AD83EEFAEFFB12240AA908023EDD
:104543001BC082C08374F3120FEB74048510828541
:104553001183F0740B12123A1244961212A67401CC
:10456300024B32125D63740D2274F61209E674F382
:10457300120FEB900534E0706E7404851082851180
:1045830083F09005731245EF12123A124E4A121637
:10459300A8EAFCEBFD740312123A1234A91216B402
:1045A3008A088B09A808A909740112123AE06870F5
:1045B30003A3E069602B74FE68700374FF696021D4
:1045C300740112123A124E4A740312123AAA82ABBF
:1045D300831216BA851082851183AA82AB831212C5
:1045E300AC7401900534F0740D024248124E6174AC
:1045F3000122C082C08374F3120FEB1246798A82C0
:104603008B83701E1245EF12123AE8F0A3E9125E93
:1046130045705B851082851183AA82AB831212AC2D
:10462300804CA3A3A3A3A3A3A3A3E064037010EAF2
:10463300FCEBFD740312123A124674703180D48A73
:10464300828B83A3A3A3A3A3A3A3A3E064017012F8
:104653008A828B83125BFE740B12123AE8F0A3E991
:10466300800B740B12123A74FEF0A374FFF0024B2A
:10467300301244D1E92274048510828511831269B2
:104683002CA3A3A3E064022274F51209E6EAFCEB6F
:10469300FD7A007B008A088A09780079008003127A
:1046A3003C08902B1AE493FE740193FFC3E89EE940
:1046B3009F5038E8FEE9FFEE75F00EA4FE85F00A80
:1046C30075F00EEFA4250AFFEE2413F582EF123BDB
:1046D3008460CCAE08AF0974012EF508E43FF509F8
:1046E300EC6E7002ED6F70B7123FF9023EA5C08207
:1046F300C08390054874CAF0A37415F090054A74FA
:10470300C4F0A37415F090054E740EF0A37414F066
:10471300024B3B74F71209E6EAFEEBFF900582E0D9
:1047230064086019E0640460148E828F83E064017E
:104733007044124788125879E0640670398E828F6C
:1047430083A3A3E064FE7004A3E064FF60288E8269
:104753008F83A3A3126D1E7003A3E069700BEE2475
:1047630015F582EF126295600812166CE9F5088060
:104773000812167280F67508C2EEFAEFFB121C9C43
:10478300A908023E20EE240B1260042274F41209DD
:10479300E68A088B098A828B83E0F8A3E028FAE48F
:1047A3003400FB121C968A0A8B0BAE0AAF0BEE7019
:1047B30001EF6059850882850983E0FC7D0079005B
:1047C300121C0C8E828F83A3A3125D751216AE8EFC
:1047D300828F83A3A3A3A31260C4F8EE28F8EF3457
:1047E30000F9124788E8F0A3E912481EC0E012342A
:1047F3001BD0E0F01216C0EE240E12341EE9124A4A
:1048030065E0C0E0EE241112341ED0E0F0EEFAEFC2
:10481300FB8003120F897F04020C89124A6AE0228B
:1048230074F41209E674EB120FEBEAFEEBFF90054A
:1048330044E07002A3E070687A077B00121C969034
:1048430005441250FD900544E07002A3E0604D90D2
:104853000544125C058F838E827407120E9D8E822F
:104863008F8378081211C18510828511837808120D
:1048730011DF8E828F83A3A3A3A3E0C0E07405128C
:10488300123AD0E01248AAE0C0E0740412123AD0FF
:10489300E0F0740712123A1249F28006791080028E
:1048A300790174150248161248AE22F08E828F8366
:1048B300026D2EC082C083900544E07002A3E060C5
:1048C3000D9005441261D8900544E4F0A3F012154D
:1048D300E81217B0024B3B74F31209E674EB120FA4
:1048E300EBECFEEDFF742212123A78081211C17438
:1048F3002612123AE0FC742712123AE0FD742812D1
:10490300123AE0F50C740F6C7005740F6D60129021
:104913001CBEE06402700579C10249E8ECC39D4006
:10492300F690058378081211DFE9900589F0EC9081
:104933000587F0ED900588F0E50C90058AF074FF8B
:104943006A700374FF6B701F901CCBE064FF7004EC
:10495300A3E064FF7005121C1E800C901CCB124A4E
:1049630073E8F0A3E98007900580EAF0A3EBF0EE8B
:104973007001EF6017EEFAEFFB121870E964017033
:104983000BEEFCEFFD7A947B0512240A900573E489
:10499300F0A3F0900576F0A3F0900593F0901CBE81
:1049A300E06402700A740F900587F0900588F07434
:1049B30005900582F0740412123AE4F090058378AE
:1049C300081211C185108285118378081211DF90B6
:1049D3000589E0C0E0740512123AD0E0F0740712C2
:1049E300123A1249F27415120F897F05020C89E4F9
:1049F3001249F7221244F612243422C082C0839053
:104A03000543E07003121F301213DE024B3BC082DA
:104A1300C083900543E07007E4901C56F080317426
:104A230001901C56F0900543E064FF60237C41E055
:104A3300C394415002E0FCECFAE0C39AF0EC75F049
:104A4300E8A4CCAAF075F003A42AFD7A80126D3A8B
:104A53007A567B1C7941122422024B3B123255A316
:104A6300A322124A6AA322F0850882850983A3221E
:104A7300124E6190058022126D50F8A3E0F922C016
:104A830082C083EB90058AF01215D6024B3B12329B
:104A930064A3E02274F71209E674F8120FEBEAFE3E
:104AA300EBFF7900900582E06408704085108285F1
:104AB300118374FD125D771216A8740212123A1252
:104AC30050FD740512123A12325FE0C0E074041212
:104AD300123AD0E0124AF4C0E0740612123AD0E05F
:104AE300F0740712123A124E501217027408023E63
:104AF3001DF0022FBBC082C0839005547492F0A3B3
:104B03007414F09005EE7456F0A37417F0900558E2
:104B130074C2F0A37414F090055A7492F0A3741441
:104B2300F090055C74C8F0A37414F0800B740B123E
:104B3300123A124566120F89D083D082020C0F7489
:104B4300F41209E674F9120FEB8A088B098C0A8DAB
:104B53000B85108285118378081211DF74041212F9
:104B63003AE9F0740512123AE4F0740612123A129A
:104B73004E501213C6740702481674F41209E68ADB
:104B8300088B098A828B8312629EEE7001EF700399
:104B9300024C9B900510E07002A3E060158A828BA3
:104BA30083A3A3E0F9EEFAEFFB90051012587912F4
:104BB30026738E828F83A3A3A3A3A3A3A3A3A3E09C
:104BC3006402707F8E828F83A3A3A3A3A3A3E05465
:104BD300027003024C6A850882850983A3A3E064FB
:104BE300E97003024C6A8E828F83A3A3A3A3A3A3BA
:104BF300A3A3A3A3E07014901CC0E0048E828F8350
:104C0300A3A3A3A3A3A3A3A3A3A3F08E828F83A38E
:104C1300A3A3A3A3A3A3A3A3A3E014F074048E826A
:104C23008F83A3A3A3A3A3A3A3A3A3F0901CC11245
:104C33004A5FA3A3E8F0A3E9126F317001EB70039D
:104C43001269348E828F83A3A3A3A3A3A3A3A3A3D5
:104C5300E0640260128E828F83A3A3A3A3A3A3A302
:104C6300A3A3E0640670318E828F83A3A3A3A3A3BF
:104C7300A3E0A2E05022850882850983A3A3E0F97B
:104C8300EEFAEFFB12255A8E828F83A3A3A3A3A36D
:104C9300A3E054FEF0A3E0F002481974F01209E611
:104CA30074DD120FEB8A0C8B0D8C0E8D0F74331287
:104CB300123A78081211C17F00740E12123AAC82B4
:104CC300AD83121B82740E12123AE0A2E5500D0F4F
:104CD300125D55122566E96003024DF3740E12123C
:104CE3003AE0A2E6500E740F12123AE05403700435
:104CF3007E0180027E00740E12123AE05403FA74AD
:104D0300026A7009125D551225A8024DF374016AF7
:104D13007043EE6003124E26740E12123AA882A953
:104D230083740312123AE8F0A3E9124E55851082F8
:104D3300851183124E4A850C82850D83A3A3A3A3F9
:104D4300A3A3E0C0E0740212123AD0E0124E511253
:104D5300264A024DF3EA6003024DF3740D12123A30
:104D63007402124E55740512123A124E4AEE60083E
:104D7300740E12123A124E26740E12123AE0540CAA
:104D830064047071E50C240FF582E50D126295C081
:104D9300E0742012123AD0E0F0900512E07002A302
:104DA300E0604D1216AE8A0C8B0DA80CA90D74058C
:104DB30012123AE0687003A3E06970347808120FA6
:104DC30039EFF5087808120F45780E120F41EEF906
:104DD300741512123AAC82AD83740C12123AAA8281
:104DE300AB839005121258791226737407120F8938
:104DF3007423026CCD7808120F39780E120F41908C
:104E03000580120D48EFF9740D12123AAC82AD838E
:104E1300741612123AAA82AB8312254E7408120F2B
:104E23008980CD124E33126007125D631225F6227C
:104E3300AC82AD83E50C240BF582E50D22124E5DA9
:104E430012640CEB126007E8F0A3E9F022E41244C9
:104E5300F222F0124E37124E5D223400F583E00247
:104E63004A7DC082C083121E2E024B3BC082C08388
:104E7300121E34024B3BC082C083121E3A024B3BCC
:104E8300C082C083121E40024B3B74F71209E674C2
:104E93000912123AE0F5087808120F45121E4C74F5
:104EA30001023E1DC082C083121E58024B3BC082CA
:104EB300C083121E5E024B3BC082C083121E64027B
:104EC3004B3B74F71209E6EAFEEBFF7401697010BD
:104ED30079001215047C1E7900EEFAEFFB1214869A
:104EE300023E2074F41209E674F9120FEB8A088B60
:104EF300098C0A8D0B741312123A125D5C90144FD5
:104F0300E07002A3E06027E9851082851183F074C5
:104F13000112123A78081211DFEAF8EBF97405125C
:104F2300123A1244EA90144F125879122673024B24
:104F330078C082C083121E94024B3B74F71209E6B9
:104F4300901C59E0F97F00800B125187540D6401C6
:104F53007001190F12517F5003E970ED023E207466
:104F6300F71209E6901C5AE0F97F00800B12518773
:104F7300548D64817001190F12517F5003E970ED54
:104F8300023E2074F21209E6890AE975F006A4F8D4
:104F9300A9F0740C28FEE439FFEA2EFAE43FFB1271
:104FA3001C968A088B09EA7001EB6029EEFCEFFD81
:104FB3007900121C0C126401E50AF0E5082EF8E5ED
:104FC300093FF9850882850983A3A3A3A3A3A3A308
:104FD300A3A3124E4AAA08AB090240B874F61209F9
:104FE300E68A088B09121462901C58E0FAE9C39A06
:104FF3004009900550125D5C121468E5082402FE16
:10500300E5093400FF900552126412F0900552E056
:1050130004F0AA08AB0912146E8E828F83E0024259
:1050230029C082C0837900900550800109125D5C1C
:105033008A828B83E5827002E58370F0024B3B74B6
:10504300F71209E6EAFEEBFFEE7001EF60589005F8
:1050530050E07002A3E0604E9005501258917A0020
:105063007B00800FAA82AB83125891E5827002E520
:10507300836033EE65827003EF658370E7900550BC
:105083001250AC687002EF698E828F837008125BD6
:10509300FE9005508003126F251250B112261AEEAE
:1050A300FAEFFB121C9C023E20124E61EE22E8F046
:1050B300A3E9F0023DA3C082C08390055080048819
:1050C300828983125BFEE87001E9600B8882898321
:1050D300E07002A3E070E88A828B83E4F0A3F0E837
:1050E3007001E9600688828983800390055012501D
:1050F300FD024B3B851082851183EAF0A3EBF0227E
:1051030074F71209E6E9FC90055080048A828B83C8
:1051130012517A7001EB60177E0080010E12516A02
:10512300FDEEC39D50E6EE1251A06C70EF80047A41
:10513300007B00023E2074F71209E6E9FD7F008040
:10514300010F12516AFEEFC39E5019EF1251A06D69
:1051530070EFEF75F006A4F8A9F012644B74111206
:1051630051AF4CF0023E2012516E22EA240BF5821D
:10517300EB3400F583E022125D63EA2212516EFCE8
:10518300EFC39C22EF75F006A4FCADF0EA2CFCEB18
:105193003DFD74112CF582E43DF583E02275F006A4
:1051A300A4F8A9F0EA28F8EB39F9741028F582E499
:1051B30039F583E02274F61209E612157C7A008031
:1051C30011EA126110125D81125236F0A312671BAD
:1051D300F00A902B20126D0B40E77A00801B8A089F
:1051E300750900740378081210DF1266EA125D7DF8
:1051F300A3A3A3A3A3A3A3F00A902B2B126D0B408D
:10520300DD7A00801A8A0875090074037808121081
:10521300DFE508249EF582E509341B125D730A124B
:105223006D0840E1902B25E49390055EF0126D34F8
:1052330002424BA312523B2212671B026D2F74F1E1
:105243001209E674F5120FEBEAFEEBFF89088C09ED
:10525300E9A2E050127EFC7FFFA2E15005D2E402F6
:10526300530BD2E302530B12155E8A0A8B0BA80A67
:10527300A90B900573E0687003A3E06970057900DA
:105283000253EDAC087902EEFAEFFB121558E96010
:10529300EDE508F50A780A120F451253F2120F8949
:1052A300E960030253EBE508C2E5F5089005C0E0A9
:1052B3007058E508A2E64052740312123AAC82AD6C
:1052C30083EEFAEFFB121282E97039125C02EEFAF6
:1052D300EFFB1217F28A0A8B0BA80AA90BE87001DD
:1052E300E96027E824020A0AE9123177601CE50A1B
:1052F3002402FCE50B3400FD740312123AAA82ABBC
:105303008312240AE508D2E5F508900553E0F50E6B
:10531300900573125C0F780A120F417D017C009097
:105323000553E0F9AA0AAB0B1215107402120F8988
:10533300E9FA900553E004F0EA60030253EBE50851
:10534300A2E550047A0E80027A06740112123A1210
:1053530064278A0A8B0BEA7001EB70030253E7128E
:105363005402E50A241AF582E50B123421EAF0A36C
:10537300EB1254121245EF88828983F07478550832
:105383001254E0E50EF0EE88828983A3A3A312678B
:1053930001F0E488828983A3A3A3A3A3F0E508A271
:1053A300E55014740312123AAC82AD83E82406FA72
:1053B300E93400FB12240A850A82850B83A3A374B4
:1053C300FD125D77E5096013C3941E500EE50A24B0
:1053D30013F582E50B123421E509F0AA0AAB0B128F
:1053E30013BA80067910800279C7740B023D88795D
:1053F300027CFE7DFFEEFAEFFB1214CE740122EA6B
:105403002417F582EB1260077401F01216A822F03C
:10541300E50A12640DE50B1260072274F41209E623
:105423008A088B09E9FE121738E960077AFF7BFFC8
:105433000254D3901CBEE0640260030254C6790098
:10544300AA08AB091265B98A0A8B0BA80AA90BE84B
:105453007001E9605888828983A3A3A3A3A3E064AE
:1054630001701C1254D61254DDE064FE7004A3E0F4
:1054730064FF602B88828983A3A3125D5C805188BB
:10548300828983A3A3A3A3A3E064036028888289FA
:1054930083A3A3A3A3A3E0640470047AFE808F888C
:1054A300828983A3A3A3A3A3E0640270089005BF2A
:1054B300E06402700E126AA67001EB6006AA08ABE4
:1054C30009800DAA08AB0990055412587912267366
:1054D300024819900572E0025897A3A3A3A3126789
:1054E30016A32274F71209E6EAFEEBFF1212D0E9C3
:1054F300700AEEFAEFFB1212DCE96006EEFAEFFB3C
:1055030080047AFE7BFF023E2074F01209E68A0AC9
:105513008B0B8C0E8D0FE9FE750800121738E97995
:105523000060030255F1AA0AAB0B12658CA80CA903
:105533000DE87001E9601988828983A3A3A3A3A35B
:10554300E06402704F9005BFE0640270030255EF00
:10555300AA0AAB0B90055A1258791226731212E25B
:105563008A0C8B0DA80CA90DE87001E9607E888276
:105573008983A3A3A3A3A3E0A2E050707F01A2E1C8
:1055830050247901AC0AAD0BAA0EAB0F1214B0E98B
:105593007020805888828983A3A3A3A3A3E0640314
:1055A300704A7F02800C88828983A3A3A3A3A3D21A
:1055B300E1F0900573E0650E7004A3E0650F7010D1
:1055C3007C1EEEF9AA0AAB0B121486750801801C27
:1055D300EFF9AC0AAD0BAA0EAB0F1214B0E9700CC5
:1055E300750801EEF9AA0AAB0B121504A908026C9F
:1055F300D074F11209E674EE120FEB1250F78C0817
:105603008D099005F4E07002A3E060121270DC7063
:1056130002E5836004A3E0700579000258628510F7
:1056230082851183E0241DF50CA3E03400F50D857C
:105633000C82F583125891A3E0F50A125A15FA88E1
:10564300828983A3A3A3A3E0F9EAFEE9FFAA08AB37
:105653000912150AE9FA850C82850D83126D27E07C
:105663002AF50B530A787808120F417D00AC0BA979
:105673000E740212123A1258C3120F89E9FA740314
:105683006A6096EA70447418550A7003025789E5F4
:105693000AD2E0F50AA2E45004D2E1F50AE50AF5DC
:1056A3000C780C120F457901AC08AD09E912123AD6
:1056B3001258BC120F89E97011742112123A125850
:1056C3008A126D4B12589C121E52742112123A12F6
:1056D3005879E064FF7004A3E064FF603B9005BF6A
:1056E300E06402700302561C851082851183E01268
:1056F300589C125876122673EA65087003EB650905
:10570300600302561C125872122673742112123A45
:10571300125879EAF0A3EBF07808120F417D01AC3F
:105723000BA90E740212123A1258C3120F89A90A56
:10573300EEFAEFFB12155E8A088B09A808A90990F7
:105743000573E0687003A3E0696003025855EEFA3D
:10575300EFFB1258657001E9606C88828983A3A30B
:10576300A3A3E06401600D88828983A3A3A3A3E0BC
:1057730064027052740212123AAC82AD83EEFAEFF5
:10578300FB121282805390056CE06019E50AF50C58
:10579300780C120F457901AC08AD09E912123A12DF
:1057A30058BC120F89E50AF50C780C120F451253F9
:1057B300F2120F89E960030256CD742112123A12D4
:1057C300588AA302571A1216A8EAFCEBFD740212B8
:1057D300123AAA82AB8312240A851082851183129E
:1057E30058A6701C851082851183E02415125A2750
:1057F300FCA3E0FD740A12123AAA82AB8312240AB4
:105803001258B0E04430F5087808120F45740312BB
:10581300123A8582088583097808120F41740D12A4
:10582300123A8582088583097808120F41E50EF53F
:10583300087808120F457900EEFCEFFD740612128A
:105843003A125A47125D5C1214AA7406120F8902A7
:10585300561C1258B0A3A3A3A3E50BF01216C00263
:105863003D861212E28A088B09A808A909E822EEEC
:10587300FAEFFB90055612587D2212588122E0F868
:10588300A3E0F58388822212587D74FFF022124E22
:10589300618001F98882898322240B125A38FAA382
:1058A300E0FB22126D2BA3A3A3E0640122125A2F63
:1058B300F8A3E0F5838882A322125D601253FC22D1
:1058C300125D6012151074022274F11209E674EE6F
:1058D300120FEB851082851183EAF0A3EB126D4C56
:1058E300241D125A27F8A3E0F9125A15FC8882895D
:1058F30083A3A3A3A3E0FBECF508EBF50988828956
:1059030083A3A3A3A3A3E0FC88828983A3A3A3A364
:10591300A3A3E0FAE4CAFBECFEEBFF88828983A32E
:10592300A3A3A3A3A3A3E0F50A88828983A3E054D6
:1059330078F50BA2E45019125A2B2408FCA3E03487
:1059430000FD740A12123AAA82AB8312240A7A085F
:10595300E50BA2E5501D125A2B2AF8A3E03400F9F7
:10596300740828FCE439FD740212123AAA82AB834C
:1059730012240AAC0AA90EAA08AB09121516E9FAF1
:1059830074036A7003025A12900573E06508700489
:10599300A3E065096064EA705AE50BF50C780C1214
:1059A3000F457901E912123A125A3D120F89E97033
:1059B3005E780B120F45740312123A85820C8583AD
:1059C3000D780C120F41740D12123A85820C8583E7
:1059D3000D780C120F41E50EF50B780B120F45A94C
:1059E3000AEEFCEFFDAA08AB091214AA7406120F03
:1059F30089801C74046A701780B7E50BF508780872
:105A0300120F457901E912123A125A3D120F890217
:105A13003D8688828983A3A3E0F50E88828983A3C8
:105A2300A3A3E022125A3822125A2F22851082850C
:105A33001183E0241D126CD5E022125A47123D9EB9
:105A43001253FC22125A4B22E0240BFAA3E0340037
:105A5300FB8A828B832274F01209E674F2120FEB35
:105A6300740212123AE9F0EAFEEBFF8C088D097416
:105A73001E12123AE0F50F742312123AE0F50EA942
:105A83000F12151C1250F7740412123A7408F0E541
:105A93000EA2E450037410F0E50EA2E55004E024D6
:105AA30008F0740312123AAA82AB831217208A0CED
:105AB3008B0DEA7001EB7003025BE4125402E50CF8
:105AC300241AF582E50D1234211250FD74061212C8
:105AD3003AAC82AD83851082851183125D5C12120C
:105AE30082E9600E125BE9740612123AA882A98356
:105AF3008020E50EA2E45025851082851183E06E97
:105B03007003A3E06F7016125BE9741F12123A124E
:105B13005BFEE50C2418F582E50D124E47E50C12E9
