:020000040000FA
:0600000002116302073942
:03002B00021112AD
:03003300020D4576
:03004300020FA801
:03004B00020E0A98
:0300530002068C16
:03005B00020E1979
:03006300020E2565
:03006B00020D2B58
:100083000206D50101FF0503010F0300030003006E
:1000930003000300030003000300030005000A003C
:1000A300140028004F009E0000005F175F175F17C2
:1000B3005F1721161B165F179D23000000006124A4
:1000C300000000000C0000000C0001AA05FF030063
:1000D30001010100DE0E000000530FE80364006419
:1000E30000B8010202000800000502071E02051EF7
:1000F30003B80B020103320002F1FF0202020605FC
:10010300000020410000803FCDCCCC3D1211AF60F8
:100113001D1211917005191919801A120FEB701F16
:10012300121015C37003E66733191919400718181D
:10013300182208080874FFF618F618F618F62212A3
:100143001015601712120F702192F0121205701918
:10015300501720F014080808090909E7F61819E7E9
:10016300F61819E7F61819E7F62212120560E6E801
:1001730069701F0808E62480F608E436F618547FF1
:10018300B47F0CE654806007F6E418F618F62218DC
:100193001822E9C6CC08C6CD08C6CE08C6CFC0E033
:1001A300E8C0E0EAC0E0EBC0E009E9F809E7FA09D2
:1001B300E7FBE6F918E6F8C3EC98ED99EE9AEBC283
:1001C300E7F5F0EFC2E795F0500E600CEBCFFBEADA
:1001D300CEFAE9CDF9E8CCF8EAA2E7D2E7FAEB33B5
:1001E300FB13F5F0EEA2E7D2E7FEEF33FFC5F01302
:1001F300A2E730E601B313C5F0C3C0E0C0F07F004F
:10020300C39BFB605B9418600C401AD0E023F9D0C9
:10021300E0F80202ED8AF0E9486003D2F0E4AFF0BF
:10022300FAF9F8803BEB30E40D89F0EA6003D2F091
:10023300E4AFF0F9CAF8EB30E30D88F0EF6002D2D7
:10024300F0AFF0E4CAC9F8EB54076014FBC3EA1338
:10025300FAE913F9E813F8EF135002D2E0FFDBEDEC
:10026300D0E0C0E030E739C3E49FFFF5F0EC98FC41
:1002730042F0ED99FD42F0EE9AFE42F0D0E0F9D063
:10028300E0F8E5F0607AE923F9EE20E742D802804E
:1002930067C3EF33FFEC33FCED33FDEE33FE80EA4F
:1002A300EC28FCED39FDEE3AFED0E023F9D0E0F87E
:1002B3004002801BC3EE13FEED13FDEC13FCEF13A2
:1002C3005002D2E0FF08B800067F7F74FF802EEF54
:1002D3003350178CF020F00260100CBC000C0DBDE5
:1002E30000080EBE000408E860DFE933E813FFEE00
:1002F3002313FE4F4D4C8008E95480FFE4FEFDFCC0
:10030300EE33EF33F47004FCFD7E80D0E0FBD0E0ED
:10031300FAD0E0F8D0E0CFC618CEC618CDC618CCB8
:10032300C6F9221211AF7004181818221211917015
:100333000D74FFF61819F61819F61819F622E75472
:100343008066F6121205700F12120F70F014F60881
:10035300F608F608F680D112120F700CF608F608AC
:10036300768008E6447F80EC121018700C120FEEB2
:1003730060BFE65480F6E480BB120FEE70051919D6
:100383001980A5E869700C763F18768018F618F680
:10039300E8F922E6CDC0E018ECC0E0E633CD33CD7A
:1003A300D313F6E719FCE7191933CC33C3947F4011
:1003B3000ECD9D502408E65480F6E418F6800FF421
:1003C300043D14501408E6447FF6187680E418F6CA
:1003D30018F6D0E0FCD0E0FD22CCD313CCFD18E41A
:1003E300C6CBC0E018E4C6CAC0E00808ED08C633AF
:1003F300E613F618E433C675F003C3CA97CA09CBEC
:1004030097CB199C40047D08802EBD00030204CFC6
:1004130016B6FF050606081618C3CA33CACB33CB74
:1004230033CA27CA09CB37CB193CC37D08803E1892
:100433007D0820E75CC633C6CA33CACB33CB33DD72
:10044300F1D5F0EB30E77BCA97CA09CB974ACB19B2
:100453009C406F4B7025E620E0218066187D08C321
:10046300CA97CA09CB97CB199CD3C633C6CA33CA1A
:10047300CB33CB3350C9DDE7D5F0E1D3E4C636C681
:1004830008C636C608C636C608C636C61818188043
:1004930031C3CA97CA09CB97CB199CB34097C633CC
:1004A300C6CA33CACB33CB33DD34D5F02EC6A2E074
:1004B300C640C8CA27CA09CB37194A70BECB3CB459
:1004C30080B90808E63308E633601F181818D0E02F
:1004D300FAD0E0FBD0E0FCD0E0FD22187D08CA276B
:1004E300CA09CB37CB193CD3808013F618E4B67F07
:1004F30011F618B6FF0EF618C60470D208087680F7
:1005030080CAF618F618F680C5001211AF604F12B4
:1005130011916012E7548066F6120FEB70111212FC
:100523000F703B090909F4F618F618F618F62212AB
:100533001015701512120508080860EAE6447FF6E4
:1005430018768018E4F618F62212120560161212B5
:100553000F7012E4F608F608F608E65480F6090967
:100563000918181822EAC0E0EBC0E0ECC0E0EDC0C7
:10057300E0E687F0A4FBACF008E687F0A42CFCE4EB
:1005830035F0FA1809E687F0A42C4B60027401CA0F
:1005930035F0FCE433FB09E687F0D2F7A42CCB3526
:1005A300F0FC1908E687F0A42BCC35F0FBE433FD0F
:1005B3000819E687F0D2E7A42C4ACB35F0CD3400F6
:1005C300FC09E687F0D2E7A42DCC35F0FDE433FA3D
:1005D3000918E687F0D2F7A42CCD35F0CA3400FC15
:1005E30008E687F0D2E7D2F7A42ACC35F07A7E204A
:1005F300E70B0ACB33CBCD33CDCC33CC33CB33501A
:10060300147004ED30E00ED2F1E4CD3DCDCC3CCC02
:100613003B5005DA05C2F1EB547FC63308E633924B
:10062300F0FBE73309E733C39A502D2B70190C0DF8
:100633004C4D70151806E608C333700D20F10AA25D
:10064300F013F6E418800B4024E4F630F0027680D1
:1006530018F618F618F68024D33B14501074FFA232
:10066300F013F6187680E418F618F6800FA2F0134C
:10067300F618E63303F618ECF618EDF6D0E0FDD0E5
:10068300E0FCD0E0FBD0E0FA22C0E074F2120A52A0
:10069300E5A7F8E5A1F95854106008121E0153A10B
:1006A300EF802AE8A2E0C0D0E9A2E092F01210B3F2
:1006B300158182F05017906198E0F8901266E0C3BC
:1006C30098A2D265D0335002E8F053A1FE7F010215
:1006D3000AB1C0E074F2120A529061A4E0F8759B6B
:1006E30000E59158540860087591F7121E43802A5B
:1006F300E59158541060087591EF121E49801BE86C
:10070300A2E0C0D0E591A2E092F01210B31581826D
:10071300F05007E0C2E0F0121F699061A3E0F8E532
:10072300E9585404600E121F3F75E9FB906193E092
:10073300A2E640F28097C0E074F2120A529061A5DB
:10074300E0F8E5BF585404600653BFFB121F810253
:1007530006D0C3E498F8E499F91207968026C3E417
:100763009AFAE49BFBE920E7E9120796E498F8E498
:1007730099F922C3E498F8E499F9120796E498F8F2
:10078300E499F9C3E49AFAE49BFB22EB20E7CFE96F
:1007930020E7E0B90010BB0008E88AF084F8AAF06B
:1007A30022E4FBC8FA22EB70227B10C833C8C9339A
:1007B300C9335007C39AC3DBF280069A50012ADB80
:1007C300EAC833F4C8C933F4C9FA2275F008E4C897
:1007D30033C8C933C933C99AC99B5004C92AC93B11
:1007E300D5F0ECFBC833F4C8E4C9FA2212082F2071
:1007F300F01430E72B74FFFCFBFA747F8022E4FCD7
:10080300FBFA7480801AB48008BC00F2BB00EF804E
:100813000F50EBF9E4C39AFAE49BFBE49CFCE499E4
:10082300C6CC18C6CB18C6CA18C6F922E4C9C6086E
:10083300CAC608CBC6D3330308CCC63392F0C394DD
:100843007F402E94184019C9B90704CACBCC225053
:1008530025C309CA33CACB33CBCC33CC33D9F42227
:10086300F4600DC9CCC313CB13CBCA13CAD9F6CCCE
:1008730022E4FCFBFA2214FCFBFA22080808EAC073
:10088300E0EBC0E086F0E7A4FA180986F0E7A42AB3
:10089300FA180986F0E7A42AFA180986F0E7A42AC9
:1008A300FA1986F0E7A4FBE5F02AFA190886F0E7BF
:1008B300A42BFBE5F03AFA190886F0E7A42BFBE535
:1008C300F03AFA18180986F0E7A4C5F02BFBE43ACE
:1008D300FA1908E7C5F0C6A426F6E5F03BFBE43AAF
:1008E300FA1886F0E7A4F6E5F00826F6E43B08F6E6
:1008F300E43A08F6D0E0FBD0E0FA22080808E63034
:10090300E711121053120916080808C64480C618C6
:10091300181822181818E9799EC608CAC608CBC643
:1009230008CCC6C370207996CACBCC7019798ECB0C
:10093300CC70137986CC700EF9802ACA33CACB33B4
:10094300CBCC33CC331930E7F2CCCBCA3350147051
:1009530004EA30E00DE4CA3ACACB3BCBCC3CCC50E2
:100963000209C3E913C6CC182313C6CB18C6CA1889
:10097300C6F922E4CFC0E0E4CEC0E0E4CDC0E0E4B9
:10098300CCC0E075F020C3E633F608E633F608E69C
:1009930033F608E633F6181818EC33FCED33FDEEA6
:1009A30033FEEF33FFC3EC9709ED9709EE9709EF99
:1009B30097191919400FFFEC97FC09ED97FD09EE04
:1009C30097FE191906D5F0BEECF709EDF709EEF716
:1009D30009EFF7191919D0E0FCD0E0FDD0E0FED003
:1009E300E0FF222510C582C0E0E51134FFC583C0B6
:1009F300E0E510C3958224F810AF08858311858242
:100A0300108008858311858210D2AFCEF0A3E52034
:100A1300F0A37808E608F0A3DEFAEFF0A3E581245B
:100A2300FAF8E608F0A3E608F0A3E608F0A308083E
:100A3300E608F0A3E608F0A315811581D0E0FED007
:100A4300E0F8158115811581E8C0E0EEC0E022C011
:100A5300D02510C582C0E0E51134FFC583C0E0E5B1
:100A630010C3958224F310AF08858311858210800B
:100A730008858311858210D2AFC8F0A3E9F0A3EAF9
:100A8300F0A3EBF0A37908E709F0A3D8FAECF0A3FD
:100A9300EDF0A3EEF0A3EFF0A3D0E0F0A3D0E0F0ED
:100AA300A3D0E0F0A3E520F0A3E5F0F0A3228511A5
:100AB30083851082E0C0E0A3E0F9A3E0FAA3E0FBA2
:100AC300A37808E0F608A3DFFAE0FCA3E0FDA3E0C7
:100AD300FEA3E0FFA3E0C0E0A3E0C0E0A3E0F5D005
:100AE300A3E0F520A3E0A3F5F010AF0885831185FB
:100AF30082108008858311858210D2AFD082D08383
:100B0300D0E0F8D0E0321211F0B90003020B4BE44D
:100B130090040078BC79118002F0A3D8FCD9FA9034
:100B230014BBAA82AB83900086788A79018015E48E
:100B330093A3AC82AD838A828B83F0A3AA82AB8317
:100B43008C828D83D8E9D9E77582CF7583F87402D7
:100B5300120ED175828D7583227400120ED1D0834B
:100B6300D082ECC0E0EDC0E0E493A3FCE493A3FDEA
:100B7300ED4C600D120C85EC24FFFCED34FFFD8081
:100B8300EFE493A3FCE493A3FDED4C600D120DB5CC
:100B9300EC24FFFCED34FFFD80EFD0E0FDD0E0FC62
:100BA300E493A3C0E0E493C0E0221211AF601B12F0
:100BB30011916016121205700712120F600CB32206
:100BC300C0D012120F7005D0D022C32233D0D05020
:100BD3001330E0EBC3E7960809E7960809E79608A0
:100BE30009E7962220E0E4E6970809E6970809E674
:100BF300970809E69722851183851082E0A3FEE01A
:100C0300A3F5207808E0A3F608DFFAE0A3FFE0A34A
:100C1300C0E0E0A3C0E0E0A3C0E0E0A3C0E0E0A345
:100C2300C0E010AF0885821085831180088582108B
:100C3300858311D2AFD083D082020ED7D083D082E6
:100C4300E9C0E0E493A3C386F0C5F095F0F908E4A6
:100C530093A386F0C5F095F0700BE493A3C399407A
:100C630005E9048002A3E475F002A42582F582E578
:100C7300F03583F583D0E0F9E493A3C0E0E493C0B7
:100C8300E022C0E0C3E49396087401939618400FE2
:100C9300E49366700808740193661870007019A3D2
:100CA300A3C3E49396087401939618A3A3400DD0AD
:100CB300E0D0E0D0E0020B9DA3A3A3A3A3A3D0E0C5
:100CC30022D083D082C5F0E493A3C5F0C395F0F599
:100CD300F0E493A3C395F04005E5F0048001E475C7
:100CE300F002A42582F582E5F03583F583E493A32E
:100CF300C0E0E493C0E0227404800474028000CC5A
:100D0300C0E0EDC0E0E510C39CCCAD1150011D1057
:100D1300AF068C108D1180068C108D11D2AF120E80
:100D230053D0E0FDD0E0FC22C0E074F2120A52E599
:100D330089A2E15003121CC9758900C2C57F010253
:100D43000AB1C0E074F2120A52E58BA2E05003121A
:100D53001CC9758B00C2E880E474028000CCC0E03B
:100D6300EDC0E0E510C39CCCAD1150011D10AF06E2
:100D73008C108D1180068C108D11D2AF120E31D0D4
:100D8300E0FDD0E0FC221211AF602512119160202A
:100D9300121205700302120F080808E76670101894
:100DA30019E766700A1819E76670041819E76622CE
:100DB300F422C0E0C0F088F0E49366700808740180
:100DC3009366187000A8F0A3A3700BD0F0D0E0D006
:100DD300E0D0E0020B9DA3A3D0F0D0E022D083D0DB
:100DE30082CCC0E0E493A36006120E741470FAE49C
:100DF30093A36006120FD51470FAD0E0FCE493A31A
:100E0300C0E0E493C0E022C0E074F2120A52121D63
:100E1300477F01020AB1C0E074F2120A52121D4D5B
:100E230080EFC0E074F2120A52121D5380E3CAC06D
:100E3300E0E493A3C582CCC582C583CDC583F0A36B
:100E4300C582CCC582C583CDC583DAE5D0E0CA228D
:100E5300CAC0E0E0A3C582CCC582C583CDC583F0FB
:100E6300A3C582CCC582C583CDC583DAE6D0E0CAEB
:100E730022C0E0E493A3D39C5010E493A3C39C400B
:100E83000AD0E0D0E0D0E0020DFDA3A3A3D0E0227E
:100E93007009080808226016181818C6C333C60854
:100EA300C633C608C633C608C633C6D5E0EA22C071
:100EB30008C3E096F50808A3E096420808A3E09665
:100EC300420808A3E09645087001D3D00822C09FCA
:100ED300F59FE473D09F22D083D082C09FE493C058
:100EE300E0740193C0E0740293F59F22C58225103C
:100EF300C582C583351110AF07F5118582108007B0
:100F0300F511858210D2AFC583222510F58210AF6B
:100F130008F510400215118008F51040021511D292
:100F2300AF851183227404800A74038006740280DF
:100F3300027401C0E0F404120F0DD0E01211CB22B1
:100F4300BB0102E722C082C08389828A83BB00037C
:100F5300E08002E493D083D08222C0D0251010AF6A
:100F630008F510500205118008F51050020511D242
:100F7300AFD0D0226016080808C6C313C618C6131C
:100F8300C618C613C618C613C6D5E0EA22C3E0C600
:100F930096F608A3E0C696F608A3E0C696F608A35D
:100FA300E0C696F622C0E074F2120A52C2C0E5D13E
:100FB300A2E45003121D7D7F01020AB1251010AF78
:100FC30008F510400215118008F51040021511D2E2
:100FD300AF22C0E0E493A36C7009D0E0D0E0D0E08E
:100FE300020DFDA3A3D0E022181818E608460870E6
:100FF3000AE608C3337005E633F4220822C3E096F9
:1010030008A3E09608A3E09608A3E096A2D265D0D1
:101013003322191919E7094709700AE709C333701D
:1010230005E733F4220922E066701008A3E0667036
:101033000A08A3E066700408A3E06622C3E096F002
:1010430008A3E096F008A3E096F008A3E096F02248
:10105300181818E4C396F608E496F608E496F6081A
:10106300E496F622E627F60809E637F60809E63796
:10107300F60809E637F622E026F608A3E036F60876
:10108300A3E036F608A3E036F622E026F008A3E054
:1010930036F008A3E036F008A3E036F0227004220D
:1010A300600D18C6C333C608C633C6D5E0F418228C
:1010B300C0E0E8C0E0E58124FCF8E6A2E7D0E0F870
:1010C300D0E022E657F60809E657F60809E657F690
:1010D3000809E657F622E056F608A3E056F608A3F9
:1010E300E056F608A3E056F622E647F60809E64777
:1010F300F60809E647F60809E647F622E056F0083F
:10110300A3E056F008A3E056F008A3E056F022C08F
:10111300E074F2120A52C2C7121E857F01020AB19D
:10112300C3E7960809E7960809E7960809E79622B0
:10113300C6F4C608C6F4C608C6F4C608C6F4C62272
:10114300600D08C6A2E713C618C613C6D5E0F3227E
:10115300C3E09608A3E09608A3E09608A3E09622CE
:1011630075D00075814075100075110400020B09DC
:10117300600C08C6C313C618C613C6D5E0F422E034
:10118300F608A3E0F608A3E0F608A3E0F622E709D1
:101193004709C3134709336002E733F422E6F00833
:1011A300A3E6F008A3E6F008A3E6F022E608460863
:1011B300C3134608336002E633F422C5822510C503
:1011C30082C5833511C58322CAC0E0E6F0A308DADD
:1011D300FAD0E0FA22E0FAA3E0FBA3E0FCA3E0FDEF
:1011E30022EAF0A3EBF0A3ECF0A3EDF022E5C75461
:1011F300F84401F5C77901222510F582E43511F58C
:101203008322E6C33318461846184622E7C3331928
:10121300471947194722120EDA558302120EDA0FC5
:101223008402120EDA948402120EDA1B8502120E65
:10123300DA038602120EDA5C8602120EDAD4860212
:10124300120EDAE68602120EDAF08602120EDACDFA
:101253008702120EDA2C8802120EDA2E8902120E7F
:10126300DAA78902120EDAFB8902120EDA708A02F9
:10127300120EDA1C8C02120EDA308C02120EDA9283
:101283008C02120EDA178D02120EDA648D02120E20
:10129300DA8C8E02120EDA778F02120EDAE48F02E4
:1012A300120EDA609002120EDAC29002120EDAFA0D
:1012B3009002120EDAD59102120EDAD59202120EB4
:1012C300DA329302120EDA7B9302120EDAA393023E
:1012D300120EDA2C9402120EDAC29402120EDA28DB
:1012E3009502120EDA399502120EDAB29502120E37
:1012F300DA3F9602120EDA819602120EDA11970283
:10130300120EDA469702120EDA879702120EDA20CD
:101313009902120EDABF9A02120EDAFB9A02120E29
:10132300DA1C9C02120EDAEB9D02120EDAF59D0214
:10133300120EDAFF9D02120EDA099E02120EDA1362
:101343009E02120EDA1D9E02120EDA279E02120E62
:10135300DA759E02120EDA999E02120EDABD9E0211
:10136300120EDA169F02120EDA5B9F02120EDA7960
:101373009F02120EDAF09F02120EDA3AA002120E48
:10138300DA70A002120EDA05A202120EDAB52600F6
:10139300120EDA012700120EDACD2800120EDA0B34
:1013A3002900120EDAAD2900120EDAE12900120E1D
:1013B300DA062A00120EDA632B00120EDA632C000F
:1013C300120EDA352F00120EDA263000120EDAD0A2
:1013D3003000120EDAEB3100120EDA243500120E51
:1013E300DAB03500120EDAE53500120EDABD36003A
:1013F300120EDA933700120EDA363800120EDA9133
:101403003800120EDABE3800120EDAE03800120E7F
:10141300DA263B00120EDAD83B00120EDA2F3C001C
:10142300120EDA9C3C00120EDA5D3D00120EDA92C7
:101433003D00120EDAE63D00120EDA1B3E00120EDC
:10144300DA693E00120EDAC03E00120EDA4B3F009C
:10145300120EDAD44000120EDA914100120EDAC0F5
:101463004200120EDA2F4500120EDAD74500120E93
:10147300DAFA4700120EDA974800120EDADE480055
:10148300120EDAA54A00120EDAB94A00120EDAC6B3
:101493004A00120EDAF04A00120EDAFC4A00120E6B
:1014A300DA1A4B00120EDAE44B00120EDA0E4C007D
:1014B300120EDA1B4C00120EDA734C00120EDAF91C
:1014C3004C00120EDAE04D00120EDAD24E00120E6C
:1014D300DA824F00120EDA205000120EDA37500073
:1014E300120EDA705000120EDA8E5000120EDAD29B
:1014F3005000120EDAF95000120EDAF55100120EF6
:10150300DA705200120EDA935300120EDAA5540069
:10151300120EDA965500120EDAFD5500120EDAD7C6
:101523005600120EDA0B5700120EDA815700120E14
:10153300DAA65700120EDACC5700120EDA02580060
:10154300120EDA065A00120EDAF85A00120EDABD3B
:101553005B00120EDA3D5D00120EDA865D00120E9C
:10156300DAB25D00120EDA395E00120EDAA15E0005
:10157300120EDAF35E00120EDA3A5F00120EDA662A
:101583005F00120EDA9B5F00120EDAC25F00120ECA
:10159300DA206000120EDAFD6000120EDA656100D7
:1015A300120EDA8E6100120EDAFE6100120EDA7389
:1015B3006200120EDAC56200120EDAEA6200120E3F
:1015C300DA306300120EDA4D6300120EDAEA6300BA
:1015D300120EDAE99E03120EDA349F03120EDA4674
:1015E300BA01120EDA91BA01120EDAECBA01120E36
:1015F300DA3DBB01120EDA58BB01120EDA8EBB01C3
:10160300120EDAAFBB01120EDAB9BB01120EDACE3B
:10161300BC01120EDAECBC01120EDA5CBD01120E33
:10162300DA6FBD01120EDA7DBD01120EDA1EBE01A4
:10163300120EDAF2BE01120EDA0DC001120EDA89B1
:10164300C001120EDA93C001120EDA06C101120EA6
:10165300DA1DC101120EDA5FC101120EDA9DC1015A
:10166300120EDACCC101120EDA03C201120EDA2114
:10167300C201120EDA45C201120EDA86C201120E3F
:10168300DA71C301120EDAB7C301120EDAE2C30133
:10169300120EDA4FC401120EDA76C401120EDABB4F
:1016A300C401120EDAC9C401120EDA22C501120EE8
:1016B300DA5FC501120EDAA6C501120EDAD7C5012B
:1016C300120EDAFAC501120EDA05C601120EDA237A
:1016D300C601120EDADFC601120EDAE9C601120ED6
:1016E300DA28C701120EDA3EC701120EDA47C70124
:1016F300120EDA8BC701120EDA9FC701120EDA8AB5
:10170300C801120EDA9DC801120EDAB2C801120E18
:10171300DA5AC901120EDAA6C901120EDA5CCA013D
:10172300120EDA67CA01120EDAB5CB01120EDAE134
:10173300CB01120EDA22CC01120EDA3CCC01120ECE
:10174300DA73CC01120EDAD6CE01120EDA5ECF01B5
:10175300120EDADECF01120EDA21D201120EDA31C5
:10176300D201120EDA34D201120EDA40D201120E75
:10177300DA54D201120EDA73D201120EDAA6D201B2
:10178300120EDA6BD301120EDAD2D301120EDA364D
:10179300D401120EDAC0D401120EDA71D501120E81
:1017A300DA98D501120EDA28D601120EDA34D601F0
:1017B300120EDA63D601120EDA85D601120EDAACF6
:1017C300D601120EDA11D701120EDAC4D801120EA5
:1017D300DAC7D801120EDA31D901120EDA24DA018E
:1017E300120EDA09DB01120EDA94DB01120EDAD7DC
:1017F300DC01120EDA9ADD01120EDAD3DD01120ECC
:10180300DA04DE01120EDA0DDE01120EDAF1DE0168
:10181300120EDA81DF01120EDA1FE001120EDADF97
:10182300E001120EDA58E101120EDA87E101120E1D
:10183300DAC4E101120EDA99BC02120EDAA7BC0275
:10184300120EDA1DBD02120EDA55BD02120EDA9D1A
:10185300BD02120EDAA4BF02120EDA86C102120E04
:10186300DA45C402120EDA71C402120EDA91C4020E
:10187300120EDAF4C402120EDA32C502120EDA5E66
:10188300C502120EDA98C502120EDA3C8C03120E50
:10189300DA5B8C03120EDA998C03120EDAA28C0334
:1018A300120EDAB88C03120EDAC88C03120EDA2881
:1018B3008D03120EDA9A8D03120EDAE3C502120EAD
:1018C300DAEDC502120EDA31C602120EDAD8C602FA
:1018D300120EDAFBC602120EDA9BC702120EDA638D
:1018E300CA02120EDA71CA02120EDAC4CA02120E48
:1018F300DAEACA02120EDA42CB02120EDAB2CB02D3
:10190300120EDA05CC02120EDA6ECC02120EDAECEB
:10191300CC02120EDA4CCD02120EDA8BCD02120E6D
:10192300DA9DCD02120EDAAFCD02120EDACECD025F
:10193300120EDA70CE02120EDAAACE02120EDAF507
:10194300FE02120EDAB79103120EDA169203120E8A
:10195300DA3F9203120EDA359303120EDA2464008F
:10196300120EDA036500120EDA3F6500120EDAE892
:101973006600120EDACDB701120EDAD56800120E28
:10198300DA196900120EDAE16900120EDA6E6A00E2
:10199300120EDA058302120EDA556B00120EDA9577
:1019A3006B00120EDA3B6D00120EDAE06E00120EBF
:1019B300DA2E7100120EDA3C7100120EDAA47100F5
:1019C300120EDAE07400120EDAF1A003120EDA93AB
:1019D3009F03120EDAB88203120EDACB8203120EC1
:1019E300DA588303120EDA938303120EDA63820248
:1019F300120EDAD38303120EDA078403120EDA38D7
:101A03008403120EDA578503120EDAFA8F03120ECD
:101A1300DA679003120EDA839003120EDAC590038D
:101A2300120EDAEE9003120EDA869103120EDA9F8B
:101A33009103120EDA217500120EDA4A7500120EA6
:101A4300DA177600120EDAC17700120EDAD37800B5
:101A5300120EDA077A00120EDAFA7A00120EDAC2DE
:101A63007D00120EDADA7D00120EDA277F00120EE5
:101A7300DA81B102120EDACCB102120EDA72B202BC
:101A8300120EDAF8B202120EDA49B302120EDA5D5E
:101A9300B302120EDA44B502120EDAC1B502120E07
:101AA300DAEBB502120EDA76B702120EDA93B70248
:101AB300120EDAD4B702120EDA09B802120EDA6283
:101AC300B802120EDA74B802120EDAE9B802120E74
:101AD300DA70BA02120EDA9CBA02120EDAC5BA0230
:101AE300120EDA25BB02120EDA42BB02120EDA45DF
:101AF300BB02120EDA48BB02120EDAB3BB02120E9D
:101B0300DAE2BB02120EDAF5BB02120EDA5BBC029A
:101B1300120EDA96BC02120EDA409D03120EDA4C54
:101B23009D03120EDA869D03120EDA23D702120EDC
:101B3300DA72D702120EDA14D902120EDAC0DA02FE
:101B4300120EDA08DB02120EDA3FDC02120EDACCD6
:101B5300DD02120EDAEEDD02120EDA40DE02120EA2
:101B6300DAC2DE02120EDA05E201120EDA30E20107
:101B7300120EDA1DE301120EDA71E301120EDACD51
:101B8300E301120EDA19E401120EDA8CE401120EEB
:101B9300DA10E501120EDA86E501120EDAC8E50164
:101BA300120EDAF2E901120EDA93EB01120EDA7376
:101BB300ED01120EDA9FED01120EDAB2EE01120EF2
:101BC300DA45F001120EDAD7F001120EDA8FF101C5
:101BD300120EDA18F201120EDAD9F201120EDABD80
:101BE300F301120EDA1AF401120EDA28F501120EBD
:101BF300DAD9F501120EDA29F601120EDAE8F70145
:101C0300120EDA98F801120EDAFFF801120EDA4911
:101C1300FB01120EDAA4FC01120EDA3EFD01120ED4
:101C2300DA06FE01120EDA0EA103120EDA17A10371
:101C3300120EDA428A03120EDAAC8A03120EDA6546
:101C43008B03120EDACB8B03120EDA86F902120E15
:101C5300DADFF902120EDA6EFB02120EDAB79C0318
:101C6300120EDA019D03120EDA6E9303120EDA7C62
:101C73009303120EDA1CA103120EDA5CFF01120E9B
:101C8300DA6CFF01120EDA8AFF01120EDAEBFF01A2
:101C9300120EDA059903120EDA2C9903120EDAB139
:101CA3009903120EDA0A9A03120EDADD9D03120E5D
:101CB300DA239A03120EDA459A03120EDAAF9A0365
:101CC300120EDABA9A03120EDAFE9A03120EDA71C0
:101CD300E902120EDA96E902120EDAB0E902120EE6
:101CE300DA01EA02120EDA02EB02120EDA27EB0233
:101CF300120EDA44EB02120EDA61EB02120EDA86EE
:101D0300EB02120EDABFEB02120EDAFDEB02120E39
:101D1300DA74EC02120EDA10ED02120EDAC5ED02DD
:101D2300120EDAD3ED02120EDA4DEE02120EDA09BA
:101D3300EF02120EDA94F102120EDA7A9603120E01
:101D4300DAB39603120EDAD09603120EDA2E970345
:101D5300120EDA939703120EDA4AE402120EDAB77E
:101D6300E402120EDA71E502120EDADEE502120E59
:101D7300DA04E702120EDA77E802120EDADBE8027F
:101D8300120EDA27E902120EDA30E902120EDA3FF6
:101D9300E902120EDA52E902120EDA68E902120EB1
:101DA300DAF6DE02120EDA49DF02120EDABDE102C2
:101DB300120EDAEFE102120EDA11E202120EDA2A41
:101DC300E202120EDA43E202120EDA75E302120E97
:101DD300DA0BE402120EDA2B8E03120EDA5D8E0397
:101DE300120EDA698E03120EDA9C8E03120EDAC516
:101DF3008E03120EDAF38E03120EDA708F03120EB5
:101E0300DA9F8F03120EDA6E8503120EDA948503BE
:101E1300120EDAD18503120EDAE38503120EDAFF0E
:101E23008503120EDA6D8603120EDA768603120E1E
:101E3300DAD58603120EDAF98603120EDAB88703AF
:101E4300120EDAC58703120EDAD68703120EDA7D75
:101E53009E03120EDACA9E03120EDA79F502120EEF
:101E6300DAA1F602120EDAAEF602120EDACDF6029D
:101E7300120EDAE3F602120EDAF7F602120EDA7136
:101E8300F702120EDAEFF702120EDA68F802120EF8
:101E9300DAB0F802120EDAC0F802120EDA607F002E
:101EA300120EDA847F00120EDAAC7F00120EDAD43F
:101EB3007F00120EDA048803120EDA1D8803120E55
:101EC300DA298803120EDA3D8803120EDA5B8803DF
:101ED300120EDA658803120EDA6F8803120EDA82A5
:101EE3008803120EDAB68803120EDAEF8803120E95
:101EF300DA208903120EDA6E8903120EDABB890324
:101F0300120EDAD68903120EDAE08903120EDAF121
:101F13008903120EDA378A03120EDADE9F03120EDA
:101F2300DAD0CE02120EDAFCCE02120EDA18CF028B
:101F3300120EDA2BCF02120EDA41CF02120EDAB1F1
:101F4300CF02120EDAE4CF02120EDA3ED302120EE1
:101F5300DA74D402120EDAA7D402120EDA0CD50206
:101F6300120EDAFBD502120EDA23D602120EDA387B
:101F7300D602120EDA48D602120EDA8CD602120EEE
:101F8300DAE1D602120EDAF7D602120EDAD297038C
:101F9300120EDAED9703120EDA169803120EDA30E8
:101FA3009803120EDA559803120EDA749803120E80
:101FB300DA8C9803120EDABA9803120EDAD4980365
:101FC300120EDA26A003120EDAF9F102120EDA006B
:101FD300F202120EDA0CF302120EDA3CF302120EC4
:101FE300DA62F302120EDA95F302120EDAA7F302A3
:101FF300120EDAE1F302120EDA47F402120EDA805D
:10200300F402120EDACCF402120EDAF9F402120E12
:10201300DA19F502120EDA1C9503120EDA3495035F
:10202300120EDA149603120EDA359B03120EDA8CB3
:102033009B03120EDAC99B03120EDA0A9C03120EDB
:10204300DA008003120EDA1C8003120EDA678003B3
:10205300120EDA838003120EDAB48003120EDADB77
:102063008003120EDABE8103120EDAC88103120E48
:10207300DAD58103120EDA8C8203120EDAA0820300
:10208300120EDAA98203120EDA0FFC02120EDAF034
:10209300FE02120EDA2C9C03120EDA09A302120EB0
:1020A300DA9FA302120EDAE4A302120EDA24A402C8
:1020B300120EDA9FA402120EDA25A502120EDA9C82
:1020C300A003120EDA009E03120EDA66A003120EAC
:1020D300DAC9A003120EDABD9D03120EDA3E9F0386
:1020E300120EDA32B701120EDAF5B501120EDAB6B4
:1020F300B301120EDA2DB301120EDAE7B201120E9A
:10210300DA36B201120EDA29B201120EDA07AF0182
:10211300120EDAC58202120EDAFF6A00120EDAA478
:10212300AC01120EDA3DAB01120EDA488202120E36
:10213300DAC58102120EDA8CAA01120EDABCA801EA
:10214300120EDA0BA701120EDA9CA601120EDA4068
:10215300A601120EDAE3A501120EDAB9A501120ED9
:10216300DAB1A301120EDA7DA301120EDA3BA30149
:10217300120EDA10A301120EDA52A201120EDA05C0
:10218300A201120EDA7BA001120EDA78A001120E60
:10219300DA7E9F01120EDA4A9F01120EDA859E0142
:1021A300120EDAB89C01120EDA6B9C01120EDA27BA
:1021B3008102120EDAA28002120EDA408002120E9F
:1021C300DA128002120EDA008002120EDA3C9C014F
:1021D300120EDA399C01120EDA2C9C01120EDAEF80
:1021E3009B01120EDAEBB801120EDAE19B01120E1B
:1021F300DA8D9A01120EDA119A01120EDADE9901C2
:10220300120EDA829901120EDA8A8202120EDAAE05
:102213008303120EDACDB801120EDA559901120EAC
:10222300DA5C9601120EDA5E9501120EDAE594017C
:10223300120EDAB09401120EDA799401120EDA6DED
:102243009401120EDACD9301120EDA099301120EE4
:10225300DACF9001120EDAF48D01120EDAB58D0188
:10226300120EDA548C01120EDA008C01120EDA47C8
:102273008B01120EDAAD8A01120EDA4C8A01120EAC
:10228300DA868A01120EDA2A670000000080FBE476
:102293007300013636010100010201000103010050
:1022A30001040106060502000007010034080100CD
:1022B3000F090401010D0100FF0E080000170200C1
:1022C30000190100FF1A0100011B0100051C010098
:1022D300081D0200001F010001200100012102006E
:1022E300002301000F24020000260100012701033F
:1022F30008280200FF2A0100072B0102402C0100DD
:10230300002D0100012E0100012F0100FF30010B00
:102313001C310800003A0100080020202020202062
:102323002020202828282828202020202020202082
:102333002020202020202020202088101010101082
:1023430010101010101010101010040404040404D2
:1023530004040404101010101010104141414141B5
:10236300410101010101010101010101010101011A
:1023730001010101011010101010104242424242AB
:1023830042020202020202020202020202020202EA
:10239300020202020210101010200300710030012B
:1023A300600011007000310220035004800010000F
:1023B30061000000140063007300720062004300B8
:1023C30000001300060000000000040012000000DB
:1023D30000000000000004000400370037003C0246
:1023E300440000000000000000006500000035000C
:1023F300810000000500000083000000010171015D
:1024030001010101110101013101010101018001FA
:10241300100161013B001400630173017201620149
:1024230043010001130106013D01350004011201BE
:102433000001000100010001040104013301330123
:102443003C01440132013600000100016501000135
:1024530035008101000105018201830100010103AF
:1024630071030103010301030103010322030203B7
:102473000103100300030003000300030003000330
:1024830000034203000324030603000300030403C1
:102493001203250323032503230304030403000377
:1024A3000003000344030003000323030003650345
:1024B3002100350381030003050300030003000328
:1024C3000302710230016002110270020102020272
:1024D30002028002100261023A00410063027302A9
:1024E3007202620243020002130238000002000279
:1024F30004021202000200020002000204020402AB
:10250300370037003C024402000239000002000297
:102513006502000235028102000205028202830283
:10252300000236000100060000000F00000000005A
:10253300000000000000000003FFFF00000403FF91
:10254300FF0000FFFF0FF4010005C4040320000196
:1025530000000B0000000000000000030103000363
:10256300000400080010001F003E007B00F600EC92
:1025730001D703AF075D0FB91E713D00007B16AB9A
:102583001681168716A51699169316B116B716BD9A
:1025930016C9168D1675166F160100E51B02007F0E
:1025A3001B0300851B04008B1B0500911B06009D6C
:1025B3001BFFFF0000D5C5C5B5A5A5958585757518
:1025C3006565555545453535252515050AF9130224
:1025D300C31305D51307C9130CB1130DBD13FF00A6
:1025E300009C36063A703DD9404344AD47174B81B2
:1025F3004EEA5100160F00000B150B020002220FCA
:10260300320000065677777777777777777777771C
:1026130077777777000102030405060708090A0B99
:102623000C0D0E0F5F177117771745167D173F16A1
:102633004B16D717F517FB17DD17E917E317003804
:102643003C3E363B3B352B432C00034948424D1857
:1026530017250502303016181920231A1C1E300CBA
:102663000E020B040B0A0708000F000119161816B7
:102673001615230300303017181921301B1D1F3086
:102683009F16C316EF17CF16D516CB1783178917C7
:1026930095178F170005150D091008040000000099
:1026A300000000BE040A15000E000400040508041F
:1026B3000C0FC082C083E99004BBF0E4900470F077
:1026C3001220179004CEE4F0A3F09004BCF0A3F022
:1026D30012155B12201D900440E4F0A3F09004DE79
:1026E300E07002A3E060099004DE124C5E122292B5
:1026F3009026B4E493FA79021220770248D774F251
:102703001209E6EAFEEBFF74805FF9E47001E970F9
:102713006CEEA2E0400302279D900475E0640F7005
:102723000B7900121399E960031228C374016EFA3E
:10273300EFFB0228A80CEC75F003A4A9F024CFF555
:1027430082E93425F583E49364FF602AE493FA85F0
:1027530008828B83E06A70DDAA08EC75F003A42479
:10276300D0F582E93425F583E493C0E0740193F551
:1027730083D082122292AA08AB091218EB9004BBF1
:10278300E0F91218F78A088B09EA7001EB60047C00
:102793000080A3EEFA74806F8097542070030228A0
:1027A30074750A007C027D007A201228B87C0079B7
:1027B300047A007B0012142F8A088B098018740195
:1027C300850882850983A3A3A3A3A3A3A3A3A3F03B
:1027D300850C08850D09E5087002E509606E7C002B
:1027E3007904AA08AB0912142F8A0C8B0D750A0100
:1027F300E5082404125D0E24FFF0A3E034FF123B2E
:102803001F7002A3E070C9850882850983A3A3A36F
:10281300A3A3A3A3A3A3A3E0640170A28508828555
:102823000983A3A3A3A3A3A3E0540470917406850F
:102833000882850983A3A3A3A3A3A3A3A3A3F07AD5
:10284300B78508828509831229A280841213FF7C2D
:102853000079017A007B0012142FEA7001EB7009F2
:10286300E50A70057A20124BD974206EFAEF02271D
:102873003474025FF9E47001E9600A121525EEFA77
:10288300740202279A74045FF9E47001E96012127A
:102893004D86124A58790112301CEEFA74046F8087
:1028A300CD7A007B008003120F5D7F06020BF9EAED
:1028B300FCEBFD7A017B009004BBE0F912220F22AE
:1028C3009015131250011213AB22C082C08374EA15
:1028D300120FBF851082851183AA82AB83794B12B5
:1028E300204D74081211FB7402F074091211FBAA33
:1028F30082AB83795012204D74131211FB1251E2F3
:1029030012206B74160248D474F41209E6EAFEEB43
:10291300FF7508018E828F83A3A3A3A3A3A3E0540F
:1029230040600D8E828F831240CBFAA3E0FB8003BD
:1029330012148F74FE6A700374FF6B60308E828F83
:1029430083124C5E124C2B1214E9E98E828F836042
:1029530006122990E48005122990740112378CFA2B
:10296300A3E0FB122071E9F509700580127509CD0A
:10297300AA098E828F831229A2E96003750800A930
:1029830008EEFAEFFB12140BA9090235E0E0240D5F
:10299300F8A3E012299A223400F98882898322E07D
:1029A300240C125011F91213A52274F61209E6E948
:1029B300FEEAFF7A0F7B001218E5EA7001EB60195B
:1029C300740C8A828B83F0EEA3A3F0EF8A828B834D
:1029D300A3F0124CC6790080027910024C36C082F3
:1029E300C083900475E0640F7016EA7001EB601009
:1029F300900470E064086005E0640470031228B278
:102A03000248D774F41209E674FD120FBFEAFEEB15
:102A1300FF8E828F83A3A3E0F91214358A088B09F2
:102A2300EA7001EB7003022B4D8E828F83A3E06467
:102A3300F160288E828F83A3E064CD601E8E828F27
:102A430083A3E0641A60148E828F83A3E064E96039
:102A53000A8E828F83A3E064E1701E790012140B47
:102A6300E96016850882850983A3A3A3A3A3A3E032
:102A73004420F0A3E0F0022B1C8E828F83A3E0C0DE
:102A8300E074021211FBD0E01247D61254811234C3
:102A9300B61259F2851082851183AA82AB83700521
:102AA30012131B80031214D18E828F83A3E064F16F
:102AB30060678E828F83A3E064CD605D8E828F8397
:102AC300A3E0641A60538E828F83A3E064E16049BC
:102AD3008E828F83A3E064F0603F74021211FBE0E7
:102AE30064B76035850882850983122B59750A01FD
:102AF300780A120F3474031211FBE0F50A780A12F4
:102B03000F34EE240C122EFE123EFAA3A3A3A3A3AA
:102B1300123EF21234F2120F5D850882850983A3F7
:102B2300A3A3A3A3A3A3A3A3E064027012740685C3
:102B33000882850983A3A3A3A3A3A3A3A3A3F08EBE
:102B4300828F83A3A3E0F91214111213FF901517B8
:102B53001228C60235DBE0F8A3E0F9E8FAE9FB2224
:102B630074F41209E6EAFEEBFF7508008E828F8388
:102B7300A3A3A3A3A3E060417508088E828F83A358
:102B8300A3A3A3A3A3A3A3A31240BB7001EB601051
:102B930075082C8E828F83A3A3A3A3A3E0D2E0F0B6
:102BA3008E828F83A3A3A3A3A3E0540364016003D2
:102BB300022C3C430811022C3CEE24181259EF60FE
:102BC30030EE241A1259EF700F1256C17003A3E0AE
:102BD3006970667508228061EE241B122C54241A36
:102BE300124BCFEE2419F582EF123F461213878062
:102BF30048122C4170037508011256C17003A3E0FB
:102C0300697006E508D2E1F508E5088E828F83A393
:102C1300A36011E07006E508D2E5801BE508D2E663
:102C2300F5088003E060121240C5F91214D7E96475
:102C3300016006E508C2E0F508A9080235E08E82C6
:102C43008F83A3A3A3A3A3A3A3A3A3124EC8640226
:102C530022F582EF123507122C5E221254A1EE22C6
:102C630074F01209E674DB120FBFEAFEEBFF8E82EB
:102C73008F83A3A3A3A3E06010901515E07002A3B4
:102C8300E060069015151228C674061211FBAC827B
:102C9300AD838E828F83122F28125493EE241B123E
:102CA30056FD74131211FB124A5874061211FBAA33
:102CB30082AB831213B7E9851082851183F0740CFC
:102CC3001211FBE06022741D1211FBE0FD74071268
:102CD30011FBE0FC8E828F83124FFB7901122215C8
:102CE300E96003022EF68014900458E0600E85100C
:102CF30082851183E0A2E14003022EF685108285CE
:102D03001183E0A2E6502E74231211FB1240CB6410
:102D130003700E74231211FB124F7BA3E0640D604A
:102D23001474061211FBAA82AB831214FBE964012B
:102D33007003022EF6EE242C122EFE1231E57003E0
:102D4300A3E069701F7508007808120F3478081221
:102D53000F34EE242EF582EF123F46122F19123450
:102D6300F2120F5D74091211FBE0FA90045EE06A3F
:102D73006003022EF6740C1211FBE07003022E3D69
:102D8300122F19124FFD12158574011211FB124CEB
:102D93002B74011211FBE07002A3E07003022EF604
:102DA30074071211FBE0F88E828F83A3A3E028F847
:102DB300A3E03400F9740D28F582E439F583E0FAD1
:102DC30074011211FB122F0DE06A601D74011211C0
:102DD300FB122F05EAF0908A2A78081211827401F7
:102DE3001211FB122F131211A0790474071211FB95
:102DF3001254892AFCA3E034008C82F583A3AA82AF
:102E0300AB831218D38A088B098C0A8D0B740112B9
:102E130011FB122F0DA3780C121182780C79081272
:102E230011235003022EF6908A16780812107A7432
:102E3300011211FB122F131211A0900470E064040D
:102E43006008E064096003022EF685108285118311
:102E5300E0A2E55055EE242E1259EFC0E0740312A0
:102E630011FBD0E0F0EE242F1259EFC0E0740412EE
:102E730011FBD0E0F0EE24301259EFC0E0740512DC
:102E830011FBD0E0F0EE2424122EFE120CFA74078C
:102E93001211FBAC82AD83740A1211FBAA82AB83BD
:102EA3001213217404120F5D8049A2E65045742366
:102EB3001211FB1250077018741D1211FBE064020B
:102EC300703174061211FBAA82AB831214C58023DE
:102ED30074231211FB124F7BE064077016741D12EA
:102EE30011FBE06404700C74061211FBAA82AB831D
:102EF3001214BF7425025373EE240BF582EF1235BF
:102F03000722A3124F7CA3A3A322124EB2A3A32290
:102F13001242A7780822EE242A123504122C5E24CA
:102F23001212350422A3A3A3A3E0F98E828F83A3F5
:102F3300A32274F71209E674F7120FBFEAFEEBFF40
:102F4300900470E06403600DE064016008E06409CC
:102F530060030230178E828F83A3E06003022FF396
:102F63007C007D007A027B00122023EE2402FAEF1C
:102F7300124CCF125703900461124A58795312200E
:102F830053790012301C900470E0640960099004C6
:102F93006E124FFD12157F7401124C557404900488
:102FA30070F074011211FBAA82AB83794A12204D8F
:102FB30074011211FBAC82AD837A667B0412203B51
:102FC30090046112549D7A037B00122023900464C1
:102FD30012549D7A047B0012202390045BE0A2E349
:102FE3005004D2F08002C2F0124C3B1228C380215D
:102FF3008E828F83A3AE82AF83FC7D007A037B1026
:103003001220238E828F83E0F912301CE490047027
:10301300F01213E17409023EEA90046E1250011299
:10302300132D22C082C083900440E07002A3E0709D
:1030330041900470E0120DE0000301483005573061
:103043000666307530900448E07002A3E0607B9020
:1030530004488070900444E07002A3E0606C900424
:10306300448061900446E07002A3E0605D900446F2
:103073008052900440E07002A3E060051234CD70EA
:103083002379009004BC800909EA12537BEB122FC9
:1030930001123DE17001EB70EF9004BC124FFD1281
:1030A30013278026900441122F06A3A3A3E06402F2
:1030B300700512151980139004E4E07002A3E06018
:1030C300099004E4124C5E1222920248D774F4125F
:1030D30009E674FB120FBF8A088B091231CE700107
:1030E300EF70030231C974028E828F831251E37928
:1030F3005012204D850882850983A3E060030231C5
:10310300B790046EE064FF7004A3E064FF60359041
:10311300046EE064FE7004A3E064FF602785108200
:103123008511831231E57003A3E069601774EA85A2
:103133000882850983A312350C7A6E7B04795012B9
:1031430020538070851082851183125774124A5858
:103153007A617B04795312204D900461124A4F7AAD
:10316300647B04794B12204D7A637B0479E112204E
:103173004D900475E0C3940F5022900463E0C0E0C7
:1031830074021211FBD0E0F074041211FB7401F00D
:1031930074021211FBAA82AB83122065750A0078B0
:1031A3000A120F34780A120F34901536E0F91234EC
:1031B300E9120F5D8508828509831231DFF07403FC
:1031C300900470124CBD74050235DD7A0F7B00123A
:1031D30018E58A0A8B0BAE0AAF0BEE22A3124A0A3A
:1031E300A322125778E0682274F21209E674ED12F2
:1031F3000FBFEAFEEBFF8E828F83A3123F1585106C
:1032030082851183AC82AD838E828F83A3A3A3A314
:10321300122F28124FF61213ED851082851183E0C9
:10322300706A8E828F83A3A3A3A3A3A3A3A3E0C3E4
:10323300940B4058850882850983A3A3A3A3A3A362
:10324300A3A3E064027045900470E064026042E06E
:103253006406603D900440E07002A3E06005123410
:10326300CD605E900470E064086005E06404701C47
:1032730074021211FBE0F974071211FBAC82AD83E7
:10328300850882850983124FF41213F374130228FD
:10329300AA900440E07002A3E07026750A00780A41
:1032A300120F34780A120F341234AD122F01123474
:1032B300D6FCA3E0FD8508828509831234F2120F40
:1032C3005D9004BC1242BA9004BCE0F50AA3E0F599
:1032D3000B80378E828F83E0F8A31234D668700395
:1032E300A3E06970198E828F83A3A3E0FAE5082413
:1032F3000DF582E5091259F26A70030233818E0AD1
:103303008F0BEE12537BEF1242B7EE7001EF70C3D7
:103313007A187B001219518A0C8B0DAE0CAF0DEE8F
:103323007001EF700302328F9004BCE07002A3E0DF
:1033330070059004BC800AE50A12537BE50B122F3B
:10334300011255F78E828F83124CE8EE240C122E55
:10335300FE74FFF0E48E828F83A3A3A3A3A3123D85
:1033630042A3A3A31234FBE4F0A3F0E508240B1259
:103373005D0E1234A3123B1FC41234A3A3F07401D5
:103383001211FB124CB7F074021211FB1234C5A3D5
:10339300F0E508240DF582E509122F011231E0A3AF
:1033A300124DB2A3A3125D29124A5874021211FBE3
:1033B300E06401601174071211FBAC82AD83EE244B
:1033C3000D1234BC80117C087D0079FFEE240DFAC8
:1033D300EF3400FB1218CD74121211FBE0C0E0EEC3
:1033E3002415122EFED0E0F0901536E0C0E0123422
:1033F300AD124BD2D0E0C39A400302328F1234B6DF
:10340300122F01A3E05480F9E47001E97009900ED2
:10341300D5E0700302328F74061211FB1234C570AB
:103423000EE0706274041211FBE0700602328FE04A
:10343300601474051211FBE0C0E0EE240C124BCFB4
:10344300D0E0C39A502B850882850983125D371219
:103453004A561234AD1259F2C0E0122EFBD0E0F0FE
:1034630074051211FBE0C0E0EE240C122EFED0E036
:10347300F074061211FBE0600D74018E828F83A33A
:10348300A3A3A3A3A3F074041211FBE070030232FD
:103493008F74018E828F83A3A3A3A3A3F002328F21
:1034A300540F8E828F83A3A3A322E5082410F582F1
:1034B300E50922E508240B80F5FAEF3400FB12201E
:1034C3003B221234C922E0023C9190044012382F6F
:1034D300640122E0F9850882850983A3A3A3A3A33A
:1034E300A3A3A3A3E02290046E1254A19004641238
:1034F30050011214A1740222A3F0EE241612350413
:1035030022F582EF3400F58322F07A617B0479534C
:10351300123517221220537A647B04794B122053FD
:103523002274F21209E674F8120FBF8A0A8B0B8C0D
:103533000C8D0D8908851082851183AC82AD83754E
:1035430083897582DB7408120E53F509AC0AAD0B3F
:10355300851082851183AA82AB831251DD700375B6
:1035630009019004BC80158E828F83E0650C700482
:10357300A3E0650D6023EE2416122EFE1242BAEE6E
:103583007001EF601FE50960DEAC0AAD0BEE240DA0
:10359300FAEF34001251DC60DD8E828F83A3A3E047
:1035A300650870D2EEFAEFFB74080228AA74F712CA
:1035B30009E69004BCE0FAA3E0800CEA2416124268
:1035C300B4121957EEFAEFFBEA7001EB70ED9004B9
:1035D300BCE4F0A3F0023EED7403120F5D7F04021E
:1035E3000BF974F21209E68A0C8B0DECFEEDFF89E0
:1035F3000B8A828B831253808A828B831236A8EEC6
:10360300F8EFF9A30EAF838A828B83A3A3E0C4549C
:10361300F0FA88828983E04A1236B3124A0A1236D4
:10362300AEE0333354FCFA8E828F83E04A1236AE17
:10363300A3E033333354F8FA8E828F83E04AF008E1
:10364300EFF9A30EAF83850C828B83A3A3A3A3A35C
:10365300A3E0A2E0E492E013135480FA8882898302
:10366300E04AF0E50C2407F508EB124772120F2C21
:103673007C081244E9120F5D125460E50C240FF527
:1036830008E50D3400F5097808120F2C7C03124469
:10369300E9120F5DE50BC3940F4007123775124A09
:1036A30000F00228ADA3124A0AF0221236B3A32275
:1036B300F0850C828B83A3A3A32274F21209E6EA9A
:1036C300FEEBFF890B8C0C8D0D8E828F83E08C8239
:1036D3008D83123D47AE82AF83E012488712378B4A
:1036E300C412488712377EE054038C828D831237CD
:1036F30089A2E2E492E08C828D831237881313133C
:10370300541F124887123787A2E7E492E08C828D18
:1037130083A3A3A3A312377E8E088F09750A0078AB
:1037230008120F2C7C087D00E50C24071254361276
:103733000F5D1254608E088F097808120F2C7C03DA
:103743007D00E50C240F125436120F5DE50BC39474
:103753000F40148E828F83A3A3A3E0C0E0123775BA
:10376300122F01D0E08007123775122F01E4F00207
:1037730028ADE50C2412F582E50D22A3A3123D47E3
:103783000EAF8322A3A3A3A3A3F08E828F83E02291
:1037930074F41209E674F9120FBFEAFEEBFF90040A
:1037A30040E07002A3E0601012382864027009EE52
:1037B300FAEFFB121513806890046EE06E7003A39A
:1037C300E06F705C74016960097A827B041251DDD9
:1037D300704E7A007B029004BBE0F91219F9EA708B
:1037E30001EB703C90047178081211828510828578
:1037F300118378081211A0900477E0C0E0740412DA
:1038030011FBD0E0F074051211FB7401F074061281
:1038130011FB74021251E31212F7E960921212FDC6
:1038230074070235DD90044012382F221242ABA3F5
:10383300A3E02274F61209E6EAFEEBFF8E828F8381
:10384300A3858208858309E0F912134585088285DB
:103853000983E064EB600A8E828F83A3E064E170E6
:1038630007E48E828F83A3F01228C37508017808BA
:10387300120F348E828F83A3E0F5087808120F3479
:1038830079001234E9120F5D1213FF024C3674F6FD
:103893001209E69004CDE0701F7C0079017A007B69
:1038A3000012142FEA7001EB600E8A828B83E070A2
:1038B30002A3E0600312139F024C36C082C083123E
:1038C3003D33401079FF121429E9FA9026B3E493AB
:1038D300C39A50047901800279000248D774F11227
:1038E30009E68A0A8B0B890E7509008A828B83A3EA
:1038F300A3A3A3A3A3A3A3E0F91214358A0C8B0DEE
:10390300AE0CAF0D750801EE7001EF60030239B61E
:10391300850A82850B83A3A3A3A3A3A312549D8526
:103923000A82850B83A3A3A3A3A3A3A3A3E0F9857F
:103933000A82850B83124FFD12141D8A0C8B0DAE68
:103943000CAF0DEE7001EF7003023AF58E828F8398
:10395300A3A3A3A3E4F0A3F0E50A240BFAE50B1257
:103963004CCFE0C0E0122EFBD0E0F01214EFEE24B7
:103973000C124C24750901EE2406F8EF125D115464
:103983007FF0A3E054FC123B1F54046003023A3C53
:1039930090151BE0F50A750B007407780A1210A046
:1039A3008E828F83A3A3A3A3A3A3E0450AF0A3E07E
:1039B300450BF08E828F83A3A3A3A3A3A3E054801C
:1039C300F50AA3E05403F50B7407780A121173E5A3
:1039D3000E607974028E828F83A3A3A3A312378709
:1039E300240D12500DA2E2500B90045CE0F8122F4C
:1039F3002B124A56E50A7003023AC3EE2406F8EF87
:103A03003400F9E8FAE9FB8A828B83E0547FFCA354
:103A1300E054FCFD74FF250AF50A74FF3400F50B2E
:103A23007407780A1210A0E50A4CF8E50B4DF98AE1
:103A3300828B83124A58023AC38E828F83A3A3A335
:103A4300A3A3A3E04480F0A3E00239B5E50A70051F
:103A5300750800806B8E828F83A3A3A3A3A3A3E027
:103A6300542060171218DF8A0A747F550AF8745FAE
:103A7300288E828F83A3A3A3A380278E828F83A301
:103A8300A3A3A3A3A3E05410600E1218DF8A0A7441
:103A93000F550AF8740180D88E828F83A3A3A3A342
:103AA3007401F0A3E4F074048E828F83A3A3A3A311
:103AB300A3A3A3A3A3123D4E7001EB7003123AFF1D
:103AC30074016509702F8E828F83A3A3A3A312525F
:103AD30052F9EEFAEFFB121423E96019EE240C12EB
:103AE30059EF7002A3E06003123B0CEEFAEFFB12F6
:103AF3001957750800A9087F07020BF97A207B0084
:103B03009004BBE0F912191522EE240C12350412AD
:103B13003B1622E0FAA3E0FB12195722F0888289B0
:103B230083E02274F41209E67508001214358A0A38
:103B33008B0BAE0AAF0BEE7001EF7003023BCB8E23
:103B4300828F83A3A3A3A3A3A3A3A3A3E064067069
:103B5300771214478E828F83A3A3A3A3A3A3A3E007
:103B63005408F9E47001E9605C8E828F83123F0987
:103B73007A007B00121417EA7001EB7048123BCEF7
:103B830012207D7C007D007A007B0080228E828F54
:103B930083123F037004A3E064FF6029123BCE123B
:103BA3001DA7E9641A601E7C007D00EEFAEFFB128C
:103BB30014178A088B09AE08AF09EE7001EF70CDB8
:103BC3007900122083750801022C3C90046E125276
:103BD300581250012274F71209E68A828B83E58218
:103BE3007002E58370099004CE80068A828B83A3DA
:103BF300A3123DE17001EB602C8A828B83A3A3A304
:103C0300A3A3A3A3E05408F9E47001E960DDEC7019
:103C130001ED60158A828B831240CB6C7003A3E0A5
:103C23006D70C880047A007B00023EED74F21209C5
:103C3300E68A088B09890AECFEEDFF7A0E7B0012F7
:103C43001951EA7001EB603EE48A828B83A3A3A33C
:103C5300A3A3A3A3A3123C8CE50A1247BCA3A312FC
:103C630055F38A828B83A3A3A3A3E4F0123C8C12A3
:103C730047BA125481EA240CF582EB1240B512477D
:103C8300BBA3A3F0A3F00228AD125AF180058E82E4
:103C93008F83A3A3A3A3A3A32274F51209E6EAFEC9
:103CA300EBFF890A8C088D09EE7001EF60597401EE
:103CB300650A70147901121429E9FA9026B1E49384
:103CC300C39A500F791180637404650A7033123DEF
:103CD3003340F18E828F83A3A3A3A3A3A3A3A3A3A0
:103CE300E50A123D4212547F8E828F83A3A3E4F030
:103CF300A3F09004CEE07002A3E09004CE601B809A
:103D03000A7402650A60CC79C18020125265700280
:103D1300A3E088828983A3A370F1EEF0A3EF123DA1
:103D23004E7001EB7003123AFF79007F03020BF927
:103D33007904121429E9FA9026B0E493C39A221263
:103D43003D47A322F08E828F83A322F07A207B004B
:103D53009004BBE0F91219F9EA22C082C083E9FC9E
:103D630079009004CE801D8A828B83A3A3A3A3A38F
:103D7300A3A3A3A3E06C600574FF6C7001098A829E
:103D83008B83A3A3123DE17001EB70DB0248D77470
:103D9300F71209E68A828B83E5827002E583700954
:103DA3009004CE80068A828B83A3A3123DE1700127
:103DB300EB60248A828B83A3A3A3A3A3A3A3A3A3BC
:103DC300E06970E1EC60148A828B83E0240D125366
:103DD3008AA2E240D080047A007B00023EED1250BA
:103DE30001EA22C082C0839004CE80068A828B833C
:103DF300A3A3123DE17001EB60128A828B83A3A31C
:103E0300A3A3A3A3A3A3E06970E280047A007B00C9
:103E13000248D7125707E82274F11209E68A0A8B7F
:103E23000B8C0C8D0D750800750900EA7001EB60B1
:103E33002E9004CE80068E828F83A3A31242BAEE05
:103E43007001EF601AAC0CAD0DEEFAEFFB850A8240
:103E5300850B83122292E9640170DB8E088F09AA15
:103E630008AB09023AFA74F71209E69004CE125726
:103E7300037C007D00800DE8FCE9FD88828983A333
:103E8300A3125703E87001E96030EA687002EB6936
:103E930070E59004CE124FFDE86A7002E96B8882E8
:103EA3008983A3A370081257039004CE8009125785
:103EB300038C828D83A3A3124A58023EED74F7123A
:103EC30009E6EAFEEBFFEE7001EF601612144112F1
:103ED3003F1F7002A3E06003123B0CEEFAEFFB12EC
:103EE3001957023EED741F120F5D7F01020BF91289
:103EF30054A18A828B8322E0F98A828B83023C97C6
:103F03001240CF64FF221240CFFCA3E0FD228E8239
:103F13008F83A3A3E0F508A3E0F509228E828F83A4
:103F2300E0241C125011123B178E828F83123B1612
:103F3300EE240C123F3A22F582EF3400F583E0229F
:103F4300F582EB123F3DF92274F21209E674FC127A
:103F53000FBFEAFEEBFF7508FE7509FF121405E9B2
:103F6300600579110240AAEE24151259EF603790CB
:103F73001530E0C43354E0C0E0E0333354FCFAD0EE
:103F8300E04AC0E0EE2415122EFED0E0123D4212AC
:103F930040BB7001EB600F7508FF124D9EEE2415B8
:103FA3001259EFD2E0F08E828F83124EC26006EE7A
:103FB30024121240B2EE24131259EF7003741EF050
:103FC3001259EC64017016900FA5E0600D9004582F
:103FD300E0700A8E828F83E070031240AFEE2414E8
:103FE3001259EF701590044DE0C0E0EE2414122E28
:103FF300FED0E0F090044DE004F08E828F83E06405
:10400300017016EE240B1240C86402700CEE240FEC
:104013001259EF4440F0A3E0F0851082851183AC80
:1040230082AD83EEFAEFFB12145F8A0A8B0B74FEE8
:104033006508700474FF64FF7003123F11EA700196
:10404300EB60608E828F83E0C0E074011211FBD0BD
:10405300E0F074021211FB1255F774011211FB8583
:10406300820C85830D780C120F30EE240F122EFE76
:10407300120CFEEE240E1259EFF50C780C120F34CD
:1040830074051211FBE0F9AC08AD0912145974055B
:10409300120F5DE9FE74106E700BAA0AAB0B1219B6
:1040A3005780027E10EEF974040228AAEE2411F55B
:1040B30082EF123507E4F02212500179FF1220FB40
:1040C300EA22EE241D1235041240CF22124F71E072
:1040D30022C082C08374DE120FBF8A828B83A3A3A4
:1040E300A3A3125703740E1211FBE8F0A3E91241C4
:1040F30086740C1211FB12417F240DF582EB1259C9
:10410300F2C0E0741A1211FBD0E0F012525E1257A3
:104113000074201211FB12417F2415F582EB125912
:10412300F2C0E074081211FBD0E0F0EA241CF5821F
:10413300EB12570074121211FB124A5874FF8510C8
:1041430082851183F074011211FB74FFF074021263
:1041530011FB74FFF0908A2A120CFA74041211FBFB
:10416300AC82AD8374071211FBAA82AB83121321B5
:104173007404120F5D790074220248D4E8F0A3E9B5
:10418300F0EA22F08A828B83A3A31257072274F0EA
:104193001209E674EE120FBF74101211FB124C2BAE
:1041A3008C088D09890B74221211FBE0F50C742322
:1041B3001211FB1242BA74251211FBE0F50EA3E0B3
:1041C300F50F750A107A1E7B001219517402121131
:1041D300FB124C2B74021211FBE07002A3E070037C
:1041E30002429A851082851183AA82AB8379501289
:1041F3004AE11211FB1242A1A3124C2B74021211B9
:10420300FBE0240B1229937402F01211FB1242A15A
:104213007402F01211FB124C5E12548174021211DB
:10422300FBE0241B122993E50BF074021211FBE04F
:10423300240C122993E50CF074101211FB124AEAB4
:104243001211FBE0241C122993124C2B7408121137
:10425300FB1255F7740A1211FBE50CF0850E8285EB
:104263000F83C082C083740D1211FBAC82AD83D067
:1042730083D0827403120E53F974021211FBAA82C3
:10428300AB8312140BE964017005750A008008748E
:10429300021211FB123B12A90A7412025373124247
:1042A300A7023C971242AB22124F75023C97EA24B5
:1042B3000BF582EB123507E0FEA3E0FF2274F01248
:1042C30009E6EAFEEBFF8C088D0974088E828F8362
:1042D3001234FBE0600874108E828F83A3F0EE2407
:1042E300171259EF60098E828F83A3E02408F0EE42
:1042F30024151259EF60088E828F83A3E004F08E99
:10430300828F83A3A3A3A3A3A3E060198E828F83C9
:10431300A3A3A3A3A3A3A3E0C3332402FA8E828F90
:1043230083A3E02AF01259EC6005750B0E80037528
:104333000B008E828F83A3E0C0E0EE240D122EFECD
:10434300D0E0FAE02A250B8C828D83F01259EC60C1
:1043530005124A852AF0850882850983E0C394758E
:1043630040030244DCE0FA7B001219518A0E8B0FE2
:10437300EA7001EB70030244E2EEFAEFFB121465FC
:10438300EA850E82850F83124C2CEE2402F8124428
:10439300F5124514F0EE240408081244F5A3A31201
:1043A3004514A3A3F0EE2413124500F0EE241412D7
:1043B3004500A3F0750C08EE24161259EF6013EEB6
:1043C300241812549AE50E2408FAE50F1234BE7528
:1043D3000C10EE24171259EF6019EE241A12549A96
:1043E300850C08E50E2508FAE50F1234BE7408257E
:1043F3000CF50C8E828F83A3A3A3A3A3A3E0607207
:104403008E828F83A3A3A3A3A3A3A3E0C0E0850C01
:1044130008E50E2508F582E50F122F01D0E01245BD
:104423000AE0C0E0850C08E50E2508F582E50F12C9
:104433002F01D0E012450AA312543F120F2C8E8293
:104443008F83A3A3A3A3A3A3A3E0C333FCE433FDFC
:10445300850C08E50E2508FAE50F125439120F5D95
:104463008E828F83A3A3A3A3A3A3A3E0C333250CAB
:10447300F50CEE24151259EF6010C0E0E50E250C83
:10448300F582E50F122F01D0E0F0122EFB12543FFC
:10449300120F2CEE240D1259EFFC7D00850B088EB4
:1044A300828F83A3124795E50828FAE4391244EE74
:1044B300120F5D1259EC6027EE240D1259EFFD8E99
:1044C300828F83A3E0FCAA0EAB0F7900122215E9B9
:1044D300600DAA0EAB0F121957750E00750F00AAC7
:1044E3000EAB0F0253767D00EEFAEFFB1218C17488
:1044F3000322EF125D15850E82850F832212350488
:1045030012451BA3A3A322F0050C8E828F830260A6
:10451300D012452612451B22E0850E82850F83A308
:10452300A3A322A3A3F088828983A32274F612098A
:10453300E6EA2415F582EB1259F260047C0180024D
:104543007C008A828B83E0FE90045E1245D0740265
:1045530078081210A0E5084EFEAF09EA24121245AE
:10456300CA740678081210A0E5084EF8E5094FF959
:10457300ECFDE8FCED49FDEA24111245CA74097803
:10458300081210A0E5094DFDEA24161245CA740B62
:1045930078081210A0E5094DFDEA24171245CA74E4
:1045A3000C78081210A0E5094DFD8A828B83A3A322
:1045B300A3A3A3A31245D0740A78081210A0ECFA9F
:1045C300E5094DFB024C36F582EB123507E0F508A1
:1045D3007509002274F01209E674FE120FBF8A0EE9
:1045E3008B0FECFEEDFFE98E828F831247BC124ADC
:1045F30017850E82850F83A3A3124790124A411297
:1046030047DE124790124A301247DEA3A3E0C0E010
:10461300EE2411122EFED0E01247E5A3A3A3E0C0BF
:10462300E0EE2412122EFED0E0124A97600AE50E45
:104633002408F8E50F124A5E8E828F83A3A3A3A3F7
:10464300A3A3A3A3E060218E828F83A385820C851D
:10465300830D124795EE2415122EFE124A58850C2F
:1046630082850D83E02408F08E828F83A3A3A3A306
:10467300A3E0600F1247A18E828F83A3A3A3A3A3FA
:104683001247EFEE24181259EF607C1247A1C0E0E5
:10469300EE2419122EFED0E01247EFF8E50E28F5AE
:1046A30082E50F1259F2C0E0EE241A122EFED0E07A
:1046B3001247EF124768E433FB1247C07002A3E0CE
:1046C30060458E828F83A3E0F8E50E28F508E50F99
:1046D300124772120F2CEE24191259EFC333FCE464
:1046E30033FD74031211FB124FFD1244EF120F5DE1
:1046F300124768850C82850D83E02A125447EE2405
:104703001B122EFE124A588E828F83A3E0FA8A0868
:10471300E50E2508F8E50F340012477C12378CC3E9
:104723009AC0E0EE2417122EFED0E01261E9E06099
:1047330031EE2417F508EF3400F509850882F58377
:10474300E024F2F0EE241DF8EF125D11240EFAA31B
:10475300E03400FB88828983EAF0A3EB124A80C32A
:104763009AF0025371EE2419123F3AC333FA2234FA
:1047730000F509750A00780822F9EE241D12478412
:1047830022F582EF3400F583E8F0A3E922E0FA0290
:1047930044F9E0F8E50E28F8E50F3400F9228E829B
:1047A3008F83A385820C85830DE0F8E50E28F582BF
:1047B300E50F123F3D22A3A3A3F0023EF5121951C8
:1047C300851082851183EAF0A3EB1247D1221247A9
:1047D300D6E022F085108285118322F0A3E91247E7
:1047E300E522F0850E82850F83023C97F0850C82CB
:1047F300850D83E004F02274F41209E68A088B091C
:10480300EA12488EF0EA1313543F124887A3A3A376
:10481300F0EAC4131312488EA3A3F0EB124874F00A
:104823008A0A8B0B7409780A121173E50A12487409
:10483300A3F08A0A8B0B740A780A121173E50A54DF
:1048430001C0E0EC2418F582ED122F01D0E0F08ACC
:104853000A8B0B740B780A121173E50A124881F064
:10486300740C7808121173E508124881A3F002351D
:10487300E01248782254018C828D83023C961248C0
:1048830078A3A322540F8C828D832254038C828DB0
:1048930083A3A322C082C08379008A828B83A3A3CC
:1048A300A3A3A3A3E0900458600FE070228A828B35
:1048B30083A3A3E07019098016E060138A828B83B7
:1048C300124FF4900461E06A7003A3E06B70E78019
:1048D30003120F5DD083D082020ED774F31209E660
:1048E3008A0A8B0B890CECFEEDFF8A828B83124ABA
:1048F30017850A82850B83A3A3124A0E124A41121B
:104903004A6F124A0E124A30124A6FA3A3E0C0E064
:10491300EE2411122EFED0E0124A76A3A3A3E0C028
:10492300E0EE2412122EFED0E0124A97600AE50A46
:104933002408F8E50B124A5E8E828F83A3A3A3A3F8
:10494300A3A3A3A3E0601B8E828F83A3124A1EEE50
:104953002415122EFE124A58850882850983E02405
:1049630008F08E828F83A3A3A3A3A3E060238E8288
:104973008F83A3858208858309E0F8E50A28F582F9
:10498300E50B124A00A3A3F0850882850983E0049E
:10499300F0EEFAEFFB121477E9705D8E828F83A33A
:1049A300A3A3A3A31231DF7025E0FC8C08E50A253D
:1049B30008FAE50B3400FBEE241D124C24E50CC36E
:1049C3009CC0E0EE2417122EFED0E0F0802A124A9B
:1049D3001E740E28F8E43912477C124A80FCE50C59
:1049E300C39C24F2C39AFDEE2417122EFEEDF0AA07
:1049F3000AAB0B79011222157F05020BF912350759
:104A0300124A0AA3A3A322E0025D32E0FA850A82D6
:104A1300850B83221250011214712285820885832B
:104A230009E0F8E50A28F8E50B3400F922A3A3A36B
:104A3300A3A3E0F9EAF8EE240B123504E822A3A3BA
:104A4300A3E0F9EA8E828F83A30260D01257078E08
:104A5300828F83A3A3E8F0A3E9F0223400F9EE24C4
:104A630013124784123D47E02408F022F0A3E91211
:104A73004A7622F0850A82850B83023C97F0124A1C
:104A83008522900459E0F91221E5E9FA8508828527
:104A93000983E022F074088E828F83A31261EDA351
:104AA300E022C082C0837AD37B0479E212204D7A5C
:104AB300D37B040248D7C082C083900461124FFDA8
:104AC3000248D7C082C08374FE120FBF851082854F
:104AD3001183AA82AB83794B124AE10248D4122094
:104AE3004D851082851183125001740222C082C049
:104AF30083794A12204D0248D774F61209E69004CE
:104B0300DBE0FE04F0EEF9121435EA7001EB70EE0F
:104B1300EE60EBF9024C3674F01209E6EAFEEBFFA5
:104B23008C0E8D0F890874101211FBE0F50D7411B2
:104B33001211FBE0F50C7509001215858A0A8B0B1F
:104B4300A80AA90BE87001E97013E50C705DA908C8
:104B5300AC0EAD0FEEFAEFFB1215A3806CE5086007
:104B63001FE82402F582E9124BD2E5082AFAE4345D
:104B73000013EA13F07009740188828983A3A3F0F8
:104B8300E50C6045E50D701088828983E0600214AE
:104B9300F0E49004EAF080319004EAE004F0FA9043
:104BA300151CE06A70237509018003E4601BE509A5
:104BB300601712148FEA6E7002EB6F700CEEFAEF4F
:104BC300FB790112133F124BD7025376F582EF1292
:104BD3003F3DFA227A017B009004BBE0F91219F3FE
:104BE30022C082C08374016A7001EB70077A0112DC
:104BF3003B018014901513124C2BEA7001EB6005F6
:104C03001228B28003124BD70248D7C082C08390C8
:104C13001515124C2B0248D7C082C08390151780FC
:104C2300F1F582EF3400F583EAF0A3EBF022740D83
:104C3300120F5D7F02020BF9A2F0E492E0124C49DD
:104C4300795212205322851082851183F0AA82ABF8
:104C53008322124C49794212205322124F6D22AA09
:104C630082AB831213E77ABE7B0479451220532269
:104C730074F71209E674ED120FBFE9FE9004BA123D
:104C83005018124CAA74121211FBEE124C9F85108D
:104C930082851183124C627413023EEAF09014C1B0
:104CA300E0F97CBE7D04229014C1E0F97ABE7B0456
:104CB3001213ED221234C9A3A322F0124CC222EE26
:104CC300FAEFFB9004BBE0F91218F1223400FB0267
:104CD3003EF5F582EF124DD822A3E088828983F056
:104CE300A308A98322A3A3A3A3A3A3A3A3A374FE9B
:104CF300F0A374FFF02274F41209E68A088B097A90
:104D0300007B04124BDB124D86124A58740990043F
:104D130070F01214838A0A8B0BAC0AAD0BE50824DE
:104D230013F582E509122F01124FFD1251DD6401C3
:104D3300704E1231CE7001EF604674028E828F8303
:104D4300F0E508241DF8E50912299A124FFD8A821D
:104D53008B83A3E0FC8A828B83A3A3E0FBEC8E828C
:104D63008F83A3A3F0A3EB123B1FF8122F05124A64
:104D73000A124D90FAA3E0FB794A122053124CC257
:104D83000235E090044212570790151722A3F0E56D
:104D9300082415F582E509123F3D22EE240F123F48
:104DA3003A4404F0A3E0F022124DB8A3A3A32212C5
:104DB3004DABA3A322F0850882850983A3A322EE2A
:104DC3002417124DD5121483EE241A123504EA0265
:104DD3004C2CF582EF3400F5837401F02274F61243
:104DE30009E674F3120FBFEAFEEBFF7C0D7D007939
:104DF30000851082851183AA82AB831218CDEE241D
:104E03001DF582EF124EABE0F854206008740C12CB
:104E130011FB7401F0E854806008740B1211FB74E9
:104E230001F0E85440600A740A1211FB7401F08027
:104E33000A740A1211FBE064017005EE2413800367
:104E4300EE241512549A74021211FBAA82AB831238
:104E5300203B122EFB124F5C124A58740A1211FBAC
:104E6300E064017033124EB7703B12148F8A088BC3
:104E730009A808A909EE240B1259EF687003A3E0EF
:104E8300697022121483EAFCEBFD74021211FBAA6F
:104E930082AB831251DD600D851082851183AA8256
:104EA300AB83121339024C31123507124EB2221260
:104EB3004F71A3228E828F83A3A3A3A3A3A3A3A330
:104EC300A3124EC822E0FAA3E0FB1214E9E922740C
:104ED300F61209E674F3120FBF8A088B09ECFEED94
:104EE300FF7C0D7D007900851082851183AA82AB3A
:104EF30083125F60A3A3A3A3A3A3A3A3A3124F5CE3
:104F0300E8F0A3E9124F62A3E0FAA2E55008740B9C
:104F13001211FB7401F0EAA2E75008740A1211FBA4
:104F23007401F0EAA2E6EE50042413800224151261
:104F3300549A74021211FBAA82AB8312203B850898
:104F430082850983A3A3E0C0E0740C1211FBD0E0B7
:104F53001251E3121333024C311257070247D7F0B1
:104F6300EE241D123504124F6D22124F7122124F7F
:104F73007522E0F8124F7B22A3E0F5838882227426
:104F8300F71209E674E1120FBFEAFEEBFF8E828F80
:104F93008312382BA2E050568E828F83122B5B8AAA
:104FA300828B83A3A3A3A3A3A3E054FEF0A3E012E5
:104FB30050188A828B83E0241B12500DF98A828B4E
:104FC30083E0241CFAA3E0124CCF124FFD12147D90
:104FD300E9701B741D1211FB1250077011851082AA
:104FE300851183AC82AD83EEFAEFFB1214CB023E44
:104FF300E8A3A3A3A3A3A3A3A3A312500122E0FAAC
:10500300A3E0FB221240CF64042212501122F8A322
:10501300E0125D19221247D6AC82AD8322E9FA79F8
:105023000074046A600A740A6A600574036A700192
:1050330009020ED774F61209E674208A828B83F074
:105043007401A3A3F01212EB8A088B09AE08AF090F
:10505300EE7001EF600774018E828F83F09004AECF
:10506300E07003124DC2EEFAEFFB024C36C082C071
:105073008374019004D0F0E9A2E350037403F0E9D0
:10508300A2E15004E0D2E2F00248D774F61209E636
:1050930079007C008A088B097808120C3FF8FF0717
:1050A300C150BF50BF50BF50BF50B850BC50C1508B
:1050B300B5500C80097C0480050C80F67C089004B4
:1050C300D0E05C6003098003EC600109024C367494
:1050D300F61209E68A828B83E07014A3E07002A3C0
:1050E300E0600C8A828B83124FFC1221F180047AD8
:1050F300007B00024C3674F51209E674F3120FBFFD
:10510300EAFEEBFF8C088D09750A12EE7001EF7051
:105113000579000251CE900461E06E7003A3E06F45
:105123007018121483EAFCEBFDAA08AB091251DDD7
:105133007005750A018003750A00E48510828511E4
:1051430083F074011211FBEEF0A3EF1251E312127C
:1051530019E9602B74031211FBAA82AB831219EDB8
:10516300E96401701A750A0174031211FBAC82AD74
:1051730083AA08AB091251DD6021750A00801C74F3
:1051830012650A70169004ADE06402700EAC08ADAF
:1051930009EEFAEFFB121237E970DFAC08AD09EE46
:1051A300FAEFFB12158BE9FA740A6A7005750A01A6
:1051B300801774A06A7012AC08AD09EEFAEFFB1207
:1051C3001597EEFAEFFB1215AFA90A740D120F5DD6
:1051D300023D2E2408FAE93414FB122035E922E4B7
:1051E3001251E7221251EB22F085108285118302BE
:1051F3004C5074F71209E6EAFEEBFF7508008E8245
:105203008F83A3A3A3A3A3A3A3A3E06017EE2415F3
:10521300122C54122EFC124FFD1214F5E964017086
:10522300037508018E828F83A3A3A3A3A3A3A3E083
:105233006018EE2413122EFE125252FAA3E0FB1250
:1052430014F5E964017003750801A908023EED1223
:1052530052580234DE1254A1025D32EA240BF58265
:10526300EB2212570788828983A3A3E02274F012EA
:1052730009E674F3120FBF74031211FBECF0A3EDF4
:10528300F08A0E8B0F890B741D1211FBE0F50A7E59
:1052930001EE1211FB740AF0E97007E50AC3332427
:1052A3000AF0851082851183AA82AB831214DD8AEA
:1052B300088B09EA7001EB700302536B1242B1745D
:1052C30009125469450A1254761211FB12544FE520
:1052D3000B70307A008026EAC333F8E433F9741E86
:1052E3001211FBE028F8A3E039F98882898312536D
:1052F30080888289831236A8A30EAF830AEAC395F6
:105303000A40D4E5082417F582E509124CD8121493
:1053130083E508241AF582E509124C277405121156
:10532300FBAC82AD83AA0EAB0F122209E96021E523
:105333000812537BE509124CD874051211FBA8829D
:10534300A983E5082418F582E509122F01124A58AA
:10535300850882850983A3A3E50EF0A3E50FF0AAD0
:1053630008AB091212E5E9FEEEF9740D800274022E
:10537300120F5D7F08020BF92416F58222124A0AE6
:10538300F0A3AE82AF8322FEA3E03400FF02378D89
:1053930074F01209E674FE120FBF85108285118323
:1053A300124C2B89088C0E8D0F74121211FBE0F531
:1053B3000B900F15E07002A3E06075E50BC333F8A3
:1053C300E433F9740E28FAE439FB1218E58A0C8BDE
:1053D3000DAE0CAF0DEE7001EF605574D48E828F5D
:1053E30083125447124A528E828F83A3A3A3A3E549
:1053F30008F0AC0EAD0FEE24051234BCEE240D12F2
:105403002EFEE50BF074131211FB12543F120F2CF6
:10541300E50BC333FCE433FDEE240EFAEF125439EB
:10542300120F5DEEFAEFFB900F15124C5E122292F3
:10543300025371FAE50D3400FB0244EFE0F508A3D3
:10544300E00247741247D1F8A3E0F922122C5EFA66
:10545300EFFB1254592212203B12546022EE24080F
:10546300FEEF3400FF228E828F83F0A3E50BC4335B
:1054730054E022F0A3AE82AF83740322A3A3E50812
:10548300F0A3E509F022E0FA8E828F83A3A3E02242
:1054930012500112146B221235041254A122E0029D
:1054A3003F0C74F71209E6E9FE7C007D0078007971
:1054B30000800C1255752CFCA3E03DFD125E9B127F
:1054C30060ED5037E8FAE9FBEA75F012A4FAAFF0A1
:1054D30075F012EBA42FFBEA2490F582EB3412F55E
:1054E30083E064FF60D61255757002A3E060CDEED1
:1054F30060C112557AE4F0A3F080C178007900808E
:105503000C1255542CFCA3E03DFD125E9B1260E08F
:105513005038E8FAE9FBEA75F017A4FAAFF075F032
:1055230017EBA42FFBEA1260DBEB1260AE7004A34F
:10553300E064FF60D51255547002A3E060CCEE60C6
:10554300C0125559E4F0A3F080C0ECFAEDFB023E23
:10555300ED125559E022E8FAE9FBEA75F017A4FACF
:1055630075F017EBA42FFBEA241BF582EB3414F53B
:10557300832212557AE022E8FAE9FBEA75F012A4D5
:10558300FA75F012EBA42FFBEA249CF582EB34129C
:10559300F5832274F61209E6EAFEEBFF9004D1804C
:1055A3001388828983E06E7003A3E06F603F888273
:1055B3008983A3A3123E167001E970E57A047B0088
:1055C3001219518A088B09A808A909E87001E96032
:1055D3001C888289831255F79004D1124FFD88826B
:1055E3008983A3A3124C2B9004D1124A58024C3640
:1055F300A3A3A3A3EEF0A3EFF02274F41209E67EB3
:10560300009004D180070E88828983A3A3123E16DB
:105613007001E970F1EEC333FAE433FB1256B17053
:1056230001EB70030256AB7F009004D18024888283
:10563300898312549DEFC333FAE433FBE5082AF55B
:1056430082E5093BF583ECF0A3EDF00F88828983B3
:10565300A3A3123E167001E970D49004B61256CE7D
:105663007003A3E06978087019120F30EEF50A7819
:105673000A120F347C827D0479009004B61256BA64
:10568300801A120F30EEF50A780A120F347C827DED
:105693000479009004B6124FFD1215017403120F22
:1056A3005DAA08AB091219571212FD0235E012194F
:1056B300518A088B09EA22125001121507228E82A1
:1056C3008F83A3A3A3A3A3A3A3A3A3125707900406
:1056D30061E06822C082C08380128A828B83A3A385
:1056E3001257039004D1124A581219579004D11239
:1056F3003DE17001EB70E30248D7F582EF12350705
:1057030012570722E002544A74F61209E690046E17
:105713001242BA9004DC125774124A587ADC7B04A2
:1057230079501220539004DC122C5AFAEFFB121515
:10573300A99004DC1242BA900F17E07002A3E06054
:105743002D7A067B001218E5EA7001EB602074D510
:105753008A828B83F0E4A3A3F074018A828B831281
:1057630047B91255F3900F17124C5E122292024C56
:105773003612577822E0F8A3E0F990046E22C08233
:10578300C0839004DE7437F0A37415F09004E074C2
:1057930031F0A37415F09004E2744FF0A37415F084
:1057A3000248D7C082C083900461E064FE7004A302
:1057B300E064FF600E90045BE0A2E15006121591D5
:1057C30012153D1215370248D774F61209E69004F4
:1057D300AFE060281218DF8A08A8089004AFE0FA47
:1057E30075F0E8A4CAACF075F003A42CFB747F58E1
:1057F3002AFCE43BFD7A007B011228BA024C367482
:10580300F01209E674FE120FBF750F008510828532
:105813001183E4F0A3F01212557A047900121231C5
:10582300EAFE7A0279011259E37A0379031259E302
:1058330012156DEAF50E2EFF8E0AEA250AF8E434F6
:1058430000F9E87001E970030259438F08750900F4
:10585300740278081210A0AA08AB091247C070029C
:10586300A3E070030259418F087509007402780898
:105873001210A0AC08AD0979FF851082851183E071
:10588300FA1218CD7508008056A90812124F8A0C17
:105893008B0DEA7001EB60458A828B83A3A3A3A3DC
:1058A300E0600464047036050F8A828B83A3A3A38C
:1058B300A3A3A3A3A3A3A3E0F912159D8510828537
:1058C3001183120CFEEFFD850C82850D83A3A3A328
:1058D300A3A3A3A3A3A3E01259F6120F5D050885A2
:1058E300080A9026A9E493F8740193F9C3E50A988A
:1058F300E4995006E50FC39E408F750800E508C381
:10590300950E503CAA087B001215738A0C8B0DEA86
:105913007001EB6025851082851183120CFEEA2449
:105923000EF582EB1259F2FEEA240F123F431215D1
:105933009DEFFDEE1259F6120F5D050880BF7F0043
:1059430075096A900459E0600CF91221E5E9FA74CB
:105953005CC39AF50975F003E50984F50A8510829D
:10596300851183E0F50EA3E0F50F750B00E50960E3
:1059730006750B20750900E50AC39F5004AE0A8023
:1059830008EFFEE50BD2E6F50BAC0EAD0FAA0BEE5E
:10599300F9121549E9F50CE50BA2E6401F1E75083F
:1059A30000800EE50E2404F50EE50F3400F50F0517
:1059B30008E508C39E40ECEECFC39FFFE97006E500
:1059C3000BA2E650A5851082851183E07002A3E047
:1059D3006009851082851183123B12A90C02537151
:1059E300121231EACEC39EFE22EE2411F582EF128B
:1059F3003F3D22FC850C82850D8312500112154315
:105A030074022274F21209E6EAFEEBFF8908740EAF
:105A13001211FB124FFD750A00750B00750900800A
:105A23000E8A0A8B0BEA2404FAEB3400FB0509E522
:105A330009C39D50218A828B83E064FF7004A3E035
:105A430064FF70158A828B831255F7EC8A828B83ED
:105A5300125AECE508F00228ADE50A7002E50B6086
:105A63000E850A82850B83C3E09EA3E09F50B28A12
:105A7300828B83125703C3EE98EF9950A4EAF8EB95
:105A8300F988828983E064FF7004A3E064FF6010F7
:105A9300E82404F8E93400F90509E509C39D40E168
:105AA300880A890BE824FCF8E934FFF988828983A2
:105AB300E0F50CA3E0F50D850A82850B83E50CF078
:105AC300A3E50DF088828983125AE0124528125A01
:105AD300E0A3F0C3EA98EB9940C6025A47A3A3E0B8
:105AE300850A82850B83A3A322A3125AF122A3F072
:105AF3008A820236B774F31209E674FD120FBF8966
:105B0300088A09ECFEEDFF750C0175F003E9A42486
:105B130002C0E074011211FBD0E0125BB17001EB23
