:020000040000FA
:060000000210D4020739D2
:03002B000210833D
:03003300020C8537
:03004300020F1990
:03004B00020D7B28
:0300530002068C16
:03005B00020D8A09
:03006300020D96F5
:03006B00020C6B19
:100083000206D50101FF0503010F0300030003006E
:1000930003000300030003000300030005000A003C
:1000A300140028004F009E000000D616D616D61660
:1000B300D61698159215D616E42200000000A82340
:1000C300000000000C0000000C0001AA05FF020064
:1000D30001010100DE0E000000530FE80364006419
:1000E30000B8010202000800000502071E02051EF7
:1000F30003B80B020103320002F1FF0202020605FC
:10010300000020410000803FCDCCCC3D1211206087
:100113001D1211027005191919801A120F5C701F34
:10012300120F9BC37003E667331919194007181898
:10013300182208080874FFF618F618F618F62212A3
:100143000F9B6017121180702192F01211767019B3
:10015300501720F014080808090909E7F61819E7E9
:10016300F61819E7F61819E7F62212117660E6E891
:1001730069701F0808E62480F608E436F618547FF1
:10018300B47F0CE654806007F6E418F618F62218DC
:100193001822E9C6CC08C6CD08C6CE08C6CFC0E033
:1001A300E8C0E0EAC0E0EBC0E009E9F809E7FA09D2
:1001B300E7FBE6F918E6F8C3EC98ED99EE9AEBC283
:1001C300E7F5F0EFC2E795F0500E600CEBCFFBEADA
:1001D300CEFAE9CDF9E8CCF8EAA2E7D2E7FAEB33B5
:1001E300FB13F5F0EEA2E7D2E7FEEF33FFC5F01302
:1001F300A2E730E601B313C5F0C3C0E0C0F07F004F
:10020300C39BFB605B9418600C401AD0E023F9D0C9
:10021300E0F80202ED8AF0E9486003D2F0E4AFF0BF
:10022300FAF9F8803BEB30E40D89F0EA6003D2F091
:10023300E4AFF0F9CAF8EB30E30D88F0EF6002D2D7
:10024300F0AFF0E4CAC9F8EB54076014FBC3EA1338
:10025300FAE913F9E813F8EF135002D2E0FFDBEDEC
:10026300D0E0C0E030E739C3E49FFFF5F0EC98FC41
:1002730042F0ED99FD42F0EE9AFE42F0D0E0F9D063
:10028300E0F8E5F0607AE923F9EE20E742D802804E
:1002930067C3EF33FFEC33FCED33FDEE33FE80EA4F
:1002A300EC28FCED39FDEE3AFED0E023F9D0E0F87E
:1002B3004002801BC3EE13FEED13FDEC13FCEF13A2
:1002C3005002D2E0FF08B800067F7F74FF802EEF54
:1002D3003350178CF020F00260100CBC000C0DBDE5
:1002E30000080EBE000408E860DFE933E813FFEE00
:1002F3002313FE4F4D4C8008E95480FFE4FEFDFCC0
:10030300EE33EF33F47004FCFD7E80D0E0FBD0E0ED
:10031300FAD0E0F8D0E0CFC618CEC618CDC618CCB8
:10032300C6F9221211207004181818221211027033
:100333000D74FFF61819F61819F61819F622E75472
:100343008066F6121176700F12118070F014F608A1
:10035300F608F608F680D1121180700CF608F6083C
:10036300768008E6447F80EC120F9E700C120F5FBC
:1003730060BFE65480F6E480BB120F5F7005191965
:100383001980A5E869700C763F18768018F618F680
:10039300E8F922E6CDC0E018ECC0E0E633CD33CD7A
:1003A300D313F6E719FCE7191933CC33C3947F4011
:1003B3000ECD9D502408E65480F6E418F6800FF421
:1003C300043D14501408E6447FF6187680E418F6CA
:1003D30018F6D0E0FCD0E0FD22CCD313CCFD18E41A
:1003E300C6CBC0E018E4C6CAC0E00808ED08C633AF
:1003F300E613F618E433C675F003C3CA97CA09CBEC
:1004030097CB199C40047D08802EBD00030204CFC6
:1004130016B6FF050606081618C3CA33CACB33CB74
:1004230033CA27CA09CB37CB193CC37D08803E1892
:100433007D0820E75CC633C6CA33CACB33CB33DD72
:10044300F1D5F0EB30E77BCA97CA09CB974ACB19B2
:100453009C406F4B7025E620E0218066187D08C321
:10046300CA97CA09CB97CB199CD3C633C6CA33CA1A
:10047300CB33CB3350C9DDE7D5F0E1D3E4C636C681
:1004830008C636C608C636C608C636C61818188043
:1004930031C3CA97CA09CB97CB199CB34097C633CC
:1004A300C6CA33CACB33CB33DD34D5F02EC6A2E074
:1004B300C640C8CA27CA09CB37194A70BECB3CB459
:1004C30080B90808E63308E633601F181818D0E02F
:1004D300FAD0E0FBD0E0FCD0E0FD22187D08CA276B
:1004E300CA09CB37CB193CD3808013F618E4B67F07
:1004F30011F618B6FF0EF618C60470D208087680F7
:1005030080CAF618F618F680C500121120604F1243
:1005130011026012E7548066F6120F5C701112111B
:1005230080703B090909F4F618F618F618F622123A
:100533000F9B701512117608080860EAE6447FF6EF
:1005430018768018E4F618F6221211766016121146
:10055300807012E4F608F608F608E65480F60909F6
:100563000918181822EAC0E0EBC0E0ECC0E0EDC0C7
:10057300E0E687F0A4FBACF008E687F0A42CFCE4EB
:1005830035F0FA1809E687F0A42C4B60027401CA0F
:1005930035F0FCE433FB09E687F0D2F7A42CCB3526
:1005A300F0FC1908E687F0A42BCC35F0FBE433FD0F
:1005B3000819E687F0D2E7A42C4ACB35F0CD3400F6
:1005C300FC09E687F0D2E7A42DCC35F0FDE433FA3D
:1005D3000918E687F0D2F7A42CCD35F0CA3400FC15
:1005E30008E687F0D2E7D2F7A42ACC35F07A7E204A
:1005F300E70B0ACB33CBCD33CDCC33CC33CB33501A
:10060300147004ED30E00ED2F1E4CD3DCDCC3CCC02
:100613003B5005DA05C2F1EB547FC63308E633924B
:10062300F0FBE73309E733C39A502D2B70190C0DF8
:100633004C4D70151806E608C333700D20F10AA25D
:10064300F013F6E418800B4024E4F630F0027680D1
:1006530018F618F618F68024D33B14501074FFA232
:10066300F013F6187680E418F618F6800FA2F0134C
:10067300F618E63303F618ECF618EDF6D0E0FDD0E5
:10068300E0FCD0E0FBD0E0FA22C0E074F21209C330
:10069300E5A7F8E5A1F95854106008121D4853A1C5
:1006A300EF802AE8A2E0C0D0E9A2E092F012101194
:1006B300158182F05017906198E0F8901266E0C3BC
:1006C30098A2D265D0335002E8F053A1FE7F010215
:1006D3000A7AC0E074F21209C39061A4E0F8759B32
:1006E30000E59158540860087591F7121D8A802A15
:1006F300E59158541060087591EF121D90801BE826
:10070300A2E0C0D0E591A2E092F01210111581820F
:10071300F05007E0C2E0F0121EB09061A3E0F8E5EC
:10072300E9585404600E121E8675E9FB906193E04C
:10073300A2E640F28097C0E074F21209C39061A56B
:10074300E0F8E5BF585404600653BFFB121EC8020D
:1007530006D0C3E498F8E499F91207968026C3E417
:100763009AFAE49BFBE920E7E9120796E498F8E498
:1007730099F922C3E498F8E499F9120796E498F8F2
:10078300E499F9C3E49AFAE49BFB22EB20E7CFE96F
:1007930020E7E0B90010BB0008E88AF084F8AAF06B
:1007A30022E4FBC8FA22EB70227B10C833C8C9339A
:1007B300C9335007C39AC3DBF280069A50012ADB80
:1007C300EAC833F4C8C933F4C9FA2275F008E4C897
:1007D30033C8C933C933C99AC99B5004C92AC93B11
:1007E300D5F0ECFBC833F4C8E4C9FA22080808EAD8
:1007F300C0E0EBC0E086F0E7A4FA180986F0E7A4AE
:100803002AFA180986F0E7A42AFA180986F0E7A459
:100813002AFA1986F0E7A4FBE5F02AFA190886F00C
:10082300E7A42BFBE5F03AFA190886F0E7A42BFBC3
:10083300E5F03AFA18180986F0E7A4C5F02BFBE4B3
:100843003AFA1908E7C5F0C6A426F6E5F03BFBE43F
:100853003AFA1886F0E7A4F6E5F00826F6E43B0832
:10086300F6E43A08F6D0E0FBD0E0FA22080808E6FE
:1008730030E711120FC4120887080808C64480C65F
:1008830018181822181818E9799EC608CAC608CB82
:10089300C608CCC6C370207996CACBCC7019798EA2
:1008A300CBCC70137986CC700EF9802ACA33CACBAD
:1008B30033CBCC33CC331930E7F2CCCBCA3350141F
:1008C3007004EA30E00DE4CA3ACACB3BCBCC3CCC53
:1008D300500209C3E913C6CC182313C6CB18C6CAE2
:1008E30018C6F922E4CFC0E0E4CEC0E0E4CDC0E016
:1008F300E4CCC0E075F020C3E633F608E633F6082F
:10090300E633F608E633F6181818EC33FCED33FD3E
:10091300EE33FEEF33FFC3EC9709ED9709EE97092A
:10092300EF97191919400FFFEC97FC09ED97FD0993
:10093300EE97FE191906D5F0BEECF709EDF709EEAF
:10094300F709EFF7191919D0E0FCD0E0FDD0E0FE6C
:10095300D0E0FF222510C582C0E0E51134FFC58336
:10096300C0E0E510C3958224F810AF088583118594
:1009730082108008858311858210D2AFCEF0A3E563
:1009830020F0A37808E608F0A3DEFAEFF0A3E581F0
:1009930024FAF8E608F0A3E608F0A3E608F0A308B3
:1009A30008E608F0A3E608F0A315811581D0E0FE60
:1009B300D0E0F8158115811581E8C0E0EEC0E02292
:1009C300C0D02510C582C0E0E51134FFC583C0E067
:1009D300E510C3958224F310AF0885831185821037
:1009E3008008858311858210D2AFC8F0A3E9F0A3F4
:1009F300EAF0A3EBF0A37908E709F0A3D8FAECF047
:100A0300A3EDF0A3EEF0A3EFF0A3D0E0F0A3D0E0CA
:100A1300F0A3D0E0F0A3E520F0A3E5F0F0A32212C9
:100A23001161B90003020A64E490040078BC7911EF
:100A33008002F0A3D8FCD9FA9014BBAA82AB8390AE
:100A43000086788A79018015E493A3AC82AD838A0A
:100A5300828B83F0A3AA82AB838C828D83D8E9D95E
:100A6300E77582F37583F77402120E607582D4758D
:100A730083217400120E60851183851082E0C0E02B
:100A8300A3E0F9A3E0FAA3E0FBA37808E0F608A348
:100A9300DFFAE0FCA3E0FDA3E0FEA3E0FFA3E0C0D8
:100AA300E0A3E0C0E0A3E0F5D0A3E0F520A3E0A33A
:100AB300F5F010AF088583118582108008858311B6
:100AC300858210D2AFD082D083D0E0F8D0E032124A
:100AD3001120601B12110260161211767007121199
:100AE30080600CB322C0D01211807005D0D022C315
:100AF3002233D0D0501330E0EBC3E7960809E796D2
:100B03000809E7960809E7962220E0E4E697080932
:100B1300E6970809E6970809E69722D083D082EC86
:100B2300C0E0EDC0E0E493A3FCE493A3FDED4C60CF
:100B33000D120BF6EC24FFFCED34FFFD80EFE49384
:100B4300A3FCE493A3FDED4C600D120D26EC24FFF2
:100B5300FCED34FFFD80EFD0E0FDD0E0FCE493A397
:100B6300C0E0E493C0E022851183851082E0A3FEF8
:100B7300E0A3F5207808E0A3F608DFFAE0A3FFE09E
:100B8300A3C0E0E0A3C0E0E0A3C0E0E0A3C0E0E0D6
:100B9300A3C0E010AF088582108583118008858289
:100BA30010858311D2AFD083D082020E66D083D05A
:100BB30082E9C0E0E493A3C386F0C5F095F0F90899
:100BC300E493A386F0C5F095F0700BE493A3C39967
:100BD3004005E9048002A3E475F002A42582F582AE
:100BE300E5F03583F583D0E0F9E493A3C0E0E49323
:100BF300C0E022C0E0C3E4939608740193961840C2
:100C03000FE49366700808740193661870007019F6
:100C1300A3A3C3E49396087401939618A3A3400D6A
:100C2300D0E0D0E0D0E0020B5AA3A3A3A3A3A3D0A8
:100C3300E022D083D082C5F0E493A3C5F0C395F03E
:100C4300F5F0E493A3C395F04005E5F0048001E4D7
:100C530075F002A42582F582E5F03583F583E493EC
:100C6300A3C0E0E493C0E022C0E074F21209C3E53C
:100C730089A2E15003121C10758900C2C57F0102CD
:100C83000A7AC0E074F21209C3E58BA2E0500312A2
:100C93001C10758B00C2E880E47404800474028025
:100CA30000CCC0E0EDC0E0E510C39CCCAD11500119
:100CB3001D10AF068C108D1180068C108D11D2AFD4
:100CC300120DC4D0E0FDD0E0FC2274028000CCC041
:100CD300E0EDC0E0E510C39CCCAD1150011D10AF99
:100CE300068C108D1180068C108D11D2AF120DA2BF
:100CF300D0E0FDD0E0FC2212112060251211026029
:100D0300201211767003021180080808E76670103C
:100D13001819E766700A1819E76670041819E76668
:100D230022F422C0E0C0F088F0E4936670080874EF
:100D3300019366187000A8F0A3A3700BD0F0D0E065
:100D4300D0E0D0E0020B5AA3A3D0F0D0E022D083AE
:100D5300D082CCC0E0E493A36006120E041470FAB0
:100D6300E493A36006120F301470FAD0E0FCE4930E
:100D7300A3C0E0E493C0E022C0E074F21209C312FE
:100D83001C8E7F01020A7AC0E074F21209C3121C9E
:100D93009480EFC0E074F21209C3121C9A80E3CA74
:100DA300C0E0E493A3C582CCC582C583CDC583F0DF
:100DB300A3C582CCC582C583CDC583DAE5D0E0CA9D
:100DC30022CAC0E0E0A3C582CCC582C583CDC5835A
:100DD300F0A3C582CCC582C583CDC583DAE6D0E056
:100DE300CA22C008C3E096F50808A3E096420808A3
:100DF300A3E096420808A3E09645087001D3D00803
:100E030022C0E0E493A3D39C5010E493A3C39C407B
:100E13000AD0E0D0E0D0E0020D6EA3A3A3D0E0227D
:100E23007009080808226016181818C6C333C608C4
:100E3300C633C608C633C608C633C6D5E0EA22C5DC
:100E4300822510C582C583351110AF07F511858240
:100E5300108007F511858210D2AFC58322C09FF59C
:100E63009FE473D09F22D083D082C09FE493C0E0DD
:100E7300740193C0E0740293F59F227404800A7492
:100E8300038006740280027401C0E0F404120E9918
:100E9300D0E012113C222510F58210AF08F5104066
:100EA3000215118008F51040021511D2AF85118388
:100EB30022C0D0251010AF08F5105002051180088C
:100EC300F51050020511D2AFD0D022BB0102E722A8
:100ED300C082C08389828A83BB0003E08002E493DB
:100EE300D083D082226016080808C6C313C618C66A
:100EF30013C618C613C618C613C6D5E0EA22C3E044
:100F0300C696F608A3E0C696F608A3E0C696F608CA
:100F1300A3E0C696F622C0E074F21209C3C2C0E58C
:100F2300D1A2E45003121CC47F01020A7AC0E0E498
:100F330093A36C7009D0E0D0E0D0E0020D6EA3A3C0
:100F4300D0E022251010AF08F510400215118008DB
:100F5300F51040021511D2AF22181818E6084608FA
:100F6300700AE608C3337005E633F4220822E0660C
:100F7300701008A3E066700A08A3E066700408A373
:100F8300E06622C3E09608A3E09608A3E09608A3D0
:100F9300E096A2D265D03322191919E709470970DF
:100FA3000AE709C3337005E733F4220922C3E09645
:100FB300F008A3E096F008A3E096F008A3E096F00B
:100FC30022181818E4C396F608E496F608E496F691
:100FD30008E496F622E026F608A3E036F608A3E036
:100FE30036F608A3E036F622E026F008A3E036F052
:100FF30008A3E036F008A3E036F022E627F6080956
:10100300E637F60809E637F60809E637F622C0E0C0
:10101300E8C0E0E58124FCF8E6A2E7D0E0F8D0E000
:1010230022E657F60809E657F60809E657F60809CF
:10103300E657F622E056F608A3E056F608A3E05674
:10104300F608A3E056F622E056F008A3E056F008AF
:10105300A3E056F008A3E056F022700422600D18B6
:10106300C6C333C608C633C6D5E0F41822E647F62E
:101073000809E647F60809E647F60809E647F622AF
:10108300C0E074F21209C3C2C7121DCC7F01020A69
:101093007AC3E7960809E7960809E7960809E796E9
:1010A30022C3E09608A3E09608A3E09608A3E0967F
:1010B30022C6F4C608C6F4C608C6F4C608C6F4C6F3
:1010C30022600D08C6A2E713C618C613C6D5E0F3FF
:1010D3002275D00075814075100075110400020A55
:1010E30022600C08C6C313C618C613C6D5E0F42283
:1010F300E0F608A3E0F608A3E0F608A3E0F622E78B
:10110300094709C3134709336002E733F422E6F0C2
:1011130008A3E6F008A3E6F008A3E6F022E60846F3
:1011230008C3134608336002E633F422C582251050
:10113300C582C5833511C58322CAC0E0E6F0A30882
:10114300DAFAD0E0FA22E0FAA3E0FBA3E0FCA3E0A2
:10115300FD22EAF0A3EBF0A3ECF0A3EDF022E5C748
:1011630054F84401F5C77901222510F582E43511BD
:10117300F58322E6C33318461846184622E7C333DD
:1011830019471947194722120E69058302120E697E
:10119300558302120E690F8402120E69948402129F
:1011A3000E691B8502120E69038602120E695C86A4
:1011B30002120E69D48602120E69E68602120E69C5
:1011C300F08602120E69CD8702120E692C88021274
:1011D3000E692E8902120E69A78902120E69FB8914
:1011E30002120E69708A02120E691C8C02120E69B9
:1011F300308C02120E69928C02120E69178D021244
:101203000E69648D02120E698C8E02120E69778F3D
:1012130002120E69E48F02120E69609002120E69C7
:10122300C29002120E69FA9002120E69D59102124F
:101233000E69D59202120E69329302120E697B93E4
:1012430002120E69A39302120E692C9402120E6904
:10125300C29402120E69289502120E693995021280
:101263000E69B29502120E693F9602120E698196BB
:1012730002120E69119702120E69469702120E6945
:10128300879702120E69209902120E69BF9A021201
:101293000E69FB9A02120E691C9C02120E69EB9DE9
:1012A30002120E69F59D02120E69FF9D02120E696C
:1012B300099E02120E69139E02120E691D9E0212EE
:1012C3000E69279E02120E69759E02120E69999E7F
:1012D30002120E69BD9E02120E69169F02120E695A
:1012E3005B9F02120E69799F02120E69F09F021230
:1012F3000E693AA002120E6970A002120E6905A2CD
:1013030002120E69FC2500120E69482600120E69AE
:10131300142800120E69522800120E69F4280012D4
:101323000E69282900120E694D2900120E69AA2A96
:1013330000120E69AA2B00120E697C2E00120E6990
:101343006D2F00120E69173000120E693231001230
:101353000E696B3400120E69F73400120E692C35D6
:1013630000120E69043600120E69DA3600120E6995
:101373007D3700120E69D83700120E690538001246
:101383000E69273800120E696D3A00120E691F3B71
:1013930000120E69763B00120E69E33B00120E69E0
:1013A300A43C00120E69D93C00120E692D3D0012B7
:1013B3000E69623D00120E69B03D00120E69073ED0
:1013C30000120E69923E00120E691B4000120E6954
:1013D300D84000120E69074200120E6976440012CB
:1013E3000E691E4500120E69414700120E69DE4761
:1013F30000120E69254800120E69EC4900120E69AD
:10140300004A00120E690D4A00120E69374A001293
:101413000E69434A00120E69614A00120E692B4B92
:1014230000120E69554B00120E69624B00120E69D1
:10143300BA4B00120E69404C00120E69274D001280
:101443000E69194E00120E69C94E00120E69674FDC
:1014530000120E697E4F00120E69B74F00120E691B
:10146300D54F00120E69195000120E694050001238
:101473000E693C5100120E69B75100120E69DA521F
:1014830000120E69EC5300120E69DD5400120E694E
:10149300445500120E691E5600120E695256001270
:1014A3000E69C85600120E69ED5600120E691357E5
:1014B30000120E69495700120E694D5900120E6948
:1014C3003F5A00120E69045B00120E69845C00121D
:1014D3000E69CD5C00120E69F95C00120E69805D25
:1014E30000120E69E85D00120E693A5E00120E6981
:1014F300815E00120E69AD5E00120E69E25E00129B
:101503000E69095F00120E69675F00120E6944607D
:1015130000120E69AC6000120E69D56000120E69EC
:10152300456100120E69BA6100120E690C62001265
:101533000E69316200120E69776200120E699462BD
:1015430000120E69316300120E69579C03120E6973
:10155300A29C03120E692CBA01120E6977BA01120A
:101563000E69D2BA01120E6923BB01120E693EBB8A
:1015730001120E6974BB01120E6995BB01120E694B
:101583009FBB01120E69B4BC01120E69D2BC0112D9
:101593000E6942BD01120E6955BD01120E6963BD8C
:1015A30001120E6904BE01120E69D8BE01120E6942
:1015B300F3BF01120E696FC001120E6979C00112E7
:1015C3000E69ECC001120E6903C101120E6945C117
:1015D30001120E6983C101120E69B2C101120E69B3
:1015E300E9C101120E6907C201120E692BC2011271
:1015F3000E696CC201120E6957C301120E699DC3B5
:1016030001120E69C8C301120E6935C401120E69B5
:101613005CC401120E69A1C401120E69AFC40112A8
:101623000E6908C501120E6945C501120E698CC504
:1016330001120E69BDC501120E69E0C501120E69E2
:10164300EBC501120E6909C601120E69C5C6011266
:101653000E69CFC601120E690EC701120E6924C7A7
:1016630001120E692DC701120E6971C701120E69AD
:1016730085C701120E6970C801120E6983C8011271
:101683000E6998C801120E6940C901120E698CC90E
:1016930001120E6942CA01120E694DCA01120E6986
:1016A3009BCB01120E69C7CB01120E6908CC011244
:1016B3000E6922CC01120E6959CC01120E69BCCEFF
:1016C30001120E6944CF01120E69C4CF01120E69D3
:1016D30007D201120E6917D201120E691AD2011232
:1016E3000E6926D201120E693AD201120E6959D23D
:1016F30001120E698CD201120E6951D301120E69C7
:10170300B8D301120E691CD401120E69A6D40112BA
:101713000E6957D501120E697ED501120E690ED6D8
:1017230001120E691AD601120E6949D601120E6909
:101733006BD601120E6992D601120E69F7D6011209
:101743000E69AAD801120E69ADD801120E6917D914
:1017530001120E690ADA01120E69EFDA01120E693B
:101763007ADB01120E69BDDC01120E6980DD011204
:101773000E69B9DD01120E69EADD01120E69F3DDAE
:1017830001120E69D7DE01120E6967DF01120E69BD
:1017930005E001120E69C5E001120E693EE1011276
:1017A3000E696DE101120E69AAE101120E69BDBB5A
:1017B30002120E69CBBB02120E6941BC02120E6902
:1017C30079BC02120E69C1BC02120E69C8BE0212B4
:1017D3000E69AAC002120E6969C302120E6995C38B
:1017E30002120E69B5C302120E6918C402120E6901
:1017F30056C402120E6982C402120E69BCC40212DC
:101803000E6907C502120E6911C502120E6955C58C
:1018130002120E69FCC502120E691FC602120E697E
:10182300BFC602120E6987C902120E6995C9021258
:101833000E69E8C902120E690ECA02120E6966CA5F
:1018430002120E69D6CA02120E6929CB02120E6960
:1018530092CB02120E6910CC02120E6970CC0212E6
:101863000E69AFCC02120E69C1CC02120E69D3CC41
:1018730002120E69F2CC02120E6994CD02120E69A5
:10188300CECD02120E69779703120E69F98D0312FA
:101893000E69588E03120E69818E03120E69778FBB
:1018A30003120E696B6300120E694A6400120E691B
:1018B300866400120E692F6600120E6971660012AB
:1018C3000E691C6800120E69606800120E692869AF
:1018D30000120E6918B701120E69466A00120E69EA
:1018E3009C6A00120E69DC6A00120E69C58202123C
:1018F3000E69276E00120E69757000120E698370EF
:1019030000120E69EB7000120E69277400120E6943
:10191300E8FF02120E69AC9C03120E69B88203122F
:101923000E69CB8203120E69588303120E699383E7
:1019330003120E69AE8303120E69D38303120E6979
:10194300078403120E69388403120E694882021257
:101953000E693C8C03120E69A98C03120E69C58CA7
:1019630003120E69078D03120E69308D03120E697F
:10197300C88D03120E69E18D03120E6981B1021243
:101983000E69AAB102120E6977B202120E6921B46E
:1019930002120E6933B502120E6967B602120E699E
:1019A3005AB702120E6922BA02120E693FBA021224
:1019B3000E698DBB02120E69687400120E69B3744E
:1019C30000120E69597500120E69DF7500120E6957
:1019D300307600120E69447600120E692B780012DD
:1019E3000E69A87800120E69D27800120E695D7A2A
:1019F30000120E697A7A00120E69BB7A00120E6920
:101A0300F07A00120E69497B00120E695B7B0012AB
:101A13000E69D07B00120E69577D00120E69837D1B
:101A230000120E69AC7D00120E690C7E00120E6965
:101A3300297E00120E692C7E00120E692F7E001281
:101A43000E699A7E00120E69C97E00120E69DC7E51
:101A530000120E69427F00120E697D7F00120E692B
:101A6300807F00120E698C7F00120E69C67F001200
:101A73000E6947D602120E6996D602120E6938D83D
:101A830002120E69E4D902120E692CDA02120E69EF
:101A930063DB02120E69F0DC02120E6912DD021220
:101AA3000E6964DD02120E69E6DD02120E69EBE1D6
:101AB30001120E6916E201120E6903E301120E69A7
:101AC30057E301120E69B3E301120E69FFE301123A
:101AD3000E6972E401120E69F6E401120E696CE5F7
:101AE30001120E69AEE501120E69D8E901120E6901
:101AF30079EB01120E6959ED01120E6985ED0112A0
:101B03000E6998EE01120E692BF001120E69BDF0F9
:101B130001120E6975F101120E69FEF101120E69CF
:101B2300BFF201120E69A3F301120E6900F4011250
:101B33000E690EF501120E69BFF501120E690FF65B
:101B430001120E69CEF701120E697EF801120E69B9
:101B5300E5F801120E692FFB01120E698AFC0112CE
:101B63000E6924FD01120E69ECFD01120E69669ED9
:101B730003120E696F9E03120E69428A03120E69E5
:101B8300AC8A03120E69658B03120E69CB8B0312A9
:101B93000E69AAF802120E6903F902120E6992FA8B
:101BA30002120E69909A03120E69DA9A03120E69F1
:101BB300B08F03120E69BE8F03120E69749E031257
:101BC3000E696C9903120E697C9903120E699A9936
:101BD30003120E69FB9903120E69479503120E69EE
:101BE3006E9503120E69F39503120E694C96031258
:101BF3000E69DD9D03120E69659603120E698796C1
:101C030003120E69F19603120E69FC9603120E6914
:101C1300409703120E6995E802120E69BAE80212A0
:101C23000E69D4E802120E6925E902120E6926EA4A
:101C330002120E694BEA02120E6968EA02120E6979
:101C430085EA02120E69AAEA02120E69E3EA021297
:101C53000E6921EB02120E6998EB02120E6934EC45
:101C630002120E69E9EC02120E69F7EC02120E6918
:101C730071ED02120E692DEE02120E69B8F0021216
:101C83000E69BC9203120E69F59203120E69129348
:101C930003120E69709303120E69D59303120E6932
:101CA3006EE302120E69DBE302120E6995E402127F
:101CB3000E6902E502120E6928E602120E699BE71D
:101CC30002120E69FFE702120E694BE802120E6957
:101CD30054E802120E6963E802120E6976E80212F2
:101CE3000E698CE802120E691ADE02120E696DDEAD
:101CF30002120E69E1E002120E6913E102120E698B
:101D030035E102120E694EE102120E6967E1021219
:101D13000E6999E202120E692FE302120E6919FE8F
:101D230002120E694BFE02120E6957FE02120E6971
:101D33008AFE02120E69B3FE02120E69E1FE02125E
:101D43000E695EFF02120E698DFF02120E696E8527
:101D530003120E69948503120E69D18503120E696D
:101D6300E38503120E69FF8503120E696D86031264
:101D73000E69768603120E69D58603120E69F986FB
:101D830003120E69B88703120E69C58703120E6921
:101D9300D68703120E69969B03120E69E39B031207
:101DA3000E699DF402120E69C5F502120E69D2F591
:101DB30002120E69F1F502120E6907F602120E699C
:101DC3001BF602120E6995F602120E6913F7021240
:101DD3000E698CF702120E69D4F702120E69E4F74A
:101DE30002120E6949FF01120E696DFF01120E699D
:101DF30095FF01120E69BDFF01120E6904880312DB
:101E03000E691D8803120E69298803120E693D8825
:101E130003120E695B8803120E69658803120E694B
:101E23006F8803120E69828803120E69B688031243
:101E33000E69EF8803120E69208903120E696E89F9
:101E430003120E69BB8903120E69D68903120E6948
:101E5300E08903120E69F18903120E69378A0312AE
:101E63000E69F79C03120E69F4CD02120E6920CE9F
:101E730002120E693CCE02120E694FCE02120E6997
:101E830065CE02120E69D5CE02120E6908CF021278
:101E93000E6962D202120E6998D302120E69CBD375
:101EA30002120E6930D402120E691FD502120E6996
:101EB30047D502120E695CD502120E696CD5021267
:101EC3000E69B0D502120E6905D602120E691BD631
:101ED30002120E69149403120E692F9403120E69F1
:101EE300589403120E69729403120E6997940312A5
:101EF3000E69B69403120E69CE9403120E69FC9414
:101F030003120E69169503120E693F9D03120E69A3
:101F13001DF102120E6924F102120E6930F202124F
:101F23000E6960F202120E6986F202120E69B9F2AC
:101F330002120E69CBF202120E6905F302120E6948
:101F43006BF302120E69A4F302120E69F0F302128C
:101F53000E691DF402120E693DF402120E695E91C0
:101F630003120E69769103120E69569203120E69DB
:101F7300009E03120E69759803120E69CC98031222
:101F83000E69099903120E694A9903120E690080BA
:101F930003120E691C8003120E69678003120E6917
:101FA300838003120E69B48003120E69DB8003126F
:101FB3000E69BE8103120E69C88103120E69D581B1
:101FC30003120E698C8203120E69A08203120E693A
:101FD300A98203120E6933FB02120E6914FE021268
:101FE3000E69059A03120E6909A302120E699FA3D3
:101FF30002120E69E4A302120E6924A402120E69EE
:102003009FA402120E6925A502120E69329E0312C5
:102013000E69199B03120E697F9D03120E69B59D0C
:1020230003120E69E2FF01120E69029C03120E698C
:10203300DBB501120E699CB301120E6913B30112D1
:102043000E69CDB201120E691CB201120E690FB2F4
:1020530001120E69EDAE01120E698A8202120E6937
:10206300826C00120E698AAC01120E6923AB011255
:102073000E69C58102120E69278102120E6972AAC6
:1020830001120E69A2A801120E69F1A601120E69CE
:1020930082A601120E6926A601120E69C9A50112B4
:1020A3000E699FA501120E6997A301120E6963A31E
:1020B30001120E6921A301120E69F6A201120E6923
:1020C30038A201120E69EBA101120E6961A001127F
:1020D3000E695EA001120E69649F01120E69309FA2
:1020E30001120E696B9E01120E699E9C01120E690C
:1020F300519C01120E69A28002120E6940800212E5
:102103000E69128002120E69008002120E69D1B8A4
:1021130001120E69229C01120E691F9C01120E69A5
:10212300129C01120E69D59B01120E69B3B80112FC
:102133000E69C79B01120E69739A01120E69F79912
:1021430001120E69C49901120E69689901120E6990
:10215300638202120E69578503120E69B3B7011227
:102163000E693B9901120E69429601120E6944955C
:1021730001120E69CB9401120E69969401120E6935
:102183005F9401120E69539401120E69B393011205
:102193000E69EF9201120E69B59001120E69DA8D84
:1021A30001120E699B8D01120E693A8C01120E69A0
:1021B300E68B01120E692D8B01120E69938A0112AF
:1021C3000E69328A01120E696C8A01120E69B569B1
:1021D3000000000080FBE4730001363601010001BA
:1021E30002010001030100010401060605020000CB
:1021F300070100340801000F090401010D0100FF6C
:102203000E08000017020000190100FF1A01000167
:102213001B0100051C0100081D0200001F01000135
:1022230020010001210200002301000F240200000D
:102233002601000127010308280200FF2A010007E5
:102243002B0102402C0100002D0100012E01000191
:102253002F0100FF30010B1C310800003A01000878
:102263000020202020202020202028282828282063
:10227300202020202020202020202020202020205B
:1022830020881010101010101010101010101010C3
:1022930010040404040404040404041010101010B3
:1022A300101041414141414101010101010101017D
:1022B30001010101010101010101010110101010CF
:1022C300101042424242424202020202020202024F
:1022D30002020202020202020202020210101010A3
:1022E30020030071003001600011007000310220F2
:1022F30003500480001000610000001400630073A9
:10230300007200620043000000130006000000009A
:10231300000400120000000000000000000400049C
:1023230000370037003C02440000000000000000BA
:1023330000650000003500810000000500000083F7
:1023430000000001017101010101011101010131CD
:1023530001010101018001100161013B00140063CF
:102363000173017201620143010001130106013D82
:102373000135000401120100010001000100010404
:10238300010401330133013C0144013201360000F1
:102393000100016501000135008101000105018291
:1023A300018301000101037103010301030103011F
:1023B30003010322030203010310030003000300CC
:1023C3000300030003000300034203000324030686
:1023D300030003000304031203250323032503233C
:1023E3000304030403000300030003440300030086
:1023F3000323030003650321003503810300030561
:1024030003000300030003030271023001600211A1
:102413000270020102020202028002100261023A09
:10242300004100630273027202620243020002135C
:10243300023800000200020402120200020002003D
:1024430002000204020402370037003C0244020087
:102453000239000002000265020002350281020017
:102463000205028202830200023600010006000018
:10247300000F000000000000000000000000000347
:10248300FFFF00000403FFFF0000FFFF0FF4010044
:1024930005C4040320000100000B0000000000003D
:1024A30000000301030003000400080010001F00E4
:1024B3003E007B00F600EC01D703AF075D0FB91EAA
:1024C300713D0000F2152216F815FE151C161016A4
:1024D3000A1628162E16341640160416EC15E615A1
:1024E30001002C1B0200C61A0300CC1A0400D21AE6
:1024F3000500D81A0600E41AFFFF0000D5C5C5B5CC
:10250300A5A5958585757565655555454535352568
:102513002515050A7013023A13054C130740130CD3
:1025230028130D3413FF00009C36063A703DD94042
:102533004344AD47174B814EEA5100160F00000B81
:10254300150B020002220F320000065677777777C9
:102553007777777777777777777777000102030451
:1025630005060708090A0B0C0D0E0FD616E816EE22
:1025730016BC15F416B615C2154E176C1772175400
:102583001760175A1700383C3E363B3B352B432C1C
:1025930000034948424D1817250502303016181913
:1025A30020231A1C1E300C0E020B040B0A07080012
:1025B3000F000119161816161523030030301718CB
:1025C3001921301B1D1F3016163A16661746164C76
:1025D300164217FA1600170C1706170005150D09F2
:1025E30010080400000000000000BE040A15000EDD
:1025F300000400040508040C0FC082C083E99004A2
:10260300BBF0E4900470F0121F5E9004CEE4F0A3DC
:10261300F09004BCF0A3F01214D2121F6490044093
:10262300E4F0A3F09004DEE07002A3E060099004FC
:10263300DE124BA51221D99025FBE493FA790212FD
:102643001FC402481E74F2120957EAFEEBFF74809E
:102653005FF9E47001E9706CEEA2E040030226E446
:10266300900475E0640F700B7900121310E9600396
:1026730012280A74016EFAEFFB0227EF0CEC75F0D7
:1026830003A4A9F02416F582E93425F583E49364C1
:10269300FF602AE493FA8508828B83E06A70DDAADF
:1026A30008EC75F003A42417F582E93425F583E4D7
:1026B30093C0E0740193F583D0821221D9AA08ABA9
:1026C300091218329004BBE0F912183E8A088B09EC
:1026D300EA7001EB60047C0080A3EEFA74806F80E3
:1026E30097542070030227BB750A007C027D007A91
:1026F300201227FF7C0079047A007B001213A68A3C
:10270300088B0980187401850882850983A3A3A314
:10271300A3A3A3A3A3A3F0850C08850D09E5087063
:1027230002E509606E7C007904AA08AB091213A6BE
:102733008A0C8B0D750A01E5082404125C5524FFED
:10274300F0A3E034FF123A667002A3E070C9850873
:1027530082850983A3A3A3A3A3A3A3A3A3A3E06441
:102763000170A2850882850983A3A3A3A3A3A3E081
:10277300540470917406850882850983A3A3A3A3D7
:10278300A3A3A3A3A3F07AB785088285098312289C
:10279300E980841213767C0079017A007B0012139E
:1027A300A6EA7001EB7009E50A70057A20124B2046
:1027B30074206EFAEF02267B74025FF9E47001E97C
:1027C300600A12149CEEFA74020226E174045FF9A3
:1027D300E47001E96012124CCD12499F7901122F66
:1027E30063EEFA74046F80CD7A007B008003120ECF
:1027F300B47F06020B6AEAFCEBFD7A017B009004CE
:10280300BBE0F912193422901513124F4812132208
:1028130022C082C08374EA120F4685108285118319
:10282300AA82AB83794B121F9A740812116C74023B
:10283300F0740912116CAA82AB837950121F9A7437
:102843001312116C125129121FB8741602481B740B
:10285300F4120957EAFEEBFF7508018E828F83A3FA
:10286300A3A3A3A3A3E05440600D8E828F831240E1
:1028730012FAA3E0FB800312140674FE6A70037459
:10288300FF6B60308E828F83124BA5124B72121432
:1028930060E98E828F8360061228D7E480051228B0
:1028A300D774011236D3FAA3E0FB121FBEE9F50970
:1028B300700580127509CDAA098E828F831228E9CB
:1028C300E96003750800A908EEFAEFFB121382A969
:1028D30009023527E0240DF8A3E01228E122340091
:1028E300F98882898322E0240C124F58F912131CB1
:1028F3002274F6120957E9FEEAFF7A0F7B001218D9
:102903002CEA7001EB6019740C8A828B83F0EEA3BE
:10291300A3F0EF8A828B83A3F0124C0D790080021F
:102923007910024B7DC082C083900475E0640F7000
:1029330016EA7001EB6010900470E064086005E033
:10294300640470031227F902481E74F412095774C1
:10295300FD120F46EAFEEBFF8E828F83A3A3E0F9FD
:102963001213AC8A088B09EA7001EB7003022A94F4
:102973008E828F83A3E064F160288E828F83A3E02D
:1029830064CD601E8E828F83A3E0641A60148E82EE
:102993008F83A3E064E9600A8E828F83A3E064E1FE
:1029A300701E7900121382E96016850882850983F7
:1029B300A3A3A3A3A3A3E04420F0A3E0F0022A630C
:1029C3008E828F83A3E0C0E0740212116CD0E012F8
:1029D300471D1253C81233FD1259398510828511D0
:1029E30083AA82AB83700512129280031214488E5D
:1029F300828F83A3E064F160678E828F83A3E06498
:102A0300CD605D8E828F83A3E0641A60538E828FC4
:102A130083A3E064E160498E828F83A3E064F06066
:102A23003F740212116CE064B76035850882850932
:102A330083122AA0750A01780A120E8A74031211EE
:102A43006CE0F50A780A120E8AEE240C122E451257
:102A53003E41A3A3A3A3A3123E39123439120EB4E9
:102A6300850882850983A3A3A3A3A3A3A3A3A3E0A8
:102A7300640270127406850882850983A3A3A3A345
:102A8300A3A3A3A3A3F08E828F83A3A3E0F91213BE
:102A93008812137690151712280D023522E0F8A339
:102AA300E0F9E8FAE9FB2274F4120957EAFEEBFFB6
:102AB3007508008E828F83A3A3A3A3A3E06041754F
:102AC30008088E828F83A3A3A3A3A3A3A3A3A31204
:102AD30040027001EB601075082C8E828F83A3A3D4
:102AE300A3A3A3E0D2E0F08E828F83A3A3A3A3A327
:102AF300E0540364016003022B83430811022B8318
:102B0300EE24181259366030EE241A125936700F1B
:102B13001256087003A3E06970667508228061EE9F
:102B2300241B122B9B241A124B16EE2419F582EF49
:102B3300123E8D1212FE8048122B88700375080115
:102B43001256087003A3E0697006E508D2E1F508A0
:102B5300E5088E828F83A3A36011E07006E508D297
:102B6300E5801BE508D2E6F5088003E06012124019
:102B73000CF912144EE964016006E508C2E0F50899
:102B8300A9080235278E828F83A3A3A3A3A3A3A39C
:102B9300A3A3124E0F640222F582EF12344E122BBE
:102BA300A5221253E8EE2274F012095774DB120FB8
:102BB30046EAFEEBFF8E828F83A3A3A3A3E06010FC
:102BC300901515E07002A3E0600690151512280D0C
:102BD300740612116CAC82AD838E828F83122E6FBA
:102BE3001253DAEE241B125644741312116C124959
:102BF3009F740612116CAA82AB8312132EE98510FF
:102C030082851183F0740C12116CE06022741D1222
:102C1300116CE0FD740712116CE0FC8E828F83123D
:102C23004F42790112212CE96003022E3D8014905A
:102C33000458E0600E851082851183E0A2E1400311
:102C4300022E3D851082851183E0A2E6502E742367
:102C530012116C1240126403700E742312116C1261
:102C63004EC2A3E0640D6014740612116CAA82AB09
:102C730083121472E964017003022E3DEE242C12B8
:102C83002E4512312C7003A3E069701F750800787C
:102C930008120E8A7808120E8AEE242EF582EF129D
:102CA3003E8D122E60123439120EB4740912116C57
:102CB300E0FA90045EE06A6003022E3D740C121188
:102CC3006CE07003022D84122E60124F441214FC28
:102CD300740112116C124B72740112116CE07002C8
:102CE300A3E07003022E3D740712116CE0F88E828C
:102CF3008F83A3A3E028F8A3E03400F9740D28F52B
:102D030082E439F583E0FA740112116C122E54E057
:102D13006A601D740112116C122E4CEAF0908A1C29
:102D230078081210F3740112116C122E5A12111139
:102D33007904740712116C1253D02AFCA3E03400F7
:102D43008C82F583A3AA82AB8312181A8A088B0993
:102D53008C0A8D0B740112116C122E54A3780C1271
:102D630010F3780C79081210945003022E3D908AC8
:102D7300047808120FD8740112116C122E5A121112
:102D830011900470E064046008E064096003022E9B
:102D93003D851082851183E0A2E55055EE242E1265
:102DA3005936C0E0740312116CD0E0F0EE242F12F8
:102DB3005936C0E0740412116CD0E0F0EE243012E6
:102DC3005936C0E0740512116CD0E0F0EE242412E1
:102DD3002E45120C9C740712116CAC82AD83740ADD
:102DE30012116CAA82AB831212987404120EB4806F
:102DF30049A2E65045742312116C124F4E70187499
:102E03001D12116CE064027031740612116CAA82F7
:102E1300AB8312143C8023742312116C124EC2E054
:102E230064077016741D12116CE06404700C740650
:102E330012116CAA82AB8312143674250252BAEEB5
:102E4300240BF582EF12344E22A3124EC3A3A3A385
:102E530022124DF9A3A3221241EE780822EE242A6E
:102E630012344B122BA5241212344B22A3A3A3A377
:102E7300E0F98E828F83A3A32274F712095774F7A4
:102E8300120F46EAFEEBFF900470E06403600DE06E
:102E930064016008E064096003022F5E8E828F8301
:102EA300A3E06003022F3A7C007D007A027B0012CC
:102EB3001F6AEE2402FAEF124C1612564A9004616E
:102EC30012499F7953121FA07900122F6390047047
:102ED300E06409600990046E124F441214F6740101
:102EE300124B9C7404900470F0740112116CAA824A
:102EF300AB83794A121F9A740112116CAC82AD83B1
:102F03007A667B04121F889004611253E47A037B70
:102F130000121F6A9004641253E47A047B00121FA8
:102F23006A90045BE0A2E35004D2F08002C2F01284
:102F33004B8212280A80218E828F83A3AE82AF83B5
:102F4300FC7D007A037B10121F6A8E828F83E0F967
:102F5300122F63E4900470F01213587409023E3187
:102F630090046E124F481212A422C082C0839004B0
:102F730040E07002A3E07041900470E0120D510034
:102F830003018F2F059E2F06AD2FBC2F900448E021
:102F93007002A3E0607B9004488070900444E0706A
:102FA30002A3E0606C9004448061900446E07002E8
:102FB300A3E0605D9004468052900440E07002A359
:102FC300E06005123414702379009004BC80090971
:102FD300EA1252C2EB122E48123D287001EB70EF39
:102FE3009004BC124F4412129E8026900441122E6C
:102FF3004DA3A3A3E0640270051214908013900400
:10300300E4E07002A3E060099004E4124BA51221EE
:10301300D902481E74F412095774FB120F468A082A
:103023008B091231157001EF700302311074028E97
:10303300828F8312512A7950121F9A85088285093B
:1030430083A3E060030230FE90046EE064FF70042B
:10305300A3E064FF603590046EE064FE7004A3E0B7
:1030630064FF602785108285118312312C7003A3BE
:10307300E069601774EA850882850983A3123453D3
:103083007A6E7B047950121FA0807085108285119F
:10309300831256BB12499F7A617B047953121F9A9C
:1030A3009004611249967A647B04794B121F9A7AD1
:1030B300637B0479E1121F9A900475E0C3940F5067
:1030C30022900463E0C0E0740212116CD0E0F0744B
:1030D3000412116C7401F0740212116CAA82AB8396
:1030E300121FB2750A00780A120E8A780A120E8A23
:1030F300901536E0F9123430120EB4850882850932
:1031030083123126F07403900470124C0474050288
:1031130035247A0F7B0012182C8A0A8B0BAE0AAF68
:103123000BEE22A3124951A3221256BFE068227468
:10313300F212095774ED120F46EAFEEBFF8E828FEF
:1031430083A3123E5C851082851183AC82AD838E8E
:10315300828F83A3A3A3A3122E6F124F3D12136476
:10316300851082851183E0706A8E828F83A3A3A367
:10317300A3A3A3A3A3E0C3940B40588508828509A6
:1031830083A3A3A3A3A3A3A3A3E064027045900412
:1031930070E064026042E06406603D900440E070C9
:1031A30002A3E06005123414605E900470E06408CA
:1031B3006005E06404701C740212116CE0F974077A
:1031C30012116CAC82AD83850882850983124F3B53
:1031D30012136A74130227F1900440E07002A3E013
:1031E3007026750A00780A120E8A780A120E8A125D
:1031F30033F4122E4812341DFCA3E0FD85088285AA
:103203000983123439120EB49004BC1242019004A3
:10321300BCE0F50AA3E0F50B80378E828F83E0F8DC
:10322300A312341D687003A3E06970198E828F8323
:10323300A3A3E0FAE508240DF582E5091259396ADA
:1032430070030232C88E0A8F0BEE1252C2EF124184
:10325300FEEE7001EF70C37A187B001218988A0C87
:103263008B0DAE0CAF0DEE7001EF70030231D690F3
:1032730004BCE07002A3E070059004BC800AE50A78
:103283001252C2E50B122E4812553E8E828F8312C4
:103293004C2FEE240C122E4574FFF0E48E828F83A4
:1032A300A3A3A3A3A3123C89A3A3A3123442E4F0D0
:1032B300A3F0E508240B125C551233EA123A66C4F4
:1032C3001233EAA3F0740112116C124BFEF0740274
:1032D30012116C12340CA3F0E508240DF582E509F4
:1032E300122E48123127A3124CF9A3A3125C7012B9
:1032F300499F740212116CE064016011740712118A
:103303006CAC82AD83EE240D12340380117C087DF6
:103313000079FFEE240DFAEF3400FB121814741237
:1033230012116CE0C0E0EE2415122E45D0E0F090AF
:103333001536E0C0E01233F4124B19D0E0C39A40C3
:10334300030231D61233FD122E48A3E05480F9E470
:103353007001E97009900ED5E070030231D674064E
:1033630012116C12340C700EE07062740412116C42
:10337300E070060231D6E06014740512116CE0C0EF
:10338300E0EE240C124B16D0E0C39A502B85088232
:10339300850983125C7E12499D1233F4125939C098
:1033A300E0122E42D0E0F0740512116CE0C0E0EEA2
:1033B300240C122E45D0E0F0740612116CE0600D5F
:1033C30074018E828F83A3A3A3A3A3A3F074041217
:1033D300116CE070030231D674018E828F83A3A334
:1033E300A3A3A3F00231D6540F8E828F83A3A3A38A
:1033F30022E5082410F582E50922E508240B80F56F
:10340300FAEF3400FB121F882212341022E0023B31
:10341300D8900440123776640122E0F9850882854A
:103423000983A3A3A3A3A3A3A3A3A3E02290046E4E
:103433001253E8900464124F48121418740222A322
:10344300F0EE241612344B22F582EF3400F583227A
:10345300F07A617B04795312345E22121FA07A64DE
:103463007B04794B121FA02274F212095774F812CD
:103473000F468A0A8B0B8C0C8D0D8908851082856B
:103483001183AC82AD837583897582C57408120D6F
:10349300C4F509AC0AAD0B851082851183AA82ABF2
:1034A3008312512470037509019004BC80158E8228
:1034B3008F83E0650C7004A3E0650D6023EE241692
:1034C300122E45124201EE7001EF601FE50960DE26
:1034D300AC0AAD0BEE240DFAEF340012512360DD7C
:1034E3008E828F83A3A3E0650870D2EEFAEFFB749C
:1034F300080227F174F71209579004BCE0FAA3E01D
:10350300800CEA24161241FB12189EEEFAEFFBEA36
:103513007001EB70ED9004BCE4F0A3F0023E347450
:1035230003120EB47F04020B6A74F21209578A0C59
:103533008B0DECFEEDFF890B8A828B831252C78AB7
:10354300828B831235EFEEF8EFF9A30EAF838A82F5
:103553008B83A3A3E0C454F0FA88828983E04A12E0
:1035630035FA1249511235F5E0333354FCFA8E82A1
:103573008F83E04A1235F5A3E033333354F8FA8EE0
:10358300828F83E04AF008EFF9A30EAF83850C82A4
:103593008B83A3A3A3A3A3A3E0A2E0E492E013136A
:1035A3005480FA88828983E04AF0E50C2407F50801
:1035B300EB1246B9120E827C08124430120EB4127A
:1035C30053A7E50C240FF508E50D3400F509780839
:1035D300120E827C03124430120EB4E50BC3940F17
:1035E30040071236BC124947F00227F4A31249518F
:1035F300F0221235FAA322F0850C828B83A3A3A3B6
:103603002274F2120957EAFEEBFF890B8C0C8D0D25
:103613008E828F83E08C828D83123C8EAE82AF8349
:10362300E01247CE1236D2C41247CE1236C5E0544A
:10363300038C828D831236D0A2E2E492E08C828DD9
:10364300831236CF131313541F1247CE1236CEA252
:10365300E7E492E08C828D83A3A3A3A31236C58EE5
:10366300088F09750A007808120E827C087D00E530
:103673000C240712537D120EB41253A78E088F0920
:103683007808120E827C037D00E50C240F12537D13
:10369300120EB4E50BC3940F40148E828F83A3A341
:1036A300A3E0C0E01236BC122E48D0E080071236E9
:1036B300BC122E48E4F00227F4E50C2412F582E54F
:1036C3000D22A3A3123C8E0EAF8322A3A3A3A3A315
:1036D300F08E828F83E02274F412095774F9120F6B
:1036E30046EAFEEBFF900440E07002A3E060101294
:1036F300376F64027009EEFAEFFB12148A80689048
:10370300046EE06E7003A3E06F705C74016960097E
:103713007A827B04125124704E7A007B029004BBA0
:10372300E0F9121940EA7001EB703C9004717808DB
:103733001210F385108285118378081211119004F9
:1037430077E0C0E0740412116CD0E0F0740512113C
:103753006C7401F0740612116C740212512A121265
:103763006EE96092121274740702352490044012B9
:103773003776221241F2A3A3E02274F6120957EA24
:10378300FEEBFF8E828F83A3858208858309E0F990
:103793001212BC850882850983E064EB600A8E827D
:1037A3008F83A3E064E17007E48E828F83A3F0121A
:1037B300280A7508017808120E8A8E828F83A3E087
:1037C300F5087808120E8A7900123430120EB412FA
:1037D3001376024B7D74F61209579004CDE0701FE7
:1037E3007C0079017A007B001213A6EA7001EB607A
:1037F3000E8A828B83E07002A3E060031213160229
:103803004B7DC082C083123C7A401079FF1213A013
:10381300E9FA9025FAE493C39A5004790180027976
:103823000002481E74F11209578A0A8B0B890E7520
:1038330009008A828B83A3A3A3A3A3A3A3A3E0F971
:103843001213AC8A0C8B0DAE0CAF0D750801EE7024
:1038530001EF60030238FD850A82850B83A3A3A3CE
:10386300A3A3A31253E4850A82850B83A3A3A3A373
:10387300A3A3A3A3E0F9850A82850B83124F441205
:1038830013948A0C8B0DAE0CAF0DEE7001EF700329
:10389300023A3C8E828F83A3A3A3A3E4F0A3F0E5B3
:1038A3000A240BFAE50B124C16E0C0E0122E42D0AC
:1038B300E0F0121466EE240C124B6B750901EE2432
:1038C30006F8EF125C58547FF0A3E054FC123A66FA
:1038D3005404600302398390151BE0F50A750B004D
:1038E3007407780A12105D8E828F83A3A3A3A3A308
:1038F300A3E0450AF0A3E0450BF08E828F83A3A3D8
:10390300A3A3A3A3E05480F50AA3E05403F50B7427
:1039130007780A1210E4E50E607974028E828F83B1
:10392300A3A3A3A31236CE240D124F54A2E2500B2D
:1039330090045CE0F8122E7212499DE50A700302AE
:103943003A0AEE2406F8EF3400F9E8FAE9FB8A8232
:103953008B83E0547FFCA3E054FCFD74FF250AF540
:103963000A74FF3400F50B7407780A12105DE50A38
:103973004CF8E50B4DF98A828B8312499F023A0A70
:103983008E828F83A3A3A3A3A3A3E04480F0A3E029
:103993000238FCE50A7005750800806B8E828F8300
:1039A300A3A3A3A3A3A3E0542060171218268A0A93
:1039B300747F550AF8745F288E828F83A3A3A3A311
:1039C30080278E828F83A3A3A3A3A3A3E0541060B5
:1039D3000E1218268A0A740F550AF8740180D88EBD
:1039E300828F83A3A3A3A37401F0A3E4F074048ED2
:1039F300828F83A3A3A3A3A3A3A3A3A3123C957022
:103A030001EB7003123A4674016509702F8E828FA1
:103A130083A3A3A3A3125199F9EEFAEFFB12139A0E
:103A2300E96019EE240C1259367002A3E060031208
:103A33003A53EEFAEFFB12189E750800A9087F07A8
:103A4300020B6A7A207B009004BBE0F912185C2217
:103A5300EE240C12344B123A5D22E0FAA3E0FB127F
:103A6300189E22F088828983E02274F41209577524
:103A730008001213AC8A0A8B0BAE0AAF0BEE70016F
:103A8300EF7003023B128E828F83A3A3A3A3A3A38E
:103A9300A3A3A3E0640670771213BE8E828F83A361
:103AA300A3A3A3A3A3A3E05408F9E47001E9605C12
:103AB3008E828F83123E507A007B0012138EEA703F
:103AC30001EB7048123B15121FCA7C007D007A007F
:103AD3007B0080228E828F83123E4A7004A3E064AF
:103AE300FF6029123B15121CEEE9641A601E7C006C
:103AF3007D00EEFAEFFB12138E8A088B09AE08AF36
:103B030009EE7001EF70CD7900121FD07508010224
:103B13002B8390046E12519F124F482274F712099F
:103B2300578A828B83E5827002E58370099004CE05
:103B330080068A828B83A3A3123D287001EB602C3D
:103B43008A828B83A3A3A3A3A3A3A3E05408F9E4CA
:103B53007001E960DDEC7001ED60158A828B8312E0
:103B630040126C7003A3E06D70C880047A007B0080
:103B7300023E3474F21209578A088B09890AECFE53
:103B8300EDFF7A0E7B00121898EA7001EB603EE4B9
:103B93008A828B83A3A3A3A3A3A3A3A3123BD3E5EB
:103BA3000A124703A3A312553A8A828B83A3A3A3C2
:103BB300A3E4F0123BD31247011253C8EA240CF5D5
:103BC30082EB123FFC124702A3A3F0A3F00227F4F7
:103BD300125A3880058E828F83A3A3A3A3A3A322A3
:103BE30074F5120957EAFEEBFF890A8C088D09EE7A
:103BF3007001EF60597401650A701479011213A002
:103C0300E9FA9025F8E493C39A500F79118063740D
:103C130004650A7033123C7A40F18E828F83A3A32A
:103C2300A3A3A3A3A3A3A3E50A123C891253C68E9D
:103C3300828F83A3A3E4F0A3F09004CEE07002A3E9
:103C4300E09004CE601B800A7402650A60CC79C1DF
:103C530080201251AC7002A3E088828983A3A370F1
:103C6300F1EEF0A3EF123C957001EB7003123A46AC
:103C730079007F03020B6A79041213A0E9FA9025F5
:103C8300F7E493C39A22123C8EA322F08E828F8391
:103C9300A322F07A207B009004BBE0F9121940EADA
:103CA30022C082C083E9FC79009004CE801D8A8201
:103CB3008B83A3A3A3A3A3A3A3A3A3E06C60057413
:103CC300FF6C7001098A828B83A3A3123D287001C4
:103CD300EB70DB02481E74F71209578A828B83E567
:103CE300827002E58370099004CE80068A828B83FA
:103CF300A3A3123D287001EB60248A828B83A3A3C4
:103D0300A3A3A3A3A3A3A3E06970E1EC60148A8235
:103D13008B83E0240D1252D1A2E240D080047A00BA
:103D23007B00023E34124F48EA22C082C0839004D3
:103D3300CE80068A828B83A3A3123D287001EB6099
:103D4300128A828B83A3A3A3A3A3A3A3A3E0697073
:103D5300E280047A007B0002481E12564EE8227469
:103D6300F11209578A0A8B0B8C0C8D0D750800759F
:103D73000900EA7001EB602E9004CE80068E828FDC
:103D830083A3A3124201EE7001EF601AAC0CAD0DD8
:103D9300EEFAEFFB850A82850B831221D9E96401D0
:103DA30070DB8E088F09AA08AB09023A4174F71237
:103DB30009579004CE12564A7C007D00800DE8FC22
:103DC300E9FD88828983A3A312564AE87001E9605A
:103DD30030EA687002EB6970E59004CE124F44E854
:103DE3006A7002E96B88828983A3A3700812564A1A
:103DF3009004CE800912564A8C828D83A3A3124964
:103E03009F023E3474F7120957EAFEEBFFEE70018E
:103E1300EF60161213B8123E667002A3E06003123D
:103E23003A53EEFAEFFB12189E023E34741F120E41
:103E3300B47F01020B6A1253E88A828B8322E0F972
:103E43008A828B83023BDE12401664FF22124016E5
:103E5300FCA3E0FD228E828F83A3A3E0F508A3E0F9
:103E6300F509228E828F83E0241C124F58123A5E8A
:103E73008E828F83123A5DEE240C123E8122F582EC
:103E8300EF3400F583E022F582EB123E84F92274CD
:103E9300F212095774FC120F46EAFEEBFF7508FE97
:103EA3007509FF12137CE960057911023FF1EE24D5
:103EB300151259366037901530E0C43354E0C0E032
:103EC300E0333354FCFAD0E04AC0E0EE2415122E5E
:103ED30045D0E0123C891240027001EB600F750877
:103EE300FF124CE5EE2415125936D2E0F08E828F84
:103EF30083124E096006EE2412123FF9EE241312C8
:103F030059367003741EF012593364017016900F02
:103F1300A5E0600D900458E0700A8E828F83E070F4
:103F230003123FF6EE2414125936701590044DE037
:103F3300C0E0EE2414122E45D0E0F090044DE004CE
:103F4300F08E828F83E064017016EE240B12400F13
:103F53006402700CEE240F1259364440F0A3E0F0D3
:103F6300851082851183AC82AD83EEFAEFFB1213C9
:103F7300D68A0A8B0B74FE6508700474FF64FF70A5
:103F830003123E58EA7001EB60608E828F83E0C0BB
:103F9300E0740112116CD0E0F0740212116C12552E
:103FA3003E740112116C85820C85830D780C120E00
:103FB30086EE240F122E45120CA0EE240E12593653
:103FC300F50C780C120E8A740512116CE0F9AC082A
:103FD300AD091213D07405120EB4E9FE74106E709D
:103FE3000BAA0AAB0B12189E80027E10EEF9740422
:103FF3000227F1EE2411F582EF12344EE4F022127F
:104003004F4879FF122042EA22EE241D12344B124C
:10401300401622124EB8E022C082C08374DE120F13
:10402300468A828B83A3A3A3A312564A740E12114A
:104033006CE8F0A3E91240CD740C12116C1240C667
:10404300240DF582EB125939C0E0741A12116CD0A9
:10405300E0F01251A5125647742012116C1240C69B
:104063002415F582EB125939C0E0740812116CD093
:10407300E0F0EA241CF582EB125647741212116C1D
:1040830012499F74FF851082851183F07401121108
:104093006C74FFF0740212116C74FFF0908A1C129E
:1040A3000C9C740412116CAC82AD83740712116CF6
:1040B300AA82AB831212987404120EB4790074228C
:1040C30002481BE8F0A3E9F0EA22F08A828B83A37B
:1040D300A312564E2274F012095774EE120F46744F
:1040E3001012116C124B728C088D09890B742212F9
:1040F300116CE0F50C742312116C12420174251239
:10410300116CE0F50EA3E0F50F750A107A1E7B0023
:10411300121898740212116C124B72740212116C01
:10412300E07002A3E070030241E1851082851183F0
:10413300AA82AB837950124A2812116C1241E8A368
:10414300124B72740212116CE0240B1228DA7402FF
:10415300F012116C1241E87402F012116C124BA5AB
:104163001253C8740212116CE0241B1228DAE50BF7
:10417300F0740212116CE0240C1228DAE50CF074CE
:104183001012116C124A3112116CE0241C1228DA3D
:10419300124B72740812116C12553E740A12116C90
:1041A300E50CF0850E82850F83C082C083740D12E7
:1041B300116CAC82AD83D083D0827403120DC4F929
:1041C300740212116CAA82AB83121382E964017028
:1041D30005750A008008740212116C123A59A90A73
:1041E30074120252BA1241EE023BDE1241F2221263
:1041F3004EBC023BDEEA240BF582EB12344EE0FEAA
:10420300A3E0FF2274F0120957EAFEEBFF8C088D3E
:104213000974088E828F83123442E0600874108E12
:10422300828F83A3F0EE241712593660098E828F92
:1042330083A3E02408F0EE241512593660088E8219
:104243008F83A3E004F08E828F83A3A3A3A3A3A3EE
:10425300E060198E828F83A3A3A3A3A3A3A3E0C3C8
:10426300332402FA8E828F83A3E02AF0125933603B
:1042730005750B0E8003750B008E828F83A3E0C040
:10428300E0EE240D122E45D0E0FAE02A250B8C82B5
:104293008D83F012593360051249CC2AF0850882C8
:1042A300850983E0C394754003024423E0FA7B004D
:1042B3001218988A0E8B0FEA7001EB7003024429DF
:1042C300EEFAEFFB1213DCEA850E82850F83124BA5
:1042D30073EE2402F812443C12445BF0EE2404080B
:1042E3000812443CA3A312445BA3A3F0EE241312CD
:1042F3004447F0EE2414124447A3F0750C08EE244F
:10430300161259366013EE24181253E1E50E2408F1
:10431300FAE50F123405750C10EE241712593660A6
:1043230019EE241A1253E1850C08E50E2508FAE567
:104333000F1234057408250CF50C8E828F83A3A30A
:10434300A3A3A3A3E060728E828F83A3A3A3A3A3DB
:10435300A3A3E0C0E0850C08E50E2508F582E50F70
:10436300122E48D0E0124451E0C0E0850C08E50E5F
:104373002508F582E50F122E48D0E0124451A3120E
:104383005386120E828E828F83A3A3A3A3A3A3A318
:10439300E0C333FCE433FD850C08E50E2508FAE59C
:1043A3000F125380120EB48E828F83A3A3A3A3A3F1
:1043B300A3A3E0C333250CF50CEE24151259366084
:1043C30010C0E0E50E250CF582E50F122E48D0E073
:1043D300F0122E42125386120E82EE240D1259361B
:1043E300FC7D00850B088E828F83A31246DCE508D3
:1043F30028FAE439124435120EB41259336027EE09
:10440300240D125936FD8E828F83A3E0FCAA0EABD6
:104413000F790012212CE9600DAA0EAB0F12189E22
:10442300750E00750F00AA0EAB0F0252BD7D00EE94
:10443300FAEFFB121808740322EF125C5C850E82FC
:10444300850F832212344B124462A3A3A322F005E7
:104453000C8E828F8302601712446D12446222E035
:10446300850E82850F83A3A3A322A3A3F088828949
:1044730083A32274F6120957EA2415F582EB125925
:104483003960047C0180027C008A828B83E0FE9089
:10449300045E1245177402780812105DE5084EFE9B
:1044A300AF09EA24121245117406780812105DE56B
:1044B300084EF8E5094FF9ECFDE8FCED49FDEA2467
:1044C300111245117409780812105DE5094DFDEAD2
:1044D3002416124511740B780812105DE5094DFD81
:1044E300EA2417124511740C780812105DE5094D82
:1044F300FD8A828B83A3A3A3A3A3A3124517740AE4
:10450300780812105DECFAE5094DFB024B7DF5824C
:10451300EB12344EE0F5087509002274F0120957C6
:1045230074FE120F468A0E8B0FECFEEDFFE98E82AE
:104533008F8312470312495E850E82850F83A3A3DF
:104543001246D71249881247251246D712497712C5
:104553004725A3A3E0C0E0EE2411122E45D0E012BC
:10456300472CA3A3A3E0C0E0EE2412122E45D0E013
:104573001249DE600AE50E2408F8E50F1249A58EFC
:10458300828F83A3A3A3A3A3A3A3A3E060218E820B
:104593008F83A385820C85830D1246DCEE241512CE
:1045A3002E4512499F850C82850D83E02408F08EE9
:1045B300828F83A3A3A3A3A3E0600F1246E88E8296
:1045C3008F83A3A3A3A3A3124736EE24181259364D
:1045D300607C1246E8C0E0EE2419122E45D0E012AA
:1045E3004736F8E50E28F582E50F125939C0E0EE9B
:1045F300241A122E45D0E01247361246AFE433FB9D
:104603001247077002A3E060458E828F83A3E0F810
:10461300E50E28F508E50F1246B9120E82EE2419AD
:10462300125936C333FCE433FD740312116C124F79
:1046330044124436120EB41246AF850C82850D83A4
:10464300E02A12538EEE241B122E4512499F8E82AE
:104653008F83A3E0FA8A08E50E2508F8E50F3400F6
:104663001246C31236D3C39AC0E0EE2417122E4566
:10467300D0E0126130E06031EE2417F508EF34002A
:10468300F509850882F583E024F2F0EE241DF8EFA6
:10469300125C58240EFAA3E03400FB88828983EA73
:1046A300F0A3EB1249C7C39AF00252B8EE241912D1
:1046B3003E81C333FA223400F509750A00780822D3
:1046C300F9EE241D1246CB22F582EF3400F583E880
:1046D300F0A3E922E0FA024440E0F8E50E28F8E509
:1046E3000F3400F9228E828F83A385820C85830D7C
:1046F300E0F8E50E28F582E50F123E8422A3A3A37A
:10470300F0023E3C121898851082851183EAF0A3CB
:10471300EB1247182212471DE022F0851082851103
:104723008322F0A3E912472C22F0850E82850F83A2
:10473300023BDEF0850C82850D83E004F02274F4E5
:104743001209578A088B09EA1247D5F0EA13135462
:104753003F1247CEA3A3A3F0EAC413131247D5A372
:10476300A3F0EB1247BBF08A0A8B0B7409780A1289
:1047730010E4E50A1247BBA3F08A0A8B0B740A788C
:104783000A1210E4E50A5401C0E0EC2418F582EDA6
:10479300122E48D0E0F08A0A8B0B740B780A1210A1
:1047A300E4E50A1247C8F0740C78081210E4E5082F
:1047B3001247C8A3F00235271247BF2254018C8247
:1047C3008D83023BDD1247BFA3A322540F8C828D3E
:1047D300832254038C828D83A3A322C082C0837956
:1047E300008A828B83A3A3A3A3A3A3E090045860AE
:1047F3000FE070228A828B83A3A3E07019098016CD
:10480300E060138A828B83124F3B900461E06A70ED
:1048130003A3E06B70E78003120EB4D083D082024F
:104823000E6674F31209578A0A8B0B890CECFEEDA2
:10483300FF8A828B8312495E850A82850B83A3A339
:104843001249551249881249B6124955124977122D
:1048530049B6A3A3E0C0E0EE2411122E45D0E01226
:1048630049BDA3A3A3E0C0E0EE2412122E45D0E07D
:104873001249DE600AE50A2408F8E50B1249A58E01
:10488300828F83A3A3A3A3A3A3A3A3E0601B8E820E
:104893008F83A3124965EE2415122E4512499F8575
:1048A3000882850983E02408F08E828F83A3A3A363
:1048B300A3A3E060238E828F83A385820885830967
:1048C300E0F8E50A28F582E50B124947A3A3F08532
:1048D3000882850983E004F0EEFAEFFB1213EEE998
:1048E300705D8E828F83A3A3A3A3A31231267025A9
:1048F300E0FC8C08E50A2508FAE50B3400FBEE24FE
:104903001D124B6BE50CC39CC0E0EE2417122E4521
:10491300D0E0F0802A124965740E28F8E439124673
:10492300C31249C7FCE50CC39C24F2C39AFDEE24D1
:1049330017122E45EDF0AA0AAB0B790112212C7F39
:1049430005020B6A12344E124951A3A3A322E002BB
:104953005C79E0FA850A82850B8322124F48121391
:10496300E822858208858309E0F8E50A28F8E50B43
:104973003400F922A3A3A3A3A3E0F9EAF8EE240BDE
:1049830012344BE822A3A3A3E0F9EA8E828F83A318
:1049930002601712564E8E828F83A3A3E8F0A3E919
:1049A300F0223400F9EE24131246CB123C8EE0249D
:1049B30008F022F0A3E91249BD22F0850A82850B93
:1049C30083023BDEF01249CC22900459E0F9122114
:1049D3000EE9FA850882850983E022F074088E8245
:1049E3008F83A3126134A3E022C082C0837AD37B76
:1049F3000479E2121F9A7AD37B0402481EC082C054
:104A030083900461124F4402481EC082C08374FE27
:104A1300120F46851082851183AA82AB83794B12CC
:104A23004A2802481B121F9A851082851183124F50
:104A330048740222C082C083794A121F9A02481E18
:104A430074F61209579004DBE0FE04F0EEF912133A
:104A5300ACEA7001EB70EEEE60EBF9024B7D74F0A3
:104A6300120957EAFEEBFF8C0E8D0F8908741012A2
:104A7300116CE0F50D741112116CE0F50C75090061
:104A83001214FC8A0A8B0BA80AA90BE87001E970BF
:104A930013E50C705DA908AC0EAD0FEEFAEFFB1237
:104AA300151A806CE508601FE82402F582E9124BB1
:104AB30019E5082AFAE4340013EA13F070097401C3
:104AC30088828983A3A3F0E50C6045E50D70108807
:104AD300828983E0600214F0E49004EAF08031906C
:104AE30004EAE004F0FA90151CE06A7023750901EA
:104AF3008003E4601BE5096017121406EA6E700276
:104B0300EB6F700CEEFAEFFB79011212B6124B1E2B
:104B13000252BDF582EF123E84FA227A017B0090A5
:104B230004BBE0F912193A22C082C08374016A708F
:104B330001EB70077A01123A488014901513124B57
:104B430072EA7001EB60051227F98003124B1E0213
:104B5300481EC082C083901515124B7202481EC0B6
:104B630082C08390151780F1F582EF3400F583EA54
:104B7300F0A3EBF022740D120EB47F02020B6AA2B3
:104B8300F0E492E0124B907952121FA0228510821A
:104B9300851183F0AA82AB8322124B907942121FB4
:104BA300A022124EB422AA82AB8312135E7ABE7B7A
:104BB300047945121FA02274F712095774ED120FDE
:104BC30046E9FE9004BA124F5F124BF174121211B0
:104BD3006CEE124BE6851082851183124BA9741378
:104BE300023E31F09014C1E0F97CBE7D04229014A2
:104BF300C1E0F97ABE7B0412136422123410A3A31A
:104C030022F0124C0922EEFAEFFB9004BBE0F912FA
:104C13001838223400FB023E3CF582EF124D1F226E
:104C2300A3E088828983F0A308A98322A3A3A3A373
:104C3300A3A3A3A3A374FEF0A374FFF02274F4123E
:104C430009578A088B097A007B04124B22124CCD38
:104C530012499F7409900470F01213FA8A0A8B0B9D
:104C6300AC0AAD0BE5082413F582E509122E4812B0
:104C73004F441251246401704E1231157001EF60DC
:104C83004674028E828F83F0E508241DF8E509122D
:104C930028E1124F448A828B83A3E0FC8A828B83B0
:104CA300A3A3E0FBEC8E828F83A3A3F0A3EB123AC2
:104CB30066F8122E4C124951124CD7FAA3E0FB7935
:104CC3004A121FA0124C0902352790044212564E75
:104CD30090151722A3F0E5082415F582E509123E85
:104CE3008422EE240F123E814404F0A3E0F022124A
:104CF3004CFFA3A3A322124CF2A3A322F0850882A4
:104D0300850983A3A322EE2417124D1C1213FAEE76
:104D1300241A12344BEA024B73F582EF3400F58305
:104D23007401F02274F612095774F3120F46EAFE67
:104D3300EBFF7C0D7D007900851082851183AA82AB
:104D4300AB83121814EE241DF582EF124DF2E0F836
:104D530054206008740C12116C7401F0E8548060E4
:104D630008740B12116C7401F0E85440600A740A61
:104D730012116C7401F0800A740A12116CE0640160
:104D83007005EE24138003EE24151253E17402120E
:104D9300116CAA82AB83121F88122E42124EA312E9
:104DA300499F740A12116CE064017033124DFE7056
:104DB3003B1214068A088B09A808A909EE240B12D2
:104DC3005936687003A3E06970221213FAEAFCEB08
:104DD300FD740212116CAA82AB83125124600D85FB
:104DE3001082851183AA82AB831212B0024B781210
:104DF300344E124DF922124EB8A3228E828F83A312
:104E0300A3A3A3A3A3A3A3A3124E0F22E0FAA3E099
:104E1300FB121460E92274F612095774F3120F4659
:104E23008A088B09ECFEEDFF7C0D7D00790085106F
:104E330082851183AA82AB83125EA7A3A3A3A3A334
:104E4300A3A3A3A3124EA3E8F0A3E9124EA9A3E0E0
:104E5300FAA2E55008740B12116C7401F0EAA2E790
:104E63005008740A12116C7401F0EAA2E6EE5004C1
:104E73002413800224151253E1740212116CAA82C6
:104E8300AB83121F88850882850983A3A3E0C0E052
:104E9300740C12116CD0E012512A1212AA024B7830
:104EA30012564E02471EF0EE241D12344B124EB41E
:104EB30022124EB822124EBC22E0F8124EC222A396
:104EC300E0F58388822274F712095774E1120F46C2
:104ED300EAFEEBFF8E828F83123772A2E050568E6A
:104EE300828F83122AA28A828B83A3A3A3A3A3A361
:104EF300E054FEF0A3E0124F5F8A828B83E0241B11
:104F0300124F54F98A828B83E0241CFAA3E0124CDB
:104F130016124F441213F4E9701B741D12116C1214
:104F23004F4E7011851082851183AC82AD83EEFAEA
:104F3300EFFB121442023E2FA3A3A3A3A3A3A3A395
:104F4300A3124F4822E0FAA3E0FB221240166404A6
:104F530022124F5822F8A3E0125C602212471DACC4
:104F630082AD8322E9FA790074046A600A740A6ADA
:104F7300600574036A700109020E6674F61209571C
:104F830074208A828B83F07401A3A3F01212628AC5
:104F9300088B09AE08AF09EE7001EF600774018E4C
:104FA300828F83F09004AEE07003124D09EEFAEFA6
:104FB300FB024B7DC082C08374019004D0F0E9A250
:104FC300E350037403F0E9A2E15004E0D2E2F002FB
:104FD300481E74F612095779007C008A088B0978F9
:104FE30008120BB0F8FF070850065006500650068B
:104FF30050FF4F03500850FC4F0C80097C04800580
:105003000C80F67C089004D0E05C6003098003EC1C
:10501300600109024B7D74F61209578A828B83E083
:105023007014A3E07002A3E0600C8A828B83124F9A
:105033004312213880047A007B00024B7D74F51201
:10504300095774F3120F46EAFEEBFF8C088D0975BE
:105053000A12EE7001EF7005790002511590046198
:10506300E06E7003A3E06F70181213FAEAFCEBFD15
:10507300AA08AB091251247005750A018003750A49
:1050830000E4851082851183F0740112116CEEF037
:10509300A3EF12512A121190E9602B740312116CC1
:1050A300AA82AB83122150E96401701A750A017454
:1050B3000312116CAC82AD83AA08AB0912512460B0
:1050C30021750A00801C7412650A70169004ADE005
:1050D3006402700EAC08AD09EEFAEFFB1211AEE9F3
:1050E30070DFAC08AD09EEFAEFFB121502E9FA74B2
:1050F3000A6A7005750A01801774A06A7012AC08F9
:10510300AD09EEFAEFFB12150EEEFAEFFB121526C0
:10511300A90A740D120EB4023C752408FAE934147A
:10512300FB121F82E922E412512E2212513222F085
:10513300851082851183024B9774F7120957EAFE93
:10514300EBFF7508008E828F83A3A3A3A3A3A3A35E
:10515300A3E06017EE2415122B9B122E43124F442B
:1051630012146CE9640170037508018E828F83A3A6
:10517300A3A3A3A3A3A3E06018EE2413122E451246
:105183005199FAA3E0FB12146CE9640170037508EA
:1051930001A908023E3412519F0234251253E8023A
:1051A3005C79EA240BF582EB2212564E88828983BE
:1051B300A3A3E02274F012095774F3120F46740389
:1051C30012116CECF0A3EDF08A0E8B0F890B741D9A
:1051D30012116CE0F50A7E01EE12116C740AF0E90B
:1051E3007007E50AC333240AF0851082851183AA68
:1051F30082AB831214548A088B09EA7001EB7003A3
:105203000252B21241F874091253B0450A1253BD47
:1052130012116C125396E50B70307A008026EAC3A4
:1052230033F8E433F9741E12116CE028F8A3E03963
:10523300F9888289831252C7888289831235EFA342
:105243000EAF830AEAC3950A40D4E5082417F58212
:10525300E509124C1F1213FAE508241AF582E50931
:10526300124B6E740512116CAC82AD83AA0EAB0F98
:1052730012205AE96021E5081252C2E509124C1FB7
:10528300740512116CA882A983E5082418F582E538
:1052930009122E4812499F850882850983A3A3E535
:1052A3000EF0A3E50FF0AA08AB0912125CE9FEEEBB
:1052B300F9740D80027402120EB47F08020B6A2483
:1052C30016F58222124951F0A3AE82AF8322FEA3C8
:1052D300E03400FF0236D474F012095774FE120F43
:1052E30046851082851183124B7289088C0E8D0FAF
:1052F300741212116CE0F50B900F15E07002A3E02D
:105303006075E50BC333F8E433F9740E28FAE43916
:10531300FB12182C8A0C8B0DAE0CAF0DEE7001EF47
:10532300605574D48E828F8312538E1249998E8264
:105333008F83A3A3A3A3E508F0AC0EAD0FEE240562
:10534300123403EE240D122E45E50BF074131211E3
:105353006C125386120E82E50BC333FCE433FDEE6D
:10536300240EFAEF125380120EB4EEFAEFFB900FF5
:1053730015124BA51221D90252B8FAE50D3400FBE0
:10538300024436E0F508A3E00246BB124718F8A32F
:10539300E0F922122BA5FAEFFB1253A022121F8869
:1053A3001253A722EE2408FEEF3400FF228E828FD1
:1053B30083F0A3E50BC43354E022F0A3AE82AF83A2
:1053C300740322A3A3E508F0A3E509F022E0FA8E13
:1053D300828F83A3A3E022124F481213E2221234D6
:1053E3004B1253E822E0023E5374F7120957E9FEC9
:1053F3007C007D0078007900800C1254BC2CFCA347
:10540300E03DFD125DE21260345037E8FAE9FBEA51
:1054130075F012A4FAAFF075F012EBA42FFBEA2497
:1054230090F582EB3412F583E064FF60D61254BC2E
:105433007002A3E060CDEE60C11254C1E4F0A3F0AA
:1054430080C178007900800C12549B2CFCA3E03DB2
:10545300FD125DE21260275038E8FAE9FBEA75F0C5
:1054630017A4FAAFF075F017EBA42FFBEA12602232
:10547300EB125FF57004A3E064FF60D512549B70D8
:1054830002A3E060CCEE60C01254A0E4F0A3F0806D
:10549300C0ECFAEDFB023E341254A0E022E8FAE934
:1054A300FBEA75F017A4FA75F017EBA42FFBEA24B7
:1054B3001BF582EB3414F583221254C1E022E8FA7F
:1054C300E9FBEA75F012A4FA75F012EBA42FFBEADC
:1054D300249CF582EB3412F5832274F6120957EA01
:1054E300FEEBFF9004D1801388828983E06E700302
:1054F300A3E06F603F88828983A3A3123D5D70019F
:10550300E970E57A047B001218988A088B09A808C9
:10551300A909E87001E9601C8882898312553E90CD
:1055230004D1124F4488828983A3A3124B7290043F
:10553300D112499F024B7DA3A3A3A3EEF0A3EFF0E7
:105543002274F41209577E009004D180070E8882DA
:105553008983A3A3123D5D7001E970F1EEC333FAB1
:10556300E433FB1255F87001EB70030255F27F0030
:105573009004D18024888289831253E4EFC333FAE1
:10558300E433FBE5082AF582E5093BF583ECF0A358
:10559300EDF00F88828983A3A3123D5D7001E9704A
:1055A300D49004B61256157003A3E06978087019F5
:1055B300120E86EEF50A780A120E8A7C827D047931
:1055C300009004B6125601801A120E86EEF50A7880
:1055D3000A120E8A7C827D0479009004B6124F442D
:1055E3001214787403120EB4AA08AB0912189E128F
:1055F30012740235271218988A088B09EA22124F6F
:105603004812147E228E828F83A3A3A3A3A3A3A3F2
:10561300A3A312564E900461E06822C082C0838027
:10562300128A828B83A3A312564A9004D112499FF4
:1056330012189E9004D1123D287001EB70E30248CA
:105643001EF582EF12344E12564E22E0025391742D
:10565300F612095790046E1242019004DC1256BBF5
:1056630012499F7ADC7B047950121FA09004DC124C
:105673002BA1FAEFFB1215209004DC124201900FCC
:1056830017E07002A3E0602D7A067B0012182CEA63
:105693007001EB602074D58A828B83F0E4A3A3F0BE
:1056A30074018A828B8312470012553A900F1712A6
:1056B3004BA51221D9024B7D1256BF22E0F8A3E07D
:1056C300F990046E22C082C0839004DE74AEF0A30E
:1056D3007414F09004E074A8F0A37414F09004E23E
:1056E30074C6F0A37414F002481EC082C0839004F1
:1056F30061E064FE7004A3E064FF600E90045BE06D
:10570300A2E150061215081214B41214AE02481E78
:1057130074F61209579004AFE060281218268A081D
:10572300A8089004AFE0FA75F0E8A4CAACF075F0ED
:1057330003A42CFB747F582AFCE43BFD7A007B0115
:10574300122801024B7D74F012095774FE120F46A2
:10575300750F00851082851183E4F0A3F01211CC3C
:105763007A0479001211A8EAFE7A02790112592A01
:105773007A03790312592A1214E4EAF50E2EFF8EE6
:105783000AEA250AF8E43400F9E87001E970030233
:10579300588A8F087509007402780812105DAA08E8
:1057A300AB091247077002A3E070030258888F0801
:1057B3007509007402780812105DAC08AD0979FF11
:1057C300851082851183E0FA12181475080080563B
:1057D300A9081211C68A0C8B0DEA7001EB60458A89
:1057E300828B83A3A3A3A3E0600464047036050F34
:1057F3008A828B83A3A3A3A3A3A3A3A3A3A3E0F955
:10580300121514851082851183120CA0EFFD850CEF
:1058130082850D83A3A3A3A3A3A3A3A3A3E01259E8
:105823003D120EB4050885080A9025F0E493F87438
:105833000193F9C3E50A98E4995006E50FC39E4026
:105843008F750800E508C3950E503CAA087B00122B
:1058530014EA8A0C8B0DEA7001EB602585108285B2
:105863001183120CA0EA240EF582EB125939FEEAD9
:10587300240F123E8A121514EFFDEE12593D120E3B
:10588300B4050880BF7F0075096A900459E0600C75
:10589300F912210EE9FA745CC39AF50975F003E570
:1058A3000984F50A851082851183E0F50EA3E0F5DE
:1058B3000F750B00E5096006750B20750900E50AF5
:1058C300C39F5004AE0A8008EFFEE50BD2E6F50B4A
:1058D300AC0EAD0FAA0BEEF91214C0E9F50CE50BF3
:1058E300A2E6401F1E750800800EE50E2404F50E87
:1058F300E50F3400F50F0508E508C39E40ECEECF35
:10590300C39FFFE97006E50BA2E650A585108285CB
:105913001183E07002A3E060098510828511831270
:105923003A59A90C0252B81211A8EACEC39EFE221C
:10593300EE2411F582EF123E8422FC850C82850D44
:1059430083124F481214BA74022274F2120957EAEE
:10595300FEEBFF8908740E12116C124F44750A0096
:10596300750B00750900800E8A0A8B0BEA2404FA72
:10597300EB3400FB0509E509C39D50218A828B8323
:10598300E064FF7004A3E064FF70158A828B8312C6
:10599300553EEC8A828B83125A33E508F00227F4D2
:1059A300E50A7002E50B600E850A82850B83C3E06E
:1059B3009EA3E09F50B28A828B8312564AC3EE980D
:1059C300EF9950A4EAF8EBF988828983E064FF70C9
:1059D30004A3E064FF6010E82404F8E93400F90547
:1059E30009E509C39D40E1880A890BE824FCF8E92D
:1059F30034FFF988828983E0F50CA3E0F50D850A6D
:105A030082850B83E50CF0A3E50DF0888289831270
:105A13005A2712446F125A27A3F0C3EA98EB99400E
:105A2300C602598EA3A3E0850A82850B83A3A32212
:105A3300A3125A3822A3F08A820235FE74F31209A4
:105A43005774FD120F4689088A09ECFEEDFF750CA9
:105A53000175F003E9A42402C0E0740112116CD0B3
:105A6300E0125AF87001EB607C1251A5122E481215
:105A73005AF288828983F0741F55084509A3F012EE
:105A83005C42750900803D8E828F83E08882898322
:105A9300F0A3A882A9838E828F83124C238E828FD8
:105AA30083A3A3E05407C4C0E08E828F83A3A3A380
:105AB300E05407FCD0E04C124C25EE2404FEEF34F6
:105AC30000FF0509E509C3950840BC8A828B83A3BF
:105AD300A374FC124C3AEA2413F582EB124C1F1206
:105AE300125CE9F50CA90C7403120EB402494212BC
:105AF300564E740822125AFDEA22125132121454DD
:105B03002274F11209578A0A8B0B7508007AFE7BFF
:105B1300FF7CFE7DFFE50A241DF582E50B12564747
