:020000040000FA
:0600000002116902073540
:03002B00021118A7
:03003300020D4B70
:03004300020FAEFB
:03004B00020E1092
:030053000206881A
:03005B00020E1F73
:03006300020E2B5F
:03006B00020D3152
:100083000206D10101FF0503010F03000300030072
:1000930003000300030003000300030005000A003C
:1000A300140028004F009E000000651765176517B0
:1000B30065172716211665179123000000005524A4
:1000C300000000000C0000000C0001AA05FF040062
:1000D30001010100DE0E000000530FE80364006419
:1000E30000B8010202000800000502071E02051EF7
:1000F30003B80B020103320002F1FF0202020605FC
:100103000000803FCDCCCC3D1211B5601D1211977C
:100113007005191919801A120FF1701F12101BC3E1
:100123007003E667331919194007181818220808CD
:100133000874FFF618F618F618F62212101B60174B
:10014300121215702192F012120B7019501720F031
:1001530014080808090909E7F61819E7F61819E752
:10016300F61819E7F62212120B60E6E869701F0809
:1001730008E62480F608E436F618547FB47F0CE6CC
:1001830054806007F6E418F618F622181822E9C618
:10019300CC08C6CD08C6CE08C6CFC0E0E8C0E0EAAA
:1001A300C0E0EBC0E009E9F809E7FA09E7FBE6F983
:1001B30018E6F8C3EC98ED99EE9AEBC2E7F5F0EF89
:1001C300C2E795F0500E600CEBCFFBEACEFAE9CD17
:1001D300F9E8CCF8EAA2E7D2E7FAEB33FB13F5F040
:1001E300EEA2E7D2E7FEEF33FFC5F013A2E730E656
:1001F30001B313C5F0C3C0E0C0F07F00C39BFB6035
:100203005B9418600C401AD0E023F9D0E0F80202A6
:10021300E98AF0E9486003D2F0E4AFF0FAF9F88034
:100223003BEB30E40D89F0EA6003D2F0E4AFF0F980
:10023300CAF8EB30E30D88F0EF6002D2F0AFF0E4E0
:10024300CAC9F8EB54076014FBC3EA13FAE913F9BC
:10025300E813F8EF135002D2E0FFDBEDD0E0C0E08B
:1002630030E739C3E49FFFF5F0EC98FC42F0ED99D9
:10027300FD42F0EE9AFE42F0D0E0F9D0E0F8E5F06E
:10028300607AE923F9EE20E742D8028067C3EF33AF
:10029300FFEC33FCED33FDEE33FE80EAEC28FCED9E
:1002A30039FDEE3AFED0E023F9D0E0F84002801B9E
:1002B300C3EE13FEED13FDEC13FCEF135002D2E07B
:1002C300FF08B800067F7F74FF802EEF3350178C32
:1002D300F020F00260100CBC000C0DBD00080EBE37
:1002E300000408E860DFE933E813FFEE2313FE4F51
:1002F3004D4C8008E95480FFE4FEFDFCEE33EF3300
:10030300F47004FCFD7E80D0E0FBD0E0FAD0E0F88E
:10031300D0E0CFC618CEC618CDC618CCC6F9221267
:1003230011B5700418181822121197700D74FFF686
:100333001819F61819F61819F622E7548066F612FA
:10034300120B700F12121570F014F608F608F60867
:10035300F680D1121215700CF608F608768008E6BE
:10036300447F80EC12101E700C120FF460BFE65431
:1003730080F6E480BB120FF4700519191980A5E803
:1003830069700C763F18768018F618F6E8F922E6BD
:10039300CDC0E018ECC0E0E633CD33CDD313F6E7A0
:1003A30019FCE7191933CC33C3947F400ECD9D500C
:1003B3002408E65480F6E418F6800FF4043D145044
:1003C3001408E6447FF6187680E418F618F6D0E0B1
:1003D300FCD0E0FD22CCD313CCFD18E4C6CBC0E0A7
:1003E30018E4C6CAC0E00808ED08C633E613F618D9
:1003F300E433C675F003C3CA97CA09CB97CB199CDC
:1004030040047D08802EBD00030204CB16B6FF0511
:100413000606081618C3CA33CACB33CB33CA27CA56
:1004230009CB37CB193CC37D08803E187D0820E7F4
:100433005CC633C6CA33CACB33CB33DDF1D5F0EB5D
:1004430030E77BCA97CA09CB974ACB199C406F4BBD
:100453007025E620E0218066187D08C3CA97CA0983
:10046300CB97CB199CD3C633C6CA33CACB33CB3352
:1004730050C9DDE7D5F0E1D3E4C636C608C636C6B3
:1004830008C636C608C636C61818188031C3CA97B8
:10049300CA09CB97CB199CB34097C633C6CA33CA94
:1004A300CB33CB33DD34D5F02EC6A2E0C640C8CA69
:1004B30027CA09CB37194A70BECB3CB480B90808A8
:1004C300E63308E633601F181818D0E0FAD0E0FBD3
:1004D300D0E0FCD0E0FD22187D08CA27CA09CB373B
:1004E300CB193CD3808013F618E4B67F11F618B607
:1004F300FF0EF618C60470D20808768080CAF61874
:10050300F618F680C5001211B5604F1211976012EC
:10051300E7548066F6120FF17011121215703B0941
:100523000909F4F618F618F618F62212101B7015BE
:1005330012120B08080860EAE6447FF61876801862
:10054300E4F618F62212120B60161212157012E45A
:10055300F608F608F608E65480F60909091818188B
:1005630022EAC0E0EBC0E0ECC0E0EDC0E0E687F0DB
:10057300A4FBACF008E687F0A42CFCE435F0FA18F1
:1005830009E687F0A42C4B60027401CA35F0FCE441
:1005930033FB09E687F0D2F7A42CCB35F0FC19081E
:1005A300E687F0A42BCC35F0FBE433FD0819E6878E
:1005B300F0D2E7A42C4ACB35F0CD3400FC09E68712
:1005C300F0D2E7A42DCC35F0FDE433FA0918E68721
:1005D300F0D2F7A42CCD35F0CA3400FC08E687F03E
:1005E300D2E7D2F7A42ACC35F07A7E20E70B0ACBE8
:1005F30033CBCD33CDCC33CC33CB3350147004ED6C
:1006030030E00ED2F1E4CD3DCDCC3CCC3B5005DA0D
:1006130005C2F1EB547FC63308E63392F0FBE733B0
:1006230009E733C39A502D2B70190C0D4C4D7015DF
:100633001806E608C333700D20F10AA2F013F6E49E
:1006430018800B4024E4F630F002768018F618F692
:1006530018F68024D33B14501074FFA2F013F6183D
:100663007680E418F618F6800FA2F013F618E63336
:1006730003F618ECF618EDF6D0E0FDD0E0FCD0E080
:10068300FBD0E0FA22C0E074F2120A58E5A7F8E5BD
:10069300A1F95854106008121DF553A1EF802AE800
:1006A300A2E0C0D0E9A2E092F01210B9158182F065
:1006B3005017906198E0F890126CE0C398A2D2654D
:1006C300D0335002E8F053A1FE7F01020AB7C0E025
:1006D30074F2120A589061A4E0F8759B00E59158F2
:1006E300540860087591F7121E37802AE591585413
:1006F3001060087591EF121E3D801BE8A2E0C0D088
:10070300E591A2E092F01210B9158182F05007E052
:10071300C2E0F0121F5D9061A3E0F8E5E9585404CC
:10072300600E121F3375E9FB906193E0A2E640F27D
:100733008097C0E074F2120A589061A5E0F8E5BF13
:10074300585404600653BFFB121F750206CCC3E462
:1007530098F8E499F91207928026C3E49AFAE49B85
:10076300FBE920E7E9120792E498F8E499F922C338
:10077300E498F8E499F9120792E498F8E499F9C334
:10078300E49AFAE49BFB22EB20E7CFE920E7E0B908
:100793000010BB0008E88AF084F8AAF022E4FBC842
:1007A300FA22EB70227B10C833C8C933C933500710
:1007B300C39AC3DBF280069A50012ADBEAC833F4FA
:1007C300C8C933F4C9FA2275F008E4C833C8C93379
:1007D300C933C99AC99B5004C92AC93BD5F0ECFB5C
:1007E300C833F4C8E4C9FA228A088B098C0A8D0B32
:1007F300780812083520F01430E72B74FFFCFBFA5D
:10080300747F8022E4FCFBFA7480801AB48008BCF5
:1008130000F2BB00EF800F50EBF9E4C39AFAE49BBC
:10082300FBE49CFCE499C6CC18C6CB18C6CA18C610
:10083300F922E4C9C608CAC608CBC6D3330308CC19
:10084300C63392F0C3947F402E94184019C9B90758
:1008530004CACBCC225025C309CA33CACB33CBCC71
:1008630033CC33D9F422F4600DC9CCC313CB13CBEF
:10087300CA13CAD9F6CC22E4FCFBFA2214FCFBFA15
:1008830022080808EAC0E0EBC0E086F0E7A4FA1803
:100893000986F0E7A42AFA180986F0E7A42AFA18C9
:1008A3000986F0E7A42AFA1986F0E7A4FBE5F02A03
:1008B300FA190886F0E7A42BFBE5F03AFA19088643
:1008C300F0E7A42BFBE5F03AFA18180986F0E7A441
:1008D300C5F02BFBE43AFA1908E7C5F0C6A426F6DF
:1008E300E5F03BFBE43AFA1886F0E7A4F6E5F008F6
:1008F30026F6E43B08F6E43A08F6D0E0FBD0E0FA4B
:1009030022080808E630E71112105912091C0808DA
:1009130008C64480C618181822181818E9799EC604
:1009230008CAC608CBC608CCC6C370207996CACB02
:10093300CC7019798ECBCC70137986CC700EF9807C
:100943002ACA33CACB33CBCC33CC331930E7F2CCFE
:10095300CBCA3350147004EA30E00DE4CA3ACACB70
:100963003BCBCC3CCC500209C3E913C6CC182313B0
:10097300C6CB18C6CA18C6F922E4CFC0E0E4CEC07D
:10098300E0E4CDC0E0E4CCC0E075F020C3E633F68C
:1009930008E633F608E633F608E633F6181818ECDB
:1009A30033FCED33FDEE33FEEF33FFC3EC9709ED7C
:1009B3009709EE9709EF97191919400FFFEC97FC68
:1009C30009ED97FD09EE97FE191906D5F0BEECF770
:1009D30009EDF709EEF709EFF7191919D0E0FCD083
:1009E300E0FDD0E0FED0E0FF222510C582C0E0E5A7
:1009F3001134FFC583C0E0E510C3958224F810AF1E
:100A0300088583118582108008858311858210D221
:100A1300AFCEF0A3E520F0A37808E608F0A3DEFA52
:100A2300EFF0A3E58124FAF8E608F0A3E608F0A3C3
:100A3300E608F0A30808E608F0A3E608F0A315818A
:100A43001581D0E0FED0E0F8158115811581E8C04D
:100A5300E0EEC0E022C0D02510C582C0E0E511342D
:100A6300FFC583C0E0E510C3958224F310AF08856A
:100A730083118582108008858311858210D2AFC8C7
:100A8300F0A3E9F0A3EAF0A3EBF0A37908E709F0F8
:100A9300A3D8FAECF0A3EDF0A3EEF0A3EFF0A3D00C
:100AA300E0F0A3D0E0F0A3D0E0F0A3E520F0A3E5CD
:100AB300F0F0A322851183851082E0C0E0A3E0F962
:100AC300A3E0FAA3E0FBA37808E0F608A3DFFAE0CB
:100AD300FCA3E0FDA3E0FEA3E0FFA3E0C0E0A3E0EE
:100AE300C0E0A3E0F5D0A3E0F520A3E0A3F5F01068
:100AF300AF08858311858210800885831185821054
:100B0300D2AFD082D083D0E0F8D0E0321211F6B960
:100B13000003020B51E490040078C279118002F0C3
:100B2300A3D8FCD9FA9014C1AA82AB83900086782B
:100B33008679018015E493A3AC82AD838A828B838B
:100B4300F0A3AA82AB838C828D83D8E9D9E775821F
:100B5300CF7583F87402120ED77582817583227460
:100B630000120ED7D083D082ECC0E0EDC0E0E49356
:100B7300A3FCE493A3FDED4C600D120C8BEC24FF5E
:100B8300FCED34FFFD80EFE493A3FCE493A3FDEDC0
:100B93004C600D120DBBEC24FFFCED34FFFD80EF28
:100BA300D0E0FDD0E0FCE493A3C0E0E493C0E022F6
:100BB3001211B5601B121197601612120B700712F7
:100BC3001215600CB322C0D01212157005D0D022BA
:100BD300C32233D0D0501330E0EBC3E7960809E7C4
:100BE300960809E7960809E7962220E0E4E69708C5
:100BF30009E6970809E6970809E697228511838590
:100C03001082E0A3FEE0A3F5207808E0A3F608DF56
:100C1300FAE0A3FFE0A3C0E0E0A3C0E0E0A3C0E0EC
:100C2300E0A3C0E0E0A3C0E010AF08858210858395
:100C3300118008858210858311D2AFD083D08202C0
:100C43000EDDD083D082E9C0E0E493A3C386F0C570
:100C5300F095F0F908E493A386F0C5F095F0700BD6
:100C6300E493A3C3994005E9048002A3E475F00269
:100C7300A42582F582E5F03583F583D0E0F9E4938A
:100C8300A3C0E0E493C0E022C0E0C3E493960874F9
:100C930001939618400FE4936670080874019366F5
:100CA3001870007019A3A3C3E49396087401939674
:100CB30018A3A3400DD0E0D0E0D0E0020BA3A3A380
:100CC300A3A3A3A3D0E022D083D082C5F0E493A34F
:100CD300C5F0C395F0F5F0E493A3C395F04005E5A3
:100CE300F0048001E475F002A42582F582E5F03575
:100CF30083F583E493A3C0E0E493C0E0227404800B
:100D03000474028000CCC0E0EDC0E0E510C39CCCCD
:100D1300AD1150011D10AF068C108D1180068C1083
:100D23008D11D2AF120E59D0E0FDD0E0FC22C0E00D
:100D330074F2120A58E589A2E15003121CBD7589A9
:100D430000C2C57F01020AB7C0E074F2120A58E577
:100D53008BA2E05003121CBD758B00C2E880E474C3
:100D6300028000CCC0E0EDC0E0E510C39CCCAD1127
:100D730050011D10AF068C108D1180068C108D1143
:100D8300D2AF120E37D0E0FDD0E0FC221211B560D5
:100D930025121197602012120B7003021215080816
:100DA30008E76670101819E766700A1819E7667085
:100DB300041819E76622F422C0E0C0F088F0E49337
:100DC3006670080874019366187000A8F0A3A370F6
:100DD3000BD0F0D0E0D0E0D0E0020BA3A3A3D0F07F
:100DE300D0E022D083D082CCC0E0E493A36006128B
:100DF3000E7A1470FAE493A36006120FDB1470FAF0
:100E0300D0E0FCE493A3C0E0E493C0E022C0E0742C
:100E1300F2120A58121D3B7F01020AB7C0E074F2B6
:100E2300120A58121D4180EFC0E074F2120A5812E0
:100E33001D4780E3CAC0E0E493A3C582CCC582C545
:100E430083CDC583F0A3C582CCC582C583CDC583BD
:100E5300DAE5D0E0CA22CAC0E0E0A3C582CCC582ED
:100E6300C583CDC583F0A3C582CCC582C583CDC55B
:100E730083DAE6D0E0CA22C0E0E493A3D39C501007
:100E8300E493A3C39C400AD0E0D0E0D0E0020E0379
:100E9300A3A3A3D0E022700908080822601618183B
:100EA30018C6C333C608C633C608C633C608C63316
:100EB300C6D5E0EA22C008C3E096F50808A3E09689
:100EC300420808A3E096420808A3E096450870018B
:100ED300D3D00822C09FF59FE473D09F22D083D044
:100EE30082C09FE493C0E0740193C0E0740293F561
:100EF3009F22C5822510C582C583351110AF07F522
:100F0300118582108007F511858210D2AFC5832227
:100F13002510F58210AF08F510400215118008F571
:100F23001040021511D2AF851183227404800A7414
:100F3300038006740280027401C0E0F404120F13EC
:100F4300D0E01211D122BB0102E722C082C0838903
:100F5300828A83BB0003E08002E493D083D08222A1
:100F6300C0D0251010AF08F510500205118008F508
:100F73001050020511D2AFD0D0226016080808C65F
:100F8300C313C618C613C618C613C618C613C6D5C8
:100F9300E0EA22C3E0C696F608A3E0C696F608A3E5
:100FA300E0C696F608A3E0C696F622C0E074F212F5
:100FB3000A58C2C0E5D1A2E45003121D717F010299
:100FC3000AB7251010AF08F510400215118008F577
:100FD3001040021511D2AF22C0E0E493A36C700954
:100FE300D0E0D0E0D0E0020E03A3A3D0E022181893
:100FF30018E6084608700AE608C3337005E633F4BA
:10100300220822C3E09608A3E09608A3E09608A36B
:10101300E096A2D265D03322191919E7094709705E
:101023000AE709C3337005E733F4220922E0667047
:101033001008A3E066700A08A3E066700408A3E042
:101043006622C3E096F008A3E096F008A3E096F0CA
:1010530008A3E096F022181818E4C396F608E4965D
:10106300F608E496F608E496F622E627F60809E67B
:1010730037F60809E637F60809E637F622E026F6DA
:1010830008A3E036F608A3E036F608A3E036F62216
:10109300E026F008A3E036F008A3E036F008A3E06A
:1010A30036F022700422600D18C6C333C608C63357
:1010B300C6D5E0F41822C0E0E8C0E0E58124FCF8DE
:1010C300E6A2E7D0E0F8D0E022E657F60809E657B3
:1010D300F60809E657F60809E657F622E056F60839
:1010E300A3E056F608A3E056F608A3E056F622E678
:1010F30047F60809E647F60809E647F60809E6470A
:10110300F622E056F008A3E056F008A3E056F008F4
:10111300A3E056F022C0E074F2120A58C2C7121EAE
:10112300797F01020AB7C3E7960809E7960809E73A
:10113300960809E79622C6F4C608C6F4C608C6F49C
:10114300C608C6F4C622600D08C6A2E713C618C6B1
:1011530013C6D5E0F322C3E09608A3E09608A3E004
:101163009608A3E0962275D000758140751000752E
:10117300110400020B0F600C08C6C313C618C61374
:10118300C6D5E0F422E0F608A3E0F608A3E0F608EB
:10119300A3E0F622E7094709C3134709336002E7CF
:1011A30033F422E6F008A3E6F008A3E6F008A3E68A
:1011B300F022E6084608C3134608336002E633F418
:1011C30022C5822510C582C5833511C58322CAC0B5
:1011D300E0E6F0A308DAFAD0E0FA22E0FAA3E0FBB3
:1011E300A3E0FCA3E0FD22EAF0A3EBF0A3ECF0A361
:1011F300EDF022E5C754F84401F5C7790122251023
:10120300F582E43511F58322E6C3331846184618F0
:101213004622E7C33319471947194722120EE055EF
:101223008302120EE00F8402120EE0948402120E67
:10123300E01B8502120EE0038602120EE05C8602BA
:10124300120EE0D48602120EE0E68602120EE0F0E1
:101253008602120EE0CD8702120EE02C8802120ED7
:10126300E02E8902120EE0A78902120EE0FB89022A
:10127300120EE0708A02120EE01C8C02120EE03095
:101283008C02120EE0928C02120EE0178D02120EE7
:10129300E0648D02120EE08C8E02120EE0778F0254
:1012A300120EE0E48F02120EE0609002120EE0C212
:1012B3009002120EE0FA9002120EE0D59102120E85
:1012C300E0D59202120EE0329302120EE07B9302FB
:1012D300120EE0A39302120EE02C9402120EE0C24F
:1012E3009402120EE0289502120EE0399502120EB6
:1012F300E0B29502120EE03F9602120EE0819602D2
:10130300120EE0119702120EE0469702120EE087CA
:101313009702120EE0209902120EE0BF9A02120EFB
:10132300E0FB9A02120EE01C9C02120EE0EB9D02FF
:10133300120EE0F59D02120EE0FF9D02120EE0096F
:101343009E02120EE0139E02120EE01D9E02120E6A
:10135300E0279E02120EE0759E02120EE0999E0295
:10136300120EE0BD9E02120EE0169F02120EE05B0B
:101373009F02120EE0799F02120EE0F09F02120EFE
:10138300E03AA002120EE070A002120EE005A202E3
:10139300120EE0A92600120EE0F52600120EE0C19F
:1013A3002800120EE0FF2800120EE0A12900120E01
:1013B300E0D52900120EE0FA2900120EE0572B00A7
:1013C300120EE0572C00120EE0292F00120EE01A25
:1013D3003000120EE0C43000120EE0DF3100120EB6
:1013E300E0183500120EE0A43500120EE0D93500E6
:1013F300120EE0B13600120EE0873700120EE02A1B
:101403003800120EE0853800120EE0B23800120EDA
:10141300E0D43800120EE01A3B00120EE0CC3B0081
:10142300120EE0233C00120EE0903C00120EE0513D
:101433003D00120EE0863D00120EE0DA3D00120E72
:10144300E00F3E00120EE05D3E00120EE0B43E00DF
:10145300120EE03F3F00120EE0C84000120EE0857E
:101463004100120EE0B44200120EE0234500120EBA
:10147300E0CB4500120EE0EE4700120EE08B480071
:10148300120EE0D24800120EE0994A00120EE0ADAF
:101493004A00120EE0BA4A00120EE0E44A00120EAD
:1014A300E0F04A00120EE00E4B00120EE0D84B00A3
:1014B300120EE0024C00120EE00F4C00120EE06719
:1014C3004C00120EE0ED4C00120EE0D44D00120E53
:1014D300E0C64E00120EE0764F00120EE0145000EC
:1014E300120EE02B5000120EE0645000120EE08248
:1014F3005000120EE0C65000120EE0ED5000120E26
:10150300E0E95100120EE0645200120EE08753002E
:10151300120EE0995400120EE08A5500120EE0F10B
:101523005500120EE0CB5600120EE0FF5600120ECD
:10153300E0755700120EE09A5700120EE0C05700F4
:10154300120EE0F65700120EE0FA5900120EE0EC0C
:101553005A00120EE0B15B00120EE0315D00120E74
:10156300E07A5D00120EE0A65D00120EE02D5E0033
:10157300120EE0955E00120EE0E75E00120EE02E02
:101583005F00120EE05A5F00120EE08F5F00120E32
:10159300E0B65F00120EE0146000120EE0F160008E
:1015A300120EE0596100120EE0826100120EE0F2A9
:1015B3006100120EE0676200120EE0B96200120EC3
:1015C300E0DE6200120EE0246300120EE0416300CD
:1015D300120EE0DE6300120EE0669F03120EE0B10E
:1015E3009F03120EE04CBA01120EE097BA01120EDD
:1015F300E0F2BA01120EE043BB01120EE05EBB0142
:10160300120EE094BB01120EE0B5BB01120EE0BF57
:10161300BB01120EE0D4BC01120EE0F2BC01120EAB
:10162300E062BD01120EE075BD01120EE083BD0143
:10163300120EE024BE01120EE0F8BE01120EE013FA
:10164300C001120EE08FC001120EE099C001120E0C
:10165300E00CC101120EE023C101120EE065C101CD
:10166300120EE0A3C101120EE0D2C101120EE00975
:10167300C201120EE027C201120EE04BC201120E8C
:10168300E08CC201120EE077C301120EE0BDC3016C
:10169300120EE0E8C301120EE055C401120EE07C05
:1016A300C401120EE0C1C401120EE0CFC401120E38
:1016B300E028C501120EE065C501120EE0ACC501BC
:1016C300120EE0DDC501120EE000C601120EE00BA2
:1016D300C601120EE029C601120EE0E5C601120E84
:1016E300E0EFC601120EE02EC701120EE044C7015F
:1016F300120EE04DC701120EE091C701120EE0A5D4
:10170300C701120EE090C801120EE0A3C801120E29
:10171300E0B8C801120EE060C901120EE0ACC901C5
:10172300120EE062CA01120EE06DCA01120EE0BB96
:10173300CB01120EE0E7CB01120EE028CC01120E12
:10174300E042CC01120EE079CC01120EE0DCCE01B6
:10175300120EE064CF01120EE0E4CF01120EE02777
:10176300D201120EE037D201120EE03AD201120E6C
:10177300E046D201120EE05AD201120EE079D201F4
:10178300120EE0ACD201120EE071D301120EE0D8BA
:10179300D301120EE03CD401120EE0C6D401120EA6
:1017A300E077D501120EE09ED501120EE02ED60190
:1017B300120EE03AD601120EE069D601120EE08B4A
:1017C300D601120EE0B2D601120EE017D701120EA7
:1017D300E0CAD801120EE0CDD801120EE037D901CC
:1017E300120EE02ADA01120EE00FDB01120EE09A6C
:1017F300DB01120EE0DDDC01120EE0A0DD01120EB2
:10180300E0D9DD01120EE00ADE01120EE013DE0163
:10181300120EE0F7DE01120EE087DF01120EE02563
:10182300E001120EE0E5E001120EE05EE101120EAE
:10183300E08DE101120EE0CAE101120EE099BC0253
:10184300120EE0A7BC02120EE01DBD02120EE055FF
:10185300BD02120EE09DBD02120EE0A4BF02120EE5
:10186300E086C102120EE045C402120EE071C4020A
:10187300120EE091C402120EE0F4C402120EE03222
:10188300C502120EE05EC502120EE098C502120EEA
:10189300E0E3C502120EE0EDC502120EE031C6020E
:1018A300120EE0D8C602120EE0FBC602120EE09B37
:1018B300C702120EE063CA02120EE071CA02120ED0
:1018C300E0C4CA02120EE0EACA02120EE042CB02E0
:1018D300120EE0B2CB02120EE005CC02120EE06E45
:1018E300CC02120EE0ECCC02120EE04CCD02120E32
:1018F300E08BCD02120EE09DCD02120EE0AFCD02C1
:10190300120EE0CECD02120EE070CE02120EE0AA4D
:10191300CE02120EE0F5FE02120EE0C88F03120E85
:10192300E0279003120EE0509003120EE04691035D
:10193300120EE0186400120EE0F76400120EE0339A
:101943006500120EE0DC6600120EE01E6700120E48
:10195300E0C96800120EE00D6900120EE0D56900BF
:10196300120EE0626A00120EE0F36A00120EE04902
:101973006B00120EE0D3B701120EE02F6D00120EB2
:10198300E0D46E00120EE0227100120EE005830215
:10199300120EE0987100120EE0D47400120EE017DC
:1019A300A103120EE010A003120EE0B88203120E80
:1019B300E0CB8203120EE0588303120EE0938303FD
:1019C300120EE0AE8303120EE0D38303120EE00780
:1019D3008403120EE0388403120EE0578503120EBF
:1019E300E00B8E03120EE0788E03120EE063820288
:1019F300120EE0D68E03120EE0FF8E03120EE09756
:101A03008F03120EE0B08F03120EE0157500120E55
:101A1300E03E7500120EE00B7600120EE0B5770083
:101A2300120EE0C77800120EE0FB7900120EE0EE12
:101A33007A00120EE0B67D00120EE0CE7D00120E8B
:101A4300E09E7F00120EE081B102120EE0CCB102E3
:101A5300120EE072B202120EE0F8B202120EE04968
:101A6300B302120EE05DB302120EE044B502120E91
:101A7300E0C1B502120EE0EBB502120EE076B7023A
:101A8300120EE093B702120EE0D4B702120EE00971
:101A9300B802120EE062B802120EE074B802120E1F
:101AA300E0E9B802120EE070BA02120EE09CBA022C
:101AB300120EE0C5BA02120EE025BB02120EE0427E
:101AC300BB02120EE045BB02120EE048BB02120E2F
:101AD300E0B3BB02120EE0E2BB02120EE0F5BB0262
:101AE300120EE05BBC02120EE096BC02120EE00086
:101AF3009E03120EE00C9E03120EE0469E03120E8E
:101B0300E023D702120EE072D702120EE014D902BC
:101B1300120EE0C0DA02120EE008DB02120EE03F02
:101B2300DC02120EE0CCDD02120EE0EEDD02120E3C
:101B3300E040DE02120EE0C2DE02120EE00BE20112
:101B4300120EE036E201120EE023E301120EE077FB
:101B5300E301120EE0D3E301120EE01FE401120EC3
:101B6300E092E401120EE016E501120EE08CE501AD
:101B7300120EE0CEE501120EE0F8E901120EE09933
:101B8300EB01120EE079ED01120EE0A5ED01120E4C
:101B9300E0B8EE01120EE04BF001120EE0DDF001B1
:101BA300120EE095F101120EE01EF201120EE0DFBB
:101BB300F201120EE0C3F301120EE020F401120E43
:101BC300E02EF501120EE0DFF501120EE02FF60113
:101BD300120EE0EEF701120EE09EF801120EE00580
:101BE300F901120EE04FFB01120EE0AAFC01120EE6
:101BF300E044FD01120EE00CFE01120EE034A103DD
:101C0300120EE03DA103120EE0428A03120EE0AC75
:101C13008A03120EE0658B03120EE0CB8B03120EC8
:101C2300E086F902120EE0DFF902120EE06EFB020B
:101C3300120EE02D9303120EE0609303120EE0C721
:101C43009303120EE0029403120EE0469403120E65
:101C5300E00B9D03120EE0559D03120EE07F9103EE
:101C6300120EE08D9103120EE042A103120EE06208
:101C7300FF01120EE072FF01120EE090FF01120E3F
:101C8300E0F1FF01120EE0B99803120EE0E09803B1
:101C9300120EE0659903120EE0BE9903120EE0DD09
:101CA3009D03120EE0D79903120EE0F99903120E69
:101CB300E0639A03120EE06E9A03120EE0B29A03E7
:101CC300120EE071E902120EE096E902120EE0B084
:101CD300E902120EE001EA02120EE002EB02120E1A
:101CE300E027EB02120EE044EB02120EE061EB027E
:101CF300120EE086EB02120EE0BFEB02120EE0FDC5
:101D0300EB02120EE074EC02120EE010ED02120E62
:101D1300E0C5ED02120EE0D3ED02120EE04DEE022D
:101D2300120EE009EF02120EE094F102120EE02E01
:101D33009603120EE0679603120EE0849603120ECA
:101D4300E0E29603120EE0479703120EE04AE40224
:101D5300120EE0B7E402120EE071E502120EE0DEAD
:101D6300E502120EE004E702120EE077E802120E1B
:101D7300E0DBE802120EE027E902120EE030E9028E
:101D8300120EE03FE902120EE052E902120EE06881
:101D9300E902120EE0F6DE02120EE049DF02120E35
:101DA300E0BDE102120EE0EFE102120EE011E202E9
:101DB300120EE02AE202120EE043E202120EE07576
:101DC300E302120EE00BE402120EE03C8C03120E4F
:101DD300E06E8C03120EE07A8C03120EE0AD8C03DE
:101DE300120EE0D68C03120EE0048D03120EE08176
:101DF3008D03120EE0B08D03120EE06E8503120EFA
:101E0300E0948503120EE0D18503120EE0E385030F
:101E1300120EE0FF8503120EE06D8603120EE076CC
:101E23008603120EE0D58603120EE0F98603120E26
:101E3300E0B88703120EE0C58703120EE0D68703CE
:101E4300120EE0FA9E03120EE0479F03120EE07992
:101E5300F502120EE0A1F602120EE0AEF602120E29
:101E6300E0CDF602120EE0E3F602120EE0F7F60200
:101E7300120EE071F702120EE0EFF702120EE068A5
:101E8300F802120EE0B0F802120EE0C0F802120ED1
:101E9300E0E79B03120EE00B9C03120EE0339C035E
:101EA300120EE05B9C03120EE0048803120EE01D89
:101EB3008803120EE0298803120EE03D8803120EF8
:101EC300E05B8803120EE0658803120EE06F88035F
:101ED300120EE0828803120EE0B68803120EE0EFC2
:101EE3008803120EE0208903120EE06E8903120E9E
:101EF300E0BB8903120EE0D68903120EE0E08903EA
:101F0300120EE0F18903120EE0378A03120EE094F9
:101F13009D03120EE0D0CE02120EE0FCCE02120E92
:101F2300E018CF02120EE02BCF02120EE041CF02D7
:101F3300120EE0B1CF02120EE0E4CF02120EE03E29
:101F4300D302120EE074D402120EE0A7D402120ED2
:101F5300E00CD502120EE0FBD502120EE023D602EE
:101F6300120EE038D602120EE048D602120EE08CB2
:101F7300D602120EE0E1D602120EE0F7D602120EDE
:101F8300E0869703120EE0A19703120EE0CA9703AF
:101F9300120EE0E49703120EE0099803120EE028F4
:101FA3009803120EE0409803120EE06E9803120E8F
:101FB300E0889803120EE05BA003120EE0F9F10231
:101FC300120EE000F202120EE00CF302120EE03CDD
:101FD300F302120EE062F302120EE095F302120E08
:101FE300E0A7F302120EE0E1F302120EE047F4025F
:101FF300120EE080F402120EE0CCF402120EE0F9AD
:10200300F402120EE019F502120EE0D09403120E40
:10201300E0E89403120EE0C89503120EE0E99A0378
:10202300120EE0409B03120EE07D9B03120EE0BEF6
:102033009B03120EE0008003120EE01C8003120EBD
:10204300E0678003120EE0838003120EE0B4800386
:10205300120EE0DB8003120EE0BE8103120EE0C815
:102063008103120EE0D58103120EE08C8203120E5F
:10207300E0A08203120EE0A98203120EE00FFC021D
:10208300120EE0F0FE02120EE0809C03120EE00935
:10209300A302120EE09FA302120EE0E4A302120EAB
:1020A300E024A402120EE09FA402120EE025A50272
:1020B300120EE0D07F00120EE07D9E03120EE09B15
:1020C300A003120EE0D1A003120EE0F9A003120E3A
:1020D300E0BB9F03120EE038B701120EE0FBB5011F
:1020E300120EE0BCB301120EE033B301120EE0EDA9
:1020F300B201120EE03CB201120EE02FB201120E39
:10210300E00DAF01120EE0C58202120EE030710045
:10211300120EE0AAAC01120EE043AB01120EE0482E
:102123008202120EE0C58102120EE092AA01120E83
:10213300E0C2A801120EE011A701120EE0A2A6014F
:10214300120EE046A601120EE0E9A501120EE0BF51
:10215300A501120EE0B7A301120EE083A301120E34
:10216300E041A301120EE016A301120EE058A201F2
:10217300120EE00BA201120EE081A001120EE07E0E
:10218300A001120EE0849F01120EE0509F01120E77
:10219300E08B9E01120EE0BE9C01120EE0719C01C9
:1021A300120EE0278102120EE0A28002120EE0401E
:1021B3008002120EE0128002120EE0008002120E64
:1021C300E0429C01120EE03F9C01120EE0329C01A2
:1021D300120EE0F59B01120EE0F1B801120EE0E7DA
:1021E3009B01120EE0939A01120EE0179A01120E50
:1021F300E0E49901120EE0889901120EE08A82024E
:10220300120EE0948E03120EE0D3B801120EE05BBF
:102213009901120EE0629601120EE0649501120E0E
:10222300E0EB9401120EE0B69401120EE07F9401EC
:10223300120EE0739401120EE0D39301120EE00F1D
:102243009301120EE0D59001120EE0FA8D01120EE9
:10225300E0BB8D01120EE05A8C01120EE0068C01D8
:10226300120EE04D8B01120EE0B38A01120EE05202
:102273008A01120EE08C8A01120EE0896B000000C5
:102283000080FBE473000136360101000102010006
:102293000103010001040106060502000007010015
:1022A300340801000F090401010D0100FF0E0800AD
:1022B3000017020000190100FF1A0100011B0100B1
:1022C300051C0100081D0200001F01000120010080
:1022D30001210200002301000F2402000026010057
:1022E3000127010308280200FF2A0100072B01022E
:1022F300402C0100002D0100012E0100012F0100DF
:10230300FF30010B1C310800003A010008002020B7
:102313002020202020202028282828282020202092
:102323002020202020202020202020202020881052
:1023330010101010101010101010101010100404B2
:1023430004040404040404041010101010101041B9
:10235300414141414101010101010101010101012A
:1023630001010101010101010110101010101042BF
:1023730042424242420202020202020202020202FA
:1023830002020202020202020210101010200300D5
:10239300710030016000110070003102200350040D
:1023A30080001000610000001400630073007200DD
:1023B3006200430000001300060000000000040058
:1023C30012000000000000000000040004003700B9
:1023D30037003C02440000000000000000006500DC
:1023E30000003500810000000500000083000000AC
:1023F300010171010101010111010101310101011A
:1024030001018001100161013B00140063017301AC
:102413007201620143010001130106013D01350010
:102423000401120100010001000100010401040183
:10243300330133013C014401320136000001000144
:10244300650100013500810100010501820183015D
:1024530000010103710301030103010301030103EC
:10246300220302030103100300030003000300031C
:1024730000030003000342030003240306030003D5
:102483000003040312032503230325032303040387
:1024930004030003000300034403000300032303B6
:1024A30000036503210035038103000305030003D3
:1024B3000003000303027102300160021102700283
:1024C3000102020202028002100261023A0041008C
:1024D30063027302720262024302000213023800B3
:1024E30000020002040212020002000200020002C3
:1024F30004020402370037003C02440200023900A0
:102503000002000265020002350281020002050298
:1025130082028302000236000100060000000F0061
:1025230000000000000000000000000003FFFF00A7
:10253300000403FFFF0000FFFF0FF4010005C404C4
:102543000320000100000B00000000000000000356
:1025530001030003000400080010001F003E007B7D
:1025630000F600EC01D703AF075D0FB91E713D0004
:10257300008116B11687168D16AB169F169916B7DE
:1025830016BD16C316CF1693167B1675160100BB20
:102593001B0200551B03005B1B0400611B05006746
:1025A3001B0600731BFFFF0000D5C5C5B5A5A59588
:1025B3008585757565655555454535352525150558
:1025C3000AFF1302C91305DB1307CF130CB7130D4F
:1025D300C313FF00009C36063A703DD9404344AD17
:1025E30047174B814EEA5100160F00000B150B02E3
:1025F3000002220F320000065677777777777777D6
:1026030077777777777777770001020304050607F3
:1026130008090A0B0C0D0E0F651777177D174B165C
:10262300831745165116DD17FB170118E317EF172C
:10263300E91700383C3E363B3B352B432C0003491E
:1026430048424D1817250502303016181920231A51
:102653001C1E300C0E020B040B0A0708000F0001AE
:1026630019161816161523030030301718192130C0
:102673001B1D1F30A516C916F517D516DB16D11766
:1026830089178F179B1795170005150D0910080457
:1026930000000000000000BE040A15000E00040044
:1026A300040508040C0FC082C083E99004BBF0E466
:1026B300900470F012200B9004CEE4F0A3F0900489
:1026C300BCF0A3F0121561122011900440E4F0A3B2
:1026D300F09004DEE07002A3E060099004DE124C87
:1026E300521222869026A8E493FA790212206B02F2
:1026F30048CB74F21209ECEAFEEBFF74805FF9E455
:102703007001E9706CEEA2E040030227919004751A
:10271300E0640F700B790012139FE960031228B76E
:1027230074016EFAEFFB02289C0CEC75F003A4A96C
:10273300F024C3F582E93425F583E49364FF602A2A
:10274300E493FA8508828B83E06A70DDAA08EC754E
:10275300F003A424C4F582E93425F583E493C0E0AF
:10276300740193F583D082122286AA08AB0912184A
:10277300C19004BBE0F91218CD8A088B09EA7001F5
:10278300EB60047C0080A3EEFA74806F8097542082
:102793007003022868750A007C027D007A201228E3
:1027A300AC7C0079047A007B001214358A088B090B
:1027B30080187401850882850983A3A3A3A3A3A317
:1027C300A3A3A3F0850C08850D09E5087002E509AC
:1027D300606E7C007904AA08AB091214358A0C8B4D
:1027E3000D750A01E5082404125D0224FFF0A3E03D
:1027F30034FF123B137002A3E070C9850882850978
:1028030083A3A3A3A3A3A3A3A3A3A3E0640170A28D
:10281300850882850983A3A3A3A3A3A3E05404701B
:10282300917406850882850983A3A3A3A3A3A3A305
:10283300A3A3F07AB7850882850983122996808439
:102843001214057C0079017A007B00121435EA70BA
:1028530001EB7009E50A70057A20124BCD74206EE6
:10286300FAEF02272874025FF9E47001E9600A12A3
:10287300152BEEFA740202278E74045FF9E47001DB
:10288300E96012124D7A124A4C7901123010EEFAB5
:1028930074046F80CD7A007B008003120F637F0680
:1028A300020BFFEAFCEBFD7A017B009004BBE0F92D
:1028B3001219C322901519124FF51213B122C082B7
:1028C300C08374EA120FC5851082851183AA82AB77
:1028D30083794B12204174081212017402F07409B7
:1028E300121201AA82AB837950122041741312127F
:1028F300011251D612205F74160248C874F41209EB
:10290300ECEAFEEBFF7508018E828F83A3A3A3A3DA
:10291300A3A3E05440600D8E828F831240BFFAA3BD
:10292300E0FB800312149574FE6A700374FF6B60FE
:10293300308E828F83124C52124C1F1214EFE98E89
:10294300828F836006122984E4800512298474012E
:10295300123780FAA3E0FB122065E9F509700580C0
:10296300127509CDAA098E828F83122996E9600315
:10297300750800A908EEFAEFFB121411A909023534
:10298300D4E0240DF8A3E012298E223400F98882C2
:10299300898322E0240C125005F91213AB2274F63A
:1029A3001209ECE9FEEAFF7A0F7B001218BBEA700A
:1029B30001EB6019740C8A828B83F0EEA3A3F0EF12
:1029C3008A828B83A3F0124CBA79008002791002B9
:1029D3004C2AC082C083900475E0640F7016EA70BD
:1029E30001EB6010900470E064086005E06404701B
:1029F300031228A60248CB74F41209EC74FD120FDB
:102A0300C5EAFEEBFF8E828F83A3A3E0F912143B8A
:102A13008A088B09EA7001EB7003022B418E828FC7
:102A230083A3E064F160288E828F83A3E064CD608A
:102A33001E8E828F83A3E0641A60148E828F83A319
:102A4300E064E9600A8E828F83A3E064E1701E79FB
:102A530000121411E96016850882850983A3A3A3D4
:102A6300A3A3A3E04420F0A3E0F0022B108E828FF7
:102A730083A3E0C0E07402121201D0E01247CA122D
:102A830054751234AA1259E6851082851183AA82DD
:102A9300AB83700512132180031214D78E828F83A8
:102AA300A3E064F160678E828F83A3E064CD605DF1
:102AB3008E828F83A3E0641A60538E828F83A3E098
:102AC30064E160498E828F83A3E064F0603F740207
:102AD300121201E064B76035850882850983122BE1
:102AE3004D750A01780A120F3A7403121201E0F5C8
:102AF3000A780A120F3AEE240C122EF2123EEEA3BB
:102B0300A3A3A3A3123EE61234E6120F6385088241
:102B1300850983A3A3A3A3A3A3A3A3A3E064027030
:102B2300127406850882850983A3A3A3A3A3A3A381
:102B3300A3A3F08E828F83A3A3E0F91214171214B8
:102B43000590151D1228BA0235CFE0F8A3E0F9E885
:102B5300FAE9FB2274F41209ECEAFEEBFF750800B4
:102B63008E828F83A3A3A3A3A3E060417508088E7D
:102B7300828F83A3A3A3A3A3A3A3A3A31240AF7092
:102B830001EB601075082C8E828F83A3A3A3A3A3EC
:102B9300E0D2E0F08E828F83A3A3A3A3A3E0540328
:102BA30064016003022C30430811022C30EE241818
:102BB3001259E36030EE241A1259E3700F1256B51E
:102BC3007003A3E06970667508228061EE241B120E
:102BD3002C48241A124BC3EE2419F582EF123F3A04
:102BE30012138D8048122C3570037508011256B5E7
:102BF3007003A3E0697006E508D2E1F508E5088EE5
:102C0300828F83A3A36011E07006E508D2E5801BE1
:102C1300E508D2E6F5088003E060121240B9F91224
:102C230014DDE964016006E508C2E0F508A90802BD
:102C330035D48E828F83A3A3A3A3A3A3A3A3A31299
:102C43004EBC640222F582EF1234FB122C52221284
:102C53005495EE2274F01209EC74DB120FC5EAFEF0
:102C6300EBFF8E828F83A3A3A3A3E0601090151BB9
:102C7300E07002A3E0600690151B1228BA740612D6
:102C83001201AC82AD838E828F83122F1C12548764
:102C9300EE241B1256F17413121201124A4C7406DD
:102CA300121201AA82AB831213BDE985108285112A
:102CB30083F0740C121201E06022741D121201E001
:102CC300FD7407121201E0FC8E828F83124FEF799D
:102CD30001122209E96003022EEA8014900458E0ED
:102CE300600E851082851183E0A2E14003022EEA83
:102CF300851082851183E0A2E6502E7423121201FF
:102D03001240BF6403700E7423121201124F6FA39B
:102D1300E0640D60147406121201AA82AB831215CB
:102D230001E964017003022EEAEE242C122EF21242
:102D330031D97003A3E069701F7508007808120F7A
:102D43003A7808120F3AEE242EF582EF123F3A1228
:102D53002F0D1234E6120F637409121201E0FA9078
:102D6300045EE06A6003022EEA740C121201E07042
:102D730003022E31122F0D124FF112158B74011213
:102D83001201124C1F7401121201E07002A3E070D1
:102D930003022EEA7407121201E0F88E828F83A3D6
:102DA300A3E028F8A3E03400F9740D28F582E43990
:102DB300F583E0FA7401121201122F01E06A601D1B
:102DC3007401121201122EF9EAF0908A3278081275
:102DD30011887401121201122F071211A6790474BB
:102DE3000712120112547D2AFCA3E034008C82F5F1
:102DF30083A3AA82AB831218A98A088B098C0A8D34
:102E03000B7401121201122F01A3780C121188788E
:102E13000C79081211295003022EEA908A1E7808B1
:102E23001210807401121201122F071211A69004BE
:102E330070E064046008E064096003022EEA851010
:102E430082851183E0A2E55055EE242E1259E3C08A
:102E5300E07403121201D0E0F0EE242F1259E3C004
:102E6300E07404121201D0E0F0EE24301259E3C0F2
:102E7300E07405121201D0E0F0EE2424122EF212B7
:102E83000D007407121201AC82AD83740A12120191
:102E9300AA82AB831213277404120F638049A2E63C
:102EA30050457423121201124FFB7018741D121235
:102EB30001E0640270317406121201AA82AB83121C
:102EC30014CB80237423121201124F6FE064077036
:102ED30016741D121201E06404700C7406121201C0
:102EE300AA82AB831214C57425025367EE240BF533
:102EF30082EF1234FB22A3124F70A3A3A322124E1C
:102F0300A6A3A32212429B780822EE242A1234F8A5
:102F1300122C5224121234F822A3A3A3A3E0F98E95
:102F2300828F83A3A32274F71209EC74F7120FC5DF
:102F3300EAFEEBFF900470E06403600DE06401605F
:102F430008E06409600302300B8E828F83A3E06084
:102F530003022FE77C007D007A027B00122017EE2C
:102F63002402FAEF124CC31256F7900461124A4C32
:102F730079531220477900123010900470E06409ED
:102F8300600990046E124FF11215857401124C49B9
:102F93007404900470F07401121201AA82AB837955
:102FA3004A1220417401121201AC82AD837A667B0E
:102FB3000412202F9004611254917A037B00122093
:102FC300179004641254917A047B00122017900422
:102FD3005BE0A2E35004D2F08002C2F0124C2F1245
:102FE30028B780218E828F83A3AE82AF83FC7D00BE
:102FF3007A037B101220178E828F83E0F912301030
:10300300E4900470F01213E77409023EDE90046E3C
:10301300124FF512133322C082C083900440E07034
:1030230002A3E07041900470E0120DE60003013C3E
:1030330030054B30065A306930900448E07002A3E3
:10304300E0607B9004488070900444E07002A3E049
:10305300606C9004448061900446E07002A3E060D9
:103063005D9004468052900440E07002A3E0600546
:103073001234C1702379009004BC800909EA125309
:103083006FEB122EF5123DD57001EB70EF9004BC7F
:10309300124FF112132D8026900441122EFAA3A38E
:1030A300A3E06402700512151F80139004E4E0701E
:1030B30002A3E060099004E4124C521222860248F3
:1030C300CB74F41209EC74FB120FC58A088B091236
:1030D30031C27001EF70030231BD74028E828F839F
:1030E3001251D77950122041850882850983A3E0C4
:1030F30060030231AB90046EE064FF7004A3E064EC
:10310300FF603590046EE064FE7004A3E064FF602A
:10311300278510828511831231D97003A3E069607A
:103123001774EA850882850983A31235007A6E7BBA
:1031330004795012204780708510828511831257BD
:1031430068124A4C7A617B047953122041900461DE
:10315300124A437A647B04794B1220417A637B04DD
:1031630079E1122041900475E0C3940F502290043A
:1031730063E0C0E07402121201D0E0F07404121292
:10318300017401F07402121201AA82AB8312205956
:10319300750A00780A120F3A780A120F3A90153C12
:1031A300E0F91234DD120F63850882850983123139
:1031B300D3F07403900470124CB174050235D17AC4
:1031C3000F7B001218BB8A0A8B0BAE0AAF0BEE22E1
:1031D300A31249FEA32212576CE0682274F212096B
:1031E300EC74ED120FC5EAFEEBFF8E828F83A31200
:1031F3003F09851082851183AC82AD838E828F83D4
:10320300A3A3A3A3122F1C124FEA1213F385108258
:10321300851183E0706A8E828F83A3A3A3A3A3A3E4
:10322300A3A3E0C3940B4058850882850983A3A315
:10323300A3A3A3A3A3A3E064027045900470E06476
:10324300026042E06406603D900440E07002A3E047
:1032530060051234C1605E900470E064086005E0AC
:103263006404701C7402121201E0F9740712120153
:10327300AC82AD83850882850983124FE81213F966
:10328300741302289E900440E07002A3E070267538
:103293000A00780A120F3A780A120F3A1234A1126E
:1032A3002EF51234CAFCA3E0FD850882850983123A
:1032B30034E6120F639004BC1242AE9004BCE0F5F6
:1032C3000AA3E0F50B80378E828F83E0F8A31234D4
:1032D300CA687003A3E06970198E828F83A3A3E089
:1032E300FAE508240DF582E5091259E66A7003022E
:1032F30033758E0A8F0BEE12536FEF1242ABEE70E3
:1033030001EF70C37A187B001219278A0C8B0DAE5C
:103313000CAF0DEE7001EF70030232839004BCE03A
:103323007002A3E070059004BC800AE50A12536F93
:10333300E50B122EF51255EB8E828F83124CDCEEC9
:10334300240C122EF274FFF0E48E828F83A3A3A3C6
:10335300A3A3123D36A3A3A31234EFE4F0A3F0E535
:1033630008240B125D02123497123B13C4123497D4
:10337300A3F07401121201124CABF0740212120189
:103383001234B9A3F0E508240DF582E509122EF5F0
:103393001231D4A3124DA6A3A3125D1D124A4C747D
:1033A30002121201E0640160117407121201AC826F
:1033B300AD83EE240D1234B080117C087D0079FFBB
:1033C300EE240DFAEF3400FB1218A374121212014B
:1033D300E0C0E0EE2415122EF2D0E0F090153CE0B0
:1033E300C0E01234A1124BC6D0E0C39A40030232AC
:1033F300831234AA122EF5A3E05480F9E47001E994
:103403007009900ED5E07003023283740612120124
:103413001234B9700EE070627404121201E0700687
:10342300023283E060147405121201E0C0E0EE245E
:103433000C124BC3D0E0C39A502B850882850983B5
:10344300125D2B124A4A1234A11259E6C0E0122E21
:10345300EFD0E0F07405121201E0C0E0EE240C128C
:103463002EF2D0E0F07406121201E0600D74018EAA
:10347300828F83A3A3A3A3A3A3F07404121201E076
:10348300700302328374018E828F83A3A3A3A3A349
:10349300F0023283540F8E828F83A3A3A322E50805
:1034A3002410F582E50922E508240B80F5FAEF34B0
:1034B30000FB12202F221234BD22E0023C8590042F
:1034C30040123823640122E0F9850882850983A329
:1034D300A3A3A3A3A3A3A3A3E02290046E125495D2
:1034E300900464124FF51214A7740222A3F0EE2481
:1034F300161234F822F582EF3400F58322F07A6154
:103503007B04795312350B221220477A647B0479AA
:103513004B1220472274F21209EC74F8120FC58A79
:103523000A8B0B8C0C8D0D8908851082851183AC59
:1035330082AD837583897582E37408120E59F50988
:10354300AC0AAD0B851082851183AA82AB8312511D
:10355300D170037509019004BC80158E828F83E0BE
:10356300650C7004A3E0650D6023EE2416122EF2A1
:103573001242AEEE7001EF601FE50960DEAC0AADEA
:103583000BEE240DFAEF34001251D060DD8E828FE2
:1035930083A3A3E0650870D2EEFAEFFB7408022858
:1035A3009E74F71209EC9004BCE0FAA3E0800CEAE5
:1035B30024161242A812192DEEFAEFFBEA7001EB62
:1035C30070ED9004BCE4F0A3F0023EE17403120F2B
:1035D300637F04020BFF74F21209EC8A0C8B0DEC6F
:1035E300FEEDFF890B8A828B831253748A828B834D
:1035F30012369CEEF8EFF9A30EAF838A828B83A376
:10360300A3E0C454F0FA88828983E04A1236A712F1
:1036130049FE1236A2E0333354FCFA8E828F83E0E4
:103623004A1236A2A3E033333354F8FA8E828F83DF
:10363300E04AF008EFF9A30EAF83850C828B83A3D6
:10364300A3A3A3A3A3E0A2E0E492E013135480FA9C
:1036530088828983E04AF0E50C2407F508EB1247DA
:1036630066120F327C081244DD120F63125454E5C4
:103673000C240FF508E50D3400F5097808120F3214
:103683007C031244DD120F63E50BC3940F40071252
:1036930037691249F4F00228A1A31249FEF022125D
:1036A30036A7A322F0850C828B83A3A3A32274F2F3
:1036B3001209ECEAFEEBFF890B8C0C8D0D8E828FC9
:1036C30083E08C828D83123D3BAE82AF83E0124850
:1036D3007B12377FC412487B123772E054038C820B
:1036E3008D8312377DA2E2E492E08C828D831237C0
:1036F3007C131313541F12487B12377BA2E7E49207
:10370300E08C828D83A3A3A3A31237728E088F0943
:10371300750A007808120F327C087D00E50C240737
:1037230012542A120F631254548E088F0978081208
:103733000F327C037D00E50C240F12542A120F6311
:10374300E50BC3940F40148E828F83A3A3A3E0C021
:10375300E0123769122EF5D0E08007123769122E76
:10376300F5E4F00228A1E50C2412F582E50D22A36D
:10377300A3123D3B0EAF8322A3A3A3A3A3F08E8288
:103783008F83E02274F41209EC74F9120FC5EAFE78
:10379300EBFF900440E07002A3E0601012381C6459
:1037A300027009EEFAEFFB121519806890046EE0BF
:1037B3006E7003A3E06F705C74016960097A827BA9
:1037C300041251D1704E7A007B029004BBE0F912CF
:1037D30019CFEA7001EB703C9004717808121188DC
:1037E30085108285118378081211A6900477E0C0B2
:1037F300E07404121201D0E0F07405121201740196
:10380300F0740612120174021251D71212FDE9600C
:103813009212130374070235D19004401238232205
:1038230012429FA3A3E02274F61209ECEAFEEBFF17
:103833008E828F83A3858208858309E0F912134B57
:10384300850882850983E064EB600A8E828F83A3F7
:10385300E064E17007E48E828F83A3F01228B775CA
:1038630008017808120F3A8E828F83A3E0F5087857
:1038730008120F3A79001234DD120F631214050295
:103883004C2A74F61209EC9004CDE0701F7C007989
:10389300017A007B00121435EA7001EB600E8A8214
:1038A3008B83E07002A3E060031213A5024C2AC0CD
:1038B30082C083123D27401079FF12142FE9FA903A
:1038C30026A7E493C39A5004790180027900024841
:1038D300CB74F11209EC8A0A8B0B890E7509008AE5
:1038E300828B83A3A3A3A3A3A3A3A3E0F912143BF3
:1038F3008A0C8B0DAE0CAF0D750801EE7001EF60F5
:10390300030239AA850A82850B83A3A3A3A3A3A3D6
:10391300125491850A82850B83A3A3A3A3A3A3A314
:10392300A3E0F9850A82850B83124FF11214238ACF
:103933000C8B0DAE0CAF0DEE7001EF7003023AE984
:103943008E828F83A3A3A3A3E4F0A3F0E50A240B41
:10395300FAE50B124CC3E0C0E0122EEFD0E0F012F8
:1039630014F5EE240C124C18750901EE2406F8EF39
:10397300125D05547FF0A3E054FC123B1354046022
:1039830003023A30901521E0F50A750B00740778AD
:103993000A1210A68E828F83A3A3A3A3A3A3E04539
:1039A3000AF0A3E0450BF08E828F83A3A3A3A3A306
:1039B300A3E05480F50AA3E05403F50B7407780AD7
:1039C300121179E50E607974028E828F83A3A3A30B
:1039D300A312377B240D125001A2E2500B90045C1A
:1039E300E0F8122F1F124A4AE50A7003023AB7EEB3
:1039F3002406F8EF3400F9E8FAE9FB8A828B83E0C6
:103A0300547FFCA3E054FCFD74FF250AF50A74FF00
:103A13003400F50B7407780A1210A6E50A4CF8E592
:103A23000B4DF98A828B83124A4C023AB78E828FEE
:103A330083A3A3A3A3A3A3E04480F0A3E00239A933
:103A4300E50A7005750800806B8E828F83A3A3A39C
:103A5300A3A3A3E0542060171218B58A0A747F55F4
:103A63000AF8745F288E828F83A3A3A3A380278E73
:103A7300828F83A3A3A3A3A3A3E05410600E121801
:103A8300B58A0A740F550AF8740180D88E828F8321
:103A9300A3A3A3A37401F0A3E4F074048E828F8321
:103AA300A3A3A3A3A3A3A3A3A3123D427001EB70FB
:103AB30003123AF374016509702F8E828F83A3A3D7
:103AC300A3A3125246F9EEFAEFFB121429E9601987
:103AD300EE240C1259E37002A3E06003123B00EEE4
:103AE300FAEFFB12192D750800A9087F07020BFFD7
:103AF3007A207B009004BBE0F91218EB22EE240C31
:103B03001234F8123B0A22E0FAA3E0FB12192D2229
:103B1300F088828983E02274F41209EC750800129C
:103B2300143B8A0A8B0BAE0AAF0BEE7001EF7003E6
:103B3300023BBF8E828F83A3A3A3A3A3A3A3A3A3A9
:103B4300E06406707712144D8E828F83A3A3A3A320
:103B5300A3A3A3E05408F9E47001E9605C8E828FAB
:103B630083123EFD7A007B0012141DEA7001EB7094
:103B730048123BC21220717C007D007A007B0080DA
:103B8300228E828F83123EF77004A3E064FF6029C4
:103B9300123BC2121D9BE9641A601E7C007D00EE7D
:103BA300FAEFFB12141D8A088B09AE08AF09EE70F9
:103BB30001EF70CD7900122077750801022C309047
:103BC300046E12524C124FF52274F71209EC8A82DA
:103BD3008B83E5827002E58370099004CE80068AA8
:103BE300828B83A3A3123DD57001EB602C8A828B59
:103BF30083A3A3A3A3A3A3A3E05408F9E47001E957
:103C030060DDEC7001ED60158A828B831240BF6C1E
:103C13007003A3E06D70C880047A007B00023EE16C
:103C230074F21209EC8A088B09890AECFEEDFF7A1B
:103C33000E7B00121927EA7001EB603EE48A828B47
:103C430083A3A3A3A3A3A3A3A3123C80E50A1247C0
:103C5300B0A3A31255E78A828B83A3A3A3A3E4F0A3
:103C6300123C801247AE125475EA240CF582EB1213
:103C730040A91247AFA3A3F0A3F00228A1125AE56B
:103C830080058E828F83A3A3A3A3A3A32274F5121B
:103C930009ECEAFEEBFF890A8C088D09EE7001EF4F
:103CA30060597401650A7014790112142FE9FA90AE
:103CB30026A5E493C39A500F791180637404650AAF
:103CC3007033123D2740F18E828F83A3A3A3A3A356
:103CD300A3A3A3A3E50A123D361254738E828F83E6
:103CE300A3A3E4F0A3F09004CEE07002A3E0900459
:103CF300CE601B800A7402650A60CC79C1802012F1
:103D030052597002A3E088828983A3A370F1EEF075
:103D1300A3EF123D427001EB7003123AF379007F77
:103D230003020BFF790412142FE9FA9026A4E493FB
:103D3300C39A22123D3BA322F08E828F83A322F0EB
:103D43007A207B009004BBE0F91219CFEA22C082EB
:103D5300C083E9FC79009004CE801D8A828B83A303
:103D6300A3A3A3A3A3A3A3A3E06C600574FF6C7038
:103D730001098A828B83A3A3123DD57001EB70DB0B
:103D83000248CB74F71209EC8A828B83E5827002B6
:103D9300E58370099004CE80068A828B83A3A312E5
:103DA3003DD57001EB60248A828B83A3A3A3A3A3D5
:103DB300A3A3A3A3E06970E1EC60148A828B83E080
:103DC300240D12537EA2E240D080047A007B0002CD
:103DD3003EE1124FF5EA22C082C0839004CE8006F2
:103DE3008A828B83A3A3123DD57001EB60128A8272
:103DF3008B83A3A3A3A3A3A3A3A3E06970E280047B
:103E03007A007B000248CB1256FBE82274F11209B8
:103E1300EC8A0A8B0B8C0C8D0D750800750900EA72
:103E23007001EB602E9004CE80068E828F83A3A355
:103E33001242AEEE7001EF601AAC0CAD0DEEFAEF6C
:103E4300FB850A82850B83122286E9640170DB8E6F
:103E5300088F09AA08AB09023AEE74F71209EC902D
:103E630004CE1256F77C007D00800DE8FCE9FD8846
:103E7300828983A3A31256F7E87001E96030EA68E8
:103E83007002EB6970E59004CE124FF1E86A70029C
:103E9300E96B88828983A3A370081256F79004CE36
:103EA30080091256F78C828D83A3A3124A4C023EDB
:103EB300E174F71209ECEAFEEBFFEE7001EF601616
:103EC300121447123F137002A3E06003123B00EE8B
:103ED300FAEFFB12192D023EE1741F120F637F01EB
:103EE300020BFF1254958A828B8322E0F98A828B1C
:103EF30083023C8B1240C364FF221240C3FCA3E045
:103F0300FD228E828F83A3A3E0F508A3E0F50922A7
:103F13008E828F83E0241C125005123B0B8E828FFE
:103F230083123B0AEE240C123F2E22F582EF34005B
:103F3300F583E022F582EB123F31F92274F2120984
:103F4300EC74FC120FC5EAFEEBFF7508FE7509FF62
:103F530012140BE96005791102409EEE24151259E3
:103F6300E36037901536E0C43354E0C0E0E0333308
:103F730054FCFAD0E04AC0E0EE2415122EF2D0E051
:103F8300123D361240AF7001EB600F7508FF124D02
:103F930092EE24151259E3D2E0F08E828F83124EF3
:103FA300B66006EE24121240A6EE24131259E370F3
:103FB30003741EF01259E064017016900FA5E060BF
:103FC3000D900458E0700A8E828F83E070031240D4
:103FD300A3EE24141259E3701590044DE0C0E0EEF3
:103FE3002414122EF2D0E0F090044DE004F08E82FF
:103FF3008F83E064017016EE240B1240BC640270E0
:104003000CEE240F1259E34440F0A3E0F085108234
:10401300851183AC82AD83EEFAEFFB1214658A0A35
:104023008B0B74FE6508700474FF64FF7003123F0A
:1040330005EA7001EB60608E828F83E0C0E074015B
:10404300121201D0E0F074021212011255EB740146
:1040530012120185820C85830D780C120F36EE2423
:104063000F122EF2120D04EE240E1259E3F50C7802
:104073000C120F3A7405121201E0F9AC08AD0912E3
:10408300145F7405120F63E9FE74106E700BAA0AB5
:10409300AB0B12192D80027E10EEF9740402289ED8
:1040A300EE2411F582EF1234FBE4F022124FF5797E
:1040B300FF1220EFEA22EE241D1234F81240C3222D
:1040C300124F65E022C082C08374DE120FC58A825C
:1040D3008B83A3A3A3A31256F7740E121201E8F065
:1040E300A3E912417A740C121201124173240DF5E3
:1040F30082EB1259E6C0E0741A121201D0E0F012FA
:1041030052521256F474201212011241732415F5FF
:1041130082EB1259E6C0E07408121201D0E0F0EA13
:10412300241CF582EB1256F47412121201124A4C3B
:1041330074FF851082851183F0740112120174FFDC
:10414300F0740212120174FFF0908A32120D00749F
:1041530004121201AC82AD837407121201AA82AB5E
:10416300831213277404120F63790074220248C860
:10417300E8F0A3E9F0EA22F08A828B83A3A3125624
:10418300FB2274F01209EC74EE120FC574101212B4
:1041930001124C1F8C088D09890B7422121201E045
:1041A300F50C74231212011242AE7425121201E0AF
:1041B300F50EA3E0F50F750A107A1E7B001219277E
:1041C3007402121201124C1F7402121201E07002E7
:1041D300A3E0700302428E851082851183AA82AB0D
:1041E300837950124AD5121201124295A3124C1F21
:1041F3007402121201E0240B1229877402F01212C6
:10420300011242957402F0121201124C52125475AB
:104213007402121201E0241B122987E50BF07402C9
:10422300121201E0240C122987E50CF0741012120B
:1042330001124ADE121201E0241C122987124C1FBC
:1042430074081212011255EB740A121201E50CF0F4
:10425300850E82850F83C082C083740D121201AC58
:1042630082AD83D083D0827403120E59F974021283
:104273001201AA82AB83121411E964017005750A55
:104283000080087402121201123B06A90A7412027A
:10429300536712429B023C8B12429F22124F6902C8
:1042A3003C8BEA240BF582EB1234FBE0FEA3E0FF28
:1042B3002274F01209ECEAFEEBFF8C088D097408F6
:1042C3008E828F831234EFE0600874108E828F83A6
:1042D300A3F0EE24171259E360098E828F83A3E0C3
:1042E3002408F0EE24151259E360088E828F83A30D
:1042F300E004F08E828F83A3A3A3A3A3A3E060199A
:104303008E828F83A3A3A3A3A3A3A3E0C333240217
:10431300FA8E828F83A3E02AF01259E06005750BB1
:104323000E8003750B008E828F83A3E0C0E0EE2422
:104333000D122EF2D0E0FAE02A250B8C828D83F049
:104343001259E06005124A792AF0850882850983AB
:10435300E0C3947540030244D0E0FA7B00121927AE
:104363008A0E8B0FEA7001EB70030244D6EEFAEF6C
:10437300FB12146BEA850E82850F83124C20EE2408
:1043830002F81244E9124508F0EE24040808124426
:10439300E9A3A3124508A3A3F0EE24131244F4F0F7
:1043A300EE24141244F4A3F0750C08EE24161259EB
:1043B300E36013EE241812548EE50E2408FAE50F79
:1043C3001234B2750C10EE24171259E36019EE245F
:1043D3001A12548E850C08E50E2508FAE50F1234DF
:1043E300B27408250CF50C8E828F83A3A3A3A3A319
:1043F300A3E060728E828F83A3A3A3A3A3A3A3E0EE
:10440300C0E0850C08E50E2508F582E50F122EF5B0
:10441300D0E01244FEE0C0E0850C08E50E2508F567
:1044230082E50F122EF5D0E01244FEA3125433128C
:104433000F328E828F83A3A3A3A3A3A3A3E0C333CB
:10444300FCE433FD850C08E50E2508FAE50F12544C
:104453002D120F638E828F83A3A3A3A3A3A3A3E031
:10446300C333250CF50CEE24151259E36010C0E09C
:10447300E50E250CF582E50F122EF5D0E0F0122E95
:10448300EF125433120F32EE240D1259E3FC7D0068
:10449300850B088E828F83A3124789E50828FAE4E7
:1044A300391244E2120F631259E06027EE240D1211
:1044B30059E3FD8E828F83A3E0FCAA0EAB0F790034
:1044C300122209E9600DAA0EAB0F12192D750E0009
:1044D300750F00AA0EAB0F02536A7D00EEFAEFFBD5
:1044E300121897740322EF125D09850E82850F83DC
:1044F300221234F812450FA3A3A322F0050C8E82D7
:104503008F830260C412451A12450F22E0850E8282
:10451300850F83A3A3A322A3A3F088828983A32265
:1045230074F61209ECEA2415F582EB1259E66004DD
:104533007C0180027C008A828B83E0FE90045E1201
:1045430045C4740278081210A6E5084EFEAF09EAC6
:1045530024121245BE740678081210A6E5084EF818
:10456300E5094FF9ECFDE8FCED49FDEA241112459C
:10457300BE740978081210A6E5094DFDEA24161247
:1045830045BE740B78081210A6E5094DFDEA241701
:104593001245BE740C78081210A6E5094DFD8A82F7
:1045A3008B83A3A3A3A3A3A31245C4740A780812FD
:1045B30010A6ECFAE5094DFB024C2AF582EB123406
:1045C300FBE0F5087509002274F01209EC74FE1281
:1045D3000FC58A0E8B0FECFEEDFFE98E828F8312DF
:1045E30047B0124A0B850E82850F83A3A31247841B
:1045F300124A351247D2124784124A241247D2A3D1
:10460300A3E0C0E0EE2411122EF2D0E01247D9A3AA
:10461300A3A3E0C0E0EE2412122EF2D0E0124A8BE4
:10462300600AE50E2408F8E50F124A528E828F8342
:10463300A3A3A3A3A3A3A3A3E060218E828F83A339
:1046430085820C85830D124789EE2415122EF212F2
:104653004A4C850C82850D83E02408F08E828F837B
:10466300A3A3A3A3A3E0600F1247958E828F83A316
:10467300A3A3A3A31247E3EE24181259E3607C1209
:104683004795C0E0EE2419122EF2D0E01247E3F86A
:10469300E50E28F582E50F1259E6C0E0EE241A1262
:1046A3002EF2D0E01247E312475CE433FB1247B427
:1046B3007002A3E060458E828F83A3E0F8E50E28A5
:1046C300F508E50F124766120F32EE24191259E36B
:1046D300C333FCE433FD7403121201124FF112448D
:1046E300E3120F6312475C850C82850D83E02A1267
:1046F300543BEE241B122EF2124A4C8E828F83A35C
:10470300E0FA8A08E50E2508F8E50F340012477031
:10471300123780C39AC0E0EE2417122EF2D0E012B3
:1047230061DDE06031EE2417F508EF3400F509850B
:104733000882F583E024F2F0EE241DF8EF125D0504
:10474300240EFAA3E03400FB88828983EAF0A3EB0A
:10475300124A74C39AF0025365EE2419123F2EC312
:1047630033FA223400F509750A00780822F9EE2499
:104773001D12477822F582EF3400F583E8F0A3E9B0
:1047830022E0FA0244EDE0F8E50E28F8E50F3400E4
:10479300F9228E828F83A385820C85830DE0F8E551
:1047A3000E28F582E50F123F3122A3A3A3F0023EA8
:1047B300E9121927851082851183EAF0A3EB1247CA
:1047C300C5221247CAE022F085108285118322F0A8
:1047D300A3E91247D922F0850E82850F83023C8B11
:1047E300F0850C82850D83E004F02274F41209EC49
:1047F3008A088B09EA124882F0EA1313543F1248DD
:104803007BA3A3A3F0EAC41313124882A3A3F0EB80
:10481300124868F08A0A8B0B7409780A121179E539
:104823000A124868A3F08A0A8B0B740A780A1211D9
:1048330079E50A5401C0E0EC2418F582ED122EF557
:10484300D0E0F08A0A8B0B740B780A121179E50A0F
:10485300124875F0740C7808121179E5081248753E
:10486300A3F00235D412486C2254018C828D83024A
:104873003C8A12486CA3A322540F8C828D8322544A
:10488300038C828D83A3A322C082C08379008A8292
:104893008B83A3A3A3A3A3A3E0900458600FE070AA
:1048A300228A828B83A3A3E07019098016E0601328
:1048B3008A828B83124FE8900461E06A7003A3E05D
:1048C3006B70E78003120F63D083D082020EDD7416
:1048D300F31209EC8A0A8B0B890CECFEEDFF8A823A
:1048E3008B83124A0B850A82850B83A3A3124A0288
:1048F300124A35124A63124A02124A24124A63A325
:10490300A3E0C0E0EE2411122EF2D0E0124A6AA313
:10491300A3A3E0C0E0EE2412122EF2D0E0124A8BE1
:10492300600AE50A2408F8E50B124A528E828F8347
:10493300A3A3A3A3A3A3A3A3E0601B8E828F83A33C
:10494300124A12EE2415122EF2124A4C8508828561
:104953000983E02408F08E828F83A3A3A3A3A3E09B
:1049630060238E828F83A3858208858309E0F8E51F
:104973000A28F582E50B1249F4A3A3F08508828582
:104983000983E004F0EEFAEFFB12147DE9705D8E0B
:10499300828F83A3A3A3A3A31231D37025E0FC8C3E
:1049A30008E50A2508FAE50B3400FBEE241D124C3A
:1049B30018E50CC39CC0E0EE2417122EF2D0E0F0F1
:1049C300802A124A12740E28F8E439124770124AE8
:1049D30074FCE50CC39C24F2C39AFDEE2417122E3B
:1049E300F2EDF0AA0AAB0B79011222097F05020B43
:1049F300FF1234FB1249FEA3A3A322E0025D26E0CB
:104A0300FA850A82850B8322124FF51214772285C9
:104A13008208858309E0F8E50A28F8E50B3400F9F4
:104A230022A3A3A3A3A3E0F9EAF8EE240B1234F81C
:104A3300E822A3A3A3E0F9EA8E828F83A30260C4D2
:104A43001256FB8E828F83A3A3E8F0A3E9F02234EE
:104A530000F9EE2413124778123D3BE02408F022BC
:104A6300F0A3E9124A6A22F0850A82850B83023C8D
:104A73008BF0124A7922900459E0F91221D9E9FA0C
:104A8300850882850983E022F074088E828F83A3D0
:104A93001261E1A3E022C082C0837AD37B0479E26E
:104AA3001220417AD37B040248CBC082C083900496
:104AB30061124FF10248CBC082C08374FE120FC54E
:104AC300851082851183AA82AB83794B124AD50262
:104AD30048C8122041851082851183124FF5740254
:104AE30022C082C083794A1220410248CB74F61255
:104AF30009EC9004DBE0FE04F0EEF912143BEA70DB
:104B030001EB70EEEE60EBF9024C2A74F01209EC43
:104B1300EAFEEBFF8C0E8D0F89087410121201E070
:104B2300F50D7411121201E0F50C75090012158BC5
:104B33008A0A8B0BA80AA90BE87001E97013E50C2C
:104B4300705DA908AC0EAD0FEEFAEFFB1215A9804C
:104B53006CE508601FE82402F582E9124BC6E508FC
:104B63002AFAE4340013EA13F07009740188828985
:104B730083A3A3F0E50C6045E50D7010888289835B
:104B8300E0600214F0E49004EAF080319004EAE07B
:104B930004F0FA901522E06A70237509018003E49A
:104BA300601BE5096017121495EA6E7002EB6F70D3
:104BB3000CEEFAEFFB7901121345124BCB02536A49
:104BC300F582EF123F31FA227A017B009004BBE0B9
:104BD300F91219C922C082C08374016A7001EB7093
:104BE300077A01123AF58014901519124C1FEA70D6
:104BF30001EB60051228A68003124BCB0248CBC001
:104C030082C08390151B124C1F0248CBC082C08305
:104C130090151D80F1F582EF3400F583EAF0A3EBE4
:104C2300F022740D120F637F02020BFFA2F0E492D5
:104C3300E0124C3D79521220472285108285118360
:104C4300F0AA82AB8322124C3D79421220472212F2
:104C53004F6122AA82AB831213ED7ABE7B0479459E
:104C63001220472274F71209EC74ED120FC5E9FE06
:104C73009004BA12500C124C9E7412121201EE12CE
:104C83004C93851082851183124C567413023EDEB9
:104C9300F09014C7E0F97CBE7D04229014C7E0F9BC
:104CA3007ABE7B041213F3221234BDA3A322F012A3
:104CB3004CB622EEFAEFFB9004BBE0F91218C722C0
:104CC3003400FB023EE9F582EF124DCC22A3E088CB
:104CD300828983F0A308A98322A3A3A3A3A3A3A3E5
:104CE300A3A374FEF0A374FFF02274F41209EC8AF8
:104CF300088B097A007B04124BCF124D7A124A4C6F
:104D03007409900470F01214898A0A8B0BAC0AADF3
:104D13000BE5082413F582E509122EF5124FF11263
:104D230051D16401704E1231C27001EF60467402BA
:104D33008E828F83F0E508241DF8E50912298E126F
:104D43004FF18A828B83A3E0FC8A828B83A3A3E047
:104D5300FBEC8E828F83A3A3F0A3EB123B13F81219
:104D63002EF91249FE124D84FAA3E0FB794A122070
:104D730047124CB60235D49004421256FB90151DCF
:104D830022A3F0E5082415F582E509123F3122EE4E
:104D9300240F123F2E4404F0A3E0F022124DACA3E3
:104DA300A3A322124D9FA3A322F085088285098322
:104DB300A3A322EE2417124DC9121489EE241A124A
:104DC30034F8EA024C20F582EF3400F5837401F0E5
:104DD3002274F61209EC74F3120FC5EAFEEBFF7CA2
:104DE3000D7D007900851082851183AA82AB831221
:104DF30018A3EE241DF582EF124E9FE0F8542060B5
:104E030008740C1212017401F0E854806008740BEA
:104E13001212017401F0E85440600A740A1212017C
:104E23007401F0800A740A121201E064017005EE45
:104E330024138003EE241512548E7402121201AA55
:104E430082AB8312202F122EEF124F50124A4C7452
:104E53000A121201E064017033124EAB703B12145C
:104E6300958A088B09A808A909EE240B1259E3684F
:104E73007003A3E0697022121489EAFCEBFD74024B
:104E8300121201AA82AB831251D1600D8510828563
:104E93001183AA82AB8312133F024C251234FB12F7
:104EA3004EA622124F65A3228E828F83A3A3A3A3B0
:104EB300A3A3A3A3A3124EBC22E0FAA3E0FB121404
:104EC300EFE92274F61209EC74F3120FC58A088B0A
:104ED30009ECFEEDFF7C0D7D0079008510828511C4
:104EE30083AA82AB83125F54A3A3A3A3A3A3A3A305
:104EF300A3124F50E8F0A3E9124F56A3E0FAA2E53C
:104F03005008740B1212017401F0EAA2E7500874FE
:104F13000A1212017401F0EAA2E6EE50042413808F
:104F230002241512548E7402121201AA82AB831248
:104F3300202F850882850983A3A3E0C0E0740C12A7
:104F43001201D0E01251D7121339024C251256FB2D
:104F53000247CBF0EE241D1234F8124F6122124F98
:104F63006522124F6922E0F8124F6F22A3E0F58306
:104F730088822274F71209EC74E1120FC5EAFEEB82
:104F8300FF8E828F8312381FA2E050568E828F834A
:104F9300122B4F8A828B83A3A3A3A3A3A3E054FE64
:104FA300F0A3E012500C8A828B83E0241B12500181
:104FB300F98A828B83E0241CFAA3E0124CC3124FBC
:104FC300F1121483E9701B741D121201124FFB704E
:104FD30011851082851183AC82AD83EEFAEFFB124B
:104FE30014D1023EDCA3A3A3A3A3A3A3A3A3124FA1
:104FF300F522E0FAA3E0FB221240C364042212501C
:105003000522F8A3E0125D0D221247CAAC82AD83DC
:1050130022E9FA790074046A600A740A6A60057402
:10502300036A700109020EDD74F61209EC74208A1A
:10503300828B83F07401A3A3F01212F18A088B0907
:10504300AE08AF09EE7001EF600774018E828F83A3
:10505300F09004AEE07003124DB6EEFAEFFB024C93
:105063002AC082C08374019004D0F0E9A2E3500304
:105073007403F0E9A2E15004E0D2E2F00248CB74F9
:10508300F61209EC79007C008A088B097808120C67
:1050930045F8FF07B550B350B350B350B350AC50BD
:1050A300B050B550A9500C80097C0480050C80F6E3
:1050B3007C089004D0E05C6003098003EC60010984
:1050C300024C2A74F61209EC8A828B83E07014A3D3
:1050D300E07002A3E0600C8A828B83124FF01221EE
:1050E300E580047A007B00024C2A74F51209EC7403
:1050F300F3120FC5EAFEEBFF8C088D09750A12EE59
:105103007001EF700579000251C2900461E06E7086
:1051130003A3E06F7018121489EAFCEBFDAA08AB35
:10512300091251D17005750A018003750A00E485DF
:105133001082851183F07401121201EEF0A3EF12B5
:1051430051D712121FE9602B7403121201AA82AB0A
:10515300831219EDE96401701A750A0174031212BE
:1051630001AC82AD83AA08AB091251D16021750A43
:1051730000801C7412650A70169004ADE06402701E
:105183000EAC08AD09EEFAEFFB12123DE970DFAC8D
:1051930008AD09EEFAEFFB121591E9FA740A6A7089
:1051A30005750A01801774A06A7012AC08AD09EE88
:1051B300FAEFFB12159DEEFAEFFB1215B5A90A746F
:1051C3000D120F63023D22240EFAE93414FB122060
:1051D30029E922E41251DB221251DF22F0851082E9
:1051E300851183024C4474F71209ECEAFEEBFF7558
:1051F30008008E828F83A3A3A3A3A3A3A3A3E0602A
:1052030017EE2415122C48122EF0124FF11214FB34
:10521300E9640170037508018E828F83A3A3A3A39E
:10522300A3A3A3E06018EE2413122EF2125246FA3F
:10523300A3E0FB1214FBE964017003750801A908DC
:10524300023EE112524C0234D2125495025D26EA18
:10525300240BF582EB221256FB88828983A3A3E0F9
:105263002274F01209EC74F3120FC57403121201C5
:10527300ECF0A3EDF08A0E8B0F890B741D12120153
:10528300E0F50A7E01EE121201740AF0E97007E5F7
:105293000AC333240AF0851082851183AA82AB8363
:1052A3001214E38A088B09EA7001EB700302535F5F
:1052B3001242A5740912545D450A12546A1212016E
:1052C300125443E50B70307A008026EAC333F8E4C6
:1052D30033F9741E121201E028F8A3E039F9888229
:1052E30089831253748882898312369CA30EAF83F9
:1052F3000AEAC3950A40D4E5082417F582E50912A2
:105303004CCC121489E508241AF582E509124C1BCA
:105313007405121201AC82AD83AA0EAB0F1221FDEC
:10532300E96021E50812536FE509124CCC740512AC
:105333001201A882A983E5082418F582E509122E33
:10534300F5124A4C850882850983A3A3E50EF0A3D1
:10535300E50FF0AA08AB091212EBE9FEEEF9740DA2
:1053630080027402120F637F08020BFF2416F5827A
:10537300221249FEF0A3AE82AF8322FEA3E03400E3
:10538300FF02378174F01209EC74FE120FC5851009
:1053930082851183124C1F89088C0E8D0F74121293
:1053A3001201E0F50B900F15E07002A3E06075E5C4
:1053B3000BC333F8E433F9740E28FAE439FB1218FB
:1053C300BB8A0C8B0DAE0CAF0DEE7001EF60557404
:1053D300D48E828F8312543B124A468E828F83A3CC
:1053E300A3A3A3E508F0AC0EAD0FEE24051234B071
:1053F300EE240D122EF2E50BF07413121201125467
:1054030033120F32E50BC333FCE433FDEE240EFA03
:10541300EF12542D120F63EEFAEFFB900F15124C9F
:1054230052122286025365FAE50D3400FB0244E36F
:10543300E0F508A3E00247681247C5F8A3E0F922A4
:10544300122C52FAEFFB12544D2212202F125454F5
:1054530022EE2408FEEF3400FF228E828F83F0A316
:10546300E50BC43354E022F0A3AE82AF837403226E
:10547300A3A3E508F0A3E509F022E0FA8E828F8367
:10548300A3A3E022124FF5121471221234F812541E
:105493009522E0023F0074F71209ECE9FE7C007DDF
:1054A3000078007900800C1255692CFCA3E03DFDC7
:1054B300125E8F1260E15037E8FAE9FBEA75F012E9
:1054C300A4FAAFF075F012EBA42FFBEA2496F58251
:1054D300EB3412F583E064FF60D61255697002A3C2
:1054E300E060CDEE60C112556EE4F0A3F080C178A8
:1054F300007900800C1255482CFCA3E03DFD125EA0
:105503008F1260D45038E8FAE9FBEA75F017A4FA71
:10551300AFF075F017EBA42FFBEA1260CFEB12602C
:10552300A27004A3E064FF60D51255487002A3E0A3
:1055330060CCEE60C012554DE4F0A3F080C0ECFAED
:10554300EDFB023EE112554DE022E8FAE9FBEA7574
:10555300F017A4FA75F017EBA42FFBEA2421F582C8
:10556300EB3414F5832212556EE022E8FAE9FBEAE4
:1055730075F012A4FA75F012EBA42FFBEA24A2F53E
:1055830082EB3412F5832274F61209ECEAFEEBFF88
:105593009004D1801388828983E06E7003A3E06F47
:1055A300603F88828983A3A3123E0A7001E970E5F4
:1055B3007A047B001219278A088B09A808A909E82D
:1055C3007001E9601C888289831255EB9004D11223
:1055D3004FF188828983A3A3124C1F9004D1124AEE
:1055E3004C024C2AA3A3A3A3EEF0A3EFF02274F47E
:1055F3001209EC7E009004D180070E88828983A370
:10560300A3123E0A7001E970F1EEC333FAE433FBEF
:105613001256A57001EB700302569F7F009004D1D0
:10562300802488828983125491EFC333FAE433FBD5
:10563300E5082AF582E5093BF583ECF0A3EDF00FCD
:1056430088828983A3A3123E0A7001E970D490046F
:10565300B61256C27003A3E06978087019120F36A8
:10566300EEF50A780A120F3A7C827D0479009004E1
:10567300B61256AE801A120F36EEF50A780A120FDA
:105683003A7C827D0479009004B6124FF11215071B
:105693007403120F63AA08AB0912192D1213030224
:1056A30035D41219278A088B09EA22124FF51215ED
:1056B3000D228E828F83A3A3A3A3A3A3A3A3A312C9
:1056C30056FB900461E06822C082C08380128A8204
:1056D3008B83A3A31256F79004D1124A4C12192DAF
:1056E3009004D1123DD57001EB70E30248CBF582F3
:1056F300EF1234FB1256FB22E002543E74F61209F9
:10570300EC90046E1242AE9004DC125768124A4CBD
:105713007ADC7B0479501220479004DC122C4EFA79
:10572300EFFB1215AF9004DC1242AE900F17E0703E
:1057330002A3E0602D7A067B001218BBEA7001EB2E
:10574300602074D58A828B83F0E4A3A3F074018A6A
:10575300828B831247AD1255E7900F17124C5212EA
:105763002286024C2A12576C22E0F8A3E0F9900437
:105773006E22C082C0839004DE743DF0A37415F0E2
:105783009004E07437F0A37415F09004E27455F0BC
:10579300A37415F00248CBC082C083900461E06417
:1057A300FE7004A3E064FF600E90045BE0A2E1508E
:1057B3000612159712154312153D0248CB74F612C3
:1057C30009EC9004AFE060281218B58A08A8089085
:1057D30004AFE0FA75F0E8A4CAACF075F003A42CAA
:1057E300FB747F582AFCE43BFD7A007B011228AE50
:1057F300024C2A74F01209EC74FE120FC5750F00E7
:10580300851082851183E4F0A3F012125B7A047988
:1058130000121237EAFE7A0279011259D77A037914
:10582300031259D7121573EAF50E2EFF8E0AEA25D5
:105833000AF8E43400F9E87001E970030259378F7C
:1058430008750900740278081210A6AA08AB091299
:1058530047B47002A3E070030259358F087509003D
:10586300740278081210A6AC08AD0979FF8510827E
:10587300851183E0FA1218A37508008056A908124F
:1058830012558A0C8B0DEA7001EB60458A828B837B
:10589300A3A3A3A3E0600464047036050F8A828B7C
:1058A30083A3A3A3A3A3A3A3A3A3A3E0F91215A371
:1058B300851082851183120D04EFFD850C82850D01
:1058C30083A3A3A3A3A3A3A3A3A3E01259EA120F41
:1058D30063050885080A90269DE493F8740193F9FB
:1058E300C3E50A98E4995006E50FC39E408F7508F7
:1058F30000E508C3950E503CAA087B001215798A6F
:105903000C8B0DEA7001EB602585108285118312E3
:105913000D04EA240EF582EB1259E6FEEA240F1277
:105923003F371215A3EFFDEE1259EA120F63050874
:1059330080BF7F0075096A900459E0600CF9122159
:10594300D9E9FA745CC39AF50975F003E50984F59E
:105953000A851082851183E0F50EA3E0F50F750B20
:1059630000E5096006750B20750900E50AC39F5021
:1059730004AE0A8008EFFEE50BD2E6F50BAC0EADE4
:105983000FAA0BEEF912154FE9F50CE50BA2E64051
:105993001F1E750800800EE50E2404F50EE50F3476
:1059A30000F50F0508E508C39E40ECEECFC39FFF4B
:1059B300E97006E50BA2E650A5851082851183E008
:1059C3007002A3E06009851082851183123B06A94A
:1059D3000C025365121237EACEC39EFE22EE241147
:1059E300F582EF123F3122FC850C82850D83124F25
:1059F300F512154974022274F21209ECEAFEEBFF68
:105A03008908740E121201124FF1750A00750B000A
:105A1300750900800E8A0A8B0BEA2404FAEB340022
:105A2300FB0509E509C39D50218A828B83E064FF4E
:105A33007004A3E064FF70158A828B831255EBEC2C
:105A43008A828B83125AE0E508F00228A1E50A70E6
:105A530002E50B600E850A82850B83C3E09EA3E0FB
:105A63009F50B28A828B831256F7C3EE98EF9950F8
:105A7300A4EAF8EBF988828983E064FF7004A3E069
:105A830064FF6010E82404F8E93400F90509E50926
:105A9300C39D40E1880A890BE824FCF8E934FFF947
:105AA30088828983E0F50CA3E0F50D850A82850BD6
:105AB30083E50CF0A3E50DF088828983125AD41292
:105AC300451C125AD4A3F0C3EA98EB9940C6025A74
:105AD3003BA3A3E0850A82850B83A3A322A3125AC7
:105AE300E522A3F08A820236AB74F31209EC74FD4B
:105AF300120FC589088A09ECFEEDFF750C0175F0DC
:105B030003E9A42402C0E07401121201D0E0125B85
:105B1300A57001EB607C125252122EF5125B9F8826
