:020000040000FA
:0600000002111302073992
:03002B000210C2FE
:03003300020D00BB
:03004300020F4564
:03004B00020DC5DE
:0300530002068C16
:03005B00020DD4BF
:03006300020DE0AB
:03006B00020CE69E
:100083000206D50101FF01010503010F10FEFF0365
:100093000003000300030003000300030003000345
:1000A3000005000A00140028004F009E0000001BFA
:1000B3001A1B1A1B1A1B1ADD18D7181B1A592800EA
:1000C3000000009527000000000C0000000C000158
:1000D300D906FF01000102002B140000009E1464E6
:1000E300000202000800000502071E02051E020AA4
:1000F30003B80B02803E0103320002F1FF02020645
:10010300000020410000803FCDCCCC3D12115F6048
:100113001D1211417005191919801A120FB2701F9F
:10012300120F9DC37003E667331919194007181896
:10013300182208080874FFF618F618F618F62212A3
:100143000F9D60171211BF702192F01211B5701933
:10015300501720F014080808090909E7F61819E7E9
:10016300F61819E7F61819E7F6221211B560E6E852
:1001730069701F0808E62480F608E436F618547FF1
:10018300B47F0CE654806007F6E418F618F62218DC
:100193001822E9C6CC08C6CD08C6CE08C6CFC0E033
:1001A300E8C0E0EAC0E0EBC0E009E9F809E7FA09D2
:1001B300E7FBE6F918E6F8C3EC98ED99EE9AEBC283
:1001C300E7F5F0EFC2E795F0500E600CEBCFFBEADA
:1001D300CEFAE9CDF9E8CCF8EAA2E7D2E7FAEB33B5
:1001E300FB13F5F0EEA2E7D2E7FEEF33FFC5F01302
:1001F300A2E730E601B313C5F0C3C0E0C0F07F004F
:10020300C39BFB605B9418600C401AD0E023F9D0C9
:10021300E0F80202ED8AF0E9486003D2F0E4AFF0BF
:10022300FAF9F8803BEB30E40D89F0EA6003D2F091
:10023300E4AFF0F9CAF8EB30E30D88F0EF6002D2D7
:10024300F0AFF0E4CAC9F8EB54076014FBC3EA1338
:10025300FAE913F9E813F8EF135002D2E0FFDBEDEC
:10026300D0E0C0E030E739C3E49FFFF5F0EC98FC41
:1002730042F0ED99FD42F0EE9AFE42F0D0E0F9D063
:10028300E0F8E5F0607AE923F9EE20E742D802804E
:1002930067C3EF33FFEC33FCED33FDEE33FE80EA4F
:1002A300EC28FCED39FDEE3AFED0E023F9D0E0F87E
:1002B3004002801BC3EE13FEED13FDEC13FCEF13A2
:1002C3005002D2E0FF08B800067F7F74FF802EEF54
:1002D3003350178CF020F00260100CBC000C0DBDE5
:1002E30000080EBE000408E860DFE933E813FFEE00
:1002F3002313FE4F4D4C8008E95480FFE4FEFDFCC0
:10030300EE33EF33F47004FCFD7E80D0E0FBD0E0ED
:10031300FAD0E0F8D0E0CFC618CEC618CDC618CCB8
:10032300C6F92212115F70041818182212114170B5
:100333000D74FFF61819F61819F61819F622E75472
:100343008066F61211B5700F1211BF70F014F60823
:10035300F608F608F680D11211BF700CF608F608FD
:10036300768008E6447F80EC120FA0700C120FB564
:1003730060BFE65480F6E480BB120FB5700519190F
:100383001980A5E869700C763F18768018F618F680
:10039300E8F922E6CDC0E018ECC0E0E633CD33CD7A
:1003A300D313F6E719FCE7191933CC33C3947F4011
:1003B3000ECD9D502408E65480F6E418F6800FF421
:1003C300043D14501408E6447FF6187680E418F6CA
:1003D30018F6D0E0FCD0E0FD22CCD313CCFD18E41A
:1003E300C6CBC0E018E4C6CAC0E00808ED08C633AF
:1003F300E613F618E433C675F003C3CA97CA09CBEC
:1004030097CB199C40047D08802EBD00030204CFC6
:1004130016B6FF050606081618C3CA33CACB33CB74
:1004230033CA27CA09CB37CB193CC37D08803E1892
:100433007D0820E75CC633C6CA33CACB33CB33DD72
:10044300F1D5F0EB30E77BCA97CA09CB974ACB19B2
:100453009C406F4B7025E620E0218066187D08C321
:10046300CA97CA09CB97CB199CD3C633C6CA33CA1A
:10047300CB33CB3350C9DDE7D5F0E1D3E4C636C681
:1004830008C636C608C636C608C636C61818188043
:1004930031C3CA97CA09CB97CB199CB34097C633CC
:1004A300C6CA33CACB33CB33DD34D5F02EC6A2E074
:1004B300C640C8CA27CA09CB37194A70BECB3CB459
:1004C30080B90808E63308E633601F181818D0E02F
:1004D300FAD0E0FBD0E0FCD0E0FD22187D08CA276B
:1004E300CA09CB37CB193CD3808013F618E4B67F07
:1004F30011F618B6FF0EF618C60470D208087680F7
:1005030080CAF618F618F680C50012115F604F1204
:1005130011416012E7548066F6120FB27011121186
:10052300BF703B090909F4F618F618F618F62212FB
:100533000F9D70151211B508080860EAE6447FF6AE
:1005430018768018E4F618F6221211B56016121107
:10055300BF7012E4F608F608F608E65480F60909B7
:100563000918181822EAC0E0EBC0E0ECC0E0EDC0C7
:10057300E0E687F0A4FBACF008E687F0A42CFCE4EB
:1005830035F0FA1809E687F0A42C4B60027401CA0F
:1005930035F0FCE433FB09E687F0D2F7A42CCB3526
:1005A300F0FC1908E687F0A42BCC35F0FBE433FD0F
:1005B3000819E687F0D2E7A42C4ACB35F0CD3400F6
:1005C300FC09E687F0D2E7A42DCC35F0FDE433FA3D
:1005D3000918E687F0D2F7A42CCD35F0CA3400FC15
:1005E30008E687F0D2E7D2F7A42ACC35F07A7E204A
:1005F300E70B0ACB33CBCD33CDCC33CC33CB33501A
:10060300147004ED30E00ED2F1E4CD3DCDCC3CCC02
:100613003B5005DA05C2F1EB547FC63308E633924B
:10062300F0FBE73309E733C39A502D2B70190C0DF8
:100633004C4D70151806E608C333700D20F10AA25D
:10064300F013F6E418800B4024E4F630F0027680D1
:1006530018F618F618F68024D33B14501074FFA232
:10066300F013F6187680E418F618F6800FA2F0134C
:10067300F618E63303F618ECF618EDF6D0E0FDD0E5
:10068300E0FCD0E0FBD0E0FA22C0E074F21209C330
:10069300E5A7F8E5A1F9585410600812212953A1E0
:1006A300EF802AE8A2E0C0D0E9A2E092F01210178E
:1006B300158182F05017906198E0F89017B3E0C36A
:1006C30098A2D265D0335002E8F053A1FE7F010215
:1006D3000A7AC0E074F21209C39061A4E0F8759B32
:1006E30000E59158540860087591F712216B802A30
:1006F300E59158541060087591EF122171801BE841
:10070300A2E0C0D0E591A2E092F012101715818209
:10071300F05007E0C2E0F01222919061A3E0F8E507
:10072300E9585404600E12226775E9FB906193E067
:10073300A2E640F28097C0E074F21209C39061A56B
:10074300E0F8E5BF585404600653BFFB1222A90228
:1007530006D0C3E498F8E499F91207968026C3E417
:100763009AFAE49BFBE920E7E9120796E498F8E498
:1007730099F922C3E498F8E499F9120796E498F8F2
:10078300E499F9C3E49AFAE49BFB22EB20E7CFE96F
:1007930020E7E0B90010BB0008E88AF084F8AAF06B
:1007A30022E4FBC8FA22EB70227B10C833C8C9339A
:1007B300C9335007C39AC3DBF280069A50012ADB80
:1007C300EAC833F4C8C933F4C9FA2275F008E4C897
:1007D30033C8C933C933C99AC99B5004C92AC93B11
:1007E300D5F0ECFBC833F4C8E4C9FA22080808EAD8
:1007F300C0E0EBC0E086F0E7A4FA180986F0E7A4AE
:100803002AFA180986F0E7A42AFA180986F0E7A459
:100813002AFA1986F0E7A4FBE5F02AFA190886F00C
:10082300E7A42BFBE5F03AFA190886F0E7A42BFBC3
:10083300E5F03AFA18180986F0E7A4C5F02BFBE4B3
:100843003AFA1908E7C5F0C6A426F6E5F03BFBE43F
:100853003AFA1886F0E7A4F6E5F00826F6E43B0832
:10086300F6E43A08F6D0E0FBD0E0FA22080808E6FE
:1008730030E711120FF0120887080808C64480C633
:1008830018181822181818E9799EC608CAC608CB82
:10089300C608CCC6C370207996CACBCC7019798EA2
:1008A300CBCC70137986CC700EF9802ACA33CACBAD
:1008B30033CBCC33CC331930E7F2CCCBCA3350141F
:1008C3007004EA30E00DE4CA3ACACB3BCBCC3CCC53
:1008D300500209C3E913C6CC182313C6CB18C6CAE2
:1008E30018C6F922E4CFC0E0E4CEC0E0E4CDC0E016
:1008F300E4CCC0E075F020C3E633F608E633F6082F
:10090300E633F608E633F6181818EC33FCED33FD3E
:10091300EE33FEEF33FFC3EC9709ED9709EE97092A
:10092300EF97191919400FFFEC97FC09ED97FD0993
:10093300EE97FE191906D5F0BEECF709EDF709EEAF
:10094300F709EFF7191919D0E0FCD0E0FDD0E0FE6C
:10095300D0E0FF222510C582C0E0E51134FFC58336
:10096300C0E0E510C3958224F810AF088583118594
:1009730082108008858311858210D2AFCEF0A3E563
:1009830020F0A37808E608F0A3DEFAEFF0A3E581F0
:1009930024FAF8E608F0A3E608F0A3E608F0A308B3
:1009A30008E608F0A3E608F0A315811581D0E0FE60
:1009B300D0E0F8158115811581E8C0E0EEC0E02292
:1009C300C0D02510C582C0E0E51134FFC583C0E067
:1009D300E510C3958224F310AF0885831185821037
:1009E3008008858311858210D2AFC8F0A3E9F0A3F4
:1009F300EAF0A3EBF0A37908E709F0A3D8FAECF047
:100A0300A3EDF0A3EEF0A3EFF0A3D0E0F0A3D0E0CA
:100A1300F0A3D0E0F0A3E520F0A3E5F0F0A32212C9
:100A230011A0B90003020A64E49004FF7864791802
:100A33008002F0A3D8FCD9FA901C62AA82AB8390FF
:100A43000086788A79018015E493A3AC82AD838A0A
:100A5300828B83F0A3AA82AB838C828D83D8E9D95E
:100A6300E77582027583E77403120B6A7582C17599
:100A730083257400120B6A851183851082E0C0E020
:100A8300A3E0F9A3E0FAA3E0FBA37808E0F608A348
:100A9300DFFAE0FCA3E0FDA3E0FEA3E0FFA3E0C0D8
:100AA300E0A3E0C0E0A3E0F5D0A3E0F520A3E0A33A
:100AB300F5F010AF088583118582108008858311B6
:100AC300858210D2AFD082D083D0E0F8D0E032D08C
:100AD30083D082ECC0E0EDC0E0E493A3FCE493A3F5
:100AE300FDED4C600D120C40EC24FFFCED34FFFDDA
:100AF30080EFE493A3FCE493A3FDED4C600D120D92
:100B030070EC24FFFCED34FFFD80EFD0E0FDD0E07E
:100B1300FCE493A3C0E0E493C0E02212115F601BE6
:100B230012114160161211B570071211BF600CB398
:100B330022C0D01211BF7005D0D022C32233D0D02F
:100B4300501330E0EBC3E7960809E7960809E796E8
:100B53000809E7962220E0E4E6970809E6970809E2
:100B6300E6970809E69722C0F0F5F0E59F5407C021
:100B7300E0E59F54F845F0D0F0F59FE473859FF0CE
:100B830053F0F8D0E045F0F59F22D083D082E59F63
:100B93005407C0E0E493C0E0740193C0E07402938F
:100BA3005407C0F0F5F0E59F54F845F0D0F0F59FF9
:100BB30022851183851082E0A3FEE0A3F520780847
:100BC300E0A3F608DFFAE0A3FFE0A3C0E0E0A3C0E0
:100BD300E0E0A3C0E0E0A3C0E0E0A3C0E010AF0802
:100BE3008582108583118008858210858311D2AF99
:100BF300D083D082020B80D083D082E9C0E0E4931B
:100C0300A3C386F0C5F095F0F908E493A386F0C575
:100C1300F095F0700BE493A3C3994005E9048002B7
:100C2300A3E475F002A42582F582E5F03583F5830C
:100C3300D0E0F9E493A3C0E0E493C0E022C0E0C3B2
:100C4300E49396087401939618400FE49366700832
:100C530008740193661870007019A3A3C3E49396F4
:100C6300087401939618A3A3400DD0E0D0E0D0E020
:100C7300020B0EA3A3A3A3A3A3D0E022D083D0820D
:100C8300C5F0E493A3C5F0C395F0F5F0E493A3C3D3
:100C930095F04005E5F0048001E475F002A4258297
:100CA300F582E5F03583F583E493A3C0E0E493C0D4
:100CB300E0227404800474028000CCC0E0EDC0E044
:100CC300E510C39CCCAD1150011D10AF068C108DE7
:100CD3001180068C108D11D2AF120E0ED0E0FDD014
:100CE300E0FC22C0E074F21209C3E589A2E15003DB
:100CF300121FEB758900C2C57F01020A7AC0E07436
:100D0300F21209C3E58BA2E05003121FEB758B00AF
:100D1300C2E880E474028000CCC0E0EDC0E0E510DE
:100D2300C39CCCAD1150011D10AF068C108D1180EA
:100D3300068C108D11D2AF120DECD0E0FDD0E0FC8B
:100D43002212115F602512114160201211B5700348
:100D53000211BF080808E76670101819E766700AE1
:100D63001819E76670041819E76622F422C0E0C078
:100D7300F088F0E4936670080874019366187000B5
:100D8300A8F0A3A3700BD0F0D0E0D0E0D0E0020B2A
:100D93000EA3A3D0F0D0E022D083D082CCC0E0E475
:100DA30093A36006120E6D1470FAE493A360061207
:100DB3000F5C1470FAD0E0FCE493A3C0E0E493C0AA
:100DC300E022C0E074F21209C312206F7F01020A0D
:100DD3007AC0E074F21209C312207580EFC0E07488
:100DE300F21209C312207B80E3CAC0E0E493A3C5D7
:100DF30082CCC582C583CDC583F0A3C582CCC58211
:100E0300C583CDC583DAE5D0E0CA22CAC0E0E0A33A
:100E1300C582CCC582C583CDC583F0A3C582CCC5AD
:100E230082C583CDC583DAE6D0E0CA2270090808FB
:100E330008226016181818C6C333C608C633C60876
:100E4300C633C608C633C6D5E0EA22C008C3E09657
:100E5300F50808A3E096420808A3E096420808A311
:100E6300E09645087001D3D00822C0E0E493A3D3F1
:100E73009C5010E493A3C39C400AD0E0D0E0D0E0A0
:100E8300020DB8A3A3A3D0E022C5822510C582C555
:100E930083351110AF07F5118582108007F5118591
:100EA3008210D2AFC583227404800A74038006744F
:100EB3000280027401C0E0F404120EC5D0E01211E6
:100EC3007B222510F58210AF08F510400215118022
:100ED30008F51040021511D2AF85118322BB010220
:100EE300E722C082C08389828A83BB0003E0800239
:100EF300E493D083D08222C0D0251010AF08F51020
:100F0300500205118008F51050020511D2AFD0D060
:100F1300226016080808C6C313C618C613C618C627
:100F230013C618C613C6D5E0EA22C3E0C696F60870
:100F3300A3E0C696F608A3E0C696F608A3E0C69615
:100F4300F622C0E074F21209C3C2C0E5D1A2E45094
:100F5300031220A57F01020A7AC0E0E493A36C7018
:100F630009D0E0D0E0D0E0020DB8A3A3D0E0222561
:100F73001010AF08F510400215118008F51040025B
:100F83001511D2AF22C3E09608A3E09608A3E0961A
:100F930008A3E096A2D265D03322191919E70947AD
:100FA30009700AE709C3337005E733F422092218ED
:100FB3001818E6084608700AE608C3337005E633D6
:100FC300F4220822E066701008A3E066700A08A302
:100FD300E066700408A3E06622C3E096F008A3E08D
:100FE30096F008A3E096F008A3E096F022181818EC
:100FF300E4C396F608E496F608E496F608E496F653
:1010030022E056F008A3E056F008A3E056F008A348
:10101300E056F022C0E0E8C0E0E58124FCF8E6A257
:10102300E7D0E0F8D0E022E627F60809E637F6082D
:1010330009E637F60809E637F622E026F608A3E0C4
:1010430036F608A3E036F608A3E036F622E026F0EB
:1010530008A3E036F008A3E036F008A3E036F02258
:10106300E657F60809E657F60809E657F60809E6CB
:1010730057F622E056F608A3E056F608A3E056F624
:1010830008A3E056F622700422600D18C6C333C6C7
:1010930008C633C6D5E0F41822E046F008A3E046BC
:1010A300F008A3E046F008A3E046F022E647F6087E
:1010B30009E647F60809E647F60809E647F622C0B7
:1010C300E074F21209C3C2C71221AD7F01020A7A8A
:1010D300C3E7960809E7960809E7960809E7962201
:1010E300C6F4C608C6F4C608C6F4C608C6F4C622C3
:1010F300C3E09608A3E09608A3E09608A3E096222F
:10110300600D08C6A2E713C618C613C6D5E0F322BE
:1011130075D0007581407510FF75110400020A2215
:10112300600C08C6C313C618C613C6D5E0F422E084
:10113300F608A3E0F608A3E0F608A3E0F622E70921
:101143004709C3134709336002E733F422E6F00883
:10115300A3E6F008A3E6F008A3E6F022E6084608B3
:10116300C3134608336002E633F422C5822510C553
:1011730082C5833511C58322CAC0E0E6F0A308DA2D
:10118300FAD0E0FA22E0FAA3E0FBA3E0FCA3E0FD3F
:1011930022EAF0A3EBF0A3ECF0A3EDF022E5C754B1
:1011A300F84401F5C77901222510F582E43511F5DC
:1011B3008322E6C33318461846184622E7C3331979
:1011C300471947194722120B8D1B2C00120B8DB99F
:1011D3002C00120B8D052D00120B8D442D00120BCC
:1011E3008D612D00120B8D902D00120B8DE62D00BD
:1011F300120B8D012E00120B8D282E00120B8D6306
:101203002E00120B8DA32E00120B8DC42E00120B79
:101213008D142F00120B8DCE2F00120B8D53300027
:10122300120B8DDD3000120B8DBE3100120B8DEBD6
:101233003100120B8D3A3200120B8D623200120B09
:101243008D8B3300120B8D033400120B8D29340068
:10125300120B8D4F3400120B8D733400120B8D85DE
:101263003400120B8D8F3400120B8D393500120BA5
:101273008DA53500120B8D6C3600120B8D74360064
:10128300120B8DFF3600120B8D333700120B8D437B
:101293003700120B8D083800120B8DB63800120B75
:1012A3008D153900120B8D223A00120B8D9B3A00DB
:1012B300120B8DEF3A00120B8D643B00120B8D0263
:1012C3003D00120B8D163D00120B8D783D00120B65
:1012D3008DFD3D00120B8D4A3E00120B8D683F00C1
:1012E300120B8D5A4000120B8DC74000120B8D4319
:1012F3004100120B8DB94100120B8DF14100120B0D
:101303008DCE4200120B8DF14300120B8D4E440023
:10131300120B8D974400120B8DBF4400120B8D48A6
:101323004500120B8DDE4500120B8D444600120B57
:101333008D694600120B8DE24600120B8D76470035
:10134300120B8D094800120B8D2D4800120B8D5185
:101353004900120B8D644900120B8DD54900120B05
:101363008DEA4900120B8D4B4A00120B8D954A00F2
:10137300120B8DD04A00120B8DF14B00120B8DB85E
:101383004D00120B8DC24D00120B8DCC4D00120B74
:101393008DD64D00120B8DE04D00120B8DFA4D00D2
:1013A300120B8D044E00120B8D0E4E00120B8D1876
:1013B3004E00120B8D394E00120B8D874E00120B0F
:1013C3008D914E00120B8DB54E00120B8DD94E0030
:1013D300120B8D324F00120B8D774F00120B8D9530
:1013E3004F00120B8D0C5000120B8D565000120B38
:1013F3008D8C5000120B8D0B5100120B8D945100EC
:10140300120B8D715300120B8D395400120B8D5F2B
:101413005400120B8D475500120B8D1F5800120BF1
:101423008DAC5900120B8D745B00120B8DBA5B00EF
:10143300120B8DE45C00120B8D355D00120B8DA039
:101443005D00120B8DAA5D00120B8D705F00120BF5
:101453008D246000120B8D766000120B8D326100BB
:10146300120B8DF76100120B8D826300120B8DA599
:101473006300120B8DF96300120B8DE76400120BEE
:101483008D196500120B8D6D6500120B8D72660050
:10149300120B8DB96600120B8DFF6600120B8D5E69
:1014A3006700120B8DAB6800120B8DF76800120BEF
:1014B3008D016A00120B8DA86C00120B8DCC6C0091
:1014C300120B8D976E00120B8DEE6E00120B8DEAD0
:1014D3006F00120B8D737000120B8DCD7000120B09
:1014E3008D2D7100120B8DBC7100120B8D327200A9
:1014F300120B8D9D7200120B8D9C8A01120B8DEEC7
:101503008A01120B8DDE8C01120B8D8D8D01120B56
:101513008DC18D01120B8DEB8E01120B8DA29101EA
:10152300120B8DB09201120B8D899B01120B8D430F
:101533009E01120B8D2F9F01120B8DF59F01120B34
:101543008D47A101120B8D4CA201120B8D5FA501DA
:10155300120B8D71A701120B8DD1A701120B8DA94F
:10156300A801120B8DD4A801120B8D72A901120BC5
:101573008D50AA01120B8D31AB01120B8D01AC0101
:10158300120B8D2EAC01120B8D50AC01120B8D92F0
:10159300AE01120B8D4CAF01120B8DA3AF01120BD9
:1015A3008D06B001120B8DBCB001120B8DF1B00191
:1015B300120B8D45B101120B8D75B101120B8DB359
:1015C300B101120B8D01B201120B8D06B201120B88
:1015D3008D5DB201120B8D85B201120B8D80B301AB
:1015E300120B8D08B401120B8D89B601120B8D46B7
:1015F300B701120B8DDBB801120B8D50BB01120B1F
:101603008DF8BB01120B8D70BC01120B8D99BE01BD
:10161300120B8D3EBF01120B8D85BF01120B8D5135
:10162300C101120B8D65C101120B8D72C101120B29
:101633008D9CC101120B8DA8C101120B8DC6C10176
:10164300120B8DA8C301120B8D07C401120B8D5B06
:10165300C401120B8D66C501120B8DC2C501120B9D
:101663008D79C601120B8DC1C601120B8D5BC701AB
:10167300120B8D3FC801120B8DF5C801120B8D267D
:10168300CA01120B8D0CCB01120B8DB4CB01120BC3
:101693008D48CC01120B8D5FCC01120B8D98CC01C0
:1016A300120B8DA2CC01120B8DAECC01120B8DCC83
:1016B300CC01120B8D10CD01120B8D7ECD01120BBF
:1016C3008DA5CD01120B8DBFCD01120B8D14CF0152
:1016D300120B8D5ECF01120B8D67D001120B8D8C17
:1016E300D001120B8DF6D001120B8D58D101120BC4
:1016F3008DC9D101120B8DDBD201120B8D86D30163
:10170300120B8D6ED401120B8DCCD401120B8D569E
:10171300D501120B8D47D601120B8D76D601120B14
:101723008DDDD601120B8DB7D701120B8DDDD701DD
:10173300120B8D46D801120B8D6BD801120B8D91B4
:10174300D801120B8DC7D801120B8DE3DA01120BEE
:101753008DD3DB01120B8D99DC01120B8D33DE016E
:10176300120B8D7CDE01120B8DA8DE01120B8D2F67
:10177300DF01120B8D97DF01120B8DE9DF01120BD5
:101783008D0FE001120B8D56E001120B8D82E001EB
:10179300120B8DB7E001120B8D07E101120B8D6562
:1017A300E101120B8D18E201120B8DDAE301120B2A
:1017B3008D4CE401120B8D75E401120B8DE9E401EC
:1017C300120B8D5EE501120B8DA0E501120B8DDC72
:1017D300E501120B8D01E601120B8D47E601120B99
:1017E3008D64E601120B8D01E701120B8DA5FF013C
:1017F300120B8DF0FF01120B8D918002120B8DBF26
:101803008002120B8D7D8102120B8D638202120BFB
:101813008D6A8302120B8DF58402120B8D6A850289
:10182300120B8D198602120B8D168702120B8D81F6
:101833008702120B8DD48702120B8D288802120B9C
:101843008D328802120B8D788802120B8DDB880291
:10185300120B8D738902120B8DE88902120B8DD442
:101863008A02120B8D4F8B02120B8D698B02120BA6
:101873008D988B02120B8DC58B02120B8D5C8C0223
:10188300120B8D6C8C02120B8DBF8C02120B8DCB45
:101893008C02120B8DD78C02120B8DE08C02120B73
:1018A3008D2B8D02120B8D868D02120B8DD78D021F
:1018B300120B8DF28D02120B8D288E02120B8D49A5
:1018C3008E02120B8D538E02120B8D688F02120B38
:1018D3008D868F02120B8DF88F02120B8D0B9002E7
:1018E300120B8D199002120B8DBA9002120B8D8E72
:1018F3009102120B8DAF9202120B8D2B9302120BDE
:101903008D359302120B8DA89302120B8DBF930298
:10191300120B8D019402120B8D3F9402120B8D6EEC
:101923009402120B8DA59402120B8DC39402120B19
:101933008DE79402120B8D289502120B8D179602D8
:10194300120B8D5D9602120B8D889602120B8DFB86
:101953009602120B8D229702120B8D679702120BC0
:101963008D759702120B8DCE9702120B8D0B980279
:10197300120B8D529802120B8D839802120B8DA6B7
:101983009802120B8DB19802120B8DCF9802120B95
:101993008D8B9902120B8D959902120B8DDA990298
:1019A300120B8D1E9A02120B8D329A02120B8D1D91
:1019B3009B02120B8D309B02120B8D459B02120B67
:1019C3008DED9B02120B8D399C02120B8DEF9C0245
:1019D300120B8DFA9C02120B8D489E02120B8D7412
:1019E3009E02120B8DB59E02120B8DCF9E02120B1F
:1019F3008D409F02120B8DCC9F02120B8D03A00210
:101A0300120B8D66A202120B8DEEA202120B8D6ECB
:101A1300A302120B8DB1A502120B8DC1A502120BED
:101A23008DC4A502120B8DD0A502120B8DE4A50265
:101A3300120B8D03A602120B8D36A602120B8DFB21
:101A4300A602120B8D62A702120B8DC6A702120B00
:101A53008D50A802120B8D01A902120B8D2FA90222
:101A6300120B8DC5A902120B8DF4A902120B8D1650
:101A7300AA02120B8D3DAA02120B8DA2AA02120B0F
:101A83008D55AC02120B8D58AC02120B8DC2AC02F9
:101A9300120B8DB5AD02120B8D9CAE02120B8D276E
:101AA300AF02120B8D6AB002120B8D2DB102120B15
:101AB3008D66B102120B8D97B102120B8DA0B1028C
:101AC300120B8D84B202120B8D14B302120B8DB262
:101AD300B302120B8D72B402120B8DEBB402120B14
:101AE3008D1AB502120B8D0BE002120B8D78AC032D
:101AF300120B8D86AC03120B8DFCAC03120B8D966F
:101B03002B00120B8D7CAD03120B8D83AF03120BD5
:101B13008D65B103120B8D24B403120B8D50B403E6
:101B2300120B8D70B403120B8DD3B403120B8D11F2
:101B3300B503120B8D3DB503120B8D77B503120B55
:101B43008DB2F803120B8DE2F803120B8D34F903F7
:101B5300120B8DC2B503120B8DCCB503120B8DF492
:101B63002A00120B8DB7B603120B8DDAB603120BD4
:101B73008D7AB703120B8D42BA03120B8D50BA0341
:101B8300120B8DA3BA03120B8DC9BA03120B8D214D
:101B9300BB03120B8D91BB03120B8DE4BB03120B22
:101BA3008D4DBC03120B8D7BBC03120B8DF9BC0353
:101BB300120B8D59BD03120B8D98BD03120B8DAA09
:101BC300BD03120B8DBCBD03120B8DDBBD03120BCA
:101BD3008D7DBE03120B8DB7BE03120B8DF9FE0371
:101BE300120B8D46F503120B8DA5F503120B8DCE4B
:101BF300F503120B8DC4F603120B8D008003120B39
:101C03008DDF8003120B8D1B8103120B8DC48203A6
:101C1300120B8D068303120B8DB18403120B8DF50A
:101C23008403120B8DBD8503120B8D4A8603120BA1
:101C33008DDB8603120B8D318703120B8D718703A6
:101C4300120B8D178903120B8DBC8A03120B8D0A9D
:101C53008D03120B8D188D03120B8D808D03120BC8
:101C63008DBC9003120B8DD97F00120B8DEF7F007B
:101C7300120B8DF18404120B8DF19A03120B8D0458
:101C83009B03120B8D919B03120B8DCC9B03120BA9
:101C93008DE79B03120B8D0C9C03120B8D409C0351
:101CA300120B8D719C03120B8D909D03120B8D866D
:101CB300F303120B8DF3F303120B8D0FF403120BCB
:101CC3008D51F403120B8D7AF403120B8D12F5036D
:101CD300120B8D2BF503120B8D43F503120B8DFDA8
:101CE3009003120B8D1F9103120B8DD89103120BCE
:101CF3008D0A9303120B8D1E9403120B8DAD950366
:101D0300120B8DAC9603120B8D6C9903120B8D8401
:101D13009903120B8DC29A03120B8DEF7200120BF3
:101D23008D3A7300120B8D267400120B8DD974003B
:101D3300120B8DEE7400120B8D387500120B8D870C
:101D43007500120B8D9A7500120B8DE67500120B40
:101D53008DFA7500120B8D347600120B8D467700C9
:101D6300120B8DA97700120B8DB87700120B8DF92A
:101D73007700120B8D2D7800120B8D8D7800120BCE
:101D83008DAB7800120B8D257900120B8DB17A0083
:101D9300120B8DD37A00120B8D087B00120B8D333F
:101DA3007B00120B8D437B00120B8D4F7B00120BBC
:101DB3008D527B00120B8D9E7B00120B8D3D7C00A0
:101DC300120B8D627C00120B8D857C00120B8D959E
:101DD3007C00120B8D097D00120B8D247D00120BEC
:101DE3008D467D00120B8D817D00120B8D907D0041
:101DF300120B8DA48404120B8DBC8404120B8D3042
:101E0300C703120B8D7FC703120B8D21C903120B5E
:101E13008DCDCA03120B8D15CB03120B8D4CCC0346
:101E2300120B8DD9CD03120B8DFBCD03120B8D4DF0
:101E3300CE03120B8DCFCE03120B8D3EE602120B97
:101E43008D5FE602120B8DE5E602120B8D39E70278
:101E5300120B8DBAE702120B8D16E802120B8D627C
:101E6300E802120B8DD5E802120B8D59E902120B11
:101E73008DCFE902120B8D11EA02120B8D3BEE029C
:101E8300120B8D04F002120B8DFFF002120B8D4723
:101E9300F102120B8DD7F202120B8D4DF502120BCC
:101EA3008DDCF502120B8D17F702120B8D55FA021A
:101EB300120B8D65FA02120B8DB5FB02120B8DE12D
:101EC300FB02120B8D00FD02120B8D50FE02120B52
:101ED3008D02FF02120B8D3BE701120B8DF3E7011D
:101EE300120B8D7CE801120B8D2DE901120B8D0D68
:101EF300EA01120B8D82EA01120B8D3DED01120BEB
:101F03008DEEED01120B8D3EEE01120B8D0EF001E5
:101F1300120B8DC8F001120B8D2FF101120B8D9254
:101F2300F201120B8D39F401120B8DA2F501120B84
:101F33008D3FF601120B8D07F701120B8D3E8204C4
:101F4300120B8D778204120B8D7C8204120B8DA7EA
:101F53008204120B8DABFD01120B8D15FE01120BCA
:101F63008DCEFE01120B8D34FF01120B8DB9E703E9
:101F7300120B8D12E803120B8DA1E903120B8D498D
:101F83008304120B8D938304120B8DFDF603120B46
:101F93008D0BF703120B8D2D8604120B8D97810485
:101FA300120B8DA78104120B8DC58104120B8D2694
:101FB3008204120B8DC9FC03120B8DF0FC03120B70
:101FC3008D75FD03120B8DCEFD03120B8DDD9D036D
:101FD300120B8DE7FD03120B8D09FE03120B8D739C
:101FE300FE03120B8D7EFE03120B8DC2FE03120B3A
:101FF3008D2AD403120B8D38D403120B8D79D4039D
:10200300120B8D93D403120B8DE4D403120B8DE5C5
:10201300D503120B8D0AD603120B8D27D603120B91
:102023008D44D603120B8D69D603120B8DA2D603F2
:10203300120B8DE0D603120B8D57D703120B8DF3C2
:10204300D703120B8DA8D803120B8DB6D803120B2E
:102053008D30D903120B8DECD903120B8D77DC0372
:10206300120B8D3EFA03120B8D77FA03120B8D942C
:10207300FA03120B8DF2FA03120B8D57FB03120BAB
:102083008D03CF03120B8D70CF03120B8D2AD00358
:10209300120B8D97D003120B8DBDD103120B8D3014
:1020A300D303120B8D94D303120B8DE0D303120BC6
:1020B3008DE9D303120B8DF8D303120B8D0BD403CD
:1020C300120B8D21D403120B8D57F801120B8DAA1D
:1020D300F801120B8D1EFB01120B8D50FB01120B2D
:1020E3008D72FB01120B8D8BFB01120B8DA4FB0177
:1020F300120B8DD6FC01120B8D6CFD01120B8DB7EB
:10210300F103120B8DE9F103120B8DF5F103120BA1
:102113008D28F203120B8D51F203120B8D7FF20304
:10212300120B8DFCF203120B8D2BF303120B8D3B61
:10213300ED03120B8D61ED03120B8D9EED03120B5C
:102143008DB0ED03120B8DCCED03120B8D3AEE0324
:10215300120B8D43EE03120B8DA2EE03120B8DC6F1
:10216300EE03120B8D85EF03120B8D92EF03120B0F
:102173008DA3EF03120B8D94FF02120B8DE1FF026F
:10218300120B8D5CE003120B8D84E103120B8D9116
:10219300E103120B8DB0E103120B8DC6E103120BA9
:1021A3008DDAE103120B8D54E203120B8DD2E2039D
:1021B300120B8D4BE303120B8D93E303120B8DA3D1
:1021C300E303120B8DFE8004120B8D228104120B8C
:1021D3008D4A8104120B8D728104120B8D9B7D003D
:1021E300120B8DB47D00120B8DC07D00120B8DD4AC
:1021F3007D00120B8DF27D00120B8DFC7D00120B06
:102203008D067E00120B8D197E00120B8D4D7E0004
:10221300120B8D867E00120B8DB77E00120B8D057F
:102223007F00120B8D527F00120B8D6D7F00120BFE
:102233008D777F00120B8D887F00120B8DCE7F0070
:10224300120B8D3C8504120B8DDDBE03120B8D0921
:10225300BF03120B8D25BF03120B8D38BF03120B67
:102263008D4EBF03120B8DBEBF03120B8DF1BF0347
:10227300120B8D4BC303120B8D81C403120B8DB450
:10228300C403120B8D19C503120B8D08C603120B61
:102293008D30C603120B8D45C603120B8D55C60335
:1022A300120B8D99C603120B8DEEC603120B8D0410
:1022B300C703120B8D96FB03120B8DB1FB03120B9D
:1022C3008DDAFB03120B8DF4FB03120B8D19FC0348
:1022D300120B8D38FC03120B8D50FC03120B8D7EF9
:1022E300FC03120B8D98FC03120B8D9D9D03120BA7
:1022F3008DDCDC03120B8DE3DC03120B8DEFDD03AE
:10230300120B8D1FDE03120B8D45DE03120B8D782E
:10231300DE03120B8D8ADE03120B8DC4DE03120B58
:102323008D2ADF03120B8D63DF03120B8DAFDF03E7
:10233300120B8DDCDF03120B8DFCDF03120B8DD12F
:10234300EF03120B8DE9EF03120B8DCCF003120B8D
:102353008D008004120B8D578004120B8D94800422
:10236300120B8DD58004120B8DB2E303120B8DD1AA
:10237300E303120B8D1CE403120B8D38E403120BE1
:102383008D70E403120B8D7DE403120B8D9AE4032D
:10239300120B8D7DE503120B8DB4E503120B8D6BD0
:1023A300E603120B8D76E603120B8D88E603120B00
:1023B3008D91E603120B8D9BE603120B8D42EA030C
:1023C300120B8D23ED03120B8DBE8204120B8D00B5
:1023D3009E03120B8D969E03120B8DDB9E03120B35
:1023E3008D1B9F03120B8D969F03120B8D1CA00355
:1023F300120B8DBA8504120B8DD28304120B8D84BC
:102403008504120B8DE78504120B8D0F8604120BC6
:102413008D4F8404120B8D23DF02120B8DE4DE0239
:10242300120B8DB3DE02120B8D95DE02120B8D277C
:10243300DE02120B8DE1DD02120B8D4CDD02120B5D
:102443008D342B00120B8D34AD03120B8D9BDC02EC
:10245300120B8D8EDC02120B8DD22A00120B8DB360
:102463002A00120B8D63D902120B8DFBD602120BBD
:102473008D9BD502120B8DF4D402120B8D1FD30248
:10248300120B8D66D102120B8DEDD002120B8D91C2
:10249300D002120B8D34D002120B8D0AD002120B14
:1024A3008DFECD02120B8DCACD02120B8D83CD0290
:1024B300120B8D58CD02120B8DAECC02120B8D6117
:1024C300CC02120B8DCFCA02120B8DCCCA02120B97
:1024D3008DDEC902120B8DAAC902120B8DE5C8024B
:1024E300120B8D802A00120B8D09E602120B8DEB65
:1024F300E502120B8DF0E402120B8D55E402120B70
:102503008D18C702120B8DCBC602120B8D9CC6020F
:10251300120B8D99C602120B8D18E302120B8D8CD0
:10252300C602120B8D52C602120B8D44C602120B49
:102533008DFAC402120B8D76C402120B8D062B008A
:10254300120B8D10B603120B8DD9E002120B8D3CCA
:10255300C402120B8DE0C302120B8DB3C302120B24
:102563008DC0C002120B8D7EC002120B8D72C00291
:10257300120B8DD2BF02120B8D09BF02120B8D59A4
:10258300BC02120B8D85B902120B8D46B902120BD8
:102593008DE5B702120B8D91B702120B8DD5B602E2
:1025A300120B8DA8B602120B8DFFB502120B8D987C
:1025B300B502120B8DD2B502120B8D57B502000076
:1025C3000080FBE4730001363601010001020100C3
:1025D30001030100010401060605020000070100D2
:1025E300340801000F090401010D0100FF0E08006A
:1025F3000017020000190100FF1A0100011B01006E
:10260300051C0100081D0200001F0100012001003C
:1026130001210200002301000F2402000026010013
:102623000127010308280200FF2A0100072B0102EA
:10263300402C0100002D0100012E0100012F01009B
:10264300FF30010B1C310800003A01000800202074
:10265300202020202020202828282828202020204F
:10266300202020202020202020202020202088100F
:10267300101010101010101010101010101004046F
:102683000404040404040404101010101010104176
:1026930041414141410101010101010101010101E7
:1026A300010101010101010101101010101010427C
:1026B30042424242420202020202020202020202B7
:1026C3000202020202020202021010101020030290
:1026D3007102300160021102700201020202020261
:1026E3008002100261023A00410063027302720227
:1026F30062024302000213023800000200020402D5
:102703001202000200020002000204020402370067
:1027130037003C0244020002390000020002650255
:1027230000023502810200020502820283020002D6
:1027330001017101010101011101010131010101D6
:1027430001018001100161013B0014006301730169
:102753007201620143010001130106013D013500CD
:102763000401120100010001000100010401040140
:10277300330133013C014401320136000001000101
:10278300650100013500810100010501820183011A
:1027930000010103710301030103010301030103A9
:1027A30022030203010310030003000300030003D9
:1027B3000003000300034203000324030603000392
:1027C3000003040312032503230325032303040344
:1027D3000403000300030003440300030003230373
:1027E3000003650321003503810300030503000390
:1027F3000003000303047104020460041104700461
:102803000204020401040204100461040004140419
:10281300630473047204620443040004130406048F
:10282300000400040404120400040004000400046F
:102833005104640000040004000444040004000480
:1028430000040004650400043504810464000504E5
:1028530000048304000403007100300160001100D0
:10286300700031022003500480001000610000005A
:102873001400630073007200620043000000130041
:102883000600000000000400120000000000000029
:10289300000004000400370037003C02440000003D
:1028A300000000000000650000003500810000000A
:1028B3000500000083000000360001000600000050
:1028C3000F0000000000000000000000000003FFF4
:1028D300FF00000403FFFF0000FFFF0FF4010005EA
:1028E300C4040320000100000B00000000000000EE
:1028F3000003010000F51E13008F1E0100F51E02E8
:1029030000591E03005F1E0400651E05006B1E06B2
:1029130000771EFFFF0000012915065915085315FE
:102923000B651510BD14022F150547150735150C3A
:1029330017150D2315FF0000030003000400080012
:1029430010001F003E007B00F600EC01D703AF0729
:102953005D0FB91E713D0000371967193D19431901
:10296300611955194F196D19731979198519491970
:1029730031192B19D5C5C5B5A5A59585857575657A
:1029830065555545453535252515059C36063A705B
:102993003DD9404344AD47174B814EEA5100160FD2
:1029A30000000B150B020002220F320000065677BF
:1029B3007777777777777777777777777777000191
:1029C30002030405060708090A0B0C0D0E0F1B1A58
:1029D3002D1A331A0119391AFB1807198D1AAB1A54
:1029E300B11A931A9F1A991A3B1835187118771848
:1029F3006B18231800383C3E363B3B352B432C00E9
:102A0300034948424D1817250502000119161816E7
:102A13001615230300303016181920231A1C1E30F4
:102A23000C0E020B040B0A0708000F30301718199D
:102A330021301B1D1F30811A3F1A451A511A4B1A98
:102A43005B197F19A51A8B19911947184D1841184D
:102A53007D180005150D0910080400000000000092
:102A63005318651800BE040A150004000E00092857
:102A73000C0308090001040510080C080F74F61272
:102A8300095774FF120F72E4851082851183F08554
:102A930082088583097808120EB27508017509004A
:102AA3007808120EB21243B2120EFA740102419B5D
:102AB30074F61209578C088D097808120EB275083E
:102AC3000B7509007808120EB21243B202419B74CF
:102AD300F61209578C088D097808120EB275080B87
:102AE3007509007808120EB21243BD1242C60241A4
:102AF3009BC082C0838A828B83E0D2E7F0121DC918
:102B0300024A8EC082C0837900122B8EC082C0839A
:102B1300900530125B58D083D082C3E09CA3E09D24
:102B2300500C1250BDFAA3E0122BFF600109024AB8
:102B33008E74F7120957122B8E122D3AAEF075F0E0
:102B43000BEDA42EFD900532E02CFEA3E03DFF74B7
:102B53000169600574026970208A828B83A3125C09
:102B6300BA126C987402697018122FBA1230CA70B4
:102B730010E48E828F83F08008EA2403FCEB12308A
:102B8300B2EEFAEFFB121B5F023D7312635FEB12AF
:102B93005F5A2274F41209578A088B09125CC079B0
:102BA300008A828B83E0604E7E007F008043122B7D
:102BB300FC703B122D86F50AA3E039F50B850882DC
:102BC300850983E08C82850B83124771F8A3E0F9B2
:102BD3008C82850B831230D2FCE509123048123007
:102BE300BA125F5FAA0AAB0B121B5F1261EC1235BC
:102BF30028122FC240B802476CEEFAEFFBEA75F0D9
:102C03000BA4FAACF075F00BEBA42CFB900532127D
:102C13007058F583E0540F2274F51209578A088B14
:102C230009740B1211AB1261F1750A01EC7001ED1D
:102C33006026EC1231A0ED124D937901122441EE7E
:102C43007001EF606E8E828F83A3125CC87902EEEF
:102C5300FAEFFB122441805BEE7001EF6031123119
:102C63009FEF124D93EE2403FAEF1230C4700CAAB7
:102C730008AB09121AFFE9F50A80CAE5082403FA2A
:102C8300E5091230C4702C7903AA08AB0980C48A01
:102C9300828B83A3E064FE7004A3E064FF700512DB
:102CA30030C1700CAA08AB09121AFFE9F50A8003B8
:102CB300750A00023DF674F7120957900530125059
:102CC30050EA7001EB6031EA75F00BA4FAACF075D1
:102CD300F00BEBA42CFBEAFEEBFF121BEF9005328B
:102CE300125050900532E07002A3E06012EEFCEF48
:102CF300FD7900121B658007900532E4F0A3F00212
:102D03003D7374F6120957750800750900780812A7
:102D13000EB2900530122D3AAAF075F00BEDA42AED
:102D2300FD7A237B00121C557402120EFAE9FE6031
:102D3300031211DB02417B125B5CEC75F00BA4FC0C
:102D43002274F71209577E007F00800AEEFAEFFB28
:102D53001224E3123528122DDA40F1023D7374F781
:102D63001209577E007F008012122D86FCA3E039E2
:102D7300FDEEFAEFFB122459123528122DDA40E941
:102D8300023D73EEF8EFF9122DC7E0282274F71213
:102D930009577E007F008020122DC3125D2D88828B
:102DA3008983E0A2E7500EC2E7F0AC82AD83EEFA6E
:102DB300EFFB12245F123528122DDA40DB023D733C
:102DC300EEF8EFF9E875F00BA4F8AAF075F00BE94B
:102DD300A42AF990053222900530124DB4C3EE981F
:102DE300EF9922C082C083EC7001ED60051223636A
:102DF30080097C087D007900121B65024A8E74F6F7
:102E03001209577900EA7001EB60177C008C08EA1D
:102E130025081261E5600479017C080CECC3940871
:102E230040EB02419E74F712095774F3120F72ECD0
:102E3300FEEDFFE4851082851183F074011211AB5E
:102E43001243E912121174031211ABAC82AD83EE7B
:102E5300FAEFFB1211EDEEFAEFFB1211F3023D6EE6
:102E630074F712095774F3120F72ECFEEDFFE48549
:102E73001082851183F0EAFCEBFD74031211AB128F
:102E8300442074011211AB1231A4124D9D74FE68DB
:102E9300700374FF696004790180027900023D6E5A
:102EA30074F7120957EAFEEBFF122EF17010122E7F
:102EB300FC64FFFC8A828B83E05CF0121B5F02469A
:102EC300D674F7120957EAFEEBFF7508008E828F5E
:102ED30083E06017122EF17012122EFC8A828B830C
:102EE300FCE05C7006E04CF0121B5F0246D6122534
:102EF3003DE9F5087401650822EE126360EF124D97
:102F0300B0122DC7E028FAA3E039FB8E828F83E04D
:102F13002274F41209578A088B097C007D00122F52
:102F2300BA1230BAE5081231A0E509125CC479007F
:102F3300850882850983A3E064FE7004A3E064FF2F
:102F430060727E007F008067122BFC605FEEFAEFF9
:102F5300FBEA75F00BA4FAACF075F00BEBA42CFBB9
:102F6300900532E02AF50AA3E03BF50B850882853C
:102F73000983A3125CAF850A82850B83A3E06A7081
:102F830003A3E06B7026E50A2403FAE50B1230C4B1
:102F93007014E50A2403FCE50B3400FDE508240363
:102FA300FAE5091230BA125F5F1261EC123528128A
:102FB3002FC2409402476CEA24030A0A0AEB2290C8
:102FC3000530125CB6C3EE9AEF9B2274F2120957D6
:102FD3008A0A8B0B8A828B83A3125CC8125CC0752E
:102FE30008001230C170597E007F00804E122DC33D
:102FF300127049E0540F6040122D86F50CA3E0399E
:10300300F50DE50C2403FCE50D1230483400FB12EA
:10301300235DE964017021850C82850D83A3125B16
:1030230051850A82850B83A3E8F0A3E91253651245
:103033005F6A7508011261EE123528122DDA40AD70
:10304300A90802400B3400FDE50A2403FAE50B222C
:1030530074F5120957EAFEEBFF8E828F83A3125C8D
:10306300C87C007D00EE24030A0A0A1230B9EEFA86
:10307300EFFB12253DE9F50A7401650A702E12462D
:10308300DB125B51122D8AF508A3E039F509850897
:1030930082F583A31231A41230D2FAE5091230C4A7
:1030A300700AE5082403FCE5091230B2023DF63448
:1030B30000FDEE2403FAEF3400FB1211ED22122F70
:1030C300BA1230CA6401223400FB1211F3E922A3BD
:1030D300E8F0A3E9F0E50824032274F21209577417
:1030E300E6120F72EAFEEBFF12319FEF125CC4751A
:1030F3000801750A00750B00750C00750D00E48559
:103103001082851183F0EE2403FCEF3400FD740379
:103113001211AB1245C76401702D740B1211AB125F
:103123004FFF1231A0EF124D9A74011211AB1231FD
:10313300A4A3E0687003A3E069605385108285113E
:103143008385820A85830B740D1211AB1231B2127F
:103153005B51740E1211AB124D9D740D1211ABAA7B
:1031630082AB83121211E96401700B740D1211AB5F
:1031730085820C85830D780C120EB2AC0AAD0BEE72
:10318300FAEFFB1211C97402120EFAE9F508EEFA0E
:10319300EFFB12120BA908741A024008EE126360C7
:1031A300221231A822E0F8A3E0F98E828F8322E471
:1031B3001231B722F08E828F83A322C082C0831282
:1031C30031E0EC75F012A4FCAAF075F012EDA42A1C
:1031D300FD79FF7ADB7B17121B65024A8E902A6BFF
:1031E300E493FC740193FD2274F7120957E9FEEA94
:1031F300FF7C007D0078007900802DE8FAE9FBEA86
:1032030075F012A4FA85F00875F012EBA4250812E4
:103213003659C39E400FE0FAEFC39A4008EC2401ED
:103223000CED3400FD123B5B902A6B123AE240CB6B
:10323300ECFAEDFB023D73C082C083780079008015
:1032430003123B5B902A6B123AE2500C1236436432
:10325300FF70EE1236E780047A007B00024A8E7418
:10326300F012095774F3120F728A0E8B0F8C088DAC
:1032730009890AEC7001ED6015AA08AB0912125F07
:103283008A0C8B0DAE0CAF0DEE7001EF704B12126A
:10329300358A0C8B0DA80CA90DE8FEE9FFE8700137
:1032A300E960367401851082851183F01211ABE554
:1032B3000EF0A3E50FF0AC08AD0974031211AB12C5
:1032C30033FC740B1211AB1249B2124D9D123378B9
:1032D300AA0EAB0F12177B8006EE7001EF60727AB5
:1032E30000E50A6007C3940550027A048E828F8337
:1032F300E50EF0A3E50F123CFBE50AF0EA8E828FA0
:1033030083A3A3A3A3A3F074028E828F83A3A3A397
:10331300A3A3A3A3A3F074018E828F83A3A3A3A368
:10332300A3A3A3A3A31268A5A3F0EE2410123371E1
:10333300E4F0A31247FDA3A3F01246DBE4F0908A66
:10334300767808121132EE240C12337178081211B8
:1033530050123593400EE4901C66F07A667B1C791C
:103363004112237BEEFAEFFB026C1EEE240DF58275
:10337300EF125F5A22E48E828F83A3A3A3A3A3A396
:10338300F0900580125B5C2274F212095774F312F9
:103393000F72EAFEEBFF8C088D09750A00AA08ABD1
:1033A3000912125F8A0C8B0DA80CA90DE87001E9B4
:1033B300604088828983E06E7003A3E06F60338886
:1033C300828983A3A3A3A3E0C3940550258882899C
:1033D30083125F6A7401851082851183F01211AB29
:1033E300125F6AAC08AD0974031211AB1233FC759A
:1033F3000A01A90A740D02400812442B1212232257
:1034030074F61209571257B87001E960148882895B
:1034130083A3A3A3A3E06009C394055004790180A7
:1034230002790002419E74F61209571257B87001CF
:10343300E9601488828983A3A3A3A3E06009C394EA
:1034430003500479018002790002419E74F6120947
:10345300571212598A828B83E5827002E583600BCF
:10346300A3A3A3A3E0700479018002790002419E23
:10347300C082C083EAFCEBFD7A007B001212650276
:103483004A8EC082C0837C007D0080F074F41209F0
:103493005774F3120F728A0A8B0B8C088D097E0006
:1034A3007F0080211239FA1211AB12352D6013748B
:1034B300031211ABAC82AD83AA0AAB0B12235DE9F5
:1034C300703812352812351F504912389860F3E5C9
:1034D3000A7002E50B70CD74FF6508700474FF6514
:1034E3000960DFEEF8EFF9E875F012A4F81239E39A
:1034F30065087004A3E0650970C8EE75F012A4FEB8
:10350300AAF075F012EFA42AFFEE24DBFAEF3417CA
:10351300FB80047A007B00740D024769902A6B12CA
:1035230040B1022DE1123884FF22E8F0A3E91244EE
:103533004512121DE92274F412095774F3120F7223
:1035430075080012125F8A0A8B0BAE0AAF0BEE707E
:1035530001EF602A74018510828511831249E4F812
:10356300A3E0F9740B1211AB12443D1212057C1245
:103573007D0079FFEEFAEFFB121B6575080112352A
:103583009350097401901C66F012165BA90880879A
:103593007A04790012122F902A6B1240B1EA98EB49
:1035A300992274F7120957E9FE74FE6A700374FFD7
:1035B3006B7800790070058059123B5B902A6B127F
:1035C3003B4E504EE8FCE9FDEC75F012A4FCAFF065
:1035D30075F012EDA42F126C30ED1238B060DAE8FA
:1035E300FCE9FDEC75F012A4FC75F012EDA42FFDBF
:1035F300EC24DBF582ED3417F583E06A7003A3E076
:103603006B70B6800A1236436005C39405401A12E4
:103613003B5B902A6B123AE2501FEE70E81236437E
:1036230064016005E0640370E6E875F012A4F8AA8B
:10363300F01239EA125CAD80047AFE7BFF023D731F
:10364300E8FAE9FBEA75F012A4FAACF075F012EBB4
:10365300A42C12365922FBEA24DFF582EB3417F54A
:1036630083E022121271024A8EC082C083790180E4
:10367300F274F01209578A0E8B0F7A047901121231
:103683002F8A08AE08EE7001EB6044EAC333FAEB0D
:1036930033FB121BEF8A0A8B0B8A088B09EA700132
:1036A300EB60287AFE7BFF12127774FE6A70037454
:1036B300FF6B6021850A82850B83125050E50A2433
:1036C30002F50AE50B3400F50B80DC7E00800675FD
:1036D3000800750900EE850E82850F83F0AA08ABFA
:1036E30009026C23E875F012A4F8AAF075F012E948
:1036F300A42AF9E824DBFAE93417FB2274F6120949
:10370300577508007509007808120EB2902A6B12DB
:1037130041AF7403780812108912388C7B00121C95
:10372300557402120EFAE9FE600312128902417BFC
:1037330074F612095774FE120F721241DC02417FB4
:1037430074F612095774DF120F727E00851082859A
:1037530011838582088583097808120EB2750802E1
:103763008E097808120EB27C007D001242C4120E3C
:10377300FAE960030238018079740F1211AB858274
:10378300088583097808120EB27508087509007850
:1037930008120EB28E087403780812108974022579
:1037A30008FCE43509FD1242C4120EFAE9704274B2
:1037B300021211AB7401F074111211AB125B51744C
:1037C3000D1211AB124D9D74021211ABAA82AB8381
:1037D30012121DE9601B74131211ABE0F974051288
:1037E30011ABAC82AD83740F1211AB125CAF12122A
:1037F3003B0E8E081242B6E499500302377CEEF971
:10380300742102419B74F612095774FE120F7285DC
:103813001082851183E4F0A3F0FE804E1238986085
:1038230046EEF8EFF9E875F012A4F875F012E9A482
:103833002AF9E824DBF508E93417F5097808120EAC
:10384300B27508087509007808120EB274041211D3
:10385300AB1240187403780812108912388C124383
:10386300B5120EFA1243A2123884FF12351F40AC70
:103873008510828511838582088583097808024132
:103883007FEE24010EEF34002274022508FCE43598
:1038930009FD7A2222EEF8EFF9E875F012A4F8AAEE
:1038A300F075F012E9A42AF9E8126C32E9123660D5
:1038B30064FF2274F71209577A007B00800919EA22
:1038C30024010AEB3400FB1231E0C3EA9CEB9D5068
:1038D3003AEAFCEBFDEC75F012A4FCAEF075F012C5
:1038E300EDA42E126C30ED123660C3940550D0E96E
:1038F30070CCEA75F012A4FAACF075F012EBA42CBC
:10390300FBEA24DBFAEB3417FB80047A007B00022A
:103913003D7374F712095774F3120F727E007F0020
:103923000239B2E508125F3A125CADEEF8EFF9E83E
:1039330075F012A4F8ACF075F012E9A42CF9E812B2
:1039430069E06A7003A3E06B6044E50875F017A4AF
:10395300F8AAF0EAF9E82455F582E93419F5831257
:1039630045421211ABE0687003A3E0696020E508EB
:1039730075F017A4F8EAF9E82457FCE93419FD7443
:10398300031211ABAA82AB8312235DE96011E50830
:1039930075F017A42455FAE5F03419FB12178705BF
:1039A30008902A7512612350030239261235281212
:1039B300351F5029EEF8EFF9E875F012A4F8AAF0D4
:1039C3001239E364FF7004A3E064FF60DF1239FA85
:1039D3001211AB12352D60D475080080C4023D6E00
:1039E3001239EAF583E02275F012E9A42AF9E824F2
:1039F300DBF582E93417227401851082851183F087
:103A0300EEF8EFF9E875F012A4F875F012E9A42ABC
:103A1300F9E824DDF582E93417124DB2740B2274F0
:103A2300F61209571241A3FC740193FDEC8508F0CB
:103A3300A4CCAAF08509F0A42AFA8508F0EDA42AFB
:103A4300FD79FF7A227B1C121B6590053574B9F052
:103A5300A37412F090053774B3F0A37412F09005B9
:103A63003974DDF0A37412F090053B74EFF0A37486
:103A730012F090053D74F5F0A37412F090053F74B5
:103A8300FBF0A37412F09005417401F0A37413F0DA
:103A9300E4900534F002419EC082C083780079002F
:103AA3008003123B5B123ADF501CE8FAE9FBEA752C
:103AB300F00EA4FAACF075F00EEBA42C123AD07011
:103AC300E1123F4C80047A007B00024A8EFBEA2419
:103AD30022F582EB341CF583E064FF22902A6DE427
:103AE30093FA740193FBC3E89AE99B2274F71209D2
:103AF300577A007B00780079008045E8FCE9FDEC0B
:103B030075F00EA4FCAEF075F00EEDA42EFDEC24C2
:103B130022F582ED123AD76024E8FCE9FDEC75F05A
:103B23000EA4FC75F00EEDA42EFDEC2427F582ED1A
:103B3300341CF583E0FCEA2CFAEB3400FB123B5B0C
:103B4300902A6D123B4E40B3023D73E493FC740123
:103B530093FDC3E89CE99D22E8240108E93400F9B8
:103B63002274F112095774FC120F7274021211AB12
:103B7300125050890E8C088D0B7E007F0012131992
:103B830074021211AB125CAF12131F12504A74026B
:103B93001211AB1257F97007750A018E0980058E51
:103BA3000A850809851082851183E064FE7004A3E9
:103BB300E064FF7003023CD18E088002050885088B
:103BC3000C902A6D126C684003023C64A808E875E7
:103BD300F00EA4A9F0124043650E70E0E875F00EF4
:103BE300A4124010650A70D4125B4BE50875F00E01
:103BF300A42424F582E5F0341CF583E0687003A364
:103C0300E06970B8A808E875F00EA4A9F02426F5B9
:103C130082E9341CF583E0650970A1E875F00EA410
:103C23002422FEE9341CFF750800E508C3950B4008
:103C330003023CD1E508C333F8E433F974131211DA
:103C4300AB123CEA1212C5E97013E508C333F8E47A
:103C530033F974131211AB123CEA1212D105088026
:103C6300C91212AD8A0C8B0DAE0CAF0DEE7001EFC5
:103C7300605C8E828F83E50EF0A3E50A1249CD8E38
:103C8300828F83A3A3E8F0A3E9123CFBE509F0903C
:103C93002A79E493C3950B5004E493F50B8E828F3A
:103CA30083A3A3A3A3A3E50BF074131211AB1240D8
:103CB30018750A007808120EAEE50BC333FCE43323
:103CC300FDEE2406FAEF3400123CE3120EFAEEFA8C
:103CD300EFFB740480027412120EFA7F07020BB416
:103CE300FB121B5974032212704D123CF122E0FCAB
:103CF300A3E0FDEEFAEFFB221231B7A3A3A322C088
:103D030082C083902A6F1231E379FF121B65790118
:103D1300024A8E74F7120957EA7001EB60498A82EE
:103D23008B83A3A3A3A3A3A3E5827002E5836037D8
:103D33007E0080010E8A828B83A3A3A3A3A3E0FF4B
:103D4300EEC39F5022EEC333F8E433F9EA28F58239
:103D5300EB39F583A3A3A3A3A3A3E06C7003A3E0B0
:103D63006D70D17901800279008005740D120EFA0D
:103D73007F01020BB474F5120957EA7001EB605F1F
:103D83008A828B83A3A3A3A3A3E06063EA2406F838
:103D9300EB3400F98A828B83A3A3A3A3A3E0F509E1
:103DA300750800800DEA2405F582EB125CA2603FE2
:103DB3000508E508C395095026E508123E3EE06C68
:103DC3007003A3E06D60DE123E441261F1888289C4
:103DD30083125F6AE824020808E93400F980D18A73
:103DE300828B83A3A3A3A3A3E06004790180027958
:103DF300008002A90A7F03020BB474F7120957EA81
:103E03007001EB60318A828B83A3A3A3A3A3E0C0D9
:103E1300E0902A79E493FED0E0C39E5019EA24058A
:103E2300F8EB1271B3123E3E126C9888828983E0DC
:103E330004F0790180027900023D73C333FEE43359
:103E4300FF127061026C8174F41209578908EAFE4B
:103E5300EBFF8C098E828F83A3A3A3A3A3A3A3A3A6
:103E6300E0640170098E828F83125B5880031240D5
:103E73004E74FE6C700374FF6D70077A007B000252
:103E83003F0C780079008014123F0F6401700A120E
:103E93003F2D7003A3E06D606D123B5B123ADF5060
:103EA300DAE8FAE9FBEA75F00EA4FA85F00A75F090
:103EB3000EEBA4250AFBEA2422F582EB341CF583DE
:103EC300E0650870D48E828F83A3A3A3A3A3A3A3C7
:103ED300A3E0640160B2123F0F70BE123F2D700366
:103EE300A3E06D70B4E8FAE9FBEA75F00EA4FA7585
:103EF300F00EEBA4250AFBEA2426F582EB341CF52D
:103F030083E065097093123F4C02476CE8FAE9FBC2
:103F1300EA75F00EA4FA75F00EEBA4250AFBEA2469
:103F230023F582EB341CF583E022E8FAE9FBEA751A
:103F3300F00EA4FA75F00EEBA4250AFBEA2424F58F
:103F430082EB341CF583E06C22123F5022E875F0BB
:103F53000EA4F8AAF075F00EE9A42AF9E82422FACF
:103F6300E9341CFB2274F21209578A0A8B0B8A82EA
:103F73008B83A3A3A3A3A3A3A3A3E0640170098AD0
:103F8300828B8312401880071213078A088B0974E7
:103F9300FE6508700474FF650960687E007F008019
:103FA3005A850A82850B83A3A3A3A3A3A3A3A3E098
:103FB30064017041EEF8EFF9E875F00EA4F8AAF089
:103FC30075F00EE9A42AF9E812401064017029EE95
:103FD300F8EFF9E875F00EA4F875F00EE9A42AF9E4
:103FE300E82424F582E9341CF583E065087004A312
:103FF300E065097003124020123528902A6D1235AE
:1040030022409E8003120EFA7F06020BB42423F58E
:1040130082E9023F27E0F508A3E0F50922EEF8EF75
:10402300F9123F501212BF22EEF8EFF9E875F00EC5
:10403300A4F8AAF075F00EE9A42AF9E81240432285
:104043002422F582E9341CF583E0221213078A0A3D
:104053008B0BAC0AAD0B2274F3120957890CEAFEE1
:10406300EBFF750A00750B007508007509008029C0
:10407300E50875F00EA4F8AAF075F00EE5091240F4
:104083003B650C7011EEFCEFFDAA82AB831212C5E7
:10409300E960031241361240BA902A6D1240B1E52D
:1040A3000898E5099940C9AA0AAB0B024940E49371
:1040B300F8740193F9C322E5082401F508E50934EE
:1040C30000F5092274F1120957890EEAFEEBFF8C01
:1040D30009750800750A00750B0080050508124173
:1040E30036902A6D1269F2E50B995040E50A75F096
:1040F3000EA4F8AAF075F00EE50BA42AF9E8242221
:10410300F50CE9341CF50D850C82F583E0650E7022
:10411300CDEEFCEFFDAA0CAB0D1212C5E960BFE5B5
:1041230008C3950940B6AA0CAB0D80047A007B0046
:10413300023CDEE50A2401F50AE50B3400F50B2207
:1041430074F61209577508007509007808120EB243
:104153001241A312438775832A75826FE49328FC67
:10416300A3E49339FD7A417B00121C557402120EAD
:10417300FAE9FE60031212F5EEF9801F120EB27512
:1041830008027509007808120EB27C007D007A22BD
:104193001243B5120EFA7402120EFA7F02020BB426
:1041A300902A6F1241AF902A6DE49322E493F508AD
:1041B300740193F5092274F612095774FE120F72F3
:1041C3001241DC120EB27508027509007808120E4E
:1041D300B27C007D007A4180B7851082851183E42B
:1041E300F0A31243D385820885830978082274F4E7
:1041F30012095774E7120F727E007F0085108285C3
:1042030011838582088583097808120EB275080226
:104213008E097808120EB27C007D007A411242C6E4
:10422300120EFAE960030242AD8E08807574021221
:1042330011AB85820A85830B780A120EB2902A6F1E
:10424300120D171243751242C6120EFAE97050741A
:10425300101211ABAC82AD8374041211AB125CAFBC
:1042630012130DE9603974081211AB85820A858334
:104273000B780A120EB274091211ABE0FD74081226
:1042830011ABE0FC74121211ABAA82AB837404125B
:1042930011ABE0F91212B97402120EFA1235281298
:1042A30040BA1242B6E509994083EEFAEFFB74195E
:1042B300024769851082851183124DB4C3E50898BE
:1042C300227A227B00121C6174042274F5120957AE
:1042D30074F0120F72851082851183E4F0A3F0FE4F
:1042E300805712402B64FF604D85820885830975D2
:1042F3000A007808120EAE902A6F1231E374051289
:1043030011ABAA82AB83123CE4120EFA74021211AF
:10431300AB8582088583097808120EB2902A6F1242
:104323000D1774041211AB1240181243751243B5E2
:10433300120EFA1243A2123884FF902A6D1235220C
:1043430040A08510828511838582088583097808BA
:10435300120EB27508027509007808120EB27C00BD
:104363007D007A411243B5120EFA7410120EFA024E
:104373003DF8902A6FE493124387740228FCE439D2
:10438300FD7A4122F8740193F9E88508F0A4C8AADC
:10439300F08509F0A42AFA8508F0E9A42AF9228510
:1043A3001082851183E02401F0A3E03400F022128F
:1043B30043BD7B00121C5B740422EA75F00BA4FA64
:1043C300ACF075F00BEBA42CFBEAFCEBFD7A23229B
:1043D3001243D722F085108285118322A3A3E50817
:1043E300F0A3E509F022EAF0A3EB12444522C082D0
:1043F300C08374F3120F721245CC70128A828B83BE
:104403001245421211AB12443D121211800CEAFC08
:10441300EBFD74031211AB124420024A83124424AD
:104423002212442B12121722AA82AB831211ED859A
:104433001082851183AA82AB8322E8F0A3E9124498
:104443004522124449221243D780EA74F7120957CE
:1044530074F3120F72ECFEEDFF7404851082851164
:1044630083F0740B1211ABEAF0A3EB123531F508AC
:10447300601D74038E828F83A3A3A3A3A3A3A3A30B
:10448300F01211ABAC82AD83EEFAEFFB122363A9FA
:1044930008023D6EC082C08374F3120F72740485E8
:1044A3001082851183F0740B1211AB1243E91212BF
:1044B3001D7401024A85125CB6740D2274F612094A
:1044C3005774F3120F72900534E0706E7404851004
:1044D30082851183F09005731245421211AB124D80
:1044E3009D12161FEAFCEBFD74031211AB1233FC91
:1044F30012162B8A088B09A808A90974011211AB9B
:10450300E0687003A3E069602B74FE68700374FFB6
:1045130069602174011211AB124D9D74031211AB2A
:10452300AA82AB83121631851082851183AA82ABCE
:10453300831212237401900534F0740D02419B120F
:104543004DB4740122C082C08374F3120F721245FA
:10455300CC8A828B83701E1245421211ABE8F0A302
:10456300E9125D98705B851082851183AA82AB8303
:10457300121223804CA3A3A3A3A3A3A3A3E06403C6
:104583007010EAFCEBFD74031211AB1245C77031D6
:1045930080D48A828B83A3A3A3A3A3A3A3A3E0644E
:1045A3000170128A828B83125B51740B1211ABE878
:1045B300F0A3E9800B740B1211AB74FEF0A374FF2C
:1045C300F0024A83124424E922740485108285117F
:1045D3008312687FA3A3A3E064022274F512095730
:1045E300EAFCEBFD7A007B008A088A0978007900EF
:1045F3008003123B5B902A6DE493FE740193FFC327
:10460300E89EE99F5038E8FEE9FFEE75F00EA4FE40
:1046130085F00A75F00EEFA4250AFFEE2422F58239
:10462300EF123AD760CCAE08AF0974012EF508E457
:104633003FF509EC6E7002ED6F70B7123F4C023D0F
:10464300F8C082C0839005487441F0A37415F090BC
:10465300054A743BF0A37415F090054E7485F0A3DE
:104663007413F0024A8E74F7120957EAFEEBFF90B7
:104673000582E064086019E0640460148E828F830D
:10468300E0640170441246DB1257CCE064067039D3
:104693008E828F83A3A3E064FE7004A3E064FF60B3
:1046A300288E828F83A3A3126C717003A3E06970B9
:1046B3000BEE2415F582EF1261E860081215E3E9A9
:1046C300F50880081215E980F67508C2EEFAEFFBCB
:1046D300121BF5A908023D73EE240B125F572274D7
:1046E300F41209578A088B098A828B83E0F8A3E0C6
:1046F30028FAE43400FB121BEF8A0A8B0BAE0AAFD5
:104703000BEE7001EF6059850882850983E0FC7D1B
:10471300007900121B658E828F83A3A3125CC812DB
:1047230016258E828F83A3A3A3A3126017F8EE2806
:10473300F8EF3400F91246DBE8F0A3E9124771C041
:10474300E012336ED0E0F0121637EE240E123371FE
:10475300E91249B8E0C0E0EE2411123371D0E0F061
:10476300EEFAEFFB8003120EFA7F04020BB4124938
:10477300BDE02274F412095774EB120F72EAFEEBD8
:10478300FF900544E07002A3E070687A077B001293
:104793001BEF900544125050900544E07002A3E0D3
:1047A300604D900544125B588F838E827407120EFE
:1047B3000E8E828F837808121132851082851183C1
:1047C30078081211508E828F83A3A3A3A3E0C0E0C5
:1047D30074051211ABD0E01247FDE0C0E07404127F
:1047E30011ABD0E0F074071211AB12494580067982
:1047F3001080027901741502476912480122F08E74
:10480300828F83026C81C082C083900544E0700272
:10481300A3E0600D90054412612B900544E4F0A3DE
:10482300F012155F121727024A8E74F31209577498
:10483300EB120F72ECFEEDFF74221211AB7808122B
:10484300113274261211ABE0FC74271211ABE0FD98
:1048530074281211ABE0F50C740F6C7005740F6DB6
:104863006012901CCDE06402700579C102493BECF3
:10487300C39D40F69005837808121150E99005898D
:10488300F0EC900587F0ED900588F0E50C90058A33
:10489300F074FF6A700374FF6B701F901CDAE0649E
:1048A300FF7004A3E064FF7005121B77800C901C5B
:1048B300DA1249C6E8F0A3E98007900580EAF0A37D
:1048C300EBF0EE7001EF6017EEFAEFFB1217E7E97A
:1048D3006401700BEEFCEFFD7A947B051223639069
:1048E3000573E4F0A3F0900576F0A3F0900593F040
:1048F300901CCDE06402700A740F900587F0900558
:1049030088F07405900582F074041211ABE4F09002
:104913000583780812113285108285118378081275
:104923001150900589E0C0E074051211ABD0E0F09E
:1049330074071211AB1249457415120EFA7F050262
:104943000BB4E412494A2212444912238D22C08235
:10495300C083900543E07003121E89121355024A67
:104963008EC082C083900543E07007E4901C65F01D
:1049730080317401901C65F0900543E064FF60236F
:104983007C41E0C394415002E0FCECFAE0C39AF0AE
:10499300EC75F0E8A4CCAAF075F003A42AFD7A80A4
:1049A300126C8D7A657B1C794112237B024A8E122D
:1049B30031A8A3A3221249BDA322F0850882850949
:1049C30083A322124DB490058022126CA3F8A3E0B6
:1049D300F922C082C083EB90058AF012154D024A7A
:1049E3008E1231B7A3E02274F712095774F8120F2D
:1049F30072EAFEEBFF7900900582E064087040855F
:104A0300108285118374FD125CCA12161F74021280
:104A130011AB12505074051211AB1231B2E0C0E069
:104A230074041211ABD0E0124A47C0E074061211AD
:104A3300ABD0E0F074071211AB124DA312167974C8
:104A430008023D70F0022F0EC082C083900554749B
:104A530009F0A37414F09005EE74CDF0A37416F06E
:104A63009005587439F0A37414F090055A7409F042
:104A7300A37414F090055C743FF0A37414F0800BDE
:104A8300740B1211AB1244B9120EFAD083D0820206
:104A93000B8074F412095774F9120F728A088B0988
:104AA3008C0A8D0B8510828511837808121150743E
:104AB300041211ABE9F074051211ABE4F0740612A1
:104AC30011AB124DA312133D740702476974F4121C
:104AD30009578A088B098A828B831261F1EE700170
:104AE300EF7003024BEE900510E07002A3E0601537
:104AF3008A828B83A3A3E0F9EEFAEFFB90051012F1
:104B030057CC1225C68E828F83A3A3A3A3A3A3A3EB
:104B1300A3A3E06402707F8E828F83A3A3A3A3A3C6
:104B2300A3E054027003024BBD850882850983A369
:104B3300A3E064E97003024BBD8E828F83A3A3A31A
:104B4300A3A3A3A3A3A3A3E07014901CCFE0048E9C
:104B5300828F83A3A3A3A3A3A3A3A3A3A3F08E8260
:104B63008F83A3A3A3A3A3A3A3A3A3A3E014F0747A
:104B7300048E828F83A3A3A3A3A3A3A3A3A3F090D1
:104B83001CD01249B2A3A3E8F0A3E9126E8470010A
:104B9300EB70031268878E828F83A3A3A3A3A3A3BF
:104BA300A3A3A3E0640260128E828F83A3A3A3A3B3
:104BB300A3A3A3A3A3E0640670318E828F83A3A370
:104BC300A3A3A3A3E0A2E05022850882850983A3BF
:104BD300A3E0F9EEFAEFFB1224AD8E828F83A3A339
:104BE300A3A3A3A3E054FEF0A3E0F002476C74F088
:104BF30012095774DD120F728A0C8B0D8C0E8D0FF8
:104C030074331211AB78081211327F00740E121133
:104C1300ABAC82AD83122549740E1211ABE0A2E551
:104C2300500D0F125CA81224B9E96003024D4674BB
:104C33000E1211ABE0A2E6500E740F1211ABE0544A
:104C43000370047E0180027E00740E1211ABE054E7
:104C530003FA74026A7009125CA81224F5024D4625
:104C630074016A7043EE6003124D79740E1211AB36
:104C7300A882A98374031211ABE8F0A3E9124DA82B
:104C8300851082851183124D9D850C82850D83A32A
:104C9300A3A3A3A3A3E0C0E074021211ABD0E0125C
:104CA3004DA412259D024D46EA6003024D46740D44
:104CB3001211AB7402124DA874051211AB124D9D63
:104CC300EE6008740E1211AB124D79740E1211AB13
:104CD300E0540C64047071E50C240FF582E50D12A9
:104CE30061E8C0E074201211ABD0E0F0900512E04F
:104CF3007002A3E0604D1216258A0C8B0DA80CA937
:104D03000D74051211ABE0687003A3E06970347889
:104D130008120EAAEFF5087808120EB6780E120ED6
:104D2300B2EEF974151211ABAC82AD83740C12118F
:104D3300ABAA82AB839005121257CC1225C6740717
:104D4300120EFA7423026C207808120EAA780E123F
:104D53000EB2900580120CB9EFF9740D1211ABACC1
:104D630082AD8374161211ABAA82AB831224A17491
:104D730008120EFA80CD124D86125F5A125CB612DB
:104D8300251922AC82AD83E50C240BF582E50D22B7
:104D9300124DB012635FEB125F5AE8F0A3E9F02201
:104DA300E412444522F0124D8A124DB0223400F52C
:104DB30083E00249D0C082C083121D87024A8EC09D
:104DC30082C083121D8D024A8EC082C083121D933E
:104DD300024A8EC082C083121D99024A8E74F71252
:104DE300095774091211ABE0F5087808120EB612D0
:104DF3001DA57401023D70C082C083121DB1024A19
:104E03008EC082C083121DB7024A8EC082C0831235
:104E13001DBD024A8E74F7120957EAFEEBFF7401B7
:104E2300697010790012147B7C1E7900EEFAEFFB97
:104E33001213FD023D7374F412095774F9120F72C1
:104E43008A088B098C0A8D0B74131211AB125CAF99
:104E530090145EE07002A3E06027E985108285115B
:104E630083F074011211AB7808121150EAF8EBF9D0
:104E730074051211AB12443D90145E1257CC1225E7
:104E8300C6024ACBC082C083121DED024A8E74F75C
:104E9300120957901C68E0F97F00800B1250DA5416
:104EA3000D64017001190F1250D25003E970ED0225
:104EB3003D7374F7120957901C69E0F97F00800B6A
:104EC3001250DA548D64817001190F1250D25003BD
:104ED300E970ED023D7374F2120957890AE975F01E
:104EE30006A4F8A9F0740C28FEE439FFEA2EFAE4CC
:104EF3003FFB121BEF8A088B09EA7001EB6029EE76
:104F0300FCEFFD7900121B65126354E50AF0E50816
:104F13002EF8E5093FF9850882850983A3A3A3A396
:104F2300A3A3A3A3A3124D9DAA08AB0902400B742C
:104F3300F61209578A088B091213D9901C67E0FAF5
:104F4300E9C39A4009900550125CAF1213DFE508DC
:104F53002402FEE5093400FF900552126365F090C8
:104F63000552E004F0AA08AB091213E58E828F8381
:104F7300E002417CC082C083790090055080010922
:104F8300125CAF8A828B83E5827002E58370F00244
:104F93004A8E74F7120957EAFEEBFFEE7001EF60D9
:104FA30058900550E07002A3E0604E9005501257F0
:104FB300E47A007B00800FAA82AB831257E4E58278
:104FC3007002E5836033EE65827003EF658370E7FB
:104FD300900550124FFF687002EF698E828F8370C5
:104FE30008125B519005508003126E781250041220
:104FF300256DEEFAEFFB121BF5023D73124DB4EE75
:1050030022E8F0A3E9F0023CF6C082C08390055089
:10501300800488828983125B51E87001E9600B8800
:10502300828983E07002A3E070E88A828B83E4F0D4
:10503300A3F0E87001E96006888289838003900504
:1050430050125050024A8E851082851183EAF0A3D4
:10505300EBF02274F7120957E9FC90055080048A9B
:10506300828B831250CD7001EB60177E0080010E9E
:105073001250BDFDEEC39D50E6EE1250F36C70EF7F
:1050830080047A007B00023D7374F7120957E9FD2F
:105093007F0080010F1250BDFEEFC39E5019EF1227
:1050A30050F36D70EFEF75F006A4F8A9F012639E4C
:1050B30074111251024CF0023D731250C122EA24C2
:1050C3000BF582EB3400F583E022125CB6EA221280
:1050D30050C1FCEFC39C22EF75F006A4FCADF0EACF
:1050E3002CFCEB3DFD74112CF582E43DF583E022AD
:1050F30075F006A4F8A9F0EA28F8EB39F97410283A
:10510300F582E439F583E02274F61209571214F399
:105113007A008011EA126063125CD4125189F0A301
:1051230012666EF00A902A73126C5E40E77A008072
:105133001B8A087509007403780812108912663DEA
:10514300125CD0A3A3A3A3A3A3A3F00A902A7E1265
:105153006C5E40DD7A00801A8A0875090074037852
:1051630008121089E50824ADF582E509341B125CA9
:10517300C60A126C5B40E1902A78E49390055EF0D6
:10518300126C8702419EA312518E2212666E026C2C
:105193008274F112095774F5120F72EAFEEBFF895C
:1051A300088C09E9A2E050127EFC7FFFA2E15005C2
:1051B300D2E402525ED2E302525E1214D58A0A8B03
:1051C3000BA80AA90B900573E0687003A3E069704C
:1051D300057900025340AC087902EEFAEFFB121492
:1051E300CFE960EDE508F50A780A120EB6125345C9
:1051F300120EFAE9600302533EE508C2E5F5089092
:1052030005C0E07058E508A2E6405274031211ABE2
:10521300AC82AD83EEFAEFFB1211F9E97039125B40
:1052230055EEFAEFFB1217698A0A8B0BA80AA90B32
:10523300E87001E96027E824020A0AE91230CA602B
:105243001CE50A2402FCE50B3400FD74031211ABC8
:10525300AA82AB83122363E508D2E5F508900553D0
:10526300E0F50E900573125B62780A120EB27D01AF
:105273007C00900553E0F9AA0AAB0B121487740261
:10528300120EFAE9FA900553E004F0EA60030253C0
:105293003EE508A2E550047A0E80027A06740112F4
:1052A30011AB12637A8A0A8B0BEA7001EB7003026B
:1052B300533A125355E50A241AF582E50B12337457
:1052C300EAF0A3EB12536512454288828983F07496
:1052D300785508125433E50EF0EE88828983A3A330
:1052E300A3126654F0E488828983A3A3A3A3A3F043
:1052F300E508A2E5501474031211ABAC82AD83E848
:105303002406FAE93400FB122363850A82850B83A2
:10531300A3A374FD125CCAE5096013C3941E500E67
:10532300E50A2413F582E50B123374E509F0AA0AA2
:10533300AB0B12133180067910800279C7740B020C
:105343003CDB79027CFE7DFFEEFAEFFB1214457421
:105353000122EA2417F582EB125F5A7401F0121648
:105363001F22F0E50A126360E50B125F5A2274F400
:105373001209578A088B09E9FE1216AFE960077A0A
:10538300FF7BFF025426901CCDE0640260030254AD
:10539300197900AA08AB0912650C8A0A8B0BA80AB3
:1053A300A90BE87001E9605888828983A3A3A3A3AA
:1053B300A3E06401701C125429125430E064FE709F
:1053C30004A3E064FF602B88828983A3A3125CAFEC
:1053D300805188828983A3A3A3A3A3E064036028E5
:1053E30088828983A3A3A3A3A3E0640470047AFE41
:1053F300808F88828983A3A3A3A3A3E06402700898
:105403009005BFE06402700E1269F97001EB60064B
:10541300AA08AB09800DAA08AB099005541257CC12
:105423001225C602476C900572E00257EAA3A3A3B4
:10543300A3126669A32274F7120957EAFEEBFF125F
:105443001247E9700AEEFAEFFB121253E96006EE17
:10545300FAEFFB80047AFE7BFF023D7374F01209BE
:10546300578A0A8B0B8C0E8D0FE9FE7508001216F6
:10547300AFE979006003025544AA0AAB0B1264DF5B
:10548300A80CA90DE87001E9601988828983A3A398
:10549300A3A3A3E06402704F9005BFE0640270030E
:1054A300025542AA0AAB0B90055A1257CC1225C6D5
:1054B3001212598A0C8B0DA80CA90DE87001E96032
:1054C3007E88828983A3A3A3A3A3E0A2E050707F75
:1054D30001A2E150247901AC0AAD0BAA0EAB0F1265
:1054E3001427E97020805888828983A3A3A3A3A3E8
:1054F300E06403704A7F02800C88828983A3A3A39C
:10550300A3A3D2E1F0900573E0650E7004A3E065F8
:105513000F70107C1EEEF9AA0AAB0B1213FD75086F
:1055230001801CEFF9AC0AAD0BAA0EAB0F121427C6
:10553300E9700C750801EEF9AA0AAB0B12147BA9EA
:1055430008026C2374F112095774EE120F72125091
:105553004A8C088D099005F4E07002A3E0601212F2
:10556300702F7002E5836004A3E070057900025791
:10557300B5851082851183E0241DF50CA3E034006A
:10558300F50D850C82F5831257E4A3E0F50A125951
:1055930068FA88828983A3A3A3A3E0F9EAFEE9FF5B
:1055A300AA08AB09121481E9FA850C82850D8312CE
:1055B3006C7AE02AF50B530A787808120EB27D0054
:1055C300AC0BA90E74021211AB125816120EFAE9A3
:1055D300FA74036A6096EA70447418550A700302F9
:1055E30056DCE50AD2E0F50AA2E45004D2E1F50A5A
:1055F300E50AF50C780C120EB67901AC08AD09E991
:105603001211AB12580F120EFAE970117421121114
:10561300AB1257DD126C9E1257EF121DAB742112A1
:1056230011AB1257CCE064FF7004A3E064FF603B4E
:105633009005BFE06402700302556F8510828511E7
:1056430083E01257EF1257C91225C6EA65087003A3
:10565300EB6509600302556F1257C51225C6742105
:105663001211AB1257CCEAF0A3EBF07808120EB28A
:105673007D01AC0BA90E74021211AB125816120E57
:10568300FAA90AEEFAEFFB1214D58A088B09A808C7
:10569300A909900573E0687003A3E06960030257EA
:1056A300A8EEFAEFFB1257B87001E9606C888289A3
:1056B30083A3A3A3A3E06401600D88828983A3A3CA
:1056C300A3A3E06402705274021211ABAC82AD83E7
:1056D300EEFAEFFB1211F9805390056CE06019E5C7
:1056E3000AF50C780C120EB67901AC08AD09E91273
:1056F30011AB12580F120EFAE50AF50C780C120EC4
:10570300B6125345120EFAE96003025620742112B1
:1057130011AB1257DDA302566D12161FEAFCEBFD07
:1057230074021211ABAA82AB8312236385108285A4
:1057330011831257F9701C851082851183E024159B
:1057430012597AFCA3E0FD740A1211ABAA82AB834F
:10575300122363125803E04430F5087808120EB69A
:1057630074031211AB8582088583097808120EB27F
:10577300740D1211AB8582088583097808120EB265
:10578300E50EF5087808120EB67900EEFCEFFD740D
:10579300061211AB12599A125CAF1214217406123D
:1057A3000EFA02556F125803A3A3A3A3E50BF0123D
:1057B3001637023CD91212598A088B09A808A9097D
:1057C300E822EEFAEFFB9005561257D0221257D477
:1057D30022E0F8A3E0F5838882221257D074FFF009
:1057E30022124DB48001F98882898322240B125935
:1057F3008BFAA3E0FB22126C7EA3A3A3E064012235
:10580300125982F8A3E0F5838882A322125CB312B3
:10581300534F22125CB312148774022274F11209DB
:105823005774EE120F72851082851183EAF0A3EB91
:10583300126C9F241D12597AF8A3E0F9125968FCDF
:1058430088828983A3A3A3A3E0FBECF508EBF50906
:1058530088828983A3A3A3A3A3E0FC88828983A36B
:10586300A3A3A3A3A3E0FAE4CAFBECFEEBFF8882A5
:105873008983A3A3A3A3A3A3A3E0F50A88828983AF
:10588300A3E05478F50BA2E4501912597E2408FCC6
:10589300A3E03400FD740A1211ABAA82AB83122376
:1058A300637A08E50BA2E5501D12597E2AF8A3E09E
:1058B3003400F9740828FCE439FD74021211ABAA10
:1058C30082AB83122363AC0AA90EAA08AB09121494
:1058D3008DE9FA74036A7003025965900573E065F4
:1058E300087004A3E065096064EA705AE50BF50CDF
:1058F300780C120EB67901E91211AB125990120EFF
:10590300FAE9705E780B120EB674031211AB85823E
:105913000C85830D780C120EB2740D1211AB8582B7
:105923000C85830D780C120EB2E50EF50B780B1275
:105933000EB6A90AEEFCEFFDAA08AB0912142174F6
:1059430006120EFA801C74046A701780B7E50BF513
:10595300087808120EB67901E91211AB12599012A8
:105963000EFA023CD988828983A3A3E0F50E8882CC
:105973008983A3A3A3E02212598B22125982228581
:105983001082851183E0241D126C28E02212599A9B
:10599300123CF112534F2212599E22E0240BFAA318
:1059A300E03400FB8A828B832274F012095774F26D
:1059B300120F7274021211ABE9F0EAFEEBFF8C08CE
:1059C3008D09741E1211ABE0F50F74231211ABE0B5
:1059D300F50EA90F12149312504A74041211AB74EA
:1059E30008F0E50EA2E450037410F0E50EA2E550B2
:1059F30004E02408F074031211ABAA82AB831216DD
:105A0300978A0C8B0DEA7001EB7003025B3712531C
:105A130055E50C241AF582E50D12337412505074B7
:105A2300061211ABAC82AD83851082851183125CA3
:105A3300AF1211F9E9600E125B3C74061211ABA8A8
:105A430082A9838020E50EA2E4502585108285116A
:105A530083E06E7003A3E06F7016125B3C741F1239
:105A630011AB125B51E50C2418F582E50D124D9A2A
:105A7300E50C1231A0E50D123374125B62740285DA
:105A83000A82850B83F0A3E50E125B6AE50FF0EE45
:105A9300850A82850B83A3A3A3F0EF850A82850B76
:105AA30083A3A3A3A3125B6AA3A3A3E508F0E50959
:105AB300850A82850B83A3A3A3A3A3126C9EFAA3D7
:105AC300E0FB12148174021211ABE9FAE02A850A91
:105AD30082850B83A3A3A3A3A3A3A3F0750800E567
:105AE3000EA2E45018741F1211AB125B58E50A247E
:105AF30008FAE50B3400FB122363750808E50EA2D0
:105B0300E5501C74211211AB125B58E50A2508F805
:105B1300E50B3400F9740828FAE439FB1223631205
