:020000040000FA
:060000000210D4020739D2
:03002B000210833D
:03003300020C8537
:03004300020F1990
:03004B00020D7B28
:0300530002068C16
:03005B00020D8A09
:03006300020D96F5
:03006B00020C6B19
:100083000206D50101FF0503010F0300030003006E
:1000930003000300030003000300030005000A003C
:1000A300140028004F009E000000D616D616D61660
:1000B300D61698159215D616F02200000000B42328
:1000C300000000000C0000000C0001B905FF010056
:1000D30001010100ED0E000000620FE803640064FB
:1000E30000B8010202000800000502071E02051EF7
:1000F30003B80B020103320002F1FF0202020605FC
:10010300000020410000803FCDCCCC3D1211206087
:100113001D1211027005191919801A120F5C701F34
:10012300120F9BC37003E667331919194007181898
:10013300182208080874FFF618F618F618F62212A3
:100143000F9B6017121180702192F01211767019B3
:10015300501720F014080808090909E7F61819E7E9
:10016300F61819E7F61819E7F62212117660E6E891
:1001730069701F0808E62480F608E436F618547FF1
:10018300B47F0CE654806007F6E418F618F62218DC
:100193001822E9C6CC08C6CD08C6CE08C6CFC0E033
:1001A300E8C0E0EAC0E0EBC0E009E9F809E7FA09D2
:1001B300E7FBE6F918E6F8C3EC98ED99EE9AEBC283
:1001C300E7F5F0EFC2E795F0500E600CEBCFFBEADA
:1001D300CEFAE9CDF9E8CCF8EAA2E7D2E7FAEB33B5
:1001E300FB13F5F0EEA2E7D2E7FEEF33FFC5F01302
:1001F300A2E730E601B313C5F0C3C0E0C0F07F004F
:10020300C39BFB605B9418600C401AD0E023F9D0C9
:10021300E0F80202ED8AF0E9486003D2F0E4AFF0BF
:10022300FAF9F8803BEB30E40D89F0EA6003D2F091
:10023300E4AFF0F9CAF8EB30E30D88F0EF6002D2D7
:10024300F0AFF0E4CAC9F8EB54076014FBC3EA1338
:10025300FAE913F9E813F8EF135002D2E0FFDBEDEC
:10026300D0E0C0E030E739C3E49FFFF5F0EC98FC41
:1002730042F0ED99FD42F0EE9AFE42F0D0E0F9D063
:10028300E0F8E5F0607AE923F9EE20E742D802804E
:1002930067C3EF33FFEC33FCED33FDEE33FE80EA4F
:1002A300EC28FCED39FDEE3AFED0E023F9D0E0F87E
:1002B3004002801BC3EE13FEED13FDEC13FCEF13A2
:1002C3005002D2E0FF08B800067F7F74FF802EEF54
:1002D3003350178CF020F00260100CBC000C0DBDE5
:1002E30000080EBE000408E860DFE933E813FFEE00
:1002F3002313FE4F4D4C8008E95480FFE4FEFDFCC0
:10030300EE33EF33F47004FCFD7E80D0E0FBD0E0ED
:10031300FAD0E0F8D0E0CFC618CEC618CDC618CCB8
:10032300C6F9221211207004181818221211027033
:100333000D74FFF61819F61819F61819F622E75472
:100343008066F6121176700F12118070F014F608A1
:10035300F608F608F680D1121180700CF608F6083C
:10036300768008E6447F80EC120F9E700C120F5FBC
:1003730060BFE65480F6E480BB120F5F7005191965
:100383001980A5E869700C763F18768018F618F680
:10039300E8F922E6CDC0E018ECC0E0E633CD33CD7A
:1003A300D313F6E719FCE7191933CC33C3947F4011
:1003B3000ECD9D502408E65480F6E418F6800FF421
:1003C300043D14501408E6447FF6187680E418F6CA
:1003D30018F6D0E0FCD0E0FD22CCD313CCFD18E41A
:1003E300C6CBC0E018E4C6CAC0E00808ED08C633AF
:1003F300E613F618E433C675F003C3CA97CA09CBEC
:1004030097CB199C40047D08802EBD00030204CFC6
:1004130016B6FF050606081618C3CA33CACB33CB74
:1004230033CA27CA09CB37CB193CC37D08803E1892
:100433007D0820E75CC633C6CA33CACB33CB33DD72
:10044300F1D5F0EB30E77BCA97CA09CB974ACB19B2
:100453009C406F4B7025E620E0218066187D08C321
:10046300CA97CA09CB97CB199CD3C633C6CA33CA1A
:10047300CB33CB3350C9DDE7D5F0E1D3E4C636C681
:1004830008C636C608C636C608C636C61818188043
:1004930031C3CA97CA09CB97CB199CB34097C633CC
:1004A300C6CA33CACB33CB33DD34D5F02EC6A2E074
:1004B300C640C8CA27CA09CB37194A70BECB3CB459
:1004C30080B90808E63308E633601F181818D0E02F
:1004D300FAD0E0FBD0E0FCD0E0FD22187D08CA276B
:1004E300CA09CB37CB193CD3808013F618E4B67F07
:1004F30011F618B6FF0EF618C60470D208087680F7
:1005030080CAF618F618F680C500121120604F1243
:1005130011026012E7548066F6120F5C701112111B
:1005230080703B090909F4F618F618F618F622123A
:100533000F9B701512117608080860EAE6447FF6EF
:1005430018768018E4F618F6221211766016121146
:10055300807012E4F608F608F608E65480F60909F6
:100563000918181822EAC0E0EBC0E0ECC0E0EDC0C7
:10057300E0E687F0A4FBACF008E687F0A42CFCE4EB
:1005830035F0FA1809E687F0A42C4B60027401CA0F
:1005930035F0FCE433FB09E687F0D2F7A42CCB3526
:1005A300F0FC1908E687F0A42BCC35F0FBE433FD0F
:1005B3000819E687F0D2E7A42C4ACB35F0CD3400F6
:1005C300FC09E687F0D2E7A42DCC35F0FDE433FA3D
:1005D3000918E687F0D2F7A42CCD35F0CA3400FC15
:1005E30008E687F0D2E7D2F7A42ACC35F07A7E204A
:1005F300E70B0ACB33CBCD33CDCC33CC33CB33501A
:10060300147004ED30E00ED2F1E4CD3DCDCC3CCC02
:100613003B5005DA05C2F1EB547FC63308E633924B
:10062300F0FBE73309E733C39A502D2B70190C0DF8
:100633004C4D70151806E608C333700D20F10AA25D
:10064300F013F6E418800B4024E4F630F0027680D1
:1006530018F618F618F68024D33B14501074FFA232
:10066300F013F6187680E418F618F6800FA2F0134C
:10067300F618E63303F618ECF618EDF6D0E0FDD0E5
:10068300E0FCD0E0FBD0E0FA22C0E074F21209C330
:10069300E5A7F8E5A1F95854106008121D5A53A1B3
:1006A300EF802AE8A2E0C0D0E9A2E092F012101194
:1006B300158182F05017906198E0F8901275E0C3AD
:1006C30098A2D265D0335002E8F053A1FE7F010215
:1006D3000A7AC0E074F21209C39061A4E0F8759B32
:1006E30000E59158540860087591F7121D9C802A03
:1006F300E59158541060087591EF121DA2801BE814
:10070300A2E0C0D0E591A2E092F01210111581820F
:10071300F05007E0C2E0F0121EC29061A3E0F8E5DA
:10072300E9585404600E121E9875E9FB906193E03A
:10073300A2E640F28097C0E074F21209C39061A56B
:10074300E0F8E5BF585404600653BFFB121EDA02FB
:1007530006D0C3E498F8E499F91207968026C3E417
:100763009AFAE49BFBE920E7E9120796E498F8E498
:1007730099F922C3E498F8E499F9120796E498F8F2
:10078300E499F9C3E49AFAE49BFB22EB20E7CFE96F
:1007930020E7E0B90010BB0008E88AF084F8AAF06B
:1007A30022E4FBC8FA22EB70227B10C833C8C9339A
:1007B300C9335007C39AC3DBF280069A50012ADB80
:1007C300EAC833F4C8C933F4C9FA2275F008E4C897
:1007D30033C8C933C933C99AC99B5004C92AC93B11
:1007E300D5F0ECFBC833F4C8E4C9FA22080808EAD8
:1007F300C0E0EBC0E086F0E7A4FA180986F0E7A4AE
:100803002AFA180986F0E7A42AFA180986F0E7A459
:100813002AFA1986F0E7A4FBE5F02AFA190886F00C
:10082300E7A42BFBE5F03AFA190886F0E7A42BFBC3
:10083300E5F03AFA18180986F0E7A4C5F02BFBE4B3
:100843003AFA1908E7C5F0C6A426F6E5F03BFBE43F
:100853003AFA1886F0E7A4F6E5F00826F6E43B0832
:10086300F6E43A08F6D0E0FBD0E0FA22080808E6FE
:1008730030E711120FC4120887080808C64480C65F
:1008830018181822181818E9799EC608CAC608CB82
:10089300C608CCC6C370207996CACBCC7019798EA2
:1008A300CBCC70137986CC700EF9802ACA33CACBAD
:1008B30033CBCC33CC331930E7F2CCCBCA3350141F
:1008C3007004EA30E00DE4CA3ACACB3BCBCC3CCC53
:1008D300500209C3E913C6CC182313C6CB18C6CAE2
:1008E30018C6F922E4CFC0E0E4CEC0E0E4CDC0E016
:1008F300E4CCC0E075F020C3E633F608E633F6082F
:10090300E633F608E633F6181818EC33FCED33FD3E
:10091300EE33FEEF33FFC3EC9709ED9709EE97092A
:10092300EF97191919400FFFEC97FC09ED97FD0993
:10093300EE97FE191906D5F0BEECF709EDF709EEAF
:10094300F709EFF7191919D0E0FCD0E0FDD0E0FE6C
:10095300D0E0FF222510C582C0E0E51134FFC58336
:10096300C0E0E510C3958224F810AF088583118594
:1009730082108008858311858210D2AFCEF0A3E563
:1009830020F0A37808E608F0A3DEFAEFF0A3E581F0
:1009930024FAF8E608F0A3E608F0A3E608F0A308B3
:1009A30008E608F0A3E608F0A315811581D0E0FE60
:1009B300D0E0F8158115811581E8C0E0EEC0E02292
:1009C300C0D02510C582C0E0E51134FFC583C0E067
:1009D300E510C3958224F310AF0885831185821037
:1009E3008008858311858210D2AFC8F0A3E9F0A3F4
:1009F300EAF0A3EBF0A37908E709F0A3D8FAECF047
:100A0300A3EDF0A3EEF0A3EFF0A3D0E0F0A3D0E0CA
:100A1300F0A3D0E0F0A3E520F0A3E5F0F0A32212C9
:100A23001161B90003020A64E490040078CB7911E0
:100A33008002F0A3D8FCD9FA9014CAAA82AB83909F
:100A43000086788A79018015E493A3AC82AD838A0A
:100A5300828B83F0A3AA82AB838C828D83D8E9D95E
:100A6300E77582DB7583F77402120E607582E07599
:100A730083217400120E60851183851082E0C0E02B
:100A8300A3E0F9A3E0FAA3E0FBA37808E0F608A348
:100A9300DFFAE0FCA3E0FDA3E0FEA3E0FFA3E0C0D8
:100AA300E0A3E0C0E0A3E0F5D0A3E0F520A3E0A33A
:100AB300F5F010AF088583118582108008858311B6
:100AC300858210D2AFD082D083D0E0F8D0E032124A
:100AD3001120601B12110260161211767007121199
:100AE30080600CB322C0D01211807005D0D022C315
:100AF3002233D0D0501330E0EBC3E7960809E796D2
:100B03000809E7960809E7962220E0E4E697080932
:100B1300E6970809E6970809E69722D083D082EC86
:100B2300C0E0EDC0E0E493A3FCE493A3FDED4C60CF
:100B33000D120BF6EC24FFFCED34FFFD80EFE49384
:100B4300A3FCE493A3FDED4C600D120D26EC24FFF2
:100B5300FCED34FFFD80EFD0E0FDD0E0FCE493A397
:100B6300C0E0E493C0E022851183851082E0A3FEF8
:100B7300E0A3F5207808E0A3F608DFFAE0A3FFE09E
:100B8300A3C0E0E0A3C0E0E0A3C0E0E0A3C0E0E0D6
:100B9300A3C0E010AF088582108583118008858289
:100BA30010858311D2AFD083D082020E66D083D05A
:100BB30082E9C0E0E493A3C386F0C5F095F0F90899
:100BC300E493A386F0C5F095F0700BE493A3C39967
:100BD3004005E9048002A3E475F002A42582F582AE
:100BE300E5F03583F583D0E0F9E493A3C0E0E49323
:100BF300C0E022C0E0C3E4939608740193961840C2
:100C03000FE49366700808740193661870007019F6
:100C1300A3A3C3E49396087401939618A3A3400D6A
:100C2300D0E0D0E0D0E0020B5AA3A3A3A3A3A3D0A8
:100C3300E022D083D082C5F0E493A3C5F0C395F03E
:100C4300F5F0E493A3C395F04005E5F0048001E4D7
:100C530075F002A42582F582E5F03583F583E493EC
:100C6300A3C0E0E493C0E022C0E074F21209C3E53C
:100C730089A2E15003121C22758900C2C57F0102BB
:100C83000A7AC0E074F21209C3E58BA2E0500312A2
:100C93001C22758B00C2E880E47404800474028013
:100CA30000CCC0E0EDC0E0E510C39CCCAD11500119
:100CB3001D10AF068C108D1180068C108D11D2AFD4
:100CC300120DC4D0E0FDD0E0FC2274028000CCC041
:100CD300E0EDC0E0E510C39CCCAD1150011D10AF99
:100CE300068C108D1180068C108D11D2AF120DA2BF
:100CF300D0E0FDD0E0FC2212112060251211026029
:100D0300201211767003021180080808E76670103C
:100D13001819E766700A1819E76670041819E76668
:100D230022F422C0E0C0F088F0E4936670080874EF
:100D3300019366187000A8F0A3A3700BD0F0D0E065
:100D4300D0E0D0E0020B5AA3A3D0F0D0E022D083AE
:100D5300D082CCC0E0E493A36006120E041470FAB0
:100D6300E493A36006120F301470FAD0E0FCE4930E
:100D7300A3C0E0E493C0E022C0E074F21209C312FE
:100D83001CA07F01020A7AC0E074F21209C3121C8C
:100D9300A680EFC0E074F21209C3121CAC80E3CA50
:100DA300C0E0E493A3C582CCC582C583CDC583F0DF
:100DB300A3C582CCC582C583CDC583DAE5D0E0CA9D
:100DC30022CAC0E0E0A3C582CCC582C583CDC5835A
:100DD300F0A3C582CCC582C583CDC583DAE6D0E056
:100DE300CA22C008C3E096F50808A3E096420808A3
:100DF300A3E096420808A3E09645087001D3D00803
:100E030022C0E0E493A3D39C5010E493A3C39C407B
:100E13000AD0E0D0E0D0E0020D6EA3A3A3D0E0227D
:100E23007009080808226016181818C6C333C608C4
:100E3300C633C608C633C608C633C6D5E0EA22C5DC
:100E4300822510C582C583351110AF07F511858240
:100E5300108007F511858210D2AFC58322C09FF59C
:100E63009FE473D09F22D083D082C09FE493C0E0DD
:100E7300740193C0E0740293F59F227404800A7492
:100E8300038006740280027401C0E0F404120E9918
:100E9300D0E012113C222510F58210AF08F5104066
:100EA3000215118008F51040021511D2AF85118388
:100EB30022C0D0251010AF08F5105002051180088C
:100EC300F51050020511D2AFD0D022BB0102E722A8
:100ED300C082C08389828A83BB0003E08002E493DB
:100EE300D083D082226016080808C6C313C618C66A
:100EF30013C618C613C618C613C6D5E0EA22C3E044
:100F0300C696F608A3E0C696F608A3E0C696F608CA
:100F1300A3E0C696F622C0E074F21209C3C2C0E58C
:100F2300D1A2E45003121CD67F01020A7AC0E0E486
:100F330093A36C7009D0E0D0E0D0E0020D6EA3A3C0
:100F4300D0E022251010AF08F510400215118008DB
:100F5300F51040021511D2AF22181818E6084608FA
:100F6300700AE608C3337005E633F4220822E0660C
:100F7300701008A3E066700A08A3E066700408A373
:100F8300E06622C3E09608A3E09608A3E09608A3D0
:100F9300E096A2D265D03322191919E709470970DF
:100FA3000AE709C3337005E733F4220922C3E09645
:100FB300F008A3E096F008A3E096F008A3E096F00B
:100FC30022181818E4C396F608E496F608E496F691
:100FD30008E496F622E026F608A3E036F608A3E036
:100FE30036F608A3E036F622E026F008A3E036F052
:100FF30008A3E036F008A3E036F022E627F6080956
:10100300E637F60809E637F60809E637F622C0E0C0
:10101300E8C0E0E58124FCF8E6A2E7D0E0F8D0E000
:1010230022E657F60809E657F60809E657F60809CF
:10103300E657F622E056F608A3E056F608A3E05674
:10104300F608A3E056F622E056F008A3E056F008AF
:10105300A3E056F008A3E056F022700422600D18B6
:10106300C6C333C608C633C6D5E0F41822E647F62E
:101073000809E647F60809E647F60809E647F622AF
:10108300C0E074F21209C3C2C7121DDE7F01020A57
:101093007AC3E7960809E7960809E7960809E796E9
:1010A30022C3E09608A3E09608A3E09608A3E0967F
:1010B30022C6F4C608C6F4C608C6F4C608C6F4C6F3
:1010C30022600D08C6A2E713C618C613C6D5E0F3FF
:1010D3002275D00075814075100075110400020A55
:1010E30022600C08C6C313C618C613C6D5E0F42283
:1010F300E0F608A3E0F608A3E0F608A3E0F622E78B
:10110300094709C3134709336002E733F422E6F0C2
:1011130008A3E6F008A3E6F008A3E6F022E60846F3
:1011230008C3134608336002E633F422C582251050
:10113300C582C5833511C58322CAC0E0E6F0A30882
:10114300DAFAD0E0FA22E0FAA3E0FBA3E0FCA3E0A2
:10115300FD22EAF0A3EBF0A3ECF0A3EDF022E5C748
:1011630054F84401F5C77901222510F582E43511BD
:10117300F58322E6C33318461846184622E7C333DD
:1011830019471947194722120E69058302120E697E
:10119300558302120E690F8402120E69948402129F
:1011A3000E691B8502120E69038602120E695C86A4
:1011B30002120E69D48602120E69E68602120E69C5
:1011C300F08602120E69CD8702120E692C88021274
:1011D3000E692E8902120E69A78902120E69FB8914
:1011E30002120E69708A02120E691C8C02120E69B9
:1011F300308C02120E69928C02120E69178D021244
:101203000E69648D02120E698C8E02120E69778F3D
:1012130002120E69E48F02120E69609002120E69C7
:10122300C29002120E69FA9002120E69D59102124F
:101233000E69D59202120E69329302120E697B93E4
:1012430002120E69A39302120E692C9402120E6904
:10125300C29402120E69289502120E693995021280
:101263000E69B29502120E693F9602120E698196BB
:1012730002120E69119702120E69469702120E6945
:10128300879702120E69209902120E69BF9A021201
:101293000E69FB9A02120E691C9C02120E69EB9DE9
:1012A30002120E69F59D02120E69FF9D02120E696C
:1012B300099E02120E69139E02120E691D9E0212EE
:1012C3000E69279E02120E69759E02120E69999E7F
:1012D30002120E69BD9E02120E69169F02120E695A
:1012E3005B9F02120E69799F02120E69F09F021230
:1012F3000E693AA002120E6970A002120E6905A2CD
:1013030002120E69082600120E69542600120E6995
:10131300202800120E695E2800120E6900290012AF
:101323000E69342900120E69592900120E69B62A72
:1013330000120E69B62B00120E69882E00120E6978
:10134300792F00120E69233000120E693E3100120C
:101353000E69773400120E69033500120E693835B1
:1013630000120E69103600120E69E63600120E697D
:10137300893700120E69E43700120E691138001222
:101383000E69333800120E69793A00120E692B3B4D
:1013930000120E69823B00120E69EF3B00120E69C8
:1013A300B03C00120E69E53C00120E69393D001293
:1013B3000E696E3D00120E69BC3D00120E69133EAC
:1013C30000120E699E3E00120E69274000120E693C
:1013D300E44000120E69134200120E6982440012A7
:1013E3000E692A4500120E694D4700120E69EA473D
:1013F30000120E69314800120E69F84900120E6995
:101403000C4A00120E69194A00120E69434A00126F
:101413000E694F4A00120E696D4A00120E69374B6E
:1014230000120E69614B00120E696E4B00120E69B9
:10143300C64B00120E694C4C00120E69334D00125C
:101443000E69254E00120E69D54E00120E69734FB8
:1014530000120E698A4F00120E69C34F00120E6903
:10146300E14F00120E69255000120E694C50001214
:101473000E69485100120E69C35100120E69E652FB
:1014830000120E69F85300120E69E95400120E6936
:10149300505500120E692A5600120E695E5600124C
:1014A3000E69D45600120E69F95600120E691F57C1
:1014B30000120E69555700120E69595900120E6930
:1014C3004B5A00120E69105B00120E69905C0012F9
:1014D3000E69D95C00120E69055D00120E698C5D00
:1014E30000120E69F45D00120E69465E00120E6969
:1014F3008D5E00120E69B95E00120E69EE5E001277
:101503000E69155F00120E69735F00120E69506059
:1015130000120E69B86000120E69E16000120E69D4
:10152300516100120E69C66100120E691862001241
:101533000E693D6200120E69836200120E69A06299
:1015430000120E693D6300120E697B9D03120E6942
:10155300C69D03120E6942BA01120E698DBA0112B9
:101563000E69E8BA01120E6939BB01120E6954BB48
:1015730001120E698ABB01120E69ABBB01120E691F
:10158300B5BB01120E69CABC01120E69E8BC011297
:101593000E6958BD01120E696BBD01120E6979BD4A
:1015A30001120E691ABE01120E69EEBE01120E6916
:1015B30009C001120E6985C001120E698FC00112A4
:1015C3000E6902C101120E6919C101120E695BC1D4
:1015D30001120E6999C101120E69C8C101120E6987
:1015E300FFC101120E691DC201120E6941C201122F
:1015F3000E6982C201120E696DC301120E69B3C373
:1016030001120E69DEC301120E694BC401120E6989
:1016130072C401120E69B7C401120E69C5C4011266
:101623000E691EC501120E695BC501120E69A2C5C2
:1016330001120E69D3C501120E69F6C501120E69B6
:1016430001C601120E691FC601120E69DBC6011223
:101653000E69E5C601120E6924C701120E693AC765
:1016630001120E6943C701120E6987C701120E6981
:101673009BC701120E6986C801120E6999C801122F
:101683000E69AEC801120E6956C901120E69A2C9CC
:1016930001120E6958CA01120E6963CA01120E695A
:1016A300B1CB01120E69DDCB01120E691ECC011202
:1016B3000E6938CC01120E696FCC01120E69D2CEBD
:1016C30001120E695ACF01120E69DACF01120E69A7
:1016D3001DD201120E692DD201120E6930D20112F0
:1016E3000E693CD201120E6950D201120E696FD2FB
:1016F30001120E69A2D201120E6967D301120E699B
:10170300CED301120E6932D401120E69BCD4011278
:101713000E696DD501120E6994D501120E6924D696
:1017230001120E6930D601120E695FD601120E69DD
:1017330081D601120E69A8D601120E690DD70112C6
:101743000E69C0D801120E69C3D801120E692DD9D2
:1017530001120E6920DA01120E6905DB01120E690E
:1017630090DB01120E69D3DC01120E6996DD0112C2
:101773000E69CFDD01120E6900DE01120E6909DE6A
:1017830001120E69EDDE01120E697DDF01120E6991
:101793001BE001120E69DBE001120E6954E1011234
:1017A3000E6983E101120E69C0E101120E69A5BB46
:1017B30002120E69B3BB02120E6929BC02120E6932
:1017C30061BC02120E69A9BC02120E69B0BE0212FC
:1017D3000E6992C002120E6951C302120E697DC3D3
:1017E30002120E699DC302120E6900C402120E6931
:1017F3003EC402120E696AC402120E69A4C4021224
:101803000E693A9103120E696A9103120E69BC9133
:1018130003120E69EFC402120E69F9C402120E69B3
:101823003DC502120E69E4C502120E6907C6021213
:101833000E69A7C602120E696FC902120E697DC92D
:1018430002120E69D0C902120E69F6C902120E699C
:101853004ECA02120E69BECA02120E6911CB0212DF
:101863000E697ACB02120E69F8CB02120E6958CCBC
:1018730002120E6997CC02120E69A9CC02120E69EC
:10188300BBCC02120E69DACC02120E697CCD0212B5
:101893000E69B6CD02120E69DF9803120E69CE8D62
:1018A30003120E692D8E03120E69568E03120E69F2
:1018B3004C8F03120E69776300120E69566400128F
:1018C3000E69926400120E693B6600120E697D6612
:1018D30000120E69286800120E692EB701120E69F4
:1018E300346900120E69C16900120E69526A00124E
:1018F3000E69C58202120E69E86A00120E698E6CC7
:1019030000120E69336E00120E69817000120E69A7
:101913008F7000120E69F77000120E693374001293
:101923000E69D19F03120E69559E03120E69B88288
:1019330003120E69CB8203120E69588303120E69D8
:10194300938303120E69AE8303120E69D3830312CA
:101953000E69488202120E69388403120E69578594
:1019630003120E69118C03120E697E8C03120E6929
:101973009A8C03120E69DC8C03120E69058D031217
:101983000E699D8D03120E69B68D03120E6981B126
:1019930002120E69AAB102120E6977B202120E691F
:1019A30021B402120E6933B502120E6967B6021230
:1019B3000E695AB702120E6922BA02120E693ABAB6
:1019C30002120E6976BB02120E69747400120E695C
:1019D300BF7400120E69657500120E69EB75001273
:1019E3000E693C7600120E69507600120E69377844
:1019F30000120E69B47800120E69DE7800120E69C7
:101A0300697A00120E69867A00120E69C77A00128B
:101A13000E69FC7A00120E69557B00120E69677B12
:101A230000120E69DC7B00120E69637D00120E69E1
:101A33008F7D00120E69B87D00120E69187E0012A8
:101A43000E69357E00120E69387E00120E693B7EE8
:101A530000120E69A67E00120E69D57E00120E6971
:101A6300E87E00120E694E7F00120E69897F001214
:101A73000E69819C03120E698D9C03120E69C79C2B
:101A830003120E692FD602120E697ED602120E6958
:101A930020D802120E69CCD902120E6914DA02128E
:101AA3000E694BDB02120E69D8DC02120E69FADCF6
:101AB30002120E694CDD02120E69CEDD02120E69AE
:101AC30001E201120E692CE201120E6919E30112FF
:101AD3000E696DE301120E69C9E301120E6915E483
:101AE30001120E6988E401120E690CE501120E69F8
:101AF30082E501120E69C4E501120E69EEE90112D5
:101B03000E698FEB01120E696FED01120E699BEDE9
:101B130001120E69AEEE01120E6941F001120E6957
:101B2300D3F001120E698BF101120E6914F2011246
:101B33000E69D5F201120E69B9F301120E6916F49A
:101B430001120E6924F501120E69D5F501120E6911
:101B530025F601120E69E4F701120E6994F80112D9
:101B63000E69FBF801120E6945FB01120E69A0FC18
:101B730001120E693AFD01120E6902FE01120E698D
:101B8300EE9F03120E69F79F03120E6901FE021204
:101B93000E696BFE02120E6924FF02120E698AFFA0
:101BA30002120E6992F802120E69EBF802120E6924
:101BB3007AFA02120E69F89B03120E69429C031211
:101BC3000E69858F03120E69938F03120E69FC9FB2
:101BD30003120E69D49A03120E69E49A03120E6972
:101BE300029B03120E69639B03120E69AF960312E5
:101BF3000E69D69603120E695B9703120E69B497AA
:101C030003120E69DD9D03120E69CD9703120E694F
:101C1300EF9703120E69599803120E696498031221
:101C23000E69A89803120E697DE802120E69A2E8F4
:101C330002120E69BCE802120E690DE902120E6966
:101C43000EEA02120E6933EA02120E6950EA021218
:101C53000E696DEA02120E6992EA02120E69CBEA6C
:101C630002120E6909EB02120E6980EB02120E6971
:101C73001CEC02120E69D1EC02120E69DFEC0212A7
:101C83000E6959ED02120E6915EE02120E69A0F0EB
:101C930002120E69249403120E695D9403120E69F5
:101CA3007A9403120E69D89403120E693D950312B8
:101CB3000E6956E302120E69C3E302120E697DE454
:101CC30002120E69EAE402120E6910E602120E69AC
:101CD30083E702120E69E7E702120E6933E8021284
:101CE3000E693CE802120E694BE802120E695EE8C7
:101CF30002120E6974E802120E6902DE02120E6904
:101D030055DE02120E69C9E002120E69FBE00212EF
:101D13000E691DE102120E6936E102120E694FE1EE
:101D230002120E6981E202120E6917E302120E69B2
:101D3300428A03120E69748A03120E69808A03129F
:101D43000E69B38A03120E69DC8A03120E690A8BC9
:101D530003120E69878B03120E69B68B03120E6989
:101D63006E8503120E69948503120E69D1850312E1
:101D73000E69E38503120E69FF8503120E696D86F2
:101D830003120E69768603120E69D58603120E6955
:101D9300F98603120E69B88703120E69C587031209
:101DA3000E69D68703120E698C7F00120E69D97FE4
:101DB30000120E6985F402120E69ADF502120E6966
:101DC300BAF502120E69D9F502120E69EFF5021285
:101DD3000E6903F602120E697DF602120E69FBF616
:101DE30002120E6974F702120E69BCF702120E6931
:101DF300CCF702120E695FFF01120E6983FF011215
:101E03000E69ABFF01120E69D3FF01120E6904883C
:101E130003120E691D8803120E69298803120E69C5
:101E23003D8803120E695B8803120E6965880312ED
:101E33000E696F8803120E69828803120E69B688D1
:101E430003120E69EF8803120E69208903120E69CB
:101E53006E8903120E69BB8903120E69D6890312B8
:101E63000E69E08903120E69F18903120E69378A3C
:101E730003120E69A09E03120E69DCCD02120E69D5
:101E830008CE02120E6924CE02120E6937CE021258
:101E93000E694DCE02120E69BDCE02120E69F0CE4E
:101EA30002120E694AD202120E6980D302120E691F
:101EB300B3D302120E6918D402120E6907D50212A7
:101EC3000E692FD502120E6944D502120E6954D53C
:101ED30002120E6998D502120E69EDD502120E692F
:101EE30003D602120E697C9503120E6997950312AD
:101EF3000E69C09503120E69DA9503120E69FF95F8
:101F030003120E691E9603120E69369603120E69AA
:101F1300649603120E697E9603120E69E89E0312FD
:101F23000E6905F102120E690CF102120E6918F224
:101F330002120E6948F202120E696EF202120E6963
:101F4300A1F202120E69B3F202120E69EDF202124D
:101F53000E6953F302120E698CF302120E69D8F361
:101F630002120E6905F402120E6925F402120E69BB
:101F7300C69203120E69DE9203120E69BE93031218
:101F83000E69DD9903120E69349A03120E69719A70
:101F930003120E69B29A03120E69008003120E69CE
:101FA3001C8003120E69678003120E69838003127B
:101FB3000E69B48003120E69DB8003120E69BE81C1
:101FC30003120E69C88103120E69D58103120E69CB
:101FD3008C8203120E69A08203120E69A982031276
:101FE3000E691BFB02120E69FCFD02120E696D9B4A
:101FF30003120E6909A302120E699FA302120E694E
:10200300E4A302120E6924A402120E699FA4021211
:102013000E6925A502120E695E9F03120E69FE9CCE
:1020230003120E69289F03120E698B9F03120E6918
:10203300B39F03120E69009E03120E69F1B50112DC
:102043000E69B2B301120E6929B301120E69E3B22C
:1020530001120E6932B201120E6925B201120E6924
:1020630003AF01120E698A8202120E69A86A001276
:102073000E69A0AC01120E6939AB01120E69C5815C
:1020830002120E69278102120E6988AA01120E69D3
:10209300B8A801120E6907A701120E6998A60112CA
:1020A3000E693CA601120E69DFA501120E69B5A5E2
:1020B30001120E69ADA301120E6979A301120E6913
:1020C30037A301120E690CA301120E694EA201126D
:1020D3000E6901A201120E6977A001120E6974A0A4
:1020E30001120E697A9F01120E69469F01120E6951
:1020F300819E01120E69B49C01120E69679C011244
:102103000E69A28002120E69408002120E691280CB
:1021130002120E69008002120E69E7B801120E69FD
:10212300389C01120E69359C01120E69289C01121C
:102133000E69EB9B01120E69C9B801120E69DD9B92
:1021430001120E69899A01120E690D9A01120E6924
:10215300DA9901120E697E9901120E6963820212E5
:102163000E69078403120E69C9B701120E695199EA
:1021730001120E69589601120E695A9501120E69E1
:10218300E19401120E69AC9401120E697594011267
:102193000E69699401120E69C99301120E690593C0
:1021A30001120E69CB9001120E69F08D01120E69B6
:1021B300B18D01120E69508C01120E69FC8B011254
:1021C3000E69438B01120E69A98A01120E69488AAE
:1021D30001120E69828A01120E696C680000000008
:1021E30080FBE473000136360101000102010001A6
:1021F3000301000104010606050200000701003483
:102203000801000F090401010D0100FF0E08000081
:1022130017020000190100FF1A0100011B0100054C
:102223001C0100081D0200001F0100012001000124
:10223300210200002301000F2402000026010001F7
:1022430027010308280200FF2A0100072B0102408F
:102253002C0100002D0100012E0100012F0100FFC0
:1022630030010B1C310800003A0100080020202037
:102273002020202020202828282828202020202033
:102283002020202020202020202020202088101003
:10229300101010101010101010101010100404045F
:1022A300040404040404041010101010101041411D
:1022B300414141410101010101010101010101010B
:1022C300010101010101010110101010101042421F
:1022D30042424242020202020202020202020202DB
:1022E3000202020202020202101010102003007107
:1022F300003001600011007000310220035004809F
:10230300001000610000001400630073007200629B
:102313000043000000130006000000000004001248
:102323000000000000000000000400040037003734
:10233300003C0244000000000000000000650000B3
:10234300003500810000000500000083000000014B
:1023530001710101010101110101013101010101BA
:10236300018001100161013B0014006301730172DC
:1023730001620143010001130106013D013500041F
:1023830001120100010001000100010401040133F5
:102393000133013C014401320136000001000165B3
:1023A3000100013500810100010501820183010063
:1023B300010103710301030103010301030103226B
:1023C30003020301031003000300030003000300DF
:1023D3000300030003420300032403060300030076
:1023E3000304031203250323032503230304030424
:1023F300030003000300034403000300032303005B
:102403000365032100350381030003050300030073
:102413000300030302710230016002110270020122
:1024230002020202028002100261023A00410063CA
:1024330002730272026202430200021302380000B6
:10244300020002040212020002000200020002045F
:10245300020402370037003C024402000239000044
:1024630002000265020002350281020002050282B7
:10247300028302000236000100060000000F000084
:10248300000000000000000000000003FFFF000048
:102493000403FFFF0000FFFF0FF4010005C4040362
:1024A30020000100000B00000000000000000301F9
:1024B300030003000400080010001F003E007B001F
:1024C300F600EC01D703AF075D0FB91E713D0000A5
:1024D300F2152216F815FE151C1610160A162816E4
:1024E3002E16341640160416EC15E61501003E1B95
:1024F3000200D81A0300DE1A0400E41A0500EA1ADF
:102503000600F61AFFFF0000D5C5C5B5A5A595853C
:102513008575756565555545453535252515050A73
:102523007013023A13054C130740130C28130D3490
:1025330013FF00009C36063A703DD9404344AD4733
:10254300174B814EEA5100160F00000B150B0200CA
:1025530002220F32000006567777777777777777FF
:102563007777777777777700010203040506070803
:10257300090A0B0C0D0E0FD616E816EE16BC15F451
:1025830016B615C2154E176C177217541760175AE3
:102593001700383C3E363B3B352B432C0003494860
:1025A300424D1817250502303016181920231A1C1E
:1025B3001E300C0E020B040B0A0708000F00011952
:1025C3001618161615230300303017181921301B5F
:1025D3001D1F3016163A16661746164C164217FA82
:1025E3001600170C1706170005150D09100804002F
:1025F300000000000000BE040A15000E00040004E1
:102603000508040C0FC082C083E99004BBF0E4907A
:102613000470F0121F709004CEE4F0A3F09004BC99
:10262300F0A3F01214D2121F76900440E4F0A3F04A
:102633009004DEE07002A3E060099004DE124BB167
:102643001221E5902607E493FA7902121FD002487B
:102653002A74F2120957EAFEEBFF74805FF9E47003
:1026630001E9706CEEA2E040030226F0900475E0ED
:10267300640F700B7900121310E9600312281674AB
:10268300016EFAEFFB0227FB0CEC75F003A4A9F033
:102693002422F582E93425F583E49364FF602AE478
:1026A30093FA8508828B83E06A70DDAA08EC75F0E3
:1026B30003A42423F582E93425F583E493C0E0746D
:1026C3000193F583D0821221E5AA08AB09121844BD
:1026D3009004BBE0F91218508A088B09EA7001EBE9
:1026E30060047C0080A3EEFA74806F80975420709E
:1026F300030227C7750A007C027D007A2012280B8B
:102703007C0079047A007B001213A68A088B098067
:10271300187401850882850983A3A3A3A3A3A3A394
:10272300A3A3F0850C08850D09E5087002E509608F
:102733006E7C007904AA08AB091213A68A0C8B0DD0
:10274300750A01E5082404125C6124FFF0A3E03458
:10275300FF123A727002A3E070C98508828509836B
:10276300A3A3A3A3A3A3A3A3A3A3E0640170A2852C
:102773000882850983A3A3A3A3A3A3E054047091B0
:102783007406850882850983A3A3A3A3A3A3A3A394
:10279300A3F07AB78508828509831228F58084120D
:1027A30013767C0079017A007B001213A6EA70018C
:1027B300EB7009E50A70057A20124B2C74206EFA2F
:1027C300EF02268774025FF9E47001E9600A1214CC
:1027D3009CEEFA74020226ED74045FF9E47001E9D9
:1027E3006012124CD91249AB7901122F6FEEFA74B1
:1027F300046F80CD7A007B008003120EB47F060243
:102803000B6AEAFCEBFD7A017B009004BBE0F91252
:10281300194622901522124F5412132222C082C04D
:102823008374EA120F46851082851183AA82AB83D3
:10283300794B121FA6740812116C7402F0740912FA
:10284300116CAA82AB837950121FA6741312116CF8
:10285300125135121FC4741602482774F412095713
:10286300EAFEEBFF7508018E828F83A3A3A3A3A3C4
:10287300A3E05440600D8E828F8312401EFAA3E0C2
:10288300FB800312140674FE6A700374FF6B6030DE
:102893008E828F83124BB1124B7E121460E98E82AB
:1028A3008F8360061228E3E480051228E374011283
:1028B30036DFFAA3E0FB121FCAE9F509700580129F
:1028C3007509CDAA098E828F831228F5E9600375F5
:1028D3000800A908EEFAEFFB121382A909023533A7
:1028E300E0240DF8A3E01228ED223400F988828950
:1028F3008322E0240C124F64F912131C2274F61283
:102903000957E9FEEAFF7A0F7B0012183EEA7001CD
:10291300EB6019740C8A828B83F0EEA3A3F0EF8A29
:10292300828B83A3F0124C19790080027910024B39
:1029330089C082C083900475E0640F7016EA700149
:10294300EB6010900470E064086005E064047003B9
:1029530012280502482A74F412095774FD120F460F
:10296300EAFEEBFF8E828F83A3A3E0F91213AC8AF6
:10297300088B09EA7001EB7003022AA08E828F8311
:10298300A3E064F160288E828F83A3E064CD601E90
:102993008E828F83A3E0641A60148E828F83A3E0F8
:1029A30064E9600A8E828F83A3E064E1701E79007C
:1029B300121382E96016850882850983A3A3A3A362
:1029C300A3A3E04420F0A3E0F0022A6F8E828F835A
:1029D300A3E0C0E0740212116CD0E0124729125335
:1029E300D4123409125945851082851183AA82AB0A
:1029F30083700512129280031214488E828F83A370
:102A0300E064F160678E828F83A3E064CD605D8EA6
:102A1300828F83A3E0641A60538E828F83A3E06462
:102A2300E160498E828F83A3E064F0603F740212F9
:102A3300116CE064B76035850882850983122AAC7E
:102A4300750A01780A120E8A740312116CE0F50AF2
:102A5300780A120E8AEE240C122E51123E4DA3A3B5
:102A6300A3A3A3123E45123445120EB485088285F2
:102A73000983A3A3A3A3A3A3A3A3A3E06402701244
:102A83007406850882850983A3A3A3A3A3A3A3A391
:102A9300A3F08E828F83A3A3E0F912138812137617
:102AA30090152612281902352EE0F8A3E0F9E8FA6A
:102AB300E9FB2274F4120957EAFEEBFF7508008E56
:102AC300828F83A3A3A3A3A3E060417508088E822A
:102AD3008F83A3A3A3A3A3A3A3A3A312400E700155
:102AE300EB601075082C8E828F83A3A3A3A3A3E0AE
:102AF300D2E0F08E828F83A3A3A3A3A3E054036445
:102B0300016003022B8F430811022B8FEE2418124E
:102B130059426030EE241A125942700F1256147043
:102B230003A3E06970667508228061EE241B122BF3
:102B3300A7241A124B22EE2419F582EF123E9912A2
:102B430012FE8048122B94700375080112561470FC
:102B530003A3E0697006E508D2E1F508E5088E8273
:102B63008F83A3A36011E07006E508D2E5801BE51F
:102B730008D2E6F5088003E06012124018F9121437
:102B83004EE964016006E508C2E0F508A9080235CC
:102B9300338E828F83A3A3A3A3A3A3A3A3A3124EC2
:102BA3001B640222F582EF12345A122BB122125304
:102BB300F4EE2274F012095774DB120F46EAFEEBAF
:102BC300FF8E828F83A3A3A3A3E06010901524E05C
:102BD3007002A3E0600690152412281974061211DE
:102BE3006CAC82AD838E828F83122E7B1253E6EE02
:102BF300241B125650741312116C1249AB74061233
:102C0300116CAA82AB8312132EE98510828511837E
:102C1300F0740C12116CE06022741D12116CE0FD53
:102C2300740712116CE0FC8E828F83124F4E790170
:102C3300122138E96003022E498014900458E060A1
:102C43000E851082851183E0A2E14003022E49859F
:102C53001082851183E0A2E6502E742312116C12A8
:102C6300401E6403700E742312116C124ECEA3E047
:102C7300640D6014740612116CAA82AB8312147271
:102C8300E964017003022E49EE242C122E511231F5
:102C9300387003A3E069701F7508007808120E8A64
:102CA3007808120E8AEE242EF582EF123E99122E28
:102CB3006C123445120EB4740912116CE0FA9004CC
:102CC3005EE06A6003022E49740C12116CE070031B
:102CD300022D90122E6C124F501214FC740112111B
:102CE3006C124B7E740112116CE07002A3E070034E
:102CF300022E49740712116CE0F88E828F83A3A30E
:102D0300E028F8A3E03400F9740D28F582E439F5DE
:102D130083E0FA740112116C122E60E06A601D7474
:102D23000112116C122E58EAF0908A2678081210BC
:102D3300F3740112116C122E6612111179047407C7
:102D430012116C1253DC2AFCA3E034008C82F5834D
:102D5300A3AA82AB8312182C8A088B098C0A8D0BC9
:102D6300740112116C122E60A3780C1210F3780CFC
:102D730079081210945003022E49908A327808126F
:102D83000FD8740112116C122E6612111190047077
:102D9300E064046008E064096003022E4985108240
:102DA300851183E0A2E55055EE242E125942C0E06E
:102DB300740312116CD0E0F0EE242F125942C0E0DC
:102DC300740412116CD0E0F0EE2430125942C0E0CA
:102DD300740512116CD0E0F0EE2424122E51120C63
:102DE3009C740712116CAC82AD83740A12116CAA25
:102DF30082AB831212987404120EB48049A2E65077
:102E030045742312116C124F5A7018741D12116CF1
:102E1300E064027031740612116CAA82AB8312143F
:102E23003C8023742312116C124ECEE0640770169B
:102E3300741D12116CE06404700C740612116CAAF8
:102E430082AB8312143674250252C6EE240BF5822C
:102E5300EF12345A22A3124ECFA3A3A322124E057C
:102E6300A3A3221241FA780822EE242A123457121D
:102E73002BB1241212345722A3A3A3A3E0F98E8209
:102E83008F83A3A32274F712095774F7120F46EA2C
:102E9300FEEBFF900470E06403600DE064016008E2
:102EA300E064096003022F6A8E828F83A3E06003CC
:102EB300022F467C007D007A027B00121F7CEE24E9
:102EC30002FAEF124C221256569004611249AB7962
:102ED30053121FAC7900122F6F900470E0640960E5
:102EE3000990046E124F501214F67401124BA87419
:102EF30004900470F0740112116CAA82AB83794AB6
:102F0300121FA6740112116CAC82AD837A667B0426
:102F1300121F949004611253F07A037B00121F7CFA
:102F23009004641253F07A047B00121F7C90045BBC
:102F3300E0A2E35004D2F08002C2F0124B8E1228BA
:102F43001680218E828F83A3AE82AF83FC7D007AAD
:102F5300037B10121F7C8E828F83E0F9122F6FE4A4
:102F6300900470F01213587409023E3D90046E12DF
:102F73004F541212A422C082C083900440E0700216
:102F8300A3E07041900470E0120D510003019B2FE8
:102F930005AA2F06B92FC82F900448E07002A3E0BA
:102FA300607B9004488070900444E07002A3E0606A
:102FB3006C9004448061900446E07002A3E0605D7D
:102FC3009004468052900440E07002A3E060051232
:102FD3003420702379009004BC800909EA1252CE90
:102FE300EB122E54123D347001EB70EF9004BC12BF
:102FF3004F5012129E8026900441122E59A3A3A370
:10300300E06402700512149080139004E4E07002EF
:10301300A3E060099004E4124BB11221E502482AAF
:1030230074F412095774FB120F468A088B09123184
:10303300217001EF700302311C74028E828F8312A0
:1030430051367950121FA6850882850983A3E06053
:103053000302310A90046EE064FF7004A3E064FF8E
:10306300603590046EE064FE7004A3E064FF6027A3
:103073008510828511831231387003A3E0696017CC
:1030830074EA850882850983A312345F7A6E7B0410
:103093007950121FAC80708510828511831256C738
:1030A3001249AB7A617B047953121FA69004611213
:1030B30049A27A647B04794B121FA67A637B047955
:1030C300E1121FA6900475E0C3940F50229004638D
:1030D300E0C0E0740212116CD0E0F0740412116CC1
:1030E3007401F0740212116CAA82AB83121FBE75B5
:1030F3000A00780A120E8A780A120E8A901545E0A1
:10310300F912343C120EB4850882850983123132D8
:10311300F07403900470124C1074050235307A0F6A
:103123007B0012183E8A0A8B0BAE0AAF0BEE22A36A
:1031330012495DA3221256CBE0682274F21209579A
:1031430074ED120F46EAFEEBFF8E828F83A3123ECD
:1031530068851082851183AC82AD838E828F83A3B1
:10316300A3A3A3122E7B124F4912136485108285E9
:103173001183E0706A8E828F83A3A3A3A3A3A3A367
:10318300A3E0C3940B4058850882850983A3A3A3B6
:10319300A3A3A3A3A3E064027045900470E06402B8
:1031A3006042E06406603D900440E07002A3E0608A
:1031B30005123420605E900470E064086005E064EA
:1031C30004701C740212116CE0F9740712116CACD8
:1031D30082AD83850882850983124F4712136A746F
:1031E300130227FD900440E07002A3E07026750AE5
:1031F30000780A120E8A780A120E8A123400122EEE
:1032030054123429FCA3E0FD850882850983123416
:1032130045120EB49004BC12420D9004BCE0F50AB2
:10322300A3E0F50B80378E828F83E0F8A312342955
:10323300687003A3E06970198E828F83A3A3E0FAF9
:10324300E508240DF582E5091259456A7003023237
:10325300D48E0A8F0BEE1252CEEF12420AEE700199
:10326300EF70C37A187B001218AA8A0C8B0DAE0C70
:10327300AF0DEE7001EF70030231E29004BCE07019
:1032830002A3E070059004BC800AE50A1252CEE561
:103293000B122E5412554A8E828F83124C3BEE240E
:1032A3000C122E5174FFF0E48E828F83A3A3A3A389
:1032B300A3123C95A3A3A312344EE4F0A3F0E508B4
:1032C300240B125C611233F6123A72C41233F6A362
:1032D300F0740112116C124C0AF0740212116C1288
:1032E3003418A3F0E508240DF582E509122E5412D3
:1032F3003133A3124D05A3A3125C7C1249AB7402B4
:1033030012116CE064016011740712116CAC82AD90
:1033130083EE240D12340F80117C087D0079FFEEBB
:10332300240DFAEF3400FB121826741212116CE00C
:10333300C0E0EE2415122E51D0E0F0901545E0C008
:10334300E0123400124B25D0E0C39A40030231E26D
:10335300123409122E54A3E05480F9E47001E97089
:1033630009900EE4E070030231E2740612116C124C
:103373003418700EE07062740412116CE07006026F
:1033830031E2E06014740512116CE0C0E0EE240C2D
:10339300124B22D0E0C39A502B85088285098312F1
:1033A3005C8A1249A9123400125945C0E0122E4E0C
:1033B300D0E0F0740512116CE0C0E0EE240C122E84
:1033C30051D0E0F0740612116CE0600D74018E822E
:1033D3008F83A3A3A3A3A3A3F0740412116CE070BF
:1033E300030231E274018E828F83A3A3A3A3A3F00C
:1033F3000231E2540F8E828F83A3A3A322E5082414
:1034030010F582E50922E508240B80F5FAEF340074
:10341300FB121F942212341C22E0023BE49004406E
:10342300123782640122E0F9850882850983A3A308
:10343300A3A3A3A3A3A3A3E02290046E1253F49027
:103443000464124F54121418740222A3F0EE2416CB
:1034530012345722F582EF3400F58322F07A617B30
:1034630004795312346A22121FAC7A647B04794BB9
:10347300121FAC2274F212095774F8120F468A0A0B
:103483008B0B8C0C8D0D8908851082851183AC8282
:10349300AD837583897582DB7408120DC4F509AC9D
:1034A3000AAD0B851082851183AA82AB831251303A
:1034B30070037509019004BC80158E828F83E065CB
:1034C3000C7004A3E0650D6023EE2416122E511236
:1034D300420DEE7001EF601FE50960DEAC0AAD0B33
:1034E300EE240DFAEF340012512F60DD8E828F83AC
:1034F300A3A3E0650870D2EEFAEFFB74080227FD80
:1035030074F71209579004BCE0FAA3E0800CEA2494
:10351300161242071218B0EEFAEFFBEA7001EB70D5
:10352300ED9004BCE4F0A3F0023E407403120EB429
:103533007F04020B6A74F21209578A0C8B0DECFE9E
:10354300EDFF890B8A828B831252D38A828B83127B
:1035530035FBEEF8EFF9A30EAF838A828B83A3A327
:10356300E0C454F0FA88828983E04A12360612498D
:103573005D123601E0333354FCFA8E828F83E04AC6
:10358300123601A3E033333354F8FA8E828F83E08B
:103593004AF008EFF9A30EAF83850C828B83A3A3B4
:1035A300A3A3A3A3E0A2E0E492E013135480FA8858
:1035B300828983E04AF0E50C2407F508EB1246C53F
:1035C300120E827C0812443C120EB41253B3E50C63
:1035D300240FF508E50D3400F5097808120E827CF6
:1035E3000312443C120EB4E50BC3940F400712368A
:1035F300C8124953F0022800A312495DF022123683
:1036030006A322F0850C828B83A3A3A32274F21258
:103613000957EAFEEBFF890B8C0C8D0D8E828F838D
:10362300E08C828D83123C9AAE82AF83E01247DA3C
:103633001236DEC41247DA1236D1E054038C828D7F
:10364300831236DCA2E2E492E08C828D831236DBB5
:10365300131313541F1247DA1236DAA2E7E492E087
:103663008C828D83A3A3A3A31236D18E088F0975F1
:103673000A007808120E827C087D00E50C240712EC
:103683005389120EB41253B38E088F097808120EA1
:10369300827C037D00E50C240F125389120EB4E5DE
:1036A3000BC3940F40148E828F83A3A3A3E0C0E0C7
:1036B3001236C8122E54D0E080071236C8122E5488
:1036C300E4F0022800E50C2412F582E50D22A3A301
:1036D300123C9A0EAF8322A3A3A3A3A3F08E828FDF
:1036E30083E02274F412095774F9120F46EAFEEBD1
:1036F300FF900440E07002A3E0601012377B640285
:103703007009EEFAEFFB12148A806890046EE06E83
:103713007003A3E06F705C74016960097A827B04B3
:10372300125130704E7A007B029004BBE0F91221F3
:1037330062EA7001EB703C90047178081210F38513
:1037430010828511837808121111900477E0C0E08C
:10375300740412116CD0E0F0740512116C7401F052
:10376300740612116C740212513612126EE96092D1
:1037730012127474070235309004401237822212F9
:1037830041FEA3A3E02274F6120957EAFEEBFF8E73
:10379300828F83A3858208858309E0F91212BC8591
:1037A3000882850983E064EB600A8E828F83A3E03D
:1037B30064E17007E48E828F83A3F01228167508E4
:1037C300017808120E8A8E828F83A3E0F5087808A9
:1037D300120E8A790012343C120EB4121376024B85
:1037E3008974F61209579004CDE0701F7C007901AB
:1037F3007A007B001213A6EA7001EB600E8A828BBB
:1038030083E07002A3E06003121316024B89C082A7
:10381300C083123C86401079FF1213A0E9FA902668
:1038230006E493C39A500479018002790002482A7E
:1038330074F11209578A0A8B0B890E7509008A8263
:103843008B83A3A3A3A3A3A3A3A3E0F91213AC8A1B
:103853000C8B0DAE0CAF0D750801EE7001EF60031C
:10386300023909850A82850B83A3A3A3A3A3A31209
:1038730053F0850A82850B83A3A3A3A3A3A3A3A3C6
:10388300E0F9850A82850B83124F501213948A0C38
:103893008B0DAE0CAF0DEE7001EF7003023A488E44
:1038A300828F83A3A3A3A3E4F0A3F0E50A240BFA76
:1038B300E50B124C22E0C0E0122E4ED0E0F01214C1
:1038C30066EE240C124B77750901EE2406F8EF120D
:1038D3005C64547FF0A3E054FC123A725404600316
:1038E30002398F90152AE0F50A750B007407780AE0
:1038F30012105D8E828F83A3A3A3A3A3A3E0450A23
:10390300F0A3E0450BF08E828F83A3A3A3A3A3A30D
:10391300E05480F50AA3E05403F50B7407780A1208
:1039230010E4E50E607974028E828F83A3A3A3A3B0
:103933001236DA240D124F60A2E2500B90045CE0C1
:10394300F8122E7E1249A9E50A7003023A16EE24F4
:1039530006F8EF3400F9E8FAE9FB8A828B83E05436
:103963007FFCA3E054FCFD74FF250AF50A74FF34C1
:1039730000F50B7407780A12105DE50A4CF8E50BA5
:103983004DF98A828B831249AB023A168E828F835A
:10399300A3A3A3A3A3A3E04480F0A3E0023908E513
:1039A3000A7005750800806B8E828F83A3A3A3A37F
:1039B300A3A3E0542060171218388A0A747F550AAB
:1039C300F8745F288E828F83A3A3A3A380278E829C
:1039D3008F83A3A3A3A3A3A3E05410600E121838EC
:1039E3008A0A740F550AF8740180D88E828F83A3D4
:1039F300A3A3A37401F0A3E4F074048E828F83A3C2
:103A0300A3A3A3A3A3A3A3A3123CA17001EB7003DD
:103A1300123A5274016509702F8E828F83A3A3A378
:103A2300A31251A5F9EEFAEFFB12139AE96019EE0E
:103A3300240C1259427002A3E06003123A5FEEFABB
:103A4300EFFB1218B0750800A9087F07020B6A7A0A
:103A5300207B009004BBE0F912186E22EE240C12B6
:103A63003457123A6922E0FAA3E0FB1218B022F0AD
:103A730088828983E02274F41209577508001213AF
:103A8300AC8A0A8B0BAE0AAF0BEE7001EF70030228
:103A93003B1E8E828F83A3A3A3A3A3A3A3A3A3E00D
:103AA300640670771213BE8E828F83A3A3A3A3A38E
:103AB300A3A3E05408F9E47001E9605C8E828F836C
:103AC300123E5C7A007B0012138EEA7001EB7048A1
:103AD300123B21121FD67C007D007A007B008022DE
:103AE3008E828F83123E567004A3E064FF60291216
:103AF3003B21121D00E9641A601E7C007D00EEFA72
:103B0300EFFB12138E8A088B09AE08AF09EE700122
:103B1300EF70CD7900121FDC750801022B8F900422
:103B23006E1251AB124F542274F71209578A828BCB
:103B330083E5827002E58370099004CE80068A8251
:103B43008B83A3A3123D347001EB602C8A828B8399
:103B5300A3A3A3A3A3A3A3E05408F9E47001E9601A
:103B6300DDEC7001ED60158A828B8312401E6C7050
:103B730003A3E06D70C880047A007B00023E4074AA
:103B8300F21209578A088B09890AECFEEDFF7A0EB7
:103B93007B001218AAEA7001EB603EE48A828B83F1
:103BA300A3A3A3A3A3A3A3A3123BDFE50A12470F77
:103BB300A3A31255468A828B83A3A3A3A3E4F01283
:103BC3003BDF12470D1253D4EA240CF582EB12406B
:103BD3000812470EA3A3F0A3F0022800125A448050
:103BE300058E828F83A3A3A3A3A3A32274F5120933
:103BF30057EAFEEBFF890A8C088D09EE7001EF602E
:103C0300597401650A701479011213A0E9FA902618
:103C130004E493C39A500F791180637404650A70A6
:103C230033123C8640F18E828F83A3A3A3A3A3A365
:103C3300A3A3A3E50A123C951253D28E828F83A3CA
:103C4300A3E4F0A3F09004CEE07002A3E09004CECE
:103C5300601B800A7402650A60CC79C1802012510E
:103C6300B87002A3E088828983A3A370F1EEF0A366
:103C7300EF123CA17001EB7003123A5279007F03FB
:103C8300020B6A79041213A0E9FA902603E493C3A2
:103C93009A22123C9AA322F08E828F83A322F07A77
:103CA300207B009004BBE0F9122162EA22C082C0AB
:103CB30083E9FC79009004CE801D8A828B83A3A3C1
:103CC300A3A3A3A3A3A3A3E06C600574FF6C70017B
:103CD300098A828B83A3A3123D347001EB70DB024C
:103CE300482A74F71209578A828B83E5827002E5AA
:103CF3008370099004CE80068A828B83A3A3123D2E
:103D0300347001EB60248A828B83A3A3A3A3A3A3B0
:103D1300A3A3A3E06970E1EC60148A828B83E0249F
:103D23000D1252DDA2E240D080047A007B00023EF5
:103D330040124F54EA22C082C0839004CE80068A88
:103D4300828B83A3A3123D347001EB60128A828BB2
:103D530083A3A3A3A3A3A3A3A3E06970E280047A2C
:103D6300007B0002482A12565AE82274F1120957BE
:103D73008A0A8B0B8C0C8D0D750800750900EA708F
:103D830001EB602E9004CE80068E828F83A3A31254
:103D9300420DEE7001EF601AAC0CAD0DEEFAEFFBC5
:103DA300850A82850B831221E5E9640170DB8E08A5
:103DB3008F09AA08AB09023A4D74F7120957900408
:103DC300CE1256567C007D00800DE8FCE9FD88820A
:103DD3008983A3A3125656E87001E96030EA68703C
:103DE30002EB6970E59004CE124F50E86A7002E965
:103DF3006B88828983A3A370081256569004CE80E1
:103E0300091256568C828D83A3A31249AB023E40FE
:103E130074F7120957EAFEEBFFEE7001EF6016121A
:103E230013B8123E727002A3E06003123A5FEEFA17
:103E3300EFFB1218B0023E40741F120EB47F010252
:103E43000B6A1253F48A828B8322E0F98A828B8372
:103E5300023BEA12402264FF22124022FCA3E0FD4F
:103E6300228E828F83A3A3E0F508A3E0F509228EB7
:103E7300828F83E0241C124F64123A6A8E828F83EE
:103E8300123A69EE240C123E8D22F582EF3400F5CE
:103E930083E022F582EB123E90F92274F212095765
:103EA30074FC120F46EAFEEBFF7508FE7509FF125C
:103EB300137CE960057911023FFDEE241512594286
:103EC300603790153FE0C43354E0C0E0E03333542F
:103ED300FCFAD0E04AC0E0EE2415122E51D0E012D5
:103EE3003C9512400E7001EB600F7508FF124CF108
:103EF300EE2415125942D2E0F08E828F83124E15B2
:103F03006006EE2412124005EE2413125942700388
:103F1300741EF012593F64017016900FB4E0600DE7
:103F2300900458E0700A8E828F83E070031240027F
:103F3300EE2414125942701590044DE0C0E0EE24B3
:103F430014122E51D0E0F090044DE004F08E828FD5
:103F530083E064017016EE240B12401B6402700CA4
:103F6300EE240F1259424440F0A3E0F085108285FD
:103F73001183AC82AD83EEFAEFFB1213D68A0A8B60
:103F83000B74FE6508700474FF64FF7003123E64D3
:103F9300EA7001EB60608E828F83E0C0E0740112EF
:103FA300116CD0E0F0740212116C12554A740112B4
:103FB300116C85820C85830D780C120E86EE240F0E
:103FC300122E51120CA0EE240E125942F50C780C4D
:103FD300120E8A740512116CE0F9AC08AD091213C4
:103FE300D07405120EB4E9FE74106E700BAA0AABFE
:103FF3000B1218B080027E10EEF974040227FDEE56
:104003002411F582EF12345AE4F022124F5479FF4F
:1040130012204EEA22EE241D12345712402222129D
:104023004EC4E022C082C08374DE120F468A828BA4
:1040330083A3A3A3A3125656740E12116CE8F0A324
:10404300E91240D9740C12116C1240D2240DF5827E
:10405300EB125945C0E0741A12116CD0E0F0125102
:10406300B1125653742012116C1240D22415F582EA
:10407300EB125945C0E0740812116CD0E0F0EA2449
:104083001CF582EB125653741212116C1249AB7465
:10409300FF851082851183F0740112116C74FFF097
:1040A300740212116C74FFF0908A26120C9C740433
:1040B30012116CAC82AD83740712116CAA82AB83AC
:1040C3001212987404120EB479007422024827E87D
:1040D300F0A3E9F0EA22F08A828B83A3A312565A53
:1040E3002274F012095774EE120F46741012116CF9
:1040F300124B7E8C088D09890B742212116CE0F52A
:104103000C742312116C12420D742512116CE0F51C
:104113000EA3E0F50F750A107A1E7B001218AA741D
:104123000212116C124B7E740212116CE07002A326
:10413300E070030241ED851082851183AA82AB836F
:104143007950124A3412116C1241F4A3124B7E744B
:104153000212116CE0240B1228E67402F012116CA7
:104163001241F47402F012116C124BB11253D47455
:104173000212116CE0241B1228E6E50BF074021204
:10418300116CE0240C1228E6E50CF0741012116C8B
:10419300124A3D12116CE0241C1228E6124B7E7465
:1041A3000812116C12554A740A12116CE50CF08551
:1041B3000E82850F83C082C083740D12116CAC8292
:1041C300AD83D083D0827403120DC4F9740212112B
:1041D3006CAA82AB83121382E964017005750A002D
:1041E3008008740212116C123A65A90A7412025201
:1041F300C61241FA023BEA1241FE22124EC8023BAA
:10420300EAEA240BF582EB12345AE0FEA3E0FF2224
:1042130074F0120957EAFEEBFF8C088D0974088EBF
:10422300828F8312344EE0600874108E828F83A3D2
:10423300F0EE241712594260098E828F83A3E02483
:1042430008F0EE241512594260088E828F83A3E092
:1042530004F08E828F83A3A3A3A3A3A3E060198E8C
:10426300828F83A3A3A3A3A3A3A3E0C3332402FA4C
:104273008E828F83A3E02AF012593F6005750B0EDF
:104283008003750B008E828F83A3E0C0E0EE240DC4
:10429300122E51D0E0FAE02A250B8C828D83F01286
:1042A300593F60051249D82AF0850882850983E0C1
:1042B300C39475400302442FE0FA7B001218AA8AC4
:1042C3000E8B0FEA7001EB7003024435EEFAEFFB3D
:1042D3001213DCEA850E82850F83124B7FEE2402D4
:1042E300F8124448124467F0EE24040808124448C4
:1042F300A3A3124467A3A3F0EE2413124453F0EED6
:104303002414124453A3F0750C08EE2416125942D8
:104313006013EE24181253EDE50E2408FAE50F128C
:104323003411750C10EE24171259426019EE241A39
:104333001253ED850C08E50E2508FAE50F1234112A
:104343007408250CF50C8E828F83A3A3A3A3A3A3C8
:10435300E060728E828F83A3A3A3A3A3A3A3E0C071
:10436300E0850C08E50E2508F582E50F122E54D0E2
:10437300E012445DE0C0E0850C08E50E2508F582F7
:10438300E50F122E54D0E012445DA3125392120E85
:10439300828E828F83A3A3A3A3A3A3A3E0C333FC2F
:1043A300E433FD850C08E50E2508FAE50F12538C5E
:1043B300120EB48E828F83A3A3A3A3A3A3A3E0C3EC
:1043C30033250CF50CEE24151259426010C0E0E5BC
:1043D3000E250CF582E50F122E54D0E0F0122E4E6E
:1043E300125392120E82EE240D125942FC7D008567
:1043F3000B088E828F83A31246E8E50828FAE43976
:10440300124441120EB412593F6027EE240D125983
:1044130042FD8E828F83A3E0FCAA0EAB0F790012BC
:104423002138E9600DAA0EAB0F1218B0750E007596
:104433000F00AA0EAB0F0252C97D00EEFAEFFB127A
:10444300181A740322EF125C68850E82850F83228B
:1044530012345712446EA3A3A322F0050C8E828F4D
:104463008302602312447912446E22E0850E828512
:104473000F83A3A3A322A3A3F088828983A3227417
:10448300F6120957EA2415F582EB12594560047CAC
:104493000180027C008A828B83E0FE90045E1245D9
:1044A300237402780812105DE5084EFEAF09EA2472
:1044B3001212451D7406780812105DE5084EF8E5E2
:1044C300094FF9ECFDE8FCED49FDEA241112451D05
:1044D3007409780812105DE5094DFDEA24161245AA
:1044E3001D740B780812105DE5094DFDEA241712BF
:1044F300451D740C780812105DE5094DFD8A828B09
:1045030083A3A3A3A3A3A3124523740A78081210B9
:104513005DECFAE5094DFB024B89F582EB12345A47
:10452300E0F5087509002274F012095774FE120FA2
:10453300468A0E8B0FECFEEDFFE98E828F831247C6
:104543000F12496A850E82850F83A3A31246E312D5
:1045530049941247311246E3124983124731A3A308
:10456300E0C0E0EE2411122E51D0E0124738A3A38D
:10457300A3E0C0E0EE2412122E51D0E01249EA600B
:104583000AE50E2408F8E50F1249B18E828F83A342
:10459300A3A3A3A3A3A3A3E060218E828F83A385F8
:1045A300820C85830D1246E8EE2415122E51124912
:1045B300AB850C82850D83E02408F08E828F83A364
:1045C300A3A3A3A3E0600F1246F48E828F83A3A359
:1045D300A3A3A3124742EE2418125942607C124649
:1045E300F4C0E0EE2419122E51D0E0124742F8E550
:1045F3000E28F582E50F125945C0E0EE241A122E5B
:1046030051D0E01247421246BBE433FB124713700A
:1046130002A3E060458E828F83A3E0F8E50E28F5C0
:1046230008E50F1246C5120E82EE2419125942C331
:1046330033FCE433FD740312116C124F50124442E5
:10464300120EB41246BB850C82850D83E02A1253E9
:104653009AEE241B122E511249AB8E828F83A3E054
:10466300FA8A08E50E2508F8E50F34001246CF1242
:1046730036DFC39AC0E0EE2417122E51D0E0126148
:104683003CE06031EE2417F508EF3400F5098508A6
:1046930082F583E024F2F0EE241DF8EF125C64242B
:1046A3000EFAA3E03400FB88828983EAF0A3EB12BD
:1046B30049D3C39AF00252C4EE2419123E8DC33378
:1046C300FA223400F509750A00780822F9EE241D50
:1046D3001246D722F582EF3400F583E8F0A3E922EE
:1046E300E0FA02444CE0F8E50E28F8E50F3400F94F
:1046F300228E828F83A385820C85830DE0F8E50EDD
:1047030028F582E50F123E9022A3A3A3F0023E48B0
:104713001218AA851082851183EAF0A3EB124724AD
:1047230022124729E022F085108285118322F0A30B
:10473300E912473822F0850E82850F83023BEAF0A7
:10474300850C82850D83E004F02274F41209578AE4
:10475300088B09EA1247E1F0EA1313543F1247DAD0
:10476300A3A3A3F0EAC413131247E1A3A3F0EB122C
:1047730047C7F08A0A8B0B7409780A1210E4E50A1A
:104783001247C7A3F08A0A8B0B740A780A1210E443
:10479300E50A5401C0E0EC2418F582ED122E54D042
:1047A300E0F08A0A8B0B740B780A1210E4E50A1204
:1047B30047D4F0740C78081210E4E5081247D4A328
:1047C300F00235331247CB2254018C828D83023B96
:1047D300E91247CBA3A322540F8C828D8322540367
:1047E3008C828D83A3A322C082C08379008A828BAB
:1047F30083A3A3A3A3A3A3E0900458600FE07022B4
:104803008A828B83A3A3E07019098016E060138A60
:10481300828B83124F47900461E06A7003A3E06BBD
:1048230070E78003120EB4D083D082020E6674F355
:104833001209578A0A8B0B890CECFEEDFF8A828BD7
:104843008312496A850A82850B83A3A312496112E5
:1048530049941249C21249611249831249C2A3A35E
:10486300E0C0E0EE2411122E51D0E01249C9A3A3F7
:10487300A3E0C0E0EE2412122E51D0E01249EA6008
:104883000AE50A2408F8E50B1249B18E828F83A347
:10489300A3A3A3A3A3A3A3E0601B8E828F83A3126E
:1048A3004971EE2415122E511249AB8508828509F0
:1048B30083E02408F08E828F83A3A3A3A3A3E060E5
:1048C300238E828F83A3858208858309E0F8E50A16
:1048D30028F582E50B124953A3A3F08508828509C5
:1048E30083E004F0EEFAEFFB1213EEE9705D8E82C3
:1048F3008F83A3A3A3A3A31231327025E0FC8C08FA
:10490300E50A2508FAE50B3400FBEE241D124B776C
:10491300E50CC39CC0E0EE2417122E51D0E0F080CA
:104923002A124971740E28F8E4391246CF1249D37A
:10493300FCE50CC39C24F2C39AFDEE2417122E51FE
:10494300EDF0AA0AAB0B79011221387F05020B6A3D
:1049530012345A12495DA3A3A322E0025C85E0FA54
:10496300850A82850B8322124F541213E822858213
:1049730008858309E0F8E50A28F8E50B3400F922F5
:10498300A3A3A3A3A3E0F9EAF8EE240B123457E898
:1049930022A3A3A3E0F9EA8E828F83A302602312EA
:1049A300565A8E828F83A3A3E8F0A3E9F022340042
:1049B300F9EE24131246D7123C9AE02408F022F0B1
:1049C300A3E91249C922F0850A82850B83023BEAD7
:1049D300F01249D822900459E0F912211AE9FA8514
:1049E3000882850983E022F074088E828F83A312E4
:1049F3006140A3E022C082C0837AD37B0479E212B0
:104A03001FA67AD37B0402482AC082C08390046124
:104A1300124F5002482AC082C08374FE120F46858B
:104A23001082851183AA82AB83794B124A340248E0
:104A330027121FA6851082851183124F54740222F8
:104A4300C082C083794A121FA602482A74F612094B
:104A5300579004DBE0FE04F0EEF91213ACEA7001A8
:104A6300EB70EEEE60EBF9024B8974F0120957EA32
:104A7300FEEBFF8C0E8D0F8908741012116CE0F59C
:104A83000D741112116CE0F50C7509001214FC8AF7
:104A93000A8B0BA80AA90BE87001E97013E50C70E7
:104AA3005DA908AC0EAD0FEEFAEFFB12151A806C80
:104AB300E508601FE82402F582E9124B25E5082A80
:104AC300FAE4340013EA13F07009740188828983CD
:104AD300A3A3F0E50C6045E50D701088828983E09F
:104AE300600214F0E49004EAF080319004EAE004F8
:104AF300F0FA90152BE06A70237509018003E460D6
:104B03001BE5096017121406EA6E7002EB6F700C56
:104B1300EEFAEFFB79011212B6124B2A0252C9F5D3
:104B230082EF123E90FA227A017B009004BBE0F9F7
:104B330012194C22C082C08374016A7001EB7007A2
:104B43007A01123A548014901522124B7EEA7001B6
:104B5300EB60051228058003124B2A02482AC08203
:104B6300C083901524124B7E02482AC082C08390D2
:104B7300152680F1F582EF3400F583EAF0A3EBF01C
:104B830022740D120EB47F02020B6AA2F0E492E0CB
:104B9300124B9C7952121FAC22851082851183F02F
:104BA300AA82AB8322124B9C7942121FAC22124E73
:104BB300C022AA82AB8312135E7ABE7B04794512AC
:104BC3001FAC2274F712095774ED120F46E9FE90D9
:104BD30004BA124F6B124BFD741212116CEE124B8E
:104BE300F2851082851183124BB57413023E3DF09A
:104BF3009014D0E0F97CBE7D04229014D0E0F97AC1
:104C0300BE7B041213642212341CA3A322F0124CA1
:104C13001522EEFAEFFB9004BBE0F912184A223496
:104C230000FB023E48F582EF124D2B22A3E088825F
:104C33008983F0A308A98322A3A3A3A3A3A3A3A364
:104C4300A374FEF0A374FFF02274F41209578A08C8
:104C53008B097A007B04124B2E124CD91249AB7488
:104C630009900470F01213FA8A0A8B0BAC0AAD0B8D
:104C7300E5082413F582E509122E54124F50125100
:104C8300306401704E1231217001EF604674028E60
:104C9300828F83F0E508241DF8E5091228ED124FF1
:104CA300508A828B83A3E0FC8A828B83A3A3E0FBDD
:104CB300EC8E828F83A3A3F0A3EB123A72F8122E29
:104CC3005812495D124CE3FAA3E0FB794A121FAC78
:104CD300124C1502353390044212565A901526226F
:104CE300A3F0E5082415F582E509123E9022EE248F
:104CF3000F123E8D4404F0A3E0F022124D0BA3A348
:104D0300A322124CFEA3A322F0850882850983A364
:104D1300A322EE2417124D281213FAEE241A12348A
:104D230057EA024B7FF582EF3400F5837401F022DA
:104D330074F612095774F3120F46EAFEEBFF7C0D6B
:104D43007D007900851082851183AA82AB831218B6
:104D530026EE241DF582EF124DFEE0F85420600884
:104D6300740C12116C7401F0E854806008740B1217
:104D7300116C7401F0E85440600A740A12116C74E7
:104D830001F0800A740A12116CE064017005EE24CC
:104D9300138003EE24151253ED740212116CAA82D0
:104DA300AB83121F94122E4E124EAF1249AB740AEC
:104DB30012116CE064017033124E0A703B12140638
:104DC3008A088B09A808A909EE240B1259426870B6
:104DD30003A3E06970221213FAEAFCEBFD740212DA
:104DE300116CAA82AB83125130600D85108285113C
:104DF30083AA82AB831212B0024B8412345A124E2E
:104E03000522124EC4A3228E828F83A3A3A3A3A33E
:104E1300A3A3A3A3124E1B22E0FAA3E0FB12146088
:104E2300E92274F612095774F3120F468A088B09A4
:104E3300ECFEEDFF7C0D7D007900851082851183EA
:104E4300AA82AB83125EB3A3A3A3A3A3A3A3A3A327
:104E5300124EAFE8F0A3E9124EB5A3E0FAA2E55073
:104E630008740B12116C7401F0EAA2E75008740A7B
:104E730012116C7401F0EAA2E6EE500424138002CE
:104E830024151253ED740212116CAA82AB83121F04
:104E930094850882850983A3A3E0C0E0740C1211F2
:104EA3006CD0E01251361212AA024B8412565A02E7
:104EB300472AF0EE241D123457124EC022124EC45C
:104EC30022124EC822E0F8124ECE22A3E0F58388C8
:104ED300822274F712095774E1120F46EAFEEBFFC0
:104EE3008E828F8312377EA2E050568E828F83127A
:104EF3002AAE8A828B83A3A3A3A3A3A3E054FEF0C9
:104F0300A3E0124F6B8A828B83E0241B124F60F95C
:104F13008A828B83E0241CFAA3E0124C22124F50A6
:104F23001213F4E9701B741D12116C124F5A701195
:104F3300851082851183AC82AD83EEFAEFFB1214E8
:104F430042023E3BA3A3A3A3A3A3A3A3A3124F5431
:104F530022E0FAA3E0FB22124022640422124F64EF
:104F630022F8A3E0125C6C22124729AC82AD8322A3
:104F7300E9FA790074046A600A740A6A60057403C2
:104F83006A700109020E6674F612095774208A8248
:104F93008B83F07401A3A3F01212628A088B09AE0B
:104FA30008AF09EE7001EF600774018E828F83F002
:104FB3009004AEE07003124D15EEFAEFFB024B893D
:104FC300C082C08374019004D0F0E9A2E35003745B
:104FD30003F0E9A2E15004E0D2E2F002482A74F6B9
:104FE30012095779007C008A088B097808120BB0E4
:104FF300F8FF07145012501250125012500B500F5A
:1050030050145008500C80097C0480050C80F67CF9
:10501300089004D0E05C6003098003EC600109029E
:105023004B8974F61209578A828B83E07014A3E0CC
:105033007002A3E0600C8A828B83124F4F122144CB
:1050430080047A007B00024B8974F512095774F3CC
:10505300120F46EAFEEBFF8C088D09750A12EE70FB
:1050630001EF70057900025121900461E06E700335
:10507300A3E06F70181213FAEAFCEBFDAA08AB0960
:105083001251307005750A018003750A00E485101A
:1050930082851183F0740112116CEEF0A3EF1251AB
:1050A30036121190E9602B740312116CAA82AB8340
:1050B30012215CE96401701A750A01740312116C00
:1050C300AC82AD83AA08AB091251306021750A0086
:1050D300801C7412650A70169004ADE06402700EB1
:1050E300AC08AD09EEFAEFFB1211AEE970DFAC08C4
:1050F300AD09EEFAEFFB121502E9FA740A6A7005BC
:10510300750A01801774A06A7012AC08AD09EEFA33
:10511300EFFB12150EEEFAEFFB121526A90A740D1A
:10512300120EB4023C812417FAE93414FB121F8EC9
:10513300E922E412513A2212513E22F0851082856F
:105143001183024BA374F7120957EAFEEBFF7508AC
:10515300008E828F83A3A3A3A3A3A3A3A3E06017BB
:10516300EE2415122BA7122E4F124F5012146CE976
:10517300640170037508018E828F83A3A3A3A3A385
:10518300A3A3E06018EE2413122E511251A5FAA323
:10519300E0FB12146CE964017003750801A90802AD
:1051A3003E401251AB0234311253F4025C85EA24BF
:1051B3000BF582EB2212565A88828983A3A3E0223D
:1051C30074F012095774F3120F46740312116CEC46
:1051D300F0A3EDF08A0E8B0F890B741D12116CE096
:1051E300F50A7E01EE12116C740AF0E97007E50A04
:1051F300C333240AF0851082851183AA82AB8312FC
:1052030014548A088B09EA7001EB70030252BE1230
:10521300420474091253BC450A1253C912116C1289
:1052230053A2E50B70307A008026EAC333F8E433E7
:10523300F9741E12116CE028F8A3E039F988828909
:10524300831252D3888289831235FBA30EAF830A5C
:10525300EAC3950A40D4E5082417F582E509124C00
:105263002B1213FAE508241AF582E509124B7A7416
:105273000512116CAC82AD83AA0EAB0F122066E946
:105283006021E5081252CEE509124C2B7405121168
:105293006CA882A983E5082418F582E509122E5427
:1052A3001249AB850882850983A3A3E50EF0A3E524
:1052B3000FF0AA08AB0912125CE9FEEEF9740D8037
:1052C300027402120EB47F08020B6A2416F58222BE
:1052D30012495DF0A3AE82AF8322FEA3E03400FF48
:1052E3000236E074F012095774FE120F46851082DD
:1052F300851183124B7E89088C0E8D0F7412121147
:105303006CE0F50B900F24E07002A3E06075E50BF1
:10531300C333F8E433F9740E28FAE439FB12183E68
:105323008A0C8B0DAE0CAF0DEE7001EF605574D48B
:105333008E828F8312539A1249A58E828F83A3A3E1
:10534300A3A3E508F0AC0EAD0FEE240512340FEE67
:10535300240D122E51E50BF0741312116C1253929B
:10536300120E82E50BC333FCE433FDEE240EFAEF99
:1053730012538C120EB4EEFAEFFB900F24124BB1C2
:105383001221E50252C4FAE50D3400FB024442E067
:10539300F508A3E00246C7124724F8A3E0F9221256
:1053A3002BB1FAEFFB1253AC22121F941253B32208
:1053B300EE2408FEEF3400FF228E828F83F0A3E5F4
:1053C3000BC43354E022F0A3AE82AF83740322A351
:1053D300A3E508F0A3E509F022E0FA8E828F83A308
:1053E300A3E022124F541213E2221234571253F441
:1053F30022E0023E5F74F7120957E9FE7C007D004C
:1054030078007900800C1254C82CFCA3E03DFD12F7
:105413005DEE1260405037E8FAE9FBEA75F012A43A
:10542300FAAFF075F012EBA42FFBEA249FF582EBA1
:105433003412F583E064FF60D61254C87002A3E00F
:1054430060CDEE60C11254CDE4F0A3F080C17800CA
:105453007900800C1254A72CFCA3E03DFD125DEEF5
:105463001260335038E8FAE9FBEA75F017A4FAAF93
:10547300F075F017EBA42FFBEA12602EEB1260011C
:105483007004A3E064FF60D51254A77002A3E06028
:10549300CCEE60C01254ACE4F0A3F080C0ECFAEDA3
:1054A300FB023E401254ACE022E8FAE9FBEA75F055
:1054B30017A4FA75F017EBA42FFBEA242AF582EB65
:1054C3003414F583221254CDE022E8FAE9FBEA759D
:1054D300F012A4FA75F012EBA42FFBEA24ABF582C9
:1054E300EB3412F5832274F6120957EAFEEBFF90B0
:1054F30004D1801388828983E06E7003A3E06F6018
:105503003F88828983A3A3123D697001E970E57A1C
:10551300047B001218AA8A088B09A808A909E87055
:1055230001E9601C8882898312554A9004D1124F85
:105533005088828983A3A3124B7E9004D11249AB76
:10554300024B89A3A3A3A3EEF0A3EFF02274F412FA
:1055530009577E009004D180070E88828983A3A314
:10556300123D697001E970F1EEC333FAE433FB12C3
:1055730056047001EB70030255FE7F009004D18046
:1055830024888289831253F0EFC333FAE433FBE5B3
:10559300082AF582E5093BF583ECF0A3EDF00F88CB
:1055A300828983A3A3123D697001E970D49004B684
:1055B3001256217003A3E06978087019120E86EE63
:1055C300F50A780A120E8A7C827D0479009004B66B
:1055D30012560D801A120E86EEF50A780A120E8AFA
:1055E3007C827D0479009004B6124F5012147874B3
:1055F30003120EB4AA08AB091218B01212740235C2
:10560300331218AA8A088B09EA22124F5412147E05
:10561300228E828F83A3A3A3A3A3A3A3A3A3125620
:105623005A900461E06822C082C08380128A828B10
:1056330083A3A31256569004D11249AB1218B0900B
:1056430004D1123D347001EB70E302482AF582EF76
:1056530012345A12565A22E002539D74F612095715
:1056630090046E12420D9004DC1256C71249AB7AB5
:10567300DC7B047950121FAC9004DC122BADFAEFE3
:10568300FB1215209004DC12420D900F26E07002ED
:10569300A3E0602D7A067B0012183EEA7001EB60EE
:1056A3002074D58A828B83F0E4A3A3F074018A82E9
:1056B3008B8312470C125546900F26124BB11221C1
:1056C300E5024B891256CB22E0F8A3E0F990046E71
:1056D30022C082C0839004DE74AEF0A37414F090F1
:1056E30004E074A8F0A37414F09004E274C6F0A369
:1056F3007414F002482AC082C083900461E064FEFF
:105703007004A3E064FF600E90045BE0A2E1500626
:105713001215081214B41214AE02482A74F61209B0
:10572300579004AFE060281218388A08A80890043C
:10573300AFE0FA75F0E8A4CAACF075F003A42CFB53
:10574300747F582AFCE43BFD7A007B0112280D028A
:105753004B8974F012095774FE120F46750F0085BA
:105763001082851183E4F0A3F01211CC7A0479003E
:105773001211A8EAFE7A0279011259367A037903E3
:105783001259361214E4EAF50E2EFF8E0AEA250AA0
:10579300F8E43400F9E87001E970030258968F08C1
:1057A3007509007402780812105DAA08AB09124744
:1057B300137002A3E070030258948F0875090074F4
:1057C30002780812105DAC08AD0979FF8510828557
:1057D3001183E0FA1218267508008056A9081211E1
:1057E300C68A0C8B0DEA7001EB60458A828B83A31A
:1057F300A3A3A3E0600464047036050F8A828B833D
:10580300A3A3A3A3A3A3A3A3A3A3E0F9121514859E
:105813001082851183120CA0EFFD850C82850D8308
:10582300A3A3A3A3A3A3A3A3A3E0125949120EB452
:10583300050885080A9025FCE493F8740193F9C3DD
:10584300E50A98E4995006E50FC39E408F7508005A
:10585300E508C3950E503CAA087B001214EA8A0C93
:105863008B0DEA7001EB6025851082851183120C84
:10587300A0EA240EF582EB125945FEEA240F123EEC
:1058830096121514EFFDEE125949120EB405088055
:10589300BF7F0075096A900459E0600CF912211A60
:1058A300E9FA745CC39AF50975F003E50984F50A0E
:1058B300851082851183E0F50EA3E0F50F750B00CB
:1058C300E5096006750B20750900E50AC39F5004BE
:1058D300AE0A8008EFFEE50BD2E6F50BAC0EAD0F7A
:1058E300AA0BEEF91214C0E9F50CE50BA2E6401F72
:1058F3001E750800800EE50E2404F50EE50F340036
:10590300F50F0508E508C39E40ECEECFC39FFFE902
:105913007006E50BA2E650A5851082851183E07021
:1059230002A3E06009851082851183123A65A90CF0
:105933000252C41211A8EACEC39EFE22EE2411F530
:1059430082EF123E9022FC850C82850D83124F5408
:105953001214BA74022274F2120957EAFEEBFF8999
:1059630008740E12116C124F50750A00750B0075F6
:105973000900800E8A0A8B0BEA2404FAEB3400FB3D
:105983000509E509C39D50218A828B83E064FF707A
:1059930004A3E064FF70158A828B8312554AEC8A54
:1059A300828B83125A3FE508F0022800E50A700251
:1059B300E50B600E850A82850B83C3E09EA3E09FFF
:1059C30050B28A828B83125656C3EE98EF9950A435
:1059D300EAF8EBF988828983E064FF7004A3E0644A
:1059E300FF6010E82404F8E93400F90509E509C368
:1059F3009D40E1880A890BE824FCF8E934FFF98823
:105A0300828983E0F50CA3E0F50D850A82850B837B
:105A1300E50CF0A3E50DF088828983125A33124412
:105A23007B125A33A3F0C3EA98EB9940C602599A02
:105A3300A3A3E0850A82850B83A3A322A3125A445E
:105A430022A3F08A8202360A74F312095774FD12F4
:105A53000F4689088A09ECFEEDFF750C0175F0030A
:105A6300E9A42402C0E0740112116CD0E0125B04BB
:105A73007001EB607C1251B1122E54125AFE8882CF
:105A83008983F0741F55084509A3F0125C4E75090C
:105A930000803D8E828F83E088828983F0A3A88271
:105AA300A9838E828F83124C2F8E828F83A3A3E0D0
:105AB3005407C4C0E08E828F83A3A3A3E05407FCE2
:105AC300D0E04C124C31EE2404FEEF3400FF050904
:105AD300E509C3950840BC8A828B83A3A374FC1297
:105AE3004C46EA2413F582EB124C2B12125CE9F5B7
:105AF3000CA90C7403120EB402494E12565A7408C0
:105B030022125B09EA2212513E1214542274F1123A
:105B130009578A0A8B0B7508007AFE7BFF7CFE7D92
